{
	"voting.sol": {
		"Voting": {
			"abi": [
				{
					"inputs": [],
					"stateMutability": "nonpayable",
					"type": "constructor"
				},
				{
					"anonymous": false,
					"inputs": [
						{
							"indexed": true,
							"internalType": "address",
							"name": "_from",
							"type": "address"
						},
						{
							"indexed": true,
							"internalType": "address",
							"name": "_to",
							"type": "address"
						}
					],
					"name": "OwnerTransferPropose",
					"type": "event"
				},
				{
					"inputs": [
						{
							"internalType": "address",
							"name": "_person",
							"type": "address"
						}
					],
					"name": "becomeOwner",
					"outputs": [
						{
							"internalType": "bool",
							"name": "",
							"type": "bool"
						}
					],
					"stateMutability": "nonpayable",
					"type": "function"
				},
				{
					"inputs": [],
					"name": "getValue",
					"outputs": [
						{
							"internalType": "uint8",
							"name": "",
							"type": "uint8"
						}
					],
					"stateMutability": "view",
					"type": "function"
				},
				{
					"inputs": [
						{
							"internalType": "uint8",
							"name": "_val",
							"type": "uint8"
						}
					],
					"name": "setValue",
					"outputs": [
						{
							"internalType": "bool",
							"name": "",
							"type": "bool"
						}
					],
					"stateMutability": "nonpayable",
					"type": "function"
				},
				{
					"inputs": [
						{
							"internalType": "uint256",
							"name": "_order",
							"type": "uint256"
						}
					],
					"name": "showOwner",
					"outputs": [
						{
							"internalType": "address",
							"name": "",
							"type": "address"
						}
					],
					"stateMutability": "view",
					"type": "function"
				},
				{
					"inputs": [
						{
							"internalType": "address",
							"name": "_person",
							"type": "address"
						}
					],
					"name": "showRealOwner",
					"outputs": [
						{
							"internalType": "string",
							"name": "",
							"type": "string"
						}
					],
					"stateMutability": "view",
					"type": "function"
				},
				{
					"inputs": [
						{
							"internalType": "address",
							"name": "_to",
							"type": "address"
						}
					],
					"name": "transferOwnership",
					"outputs": [],
					"stateMutability": "nonpayable",
					"type": "function"
				},
				{
					"inputs": [
						{
							"internalType": "uint256",
							"name": "_order",
							"type": "uint256"
						}
					],
					"name": "vote",
					"outputs": [
						{
							"internalType": "bool",
							"name": "",
							"type": "bool"
						}
					],
					"stateMutability": "nonpayable",
					"type": "function"
				}
			],
			"devdoc": {
				"kind": "dev",
				"methods": {},
				"version": 1
			},
			"evm": {
				"assembly": "    /* \"voting.sol\":948:4668  contract Voting is OwnerHelper {... */\n  mstore(0x40, 0x80)\n    /* \"voting.sol\":1337:1581  constructor() {... */\n  callvalue\n  dup1\n  iszero\n  tag_1\n  jumpi\n  0x00\n  dup1\n  revert\ntag_1:\n  pop\n    /* \"voting.sol\":1374:1375  0 */\n  0x00\n    /* \"voting.sol\":1361:1371  ownerCount */\n  0x02\n  0x14\n    /* \"voting.sol\":1361:1375  ownerCount = 0 */\n  0x0100\n  exp\n  dup2\n  sload\n  dup2\n  0xff\n  mul\n  not\n  and\n  swap1\n  dup4\n  0xff\n  and\n  mul\n  or\n  swap1\n  sstore\n  pop\n    /* \"voting.sol\":1397:1398  0 */\n  0x00\n    /* \"voting.sol\":1385:1394  voteCount */\n  0x02\n  0x15\n    /* \"voting.sol\":1385:1398  voteCount = 0 */\n  0x0100\n  exp\n  dup2\n  sload\n  dup2\n  0xff\n  mul\n  not\n  and\n  swap1\n  dup4\n  0xff\n  and\n  mul\n  or\n  swap1\n  sstore\n  pop\n    /* \"voting.sol\":1416:1417  0 */\n  0x00\n    /* \"voting.sol\":1408:1413  vote1 */\n  0x02\n  0x16\n    /* \"voting.sol\":1408:1417  vote1 = 0 */\n  0x0100\n  exp\n  dup2\n  sload\n  dup2\n  0xff\n  mul\n  not\n  and\n  swap1\n  dup4\n  0xff\n  and\n  mul\n  or\n  swap1\n  sstore\n  pop\n    /* \"voting.sol\":1435:1436  0 */\n  0x00\n    /* \"voting.sol\":1427:1432  vote2 */\n  0x02\n  0x17\n    /* \"voting.sol\":1427:1436  vote2 = 0 */\n  0x0100\n  exp\n  dup2\n  sload\n  dup2\n  0xff\n  mul\n  not\n  and\n  swap1\n  dup4\n  0xff\n  and\n  mul\n  or\n  swap1\n  sstore\n  pop\n    /* \"voting.sol\":1454:1455  0 */\n  0x00\n    /* \"voting.sol\":1446:1451  vote3 */\n  0x02\n  0x18\n    /* \"voting.sol\":1446:1455  vote3 = 0 */\n  0x0100\n  exp\n  dup2\n  sload\n  dup2\n  0xff\n  mul\n  not\n  and\n  swap1\n  dup4\n  0xff\n  and\n  mul\n  or\n  swap1\n  sstore\n  pop\n    /* \"voting.sol\":1476:1477  0 */\n  0x00\n    /* \"voting.sol\":1465:1473  getVote1 */\n  0x02\n  0x19\n    /* \"voting.sol\":1465:1477  getVote1 = 0 */\n  0x0100\n  exp\n  dup2\n  sload\n  dup2\n  0xff\n  mul\n  not\n  and\n  swap1\n  dup4\n  0xff\n  and\n  mul\n  or\n  swap1\n  sstore\n  pop\n    /* \"voting.sol\":1498:1499  0 */\n  0x00\n    /* \"voting.sol\":1487:1495  getVote2 */\n  0x02\n  0x1a\n    /* \"voting.sol\":1487:1499  getVote2 = 0 */\n  0x0100\n  exp\n  dup2\n  sload\n  dup2\n  0xff\n  mul\n  not\n  and\n  swap1\n  dup4\n  0xff\n  and\n  mul\n  or\n  swap1\n  sstore\n  pop\n    /* \"voting.sol\":1520:1521  0 */\n  0x00\n    /* \"voting.sol\":1509:1517  getVote3 */\n  0x02\n  0x1b\n    /* \"voting.sol\":1509:1521  getVote3 = 0 */\n  0x0100\n  exp\n  dup2\n  sload\n  dup2\n  0xff\n  mul\n  not\n  and\n  swap1\n  dup4\n  0xff\n  and\n  mul\n  or\n  swap1\n  sstore\n  pop\n    /* \"voting.sol\":1551:1554  0x0 */\n  0x00\n    /* \"voting.sol\":1531:1540  realOwner */\n  0x03\n  0x00\n    /* \"voting.sol\":1531:1555  realOwner = address(0x0) */\n  0x0100\n  exp\n  dup2\n  sload\n  dup2\n  0xffffffffffffffffffffffffffffffffffffffff\n  mul\n  not\n  and\n  swap1\n  dup4\n  0xffffffffffffffffffffffffffffffffffffffff\n  and\n  mul\n  or\n  swap1\n  sstore\n  pop\n    /* \"voting.sol\":1573:1574  0 */\n  0x00\n    /* \"voting.sol\":1565:1570  value */\n  0x03\n  0x14\n    /* \"voting.sol\":1565:1574  value = 0 */\n  0x0100\n  exp\n  dup2\n  sload\n  dup2\n  0xff\n  mul\n  not\n  and\n  swap1\n  dup4\n  0xff\n  and\n  mul\n  or\n  swap1\n  sstore\n  pop\n    /* \"voting.sol\":948:4668  contract Voting is OwnerHelper {... */\n  dataSize(sub_0)\n  dup1\n  dataOffset(sub_0)\n  0x00\n  codecopy\n  0x00\n  return\nstop\n\nsub_0: assembly {\n        /* \"voting.sol\":948:4668  contract Voting is OwnerHelper {... */\n      mstore(0x40, 0x80)\n      callvalue\n      dup1\n      iszero\n      tag_1\n      jumpi\n      0x00\n      dup1\n      revert\n    tag_1:\n      pop\n      jumpi(tag_2, lt(calldatasize, 0x04))\n      shr(0xe0, calldataload(0x00))\n      dup1\n      0x4c111ff8\n      gt\n      tag_10\n      jumpi\n      dup1\n      0x4c111ff8\n      eq\n      tag_6\n      jumpi\n      dup1\n      0x74a29267\n      eq\n      tag_7\n      jumpi\n      dup1\n      0x7594a9e6\n      eq\n      tag_8\n      jumpi\n      dup1\n      0xf2fde38b\n      eq\n      tag_9\n      jumpi\n      jump(tag_2)\n    tag_10:\n      dup1\n      0x0121b93f\n      eq\n      tag_3\n      jumpi\n      dup1\n      0x20965255\n      eq\n      tag_4\n      jumpi\n      dup1\n      0x2bad96ba\n      eq\n      tag_5\n      jumpi\n    tag_2:\n      0x00\n      dup1\n      revert\n        /* \"voting.sol\":2493:4239  function vote(uint _order) onlyOwner public returns(bool) {... */\n    tag_3:\n      tag_11\n      0x04\n      dup1\n      calldatasize\n      sub\n      dup2\n      add\n      swap1\n      tag_12\n      swap2\n      swap1\n      tag_13\n      jump\t// in\n    tag_12:\n      tag_14\n      jump\t// in\n    tag_11:\n      mload(0x40)\n      tag_15\n      swap2\n      swap1\n      tag_16\n      jump\t// in\n    tag_15:\n      mload(0x40)\n      dup1\n      swap2\n      sub\n      swap1\n      return\n        /* \"voting.sol\":4471:4547  function getValue() public view returns (uint8){... */\n    tag_4:\n      tag_17\n      tag_18\n      jump\t// in\n    tag_17:\n      mload(0x40)\n      tag_19\n      swap2\n      swap1\n      tag_20\n      jump\t// in\n    tag_19:\n      mload(0x40)\n      dup1\n      swap2\n      sub\n      swap1\n      return\n        /* \"voting.sol\":1587:2155  function becomeOwner(address _person) public returns (bool){... */\n    tag_5:\n      tag_21\n      0x04\n      dup1\n      calldatasize\n      sub\n      dup2\n      add\n      swap1\n      tag_22\n      swap2\n      swap1\n      tag_23\n      jump\t// in\n    tag_22:\n      tag_24\n      jump\t// in\n    tag_21:\n      mload(0x40)\n      tag_25\n      swap2\n      swap1\n      tag_16\n      jump\t// in\n    tag_25:\n      mload(0x40)\n      dup1\n      swap2\n      sub\n      swap1\n      return\n        /* \"voting.sol\":4553:4665  function setValue(uint8 _val) checkOwner public returns (bool){... */\n    tag_6:\n      tag_26\n      0x04\n      dup1\n      calldatasize\n      sub\n      dup2\n      add\n      swap1\n      tag_27\n      swap2\n      swap1\n      tag_28\n      jump\t// in\n    tag_27:\n      tag_29\n      jump\t// in\n    tag_26:\n      mload(0x40)\n      tag_30\n      swap2\n      swap1\n      tag_16\n      jump\t// in\n    tag_30:\n      mload(0x40)\n      dup1\n      swap2\n      sub\n      swap1\n      return\n        /* \"voting.sol\":2161:2487  function showOwner(uint _order) public view returns (address) {... */\n    tag_7:\n      tag_31\n      0x04\n      dup1\n      calldatasize\n      sub\n      dup2\n      add\n      swap1\n      tag_32\n      swap2\n      swap1\n      tag_13\n      jump\t// in\n    tag_32:\n      tag_33\n      jump\t// in\n    tag_31:\n      mload(0x40)\n      tag_34\n      swap2\n      swap1\n      tag_35\n      jump\t// in\n    tag_34:\n      mload(0x40)\n      dup1\n      swap2\n      sub\n      swap1\n      return\n        /* \"voting.sol\":4245:4465  function showRealOwner(address _person) public view returns (string memory){... */\n    tag_8:\n      tag_36\n      0x04\n      dup1\n      calldatasize\n      sub\n      dup2\n      add\n      swap1\n      tag_37\n      swap2\n      swap1\n      tag_23\n      jump\t// in\n    tag_37:\n      tag_38\n      jump\t// in\n    tag_36:\n      mload(0x40)\n      tag_39\n      swap2\n      swap1\n      tag_40\n      jump\t// in\n    tag_39:\n      mload(0x40)\n      dup1\n      swap2\n      sub\n      swap1\n      return\n        /* \"voting.sol\":398:944  function transferOwnership(address _to) onlyOwner public {... */\n    tag_9:\n      tag_41\n      0x04\n      dup1\n      calldatasize\n      sub\n      dup2\n      add\n      swap1\n      tag_42\n      swap2\n      swap1\n      tag_23\n      jump\t// in\n    tag_42:\n      tag_43\n      jump\t// in\n    tag_41:\n      stop\n        /* \"voting.sol\":2493:4239  function vote(uint _order) onlyOwner public returns(bool) {... */\n    tag_14:\n        /* \"voting.sol\":2545:2549  bool */\n      0x00\n        /* \"voting.sol\":306:312  owner1 */\n      dup1\n      0x00\n      swap1\n      sload\n      swap1\n      0x0100\n      exp\n      swap1\n      div\n      0xffffffffffffffffffffffffffffffffffffffff\n      and\n        /* \"voting.sol\":292:312  msg.sender == owner1 */\n      0xffffffffffffffffffffffffffffffffffffffff\n      and\n        /* \"voting.sol\":292:302  msg.sender */\n      caller\n        /* \"voting.sol\":292:312  msg.sender == owner1 */\n      0xffffffffffffffffffffffffffffffffffffffff\n      and\n      eq\n        /* \"voting.sol\":292:336  msg.sender == owner1 || msg.sender == owner2 */\n      dup1\n      tag_45\n      jumpi\n      pop\n        /* \"voting.sol\":330:336  owner2 */\n      0x01\n      0x00\n      swap1\n      sload\n      swap1\n      0x0100\n      exp\n      swap1\n      div\n      0xffffffffffffffffffffffffffffffffffffffff\n      and\n        /* \"voting.sol\":316:336  msg.sender == owner2 */\n      0xffffffffffffffffffffffffffffffffffffffff\n      and\n        /* \"voting.sol\":316:326  msg.sender */\n      caller\n        /* \"voting.sol\":316:336  msg.sender == owner2 */\n      0xffffffffffffffffffffffffffffffffffffffff\n      and\n      eq\n        /* \"voting.sol\":292:336  msg.sender == owner1 || msg.sender == owner2 */\n    tag_45:\n        /* \"voting.sol\":292:360  msg.sender == owner1 || msg.sender == owner2 || msg.sender == owner3 */\n      dup1\n      tag_46\n      jumpi\n      pop\n        /* \"voting.sol\":354:360  owner3 */\n      0x02\n      0x00\n      swap1\n      sload\n      swap1\n      0x0100\n      exp\n      swap1\n      div\n      0xffffffffffffffffffffffffffffffffffffffff\n      and\n        /* \"voting.sol\":340:360  msg.sender == owner3 */\n      0xffffffffffffffffffffffffffffffffffffffff\n      and\n        /* \"voting.sol\":340:350  msg.sender */\n      caller\n        /* \"voting.sol\":340:360  msg.sender == owner3 */\n      0xffffffffffffffffffffffffffffffffffffffff\n      and\n      eq\n        /* \"voting.sol\":292:360  msg.sender == owner1 || msg.sender == owner2 || msg.sender == owner3 */\n    tag_46:\n        /* \"voting.sol\":284:361  require(msg.sender == owner1 || msg.sender == owner2 || msg.sender == owner3) */\n      tag_47\n      jumpi\n      0x00\n      dup1\n      revert\n    tag_47:\n        /* \"voting.sol\":2579:2580  1 */\n      0x01\n        /* \"voting.sol\":2569:2575  _order */\n      dup3\n        /* \"voting.sol\":2569:2580  _order == 1 */\n      eq\n        /* \"voting.sol\":2569:2595  _order == 1 || _order == 2 */\n      dup1\n      tag_49\n      jumpi\n      pop\n        /* \"voting.sol\":2594:2595  2 */\n      0x02\n        /* \"voting.sol\":2584:2590  _order */\n      dup3\n        /* \"voting.sol\":2584:2595  _order == 2 */\n      eq\n        /* \"voting.sol\":2569:2595  _order == 1 || _order == 2 */\n    tag_49:\n        /* \"voting.sol\":2569:2610  _order == 1 || _order == 2 || _order == 3 */\n      dup1\n      tag_50\n      jumpi\n      pop\n        /* \"voting.sol\":2609:2610  3 */\n      0x03\n        /* \"voting.sol\":2599:2605  _order */\n      dup3\n        /* \"voting.sol\":2599:2610  _order == 3 */\n      eq\n        /* \"voting.sol\":2569:2610  _order == 1 || _order == 2 || _order == 3 */\n    tag_50:\n        /* \"voting.sol\":2561:2611  require(_order == 1 || _order == 2 || _order == 3) */\n      tag_51\n      jumpi\n      0x00\n      dup1\n      revert\n    tag_51:\n        /* \"voting.sol\":2639:2645  owner1 */\n      0x00\n      dup1\n      sload\n      swap1\n      0x0100\n      exp\n      swap1\n      div\n      0xffffffffffffffffffffffffffffffffffffffff\n      and\n        /* \"voting.sol\":2625:2645  msg.sender == owner1 */\n      0xffffffffffffffffffffffffffffffffffffffff\n      and\n        /* \"voting.sol\":2625:2635  msg.sender */\n      caller\n        /* \"voting.sol\":2625:2645  msg.sender == owner1 */\n      0xffffffffffffffffffffffffffffffffffffffff\n      and\n      eq\n        /* \"voting.sol\":2625:2659  msg.sender == owner1 && vote1 == 0 */\n      dup1\n      iszero\n      tag_52\n      jumpi\n      pop\n        /* \"voting.sol\":2658:2659  0 */\n      0x00\n        /* \"voting.sol\":2649:2654  vote1 */\n      0x02\n      0x16\n      swap1\n      sload\n      swap1\n      0x0100\n      exp\n      swap1\n      div\n      0xff\n      and\n        /* \"voting.sol\":2649:2659  vote1 == 0 */\n      0xff\n      and\n      eq\n        /* \"voting.sol\":2625:2659  msg.sender == owner1 && vote1 == 0 */\n    tag_52:\n        /* \"voting.sol\":2621:2920  if (msg.sender == owner1 && vote1 == 0){... */\n      iszero\n      tag_53\n      jumpi\n        /* \"voting.sol\":2688:2689  1 */\n      0x01\n        /* \"voting.sol\":2678:2684  _order */\n      dup3\n        /* \"voting.sol\":2678:2689  _order == 1 */\n      eq\n        /* \"voting.sol\":2674:2887  if (_order == 1){... */\n      iszero\n      tag_54\n      jumpi\n        /* \"voting.sol\":2708:2716  getVote1 */\n      0x02\n      0x19\n        /* \"voting.sol\":2708:2718  getVote1++ */\n      dup2\n      dup2\n      swap1\n      sload\n      swap1\n      0x0100\n      exp\n      swap1\n      div\n      0xff\n      and\n      dup1\n      swap3\n      swap2\n      swap1\n      tag_55\n      swap1\n      tag_56\n      jump\t// in\n    tag_55:\n      swap2\n      swap1\n      0x0100\n      exp\n      dup2\n      sload\n      dup2\n      0xff\n      mul\n      not\n      and\n      swap1\n      dup4\n      0xff\n      and\n      mul\n      or\n      swap1\n      sstore\n      pop\n      pop\n        /* \"voting.sol\":2674:2887  if (_order == 1){... */\n      jump(tag_57)\n    tag_54:\n        /* \"voting.sol\":2765:2766  2 */\n      0x02\n        /* \"voting.sol\":2755:2761  _order */\n      dup3\n        /* \"voting.sol\":2755:2766  _order == 2 */\n      eq\n        /* \"voting.sol\":2751:2887  if (_order == 2){... */\n      iszero\n      tag_58\n      jumpi\n        /* \"voting.sol\":2785:2793  getVote2 */\n      0x02\n      0x1a\n        /* \"voting.sol\":2785:2795  getVote2++ */\n      dup2\n      dup2\n      swap1\n      sload\n      swap1\n      0x0100\n      exp\n      swap1\n      div\n      0xff\n      and\n      dup1\n      swap3\n      swap2\n      swap1\n      tag_59\n      swap1\n      tag_56\n      jump\t// in\n    tag_59:\n      swap2\n      swap1\n      0x0100\n      exp\n      dup2\n      sload\n      dup2\n      0xff\n      mul\n      not\n      and\n      swap1\n      dup4\n      0xff\n      and\n      mul\n      or\n      swap1\n      sstore\n      pop\n      pop\n        /* \"voting.sol\":2751:2887  if (_order == 2){... */\n      jump(tag_60)\n    tag_58:\n        /* \"voting.sol\":2842:2843  3 */\n      0x03\n        /* \"voting.sol\":2832:2838  _order */\n      dup3\n        /* \"voting.sol\":2832:2843  _order == 3 */\n      eq\n        /* \"voting.sol\":2828:2887  if (_order == 3){... */\n      iszero\n      tag_61\n      jumpi\n        /* \"voting.sol\":2862:2870  getVote3 */\n      0x02\n      0x1b\n        /* \"voting.sol\":2862:2872  getVote3++ */\n      dup2\n      dup2\n      swap1\n      sload\n      swap1\n      0x0100\n      exp\n      swap1\n      div\n      0xff\n      and\n      dup1\n      swap3\n      swap2\n      swap1\n      tag_62\n      swap1\n      tag_56\n      jump\t// in\n    tag_62:\n      swap2\n      swap1\n      0x0100\n      exp\n      dup2\n      sload\n      dup2\n      0xff\n      mul\n      not\n      and\n      swap1\n      dup4\n      0xff\n      and\n      mul\n      or\n      swap1\n      sstore\n      pop\n      pop\n        /* \"voting.sol\":2828:2887  if (_order == 3){... */\n    tag_61:\n        /* \"voting.sol\":2751:2887  if (_order == 2){... */\n    tag_60:\n        /* \"voting.sol\":2674:2887  if (_order == 1){... */\n    tag_57:\n        /* \"voting.sol\":2908:2909  1 */\n      0x01\n        /* \"voting.sol\":2900:2905  vote1 */\n      0x02\n      0x16\n        /* \"voting.sol\":2900:2909  vote1 = 1 */\n      0x0100\n      exp\n      dup2\n      sload\n      dup2\n      0xff\n      mul\n      not\n      and\n      swap1\n      dup4\n      0xff\n      and\n      mul\n      or\n      swap1\n      sstore\n      pop\n        /* \"voting.sol\":2621:2920  if (msg.sender == owner1 && vote1 == 0){... */\n    tag_53:\n        /* \"voting.sol\":2947:2953  owner2 */\n      0x01\n      0x00\n      swap1\n      sload\n      swap1\n      0x0100\n      exp\n      swap1\n      div\n      0xffffffffffffffffffffffffffffffffffffffff\n      and\n        /* \"voting.sol\":2933:2953  msg.sender == owner2 */\n      0xffffffffffffffffffffffffffffffffffffffff\n      and\n        /* \"voting.sol\":2933:2943  msg.sender */\n      caller\n        /* \"voting.sol\":2933:2953  msg.sender == owner2 */\n      0xffffffffffffffffffffffffffffffffffffffff\n      and\n      eq\n        /* \"voting.sol\":2933:2967  msg.sender == owner2 && vote2 == 0 */\n      dup1\n      iszero\n      tag_63\n      jumpi\n      pop\n        /* \"voting.sol\":2966:2967  0 */\n      0x00\n        /* \"voting.sol\":2957:2962  vote2 */\n      0x02\n      0x17\n      swap1\n      sload\n      swap1\n      0x0100\n      exp\n      swap1\n      div\n      0xff\n      and\n        /* \"voting.sol\":2957:2967  vote2 == 0 */\n      0xff\n      and\n      eq\n        /* \"voting.sol\":2933:2967  msg.sender == owner2 && vote2 == 0 */\n    tag_63:\n        /* \"voting.sol\":2929:3228  if (msg.sender == owner2 && vote2 == 0){... */\n      iszero\n      tag_64\n      jumpi\n        /* \"voting.sol\":2996:2997  1 */\n      0x01\n        /* \"voting.sol\":2986:2992  _order */\n      dup3\n        /* \"voting.sol\":2986:2997  _order == 1 */\n      eq\n        /* \"voting.sol\":2982:3195  if (_order == 1){... */\n      iszero\n      tag_65\n      jumpi\n        /* \"voting.sol\":3016:3024  getVote1 */\n      0x02\n      0x19\n        /* \"voting.sol\":3016:3026  getVote1++ */\n      dup2\n      dup2\n      swap1\n      sload\n      swap1\n      0x0100\n      exp\n      swap1\n      div\n      0xff\n      and\n      dup1\n      swap3\n      swap2\n      swap1\n      tag_66\n      swap1\n      tag_56\n      jump\t// in\n    tag_66:\n      swap2\n      swap1\n      0x0100\n      exp\n      dup2\n      sload\n      dup2\n      0xff\n      mul\n      not\n      and\n      swap1\n      dup4\n      0xff\n      and\n      mul\n      or\n      swap1\n      sstore\n      pop\n      pop\n        /* \"voting.sol\":2982:3195  if (_order == 1){... */\n      jump(tag_67)\n    tag_65:\n        /* \"voting.sol\":3073:3074  2 */\n      0x02\n        /* \"voting.sol\":3063:3069  _order */\n      dup3\n        /* \"voting.sol\":3063:3074  _order == 2 */\n      eq\n        /* \"voting.sol\":3059:3195  if (_order == 2){... */\n      iszero\n      tag_68\n      jumpi\n        /* \"voting.sol\":3093:3101  getVote2 */\n      0x02\n      0x1a\n        /* \"voting.sol\":3093:3103  getVote2++ */\n      dup2\n      dup2\n      swap1\n      sload\n      swap1\n      0x0100\n      exp\n      swap1\n      div\n      0xff\n      and\n      dup1\n      swap3\n      swap2\n      swap1\n      tag_69\n      swap1\n      tag_56\n      jump\t// in\n    tag_69:\n      swap2\n      swap1\n      0x0100\n      exp\n      dup2\n      sload\n      dup2\n      0xff\n      mul\n      not\n      and\n      swap1\n      dup4\n      0xff\n      and\n      mul\n      or\n      swap1\n      sstore\n      pop\n      pop\n        /* \"voting.sol\":3059:3195  if (_order == 2){... */\n      jump(tag_70)\n    tag_68:\n        /* \"voting.sol\":3150:3151  3 */\n      0x03\n        /* \"voting.sol\":3140:3146  _order */\n      dup3\n        /* \"voting.sol\":3140:3151  _order == 3 */\n      eq\n        /* \"voting.sol\":3136:3195  if (_order == 3){... */\n      iszero\n      tag_71\n      jumpi\n        /* \"voting.sol\":3170:3178  getVote3 */\n      0x02\n      0x1b\n        /* \"voting.sol\":3170:3180  getVote3++ */\n      dup2\n      dup2\n      swap1\n      sload\n      swap1\n      0x0100\n      exp\n      swap1\n      div\n      0xff\n      and\n      dup1\n      swap3\n      swap2\n      swap1\n      tag_72\n      swap1\n      tag_56\n      jump\t// in\n    tag_72:\n      swap2\n      swap1\n      0x0100\n      exp\n      dup2\n      sload\n      dup2\n      0xff\n      mul\n      not\n      and\n      swap1\n      dup4\n      0xff\n      and\n      mul\n      or\n      swap1\n      sstore\n      pop\n      pop\n        /* \"voting.sol\":3136:3195  if (_order == 3){... */\n    tag_71:\n        /* \"voting.sol\":3059:3195  if (_order == 2){... */\n    tag_70:\n        /* \"voting.sol\":2982:3195  if (_order == 1){... */\n    tag_67:\n        /* \"voting.sol\":3216:3217  1 */\n      0x01\n        /* \"voting.sol\":3208:3213  vote2 */\n      0x02\n      0x17\n        /* \"voting.sol\":3208:3217  vote2 = 1 */\n      0x0100\n      exp\n      dup2\n      sload\n      dup2\n      0xff\n      mul\n      not\n      and\n      swap1\n      dup4\n      0xff\n      and\n      mul\n      or\n      swap1\n      sstore\n      pop\n        /* \"voting.sol\":2929:3228  if (msg.sender == owner2 && vote2 == 0){... */\n    tag_64:\n        /* \"voting.sol\":3255:3261  owner3 */\n      0x02\n      0x00\n      swap1\n      sload\n      swap1\n      0x0100\n      exp\n      swap1\n      div\n      0xffffffffffffffffffffffffffffffffffffffff\n      and\n        /* \"voting.sol\":3241:3261  msg.sender == owner3 */\n      0xffffffffffffffffffffffffffffffffffffffff\n      and\n        /* \"voting.sol\":3241:3251  msg.sender */\n      caller\n        /* \"voting.sol\":3241:3261  msg.sender == owner3 */\n      0xffffffffffffffffffffffffffffffffffffffff\n      and\n      eq\n        /* \"voting.sol\":3241:3275  msg.sender == owner3 && vote3 == 0 */\n      dup1\n      iszero\n      tag_73\n      jumpi\n      pop\n        /* \"voting.sol\":3274:3275  0 */\n      0x00\n        /* \"voting.sol\":3265:3270  vote3 */\n      0x02\n      0x18\n      swap1\n      sload\n      swap1\n      0x0100\n      exp\n      swap1\n      div\n      0xff\n      and\n        /* \"voting.sol\":3265:3275  vote3 == 0 */\n      0xff\n      and\n      eq\n        /* \"voting.sol\":3241:3275  msg.sender == owner3 && vote3 == 0 */\n    tag_73:\n        /* \"voting.sol\":3237:3536  if (msg.sender == owner3 && vote3 == 0){... */\n      iszero\n      tag_74\n      jumpi\n        /* \"voting.sol\":3304:3305  1 */\n      0x01\n        /* \"voting.sol\":3294:3300  _order */\n      dup3\n        /* \"voting.sol\":3294:3305  _order == 1 */\n      eq\n        /* \"voting.sol\":3290:3503  if (_order == 1){... */\n      iszero\n      tag_75\n      jumpi\n        /* \"voting.sol\":3324:3332  getVote1 */\n      0x02\n      0x19\n        /* \"voting.sol\":3324:3334  getVote1++ */\n      dup2\n      dup2\n      swap1\n      sload\n      swap1\n      0x0100\n      exp\n      swap1\n      div\n      0xff\n      and\n      dup1\n      swap3\n      swap2\n      swap1\n      tag_76\n      swap1\n      tag_56\n      jump\t// in\n    tag_76:\n      swap2\n      swap1\n      0x0100\n      exp\n      dup2\n      sload\n      dup2\n      0xff\n      mul\n      not\n      and\n      swap1\n      dup4\n      0xff\n      and\n      mul\n      or\n      swap1\n      sstore\n      pop\n      pop\n        /* \"voting.sol\":3290:3503  if (_order == 1){... */\n      jump(tag_77)\n    tag_75:\n        /* \"voting.sol\":3381:3382  2 */\n      0x02\n        /* \"voting.sol\":3371:3377  _order */\n      dup3\n        /* \"voting.sol\":3371:3382  _order == 2 */\n      eq\n        /* \"voting.sol\":3367:3503  if (_order == 2){... */\n      iszero\n      tag_78\n      jumpi\n        /* \"voting.sol\":3401:3409  getVote2 */\n      0x02\n      0x1a\n        /* \"voting.sol\":3401:3411  getVote2++ */\n      dup2\n      dup2\n      swap1\n      sload\n      swap1\n      0x0100\n      exp\n      swap1\n      div\n      0xff\n      and\n      dup1\n      swap3\n      swap2\n      swap1\n      tag_79\n      swap1\n      tag_56\n      jump\t// in\n    tag_79:\n      swap2\n      swap1\n      0x0100\n      exp\n      dup2\n      sload\n      dup2\n      0xff\n      mul\n      not\n      and\n      swap1\n      dup4\n      0xff\n      and\n      mul\n      or\n      swap1\n      sstore\n      pop\n      pop\n        /* \"voting.sol\":3367:3503  if (_order == 2){... */\n      jump(tag_80)\n    tag_78:\n        /* \"voting.sol\":3458:3459  3 */\n      0x03\n        /* \"voting.sol\":3448:3454  _order */\n      dup3\n        /* \"voting.sol\":3448:3459  _order == 3 */\n      eq\n        /* \"voting.sol\":3444:3503  if (_order == 3){... */\n      iszero\n      tag_81\n      jumpi\n        /* \"voting.sol\":3478:3486  getVote3 */\n      0x02\n      0x1b\n        /* \"voting.sol\":3478:3488  getVote3++ */\n      dup2\n      dup2\n      swap1\n      sload\n      swap1\n      0x0100\n      exp\n      swap1\n      div\n      0xff\n      and\n      dup1\n      swap3\n      swap2\n      swap1\n      tag_82\n      swap1\n      tag_56\n      jump\t// in\n    tag_82:\n      swap2\n      swap1\n      0x0100\n      exp\n      dup2\n      sload\n      dup2\n      0xff\n      mul\n      not\n      and\n      swap1\n      dup4\n      0xff\n      and\n      mul\n      or\n      swap1\n      sstore\n      pop\n      pop\n        /* \"voting.sol\":3444:3503  if (_order == 3){... */\n    tag_81:\n        /* \"voting.sol\":3367:3503  if (_order == 2){... */\n    tag_80:\n        /* \"voting.sol\":3290:3503  if (_order == 1){... */\n    tag_77:\n        /* \"voting.sol\":3524:3525  1 */\n      0x01\n        /* \"voting.sol\":3516:3521  vote3 */\n      0x02\n      0x18\n        /* \"voting.sol\":3516:3525  vote3 = 1 */\n      0x0100\n      exp\n      dup2\n      sload\n      dup2\n      0xff\n      mul\n      not\n      and\n      swap1\n      dup4\n      0xff\n      and\n      mul\n      or\n      swap1\n      sstore\n      pop\n        /* \"voting.sol\":3237:3536  if (msg.sender == owner3 && vote3 == 0){... */\n    tag_74:\n        /* \"voting.sol\":3567:3568  1 */\n      0x01\n        /* \"voting.sol\":3558:3563  vote1 */\n      0x02\n      0x16\n      swap1\n      sload\n      swap1\n      0x0100\n      exp\n      swap1\n      div\n      0xff\n      and\n        /* \"voting.sol\":3558:3568  vote1 == 1 */\n      0xff\n      and\n      eq\n        /* \"voting.sol\":3558:3582  vote1 == 1 && vote2 == 1 */\n      dup1\n      iszero\n      tag_83\n      jumpi\n      pop\n        /* \"voting.sol\":3581:3582  1 */\n      0x01\n        /* \"voting.sol\":3572:3577  vote2 */\n      0x02\n      0x17\n      swap1\n      sload\n      swap1\n      0x0100\n      exp\n      swap1\n      div\n      0xff\n      and\n        /* \"voting.sol\":3572:3582  vote2 == 1 */\n      0xff\n      and\n      eq\n        /* \"voting.sol\":3558:3582  vote1 == 1 && vote2 == 1 */\n    tag_83:\n        /* \"voting.sol\":3558:3596  vote1 == 1 && vote2 == 1 && vote3 == 1 */\n      dup1\n      iszero\n      tag_84\n      jumpi\n      pop\n        /* \"voting.sol\":3595:3596  1 */\n      0x01\n        /* \"voting.sol\":3586:3591  vote3 */\n      0x02\n      0x18\n      swap1\n      sload\n      swap1\n      0x0100\n      exp\n      swap1\n      div\n      0xff\n      and\n        /* \"voting.sol\":3586:3596  vote3 == 1 */\n      0xff\n      and\n      eq\n        /* \"voting.sol\":3558:3596  vote1 == 1 && vote2 == 1 && vote3 == 1 */\n    tag_84:\n        /* \"voting.sol\":3558:3625  vote1 == 1 && vote2 == 1 && vote3 == 1 && realOwner == address(0x0) */\n      dup1\n      iszero\n      tag_85\n      jumpi\n      pop\n        /* \"voting.sol\":3621:3624  0x0 */\n      0x00\n        /* \"voting.sol\":3600:3625  realOwner == address(0x0) */\n      0xffffffffffffffffffffffffffffffffffffffff\n      and\n        /* \"voting.sol\":3600:3609  realOwner */\n      0x03\n      0x00\n      swap1\n      sload\n      swap1\n      0x0100\n      exp\n      swap1\n      div\n      0xffffffffffffffffffffffffffffffffffffffff\n      and\n        /* \"voting.sol\":3600:3625  realOwner == address(0x0) */\n      0xffffffffffffffffffffffffffffffffffffffff\n      and\n      eq\n        /* \"voting.sol\":3558:3625  vote1 == 1 && vote2 == 1 && vote3 == 1 && realOwner == address(0x0) */\n    tag_85:\n        /* \"voting.sol\":3554:4233  if (vote1 == 1 && vote2 == 1 && vote3 == 1 && realOwner == address(0x0)){... */\n      iszero\n      tag_86\n      jumpi\n        /* \"voting.sol\":3656:3657  2 */\n      0x02\n        /* \"voting.sol\":3644:3652  getVote1 */\n      dup1\n      0x19\n      swap1\n      sload\n      swap1\n      0x0100\n      exp\n      swap1\n      div\n      0xff\n      and\n        /* \"voting.sol\":3644:3657  getVote1 >= 2 */\n      0xff\n      and\n      lt\n        /* \"voting.sol\":3640:3883  if (getVote1 >= 2){... */\n      tag_87\n      jumpi\n        /* \"voting.sol\":3688:3694  owner1 */\n      0x00\n      dup1\n      sload\n      swap1\n      0x0100\n      exp\n      swap1\n      div\n      0xffffffffffffffffffffffffffffffffffffffff\n      and\n        /* \"voting.sol\":3676:3685  realOwner */\n      0x03\n      0x00\n        /* \"voting.sol\":3676:3694  realOwner = owner1 */\n      0x0100\n      exp\n      dup2\n      sload\n      dup2\n      0xffffffffffffffffffffffffffffffffffffffff\n      mul\n      not\n      and\n      swap1\n      dup4\n      0xffffffffffffffffffffffffffffffffffffffff\n      and\n      mul\n      or\n      swap1\n      sstore\n      pop\n        /* \"voting.sol\":3640:3883  if (getVote1 >= 2){... */\n      jump(tag_88)\n    tag_87:\n        /* \"voting.sol\":3743:3744  2 */\n      0x02\n        /* \"voting.sol\":3731:3739  getVote2 */\n      dup1\n      0x1a\n      swap1\n      sload\n      swap1\n      0x0100\n      exp\n      swap1\n      div\n      0xff\n      and\n        /* \"voting.sol\":3731:3744  getVote2 >= 2 */\n      0xff\n      and\n      lt\n        /* \"voting.sol\":3727:3883  if (getVote2 >= 2){... */\n      tag_89\n      jumpi\n        /* \"voting.sol\":3775:3781  owner2 */\n      0x01\n      0x00\n      swap1\n      sload\n      swap1\n      0x0100\n      exp\n      swap1\n      div\n      0xffffffffffffffffffffffffffffffffffffffff\n      and\n        /* \"voting.sol\":3763:3772  realOwner */\n      0x03\n      0x00\n        /* \"voting.sol\":3763:3781  realOwner = owner2 */\n      0x0100\n      exp\n      dup2\n      sload\n      dup2\n      0xffffffffffffffffffffffffffffffffffffffff\n      mul\n      not\n      and\n      swap1\n      dup4\n      0xffffffffffffffffffffffffffffffffffffffff\n      and\n      mul\n      or\n      swap1\n      sstore\n      pop\n        /* \"voting.sol\":3727:3883  if (getVote2 >= 2){... */\n      jump(tag_90)\n    tag_89:\n        /* \"voting.sol\":3830:3831  2 */\n      0x02\n        /* \"voting.sol\":3818:3826  getVote3 */\n      dup1\n      0x1b\n      swap1\n      sload\n      swap1\n      0x0100\n      exp\n      swap1\n      div\n      0xff\n      and\n        /* \"voting.sol\":3818:3831  getVote3 >= 2 */\n      0xff\n      and\n      lt\n        /* \"voting.sol\":3814:3883  if (getVote3 >= 2){... */\n      tag_91\n      jumpi\n        /* \"voting.sol\":3862:3868  owner3 */\n      0x02\n      0x00\n      swap1\n      sload\n      swap1\n      0x0100\n      exp\n      swap1\n      div\n      0xffffffffffffffffffffffffffffffffffffffff\n      and\n        /* \"voting.sol\":3850:3859  realOwner */\n      0x03\n      0x00\n        /* \"voting.sol\":3850:3868  realOwner = owner3 */\n      0x0100\n      exp\n      dup2\n      sload\n      dup2\n      0xffffffffffffffffffffffffffffffffffffffff\n      mul\n      not\n      and\n      swap1\n      dup4\n      0xffffffffffffffffffffffffffffffffffffffff\n      and\n      mul\n      or\n      swap1\n      sstore\n      pop\n        /* \"voting.sol\":3814:3883  if (getVote3 >= 2){... */\n    tag_91:\n        /* \"voting.sol\":3727:3883  if (getVote2 >= 2){... */\n    tag_90:\n        /* \"voting.sol\":3640:3883  if (getVote1 >= 2){... */\n    tag_88:\n        /* \"voting.sol\":3904:3905  0 */\n      0x00\n        /* \"voting.sol\":3896:3901  vote1 */\n      0x02\n      0x16\n        /* \"voting.sol\":3896:3905  vote1 = 0 */\n      0x0100\n      exp\n      dup2\n      sload\n      dup2\n      0xff\n      mul\n      not\n      and\n      swap1\n      dup4\n      0xff\n      and\n      mul\n      or\n      swap1\n      sstore\n      pop\n        /* \"voting.sol\":3927:3928  0 */\n      0x00\n        /* \"voting.sol\":3919:3924  vote2 */\n      0x02\n      0x17\n        /* \"voting.sol\":3919:3928  vote2 = 0 */\n      0x0100\n      exp\n      dup2\n      sload\n      dup2\n      0xff\n      mul\n      not\n      and\n      swap1\n      dup4\n      0xff\n      and\n      mul\n      or\n      swap1\n      sstore\n      pop\n        /* \"voting.sol\":3950:3951  0 */\n      0x00\n        /* \"voting.sol\":3942:3947  vote3 */\n      0x02\n      0x18\n        /* \"voting.sol\":3942:3951  vote3 = 0 */\n      0x0100\n      exp\n      dup2\n      sload\n      dup2\n      0xff\n      mul\n      not\n      and\n      swap1\n      dup4\n      0xff\n      and\n      mul\n      or\n      swap1\n      sstore\n      pop\n        /* \"voting.sol\":3976:3977  0 */\n      0x00\n        /* \"voting.sol\":3965:3973  getVote1 */\n      0x02\n      0x19\n        /* \"voting.sol\":3965:3977  getVote1 = 0 */\n      0x0100\n      exp\n      dup2\n      sload\n      dup2\n      0xff\n      mul\n      not\n      and\n      swap1\n      dup4\n      0xff\n      and\n      mul\n      or\n      swap1\n      sstore\n      pop\n        /* \"voting.sol\":4002:4003  0 */\n      0x00\n        /* \"voting.sol\":3991:3999  getVote2 */\n      0x02\n      0x1a\n        /* \"voting.sol\":3991:4003  getVote2 = 0 */\n      0x0100\n      exp\n      dup2\n      sload\n      dup2\n      0xff\n      mul\n      not\n      and\n      swap1\n      dup4\n      0xff\n      and\n      mul\n      or\n      swap1\n      sstore\n      pop\n        /* \"voting.sol\":4028:4029  0 */\n      0x00\n        /* \"voting.sol\":4017:4025  getVote3 */\n      0x02\n      0x1b\n        /* \"voting.sol\":4017:4029  getVote3 = 0 */\n      0x0100\n      exp\n      dup2\n      sload\n      dup2\n      0xff\n      mul\n      not\n      and\n      swap1\n      dup4\n      0xff\n      and\n      mul\n      or\n      swap1\n      sstore\n      pop\n        /* \"voting.sol\":4068:4071  0x0 */\n      0x00\n        /* \"voting.sol\":4047:4072  realOwner == address(0x0) */\n      0xffffffffffffffffffffffffffffffffffffffff\n      and\n        /* \"voting.sol\":4047:4056  realOwner */\n      0x03\n      0x00\n      swap1\n      sload\n      swap1\n      0x0100\n      exp\n      swap1\n      div\n      0xffffffffffffffffffffffffffffffffffffffff\n      and\n        /* \"voting.sol\":4047:4072  realOwner == address(0x0) */\n      0xffffffffffffffffffffffffffffffffffffffff\n      and\n      eq\n        /* \"voting.sol\":4043:4147  if (realOwner == address(0x0)){... */\n      iszero\n      tag_92\n      jumpi\n        /* \"voting.sol\":4091:4100  voteCount */\n      0x02\n      0x15\n        /* \"voting.sol\":4091:4102  voteCount++ */\n      dup2\n      dup2\n      swap1\n      sload\n      swap1\n      0x0100\n      exp\n      swap1\n      div\n      0xff\n      and\n      dup1\n      swap3\n      swap2\n      swap1\n      tag_93\n      swap1\n      tag_56\n      jump\t// in\n    tag_93:\n      swap2\n      swap1\n      0x0100\n      exp\n      dup2\n      sload\n      dup2\n      0xff\n      mul\n      not\n      and\n      swap1\n      dup4\n      0xff\n      and\n      mul\n      or\n      swap1\n      sstore\n      pop\n      pop\n        /* \"voting.sol\":4127:4132  false */\n      0x00\n        /* \"voting.sol\":4120:4132  return false */\n      swap1\n      pop\n      jump(tag_48)\n        /* \"voting.sol\":4043:4147  if (realOwner == address(0x0)){... */\n    tag_92:\n        /* \"voting.sol\":4167:4171  true */\n      0x01\n        /* \"voting.sol\":4160:4171  return true */\n      swap1\n      pop\n      jump(tag_48)\n        /* \"voting.sol\":3554:4233  if (vote1 == 1 && vote2 == 1 && vote3 == 1 && realOwner == address(0x0)){... */\n    tag_86:\n        /* \"voting.sol\":4217:4222  false */\n      0x00\n        /* \"voting.sol\":4210:4222  return false */\n      swap1\n      pop\n        /* \"voting.sol\":365:366  _ */\n    tag_48:\n        /* \"voting.sol\":2493:4239  function vote(uint _order) onlyOwner public returns(bool) {... */\n      swap2\n      swap1\n      pop\n      jump\t// out\n        /* \"voting.sol\":4471:4547  function getValue() public view returns (uint8){... */\n    tag_18:\n        /* \"voting.sol\":4512:4517  uint8 */\n      0x00\n        /* \"voting.sol\":4535:4540  value */\n      0x03\n      0x14\n      swap1\n      sload\n      swap1\n      0x0100\n      exp\n      swap1\n      div\n      0xff\n      and\n        /* \"voting.sol\":4528:4540  return value */\n      swap1\n      pop\n        /* \"voting.sol\":4471:4547  function getValue() public view returns (uint8){... */\n      swap1\n      jump\t// out\n        /* \"voting.sol\":1587:2155  function becomeOwner(address _person) public returns (bool){... */\n    tag_24:\n        /* \"voting.sol\":1641:1645  bool */\n      0x00\n        /* \"voting.sol\":1674:1675  3 */\n      0x03\n        /* \"voting.sol\":1660:1670  ownerCount */\n      0x02\n      0x14\n      swap1\n      sload\n      swap1\n      0x0100\n      exp\n      swap1\n      div\n      0xff\n      and\n        /* \"voting.sol\":1660:1675  ownerCount == 3 */\n      0xff\n      and\n      eq\n        /* \"voting.sol\":1656:1713  if (ownerCount == 3){... */\n      iszero\n      tag_97\n      jumpi\n        /* \"voting.sol\":1697:1702  false */\n      0x00\n        /* \"voting.sol\":1690:1702  return false */\n      swap1\n      pop\n      jump(tag_96)\n        /* \"voting.sol\":1656:1713  if (ownerCount == 3){... */\n    tag_97:\n        /* \"voting.sol\":1740:1741  0 */\n      0x00\n        /* \"voting.sol\":1726:1736  ownerCount */\n      0x02\n      0x14\n      swap1\n      sload\n      swap1\n      0x0100\n      exp\n      swap1\n      div\n      0xff\n      and\n        /* \"voting.sol\":1726:1741  ownerCount == 0 */\n      0xff\n      and\n      eq\n        /* \"voting.sol\":1722:2149  if (ownerCount == 0){... */\n      iszero\n      tag_98\n      jumpi\n        /* \"voting.sol\":1765:1772  _person */\n      dup2\n        /* \"voting.sol\":1756:1762  owner1 */\n      0x00\n      dup1\n        /* \"voting.sol\":1756:1772  owner1 = _person */\n      0x0100\n      exp\n      dup2\n      sload\n      dup2\n      0xffffffffffffffffffffffffffffffffffffffff\n      mul\n      not\n      and\n      swap1\n      dup4\n      0xffffffffffffffffffffffffffffffffffffffff\n      and\n      mul\n      or\n      swap1\n      sstore\n      pop\n        /* \"voting.sol\":1786:1796  ownerCount */\n      0x02\n      0x14\n        /* \"voting.sol\":1786:1798  ownerCount++ */\n      dup2\n      dup2\n      swap1\n      sload\n      swap1\n      0x0100\n      exp\n      swap1\n      div\n      0xff\n      and\n      dup1\n      swap3\n      swap2\n      swap1\n      tag_99\n      swap1\n      tag_56\n      jump\t// in\n    tag_99:\n      swap2\n      swap1\n      0x0100\n      exp\n      dup2\n      sload\n      dup2\n      0xff\n      mul\n      not\n      and\n      swap1\n      dup4\n      0xff\n      and\n      mul\n      or\n      swap1\n      sstore\n      pop\n      pop\n        /* \"voting.sol\":1819:1823  true */\n      0x01\n        /* \"voting.sol\":1812:1823  return true */\n      swap1\n      pop\n      jump(tag_96)\n        /* \"voting.sol\":1722:2149  if (ownerCount == 0){... */\n    tag_98:\n        /* \"voting.sol\":1866:1867  1 */\n      0x01\n        /* \"voting.sol\":1852:1862  ownerCount */\n      0x02\n      0x14\n      swap1\n      sload\n      swap1\n      0x0100\n      exp\n      swap1\n      div\n      0xff\n      and\n        /* \"voting.sol\":1852:1867  ownerCount == 1 */\n      0xff\n      and\n      eq\n        /* \"voting.sol\":1852:1888  ownerCount == 1 && owner1 != _person */\n      dup1\n      iszero\n      tag_101\n      jumpi\n      pop\n        /* \"voting.sol\":1881:1888  _person */\n      dup2\n        /* \"voting.sol\":1871:1888  owner1 != _person */\n      0xffffffffffffffffffffffffffffffffffffffff\n      and\n        /* \"voting.sol\":1871:1877  owner1 */\n      0x00\n      dup1\n      sload\n      swap1\n      0x0100\n      exp\n      swap1\n      div\n      0xffffffffffffffffffffffffffffffffffffffff\n      and\n        /* \"voting.sol\":1871:1888  owner1 != _person */\n      0xffffffffffffffffffffffffffffffffffffffff\n      and\n      eq\n      iszero\n        /* \"voting.sol\":1852:1888  ownerCount == 1 && owner1 != _person */\n    tag_101:\n        /* \"voting.sol\":1848:2149  if (ownerCount == 1 && owner1 != _person){... */\n      iszero\n      tag_102\n      jumpi\n        /* \"voting.sol\":1912:1919  _person */\n      dup2\n        /* \"voting.sol\":1903:1909  owner2 */\n      0x01\n      0x00\n        /* \"voting.sol\":1903:1919  owner2 = _person */\n      0x0100\n      exp\n      dup2\n      sload\n      dup2\n      0xffffffffffffffffffffffffffffffffffffffff\n      mul\n      not\n      and\n      swap1\n      dup4\n      0xffffffffffffffffffffffffffffffffffffffff\n      and\n      mul\n      or\n      swap1\n      sstore\n      pop\n        /* \"voting.sol\":1933:1943  ownerCount */\n      0x02\n      0x14\n        /* \"voting.sol\":1933:1945  ownerCount++ */\n      dup2\n      dup2\n      swap1\n      sload\n      swap1\n      0x0100\n      exp\n      swap1\n      div\n      0xff\n      and\n      dup1\n      swap3\n      swap2\n      swap1\n      tag_103\n      swap1\n      tag_56\n      jump\t// in\n    tag_103:\n      swap2\n      swap1\n      0x0100\n      exp\n      dup2\n      sload\n      dup2\n      0xff\n      mul\n      not\n      and\n      swap1\n      dup4\n      0xff\n      and\n      mul\n      or\n      swap1\n      sstore\n      pop\n      pop\n        /* \"voting.sol\":1966:1970  true */\n      0x01\n        /* \"voting.sol\":1959:1970  return true */\n      swap1\n      pop\n      jump(tag_96)\n        /* \"voting.sol\":1848:2149  if (ownerCount == 1 && owner1 != _person){... */\n    tag_102:\n        /* \"voting.sol\":2013:2014  2 */\n      0x02\n        /* \"voting.sol\":1999:2009  ownerCount */\n      dup1\n      0x14\n      swap1\n      sload\n      swap1\n      0x0100\n      exp\n      swap1\n      div\n      0xff\n      and\n        /* \"voting.sol\":1999:2014  ownerCount == 2 */\n      0xff\n      and\n      eq\n        /* \"voting.sol\":1999:2035  ownerCount == 2 && owner1 != _person */\n      dup1\n      iszero\n      tag_105\n      jumpi\n      pop\n        /* \"voting.sol\":2028:2035  _person */\n      dup2\n        /* \"voting.sol\":2018:2035  owner1 != _person */\n      0xffffffffffffffffffffffffffffffffffffffff\n      and\n        /* \"voting.sol\":2018:2024  owner1 */\n      0x00\n      dup1\n      sload\n      swap1\n      0x0100\n      exp\n      swap1\n      div\n      0xffffffffffffffffffffffffffffffffffffffff\n      and\n        /* \"voting.sol\":2018:2035  owner1 != _person */\n      0xffffffffffffffffffffffffffffffffffffffff\n      and\n      eq\n      iszero\n        /* \"voting.sol\":1999:2035  ownerCount == 2 && owner1 != _person */\n    tag_105:\n        /* \"voting.sol\":1999:2056  ownerCount == 2 && owner1 != _person && owner2 != _person */\n      dup1\n      iszero\n      tag_106\n      jumpi\n      pop\n        /* \"voting.sol\":2049:2056  _person */\n      dup2\n        /* \"voting.sol\":2039:2056  owner2 != _person */\n      0xffffffffffffffffffffffffffffffffffffffff\n      and\n        /* \"voting.sol\":2039:2045  owner2 */\n      0x01\n      0x00\n      swap1\n      sload\n      swap1\n      0x0100\n      exp\n      swap1\n      div\n      0xffffffffffffffffffffffffffffffffffffffff\n      and\n        /* \"voting.sol\":2039:2056  owner2 != _person */\n      0xffffffffffffffffffffffffffffffffffffffff\n      and\n      eq\n      iszero\n        /* \"voting.sol\":1999:2056  ownerCount == 2 && owner1 != _person && owner2 != _person */\n    tag_106:\n        /* \"voting.sol\":1995:2149  if (ownerCount == 2 && owner1 != _person && owner2 != _person){... */\n      iszero\n      tag_107\n      jumpi\n        /* \"voting.sol\":2080:2087  _person */\n      dup2\n        /* \"voting.sol\":2071:2077  owner3 */\n      0x02\n      0x00\n        /* \"voting.sol\":2071:2087  owner3 = _person */\n      0x0100\n      exp\n      dup2\n      sload\n      dup2\n      0xffffffffffffffffffffffffffffffffffffffff\n      mul\n      not\n      and\n      swap1\n      dup4\n      0xffffffffffffffffffffffffffffffffffffffff\n      and\n      mul\n      or\n      swap1\n      sstore\n      pop\n        /* \"voting.sol\":2101:2111  ownerCount */\n      0x02\n      0x14\n        /* \"voting.sol\":2101:2113  ownerCount++ */\n      dup2\n      dup2\n      swap1\n      sload\n      swap1\n      0x0100\n      exp\n      swap1\n      div\n      0xff\n      and\n      dup1\n      swap3\n      swap2\n      swap1\n      tag_108\n      swap1\n      tag_56\n      jump\t// in\n    tag_108:\n      swap2\n      swap1\n      0x0100\n      exp\n      dup2\n      sload\n      dup2\n      0xff\n      mul\n      not\n      and\n      swap1\n      dup4\n      0xff\n      and\n      mul\n      or\n      swap1\n      sstore\n      pop\n      pop\n        /* \"voting.sol\":2134:2138  true */\n      0x01\n        /* \"voting.sol\":2127:2138  return true */\n      swap1\n      pop\n      jump(tag_96)\n        /* \"voting.sol\":1995:2149  if (ownerCount == 2 && owner1 != _person && owner2 != _person){... */\n    tag_107:\n        /* \"voting.sol\":1587:2155  function becomeOwner(address _person) public returns (bool){... */\n    tag_96:\n      swap2\n      swap1\n      pop\n      jump\t// out\n        /* \"voting.sol\":4553:4665  function setValue(uint8 _val) checkOwner public returns (bool){... */\n    tag_29:\n        /* \"voting.sol\":4610:4614  bool */\n      0x00\n        /* \"voting.sol\":1306:1315  realOwner */\n      0x03\n      0x00\n      swap1\n      sload\n      swap1\n      0x0100\n      exp\n      swap1\n      div\n      0xffffffffffffffffffffffffffffffffffffffff\n      and\n        /* \"voting.sol\":1292:1315  msg.sender == realOwner */\n      0xffffffffffffffffffffffffffffffffffffffff\n      and\n        /* \"voting.sol\":1292:1302  msg.sender */\n      caller\n        /* \"voting.sol\":1292:1315  msg.sender == realOwner */\n      0xffffffffffffffffffffffffffffffffffffffff\n      and\n      eq\n        /* \"voting.sol\":1284:1316  require(msg.sender == realOwner) */\n      tag_110\n      jumpi\n      0x00\n      dup1\n      revert\n    tag_110:\n        /* \"voting.sol\":4633:4637  _val */\n      dup2\n        /* \"voting.sol\":4625:4630  value */\n      0x03\n      0x14\n        /* \"voting.sol\":4625:4637  value = _val */\n      0x0100\n      exp\n      dup2\n      sload\n      dup2\n      0xff\n      mul\n      not\n      and\n      swap1\n      dup4\n      0xff\n      and\n      mul\n      or\n      swap1\n      sstore\n      pop\n        /* \"voting.sol\":4654:4658  true */\n      0x01\n        /* \"voting.sol\":4647:4658  return true */\n      swap1\n      pop\n        /* \"voting.sol\":4553:4665  function setValue(uint8 _val) checkOwner public returns (bool){... */\n      swap2\n      swap1\n      pop\n      jump\t// out\n        /* \"voting.sol\":2161:2487  function showOwner(uint _order) public view returns (address) {... */\n    tag_33:\n        /* \"voting.sol\":2214:2221  address */\n      0x00\n        /* \"voting.sol\":2247:2248  1 */\n      0x01\n        /* \"voting.sol\":2237:2243  _order */\n      dup3\n        /* \"voting.sol\":2237:2248  _order == 1 */\n      eq\n        /* \"voting.sol\":2233:2481  if (_order == 1){... */\n      iszero\n      tag_113\n      jumpi\n        /* \"voting.sol\":2270:2276  owner1 */\n      0x00\n      dup1\n      sload\n      swap1\n      0x0100\n      exp\n      swap1\n      div\n      0xffffffffffffffffffffffffffffffffffffffff\n      and\n        /* \"voting.sol\":2263:2276  return owner1 */\n      swap1\n      pop\n      jump(tag_112)\n        /* \"voting.sol\":2233:2481  if (_order == 1){... */\n    tag_113:\n        /* \"voting.sol\":2315:2316  2 */\n      0x02\n        /* \"voting.sol\":2305:2311  _order */\n      dup3\n        /* \"voting.sol\":2305:2316  _order == 2 */\n      eq\n        /* \"voting.sol\":2301:2481  if (_order == 2){... */\n      iszero\n      tag_115\n      jumpi\n        /* \"voting.sol\":2338:2344  owner2 */\n      0x01\n      0x00\n      swap1\n      sload\n      swap1\n      0x0100\n      exp\n      swap1\n      div\n      0xffffffffffffffffffffffffffffffffffffffff\n      and\n        /* \"voting.sol\":2331:2344  return owner2 */\n      swap1\n      pop\n      jump(tag_112)\n        /* \"voting.sol\":2301:2481  if (_order == 2){... */\n    tag_115:\n        /* \"voting.sol\":2383:2384  3 */\n      0x03\n        /* \"voting.sol\":2373:2379  _order */\n      dup3\n        /* \"voting.sol\":2373:2384  _order == 3 */\n      eq\n        /* \"voting.sol\":2369:2481  if (_order == 3){... */\n      iszero\n      tag_117\n      jumpi\n        /* \"voting.sol\":2406:2412  owner3 */\n      0x02\n      0x00\n      swap1\n      sload\n      swap1\n      0x0100\n      exp\n      swap1\n      div\n      0xffffffffffffffffffffffffffffffffffffffff\n      and\n        /* \"voting.sol\":2399:2412  return owner3 */\n      swap1\n      pop\n      jump(tag_112)\n        /* \"voting.sol\":2369:2481  if (_order == 3){... */\n    tag_117:\n        /* \"voting.sol\":2466:2469  0x0 */\n      0x00\n        /* \"voting.sol\":2451:2470  return address(0x0) */\n      swap1\n      pop\n        /* \"voting.sol\":2161:2487  function showOwner(uint _order) public view returns (address) {... */\n    tag_112:\n      swap2\n      swap1\n      pop\n      jump\t// out\n        /* \"voting.sol\":4245:4465  function showRealOwner(address _person) public view returns (string memory){... */\n    tag_38:\n        /* \"voting.sol\":4306:4319  string memory */\n      0x60\n        /* \"voting.sol\":4347:4354  _person */\n      dup2\n        /* \"voting.sol\":4334:4354  realOwner == _person */\n      0xffffffffffffffffffffffffffffffffffffffff\n      and\n        /* \"voting.sol\":4334:4343  realOwner */\n      0x03\n      0x00\n      swap1\n      sload\n      swap1\n      0x0100\n      exp\n      swap1\n      div\n      0xffffffffffffffffffffffffffffffffffffffff\n      and\n        /* \"voting.sol\":4334:4354  realOwner == _person */\n      0xffffffffffffffffffffffffffffffffffffffff\n      and\n      eq\n        /* \"voting.sol\":4330:4459  if (realOwner == _person){... */\n      iszero\n      tag_120\n      jumpi\n        /* \"voting.sol\":4369:4387  return \"realOwner\" */\n      mload(0x40)\n      dup1\n      0x40\n      add\n      0x40\n      mstore\n      dup1\n      0x09\n      dup2\n      mstore\n      0x20\n      add\n      0x7265616c4f776e65720000000000000000000000000000000000000000000000\n      dup2\n      mstore\n      pop\n      swap1\n      pop\n      jump(tag_119)\n        /* \"voting.sol\":4330:4459  if (realOwner == _person){... */\n    tag_120:\n        /* \"voting.sol\":4426:4448  return \"Not realOwner\" */\n      mload(0x40)\n      dup1\n      0x40\n      add\n      0x40\n      mstore\n      dup1\n      0x0d\n      dup2\n      mstore\n      0x20\n      add\n      0x4e6f74207265616c4f776e657200000000000000000000000000000000000000\n      dup2\n      mstore\n      pop\n      swap1\n      pop\n        /* \"voting.sol\":4245:4465  function showRealOwner(address _person) public view returns (string memory){... */\n    tag_119:\n      swap2\n      swap1\n      pop\n      jump\t// out\n        /* \"voting.sol\":398:944  function transferOwnership(address _to) onlyOwner public {... */\n    tag_43:\n        /* \"voting.sol\":306:312  owner1 */\n      0x00\n      dup1\n      sload\n      swap1\n      0x0100\n      exp\n      swap1\n      div\n      0xffffffffffffffffffffffffffffffffffffffff\n      and\n        /* \"voting.sol\":292:312  msg.sender == owner1 */\n      0xffffffffffffffffffffffffffffffffffffffff\n      and\n        /* \"voting.sol\":292:302  msg.sender */\n      caller\n        /* \"voting.sol\":292:312  msg.sender == owner1 */\n      0xffffffffffffffffffffffffffffffffffffffff\n      and\n      eq\n        /* \"voting.sol\":292:336  msg.sender == owner1 || msg.sender == owner2 */\n      dup1\n      tag_123\n      jumpi\n      pop\n        /* \"voting.sol\":330:336  owner2 */\n      0x01\n      0x00\n      swap1\n      sload\n      swap1\n      0x0100\n      exp\n      swap1\n      div\n      0xffffffffffffffffffffffffffffffffffffffff\n      and\n        /* \"voting.sol\":316:336  msg.sender == owner2 */\n      0xffffffffffffffffffffffffffffffffffffffff\n      and\n        /* \"voting.sol\":316:326  msg.sender */\n      caller\n        /* \"voting.sol\":316:336  msg.sender == owner2 */\n      0xffffffffffffffffffffffffffffffffffffffff\n      and\n      eq\n        /* \"voting.sol\":292:336  msg.sender == owner1 || msg.sender == owner2 */\n    tag_123:\n        /* \"voting.sol\":292:360  msg.sender == owner1 || msg.sender == owner2 || msg.sender == owner3 */\n      dup1\n      tag_124\n      jumpi\n      pop\n        /* \"voting.sol\":354:360  owner3 */\n      0x02\n      0x00\n      swap1\n      sload\n      swap1\n      0x0100\n      exp\n      swap1\n      div\n      0xffffffffffffffffffffffffffffffffffffffff\n      and\n        /* \"voting.sol\":340:360  msg.sender == owner3 */\n      0xffffffffffffffffffffffffffffffffffffffff\n      and\n        /* \"voting.sol\":340:350  msg.sender */\n      caller\n        /* \"voting.sol\":340:360  msg.sender == owner3 */\n      0xffffffffffffffffffffffffffffffffffffffff\n      and\n      eq\n        /* \"voting.sol\":292:360  msg.sender == owner1 || msg.sender == owner2 || msg.sender == owner3 */\n    tag_124:\n        /* \"voting.sol\":284:361  require(msg.sender == owner1 || msg.sender == owner2 || msg.sender == owner3) */\n      tag_125\n      jumpi\n      0x00\n      dup1\n      revert\n    tag_125:\n        /* \"voting.sol\":480:486  owner1 */\n      0x00\n      dup1\n      sload\n      swap1\n      0x0100\n      exp\n      swap1\n      div\n      0xffffffffffffffffffffffffffffffffffffffff\n      and\n        /* \"voting.sol\":473:486  _to != owner1 */\n      0xffffffffffffffffffffffffffffffffffffffff\n      and\n        /* \"voting.sol\":473:476  _to */\n      dup2\n        /* \"voting.sol\":473:486  _to != owner1 */\n      0xffffffffffffffffffffffffffffffffffffffff\n      and\n      eq\n      iszero\n        /* \"voting.sol\":473:503  _to != owner1 && _to != owner2 */\n      dup1\n      iszero\n      tag_127\n      jumpi\n      pop\n        /* \"voting.sol\":497:503  owner2 */\n      0x01\n      0x00\n      swap1\n      sload\n      swap1\n      0x0100\n      exp\n      swap1\n      div\n      0xffffffffffffffffffffffffffffffffffffffff\n      and\n        /* \"voting.sol\":490:503  _to != owner2 */\n      0xffffffffffffffffffffffffffffffffffffffff\n      and\n        /* \"voting.sol\":490:493  _to */\n      dup2\n        /* \"voting.sol\":490:503  _to != owner2 */\n      0xffffffffffffffffffffffffffffffffffffffff\n      and\n      eq\n      iszero\n        /* \"voting.sol\":473:503  _to != owner1 && _to != owner2 */\n    tag_127:\n        /* \"voting.sol\":473:520  _to != owner1 && _to != owner2 && _to != owner3 */\n      dup1\n      iszero\n      tag_128\n      jumpi\n      pop\n        /* \"voting.sol\":514:520  owner3 */\n      0x02\n      0x00\n      swap1\n      sload\n      swap1\n      0x0100\n      exp\n      swap1\n      div\n      0xffffffffffffffffffffffffffffffffffffffff\n      and\n        /* \"voting.sol\":507:520  _to != owner3 */\n      0xffffffffffffffffffffffffffffffffffffffff\n      and\n        /* \"voting.sol\":507:510  _to */\n      dup2\n        /* \"voting.sol\":507:520  _to != owner3 */\n      0xffffffffffffffffffffffffffffffffffffffff\n      and\n      eq\n      iszero\n        /* \"voting.sol\":473:520  _to != owner1 && _to != owner2 && _to != owner3 */\n    tag_128:\n        /* \"voting.sol\":465:521  require(_to != owner1 && _to != owner2 && _to != owner3) */\n      tag_129\n      jumpi\n      0x00\n      dup1\n      revert\n    tag_129:\n        /* \"voting.sol\":554:557  0x0 */\n      0x00\n        /* \"voting.sol\":539:558  _to != address(0x0) */\n      0xffffffffffffffffffffffffffffffffffffffff\n      and\n        /* \"voting.sol\":539:542  _to */\n      dup2\n        /* \"voting.sol\":539:558  _to != address(0x0) */\n      0xffffffffffffffffffffffffffffffffffffffff\n      and\n      eq\n      iszero\n        /* \"voting.sol\":531:559  require(_to != address(0x0)) */\n      tag_130\n      jumpi\n      0x00\n      dup1\n      revert\n    tag_130:\n        /* \"voting.sol\":587:593  owner1 */\n      0x00\n      dup1\n      sload\n      swap1\n      0x0100\n      exp\n      swap1\n      div\n      0xffffffffffffffffffffffffffffffffffffffff\n      and\n        /* \"voting.sol\":573:593  msg.sender == owner1 */\n      0xffffffffffffffffffffffffffffffffffffffff\n      and\n        /* \"voting.sol\":573:583  msg.sender */\n      caller\n        /* \"voting.sol\":573:593  msg.sender == owner1 */\n      0xffffffffffffffffffffffffffffffffffffffff\n      and\n      eq\n        /* \"voting.sol\":569:939  if (msg.sender == owner1){... */\n      iszero\n      tag_131\n      jumpi\n        /* \"voting.sol\":617:620  _to */\n      dup1\n        /* \"voting.sol\":608:614  owner1 */\n      0x00\n      dup1\n        /* \"voting.sol\":608:620  owner1 = _to */\n      0x0100\n      exp\n      dup2\n      sload\n      dup2\n      0xffffffffffffffffffffffffffffffffffffffff\n      mul\n      not\n      and\n      swap1\n      dup4\n      0xffffffffffffffffffffffffffffffffffffffff\n      and\n      mul\n      or\n      swap1\n      sstore\n      pop\n        /* \"voting.sol\":668:671  _to */\n      dup1\n        /* \"voting.sol\":639:672  OwnerTransferPropose(owner1, _to) */\n      0xffffffffffffffffffffffffffffffffffffffff\n      and\n        /* \"voting.sol\":660:666  owner1 */\n      0x00\n      dup1\n      sload\n      swap1\n      0x0100\n      exp\n      swap1\n      div\n      0xffffffffffffffffffffffffffffffffffffffff\n      and\n        /* \"voting.sol\":639:672  OwnerTransferPropose(owner1, _to) */\n      0xffffffffffffffffffffffffffffffffffffffff\n      and\n      0x2ae143016adc0aa482e6ba5d9a350f3e3122aeb005ca4bf47d1d7b8221bce472\n      mload(0x40)\n      mload(0x40)\n      dup1\n      swap2\n      sub\n      swap1\n      log3\n        /* \"voting.sol\":569:939  if (msg.sender == owner1){... */\n      jump(tag_132)\n    tag_131:\n        /* \"voting.sol\":715:721  owner2 */\n      0x01\n      0x00\n      swap1\n      sload\n      swap1\n      0x0100\n      exp\n      swap1\n      div\n      0xffffffffffffffffffffffffffffffffffffffff\n      and\n        /* \"voting.sol\":701:721  msg.sender == owner2 */\n      0xffffffffffffffffffffffffffffffffffffffff\n      and\n        /* \"voting.sol\":701:711  msg.sender */\n      caller\n        /* \"voting.sol\":701:721  msg.sender == owner2 */\n      0xffffffffffffffffffffffffffffffffffffffff\n      and\n      eq\n        /* \"voting.sol\":697:939  if (msg.sender == owner2){... */\n      iszero\n      tag_133\n      jumpi\n        /* \"voting.sol\":745:748  _to */\n      dup1\n        /* \"voting.sol\":736:742  owner2 */\n      0x01\n      0x00\n        /* \"voting.sol\":736:748  owner2 = _to */\n      0x0100\n      exp\n      dup2\n      sload\n      dup2\n      0xffffffffffffffffffffffffffffffffffffffff\n      mul\n      not\n      and\n      swap1\n      dup4\n      0xffffffffffffffffffffffffffffffffffffffff\n      and\n      mul\n      or\n      swap1\n      sstore\n      pop\n        /* \"voting.sol\":796:799  _to */\n      dup1\n        /* \"voting.sol\":767:800  OwnerTransferPropose(owner2, _to) */\n      0xffffffffffffffffffffffffffffffffffffffff\n      and\n        /* \"voting.sol\":788:794  owner2 */\n      0x01\n      0x00\n      swap1\n      sload\n      swap1\n      0x0100\n      exp\n      swap1\n      div\n      0xffffffffffffffffffffffffffffffffffffffff\n      and\n        /* \"voting.sol\":767:800  OwnerTransferPropose(owner2, _to) */\n      0xffffffffffffffffffffffffffffffffffffffff\n      and\n      0x2ae143016adc0aa482e6ba5d9a350f3e3122aeb005ca4bf47d1d7b8221bce472\n      mload(0x40)\n      mload(0x40)\n      dup1\n      swap2\n      sub\n      swap1\n      log3\n        /* \"voting.sol\":697:939  if (msg.sender == owner2){... */\n      jump(tag_134)\n    tag_133:\n        /* \"voting.sol\":843:849  owner3 */\n      0x02\n      0x00\n      swap1\n      sload\n      swap1\n      0x0100\n      exp\n      swap1\n      div\n      0xffffffffffffffffffffffffffffffffffffffff\n      and\n        /* \"voting.sol\":829:849  msg.sender == owner3 */\n      0xffffffffffffffffffffffffffffffffffffffff\n      and\n        /* \"voting.sol\":829:839  msg.sender */\n      caller\n        /* \"voting.sol\":829:849  msg.sender == owner3 */\n      0xffffffffffffffffffffffffffffffffffffffff\n      and\n      eq\n        /* \"voting.sol\":825:939  if (msg.sender == owner3){... */\n      iszero\n      tag_135\n      jumpi\n        /* \"voting.sol\":873:876  _to */\n      dup1\n        /* \"voting.sol\":864:870  owner3 */\n      0x02\n      0x00\n        /* \"voting.sol\":864:876  owner3 = _to */\n      0x0100\n      exp\n      dup2\n      sload\n      dup2\n      0xffffffffffffffffffffffffffffffffffffffff\n      mul\n      not\n      and\n      swap1\n      dup4\n      0xffffffffffffffffffffffffffffffffffffffff\n      and\n      mul\n      or\n      swap1\n      sstore\n      pop\n        /* \"voting.sol\":924:927  _to */\n      dup1\n        /* \"voting.sol\":895:928  OwnerTransferPropose(owner3, _to) */\n      0xffffffffffffffffffffffffffffffffffffffff\n      and\n        /* \"voting.sol\":916:922  owner3 */\n      0x02\n      0x00\n      swap1\n      sload\n      swap1\n      0x0100\n      exp\n      swap1\n      div\n      0xffffffffffffffffffffffffffffffffffffffff\n      and\n        /* \"voting.sol\":895:928  OwnerTransferPropose(owner3, _to) */\n      0xffffffffffffffffffffffffffffffffffffffff\n      and\n      0x2ae143016adc0aa482e6ba5d9a350f3e3122aeb005ca4bf47d1d7b8221bce472\n      mload(0x40)\n      mload(0x40)\n      dup1\n      swap2\n      sub\n      swap1\n      log3\n        /* \"voting.sol\":825:939  if (msg.sender == owner3){... */\n    tag_135:\n        /* \"voting.sol\":697:939  if (msg.sender == owner2){... */\n    tag_134:\n        /* \"voting.sol\":569:939  if (msg.sender == owner1){... */\n    tag_132:\n        /* \"voting.sol\":398:944  function transferOwnership(address _to) onlyOwner public {... */\n      pop\n      jump\t// out\n        /* \"#utility.yul\":88:205   */\n    tag_137:\n        /* \"#utility.yul\":197:198   */\n      0x00\n        /* \"#utility.yul\":194:195   */\n      dup1\n        /* \"#utility.yul\":187:199   */\n      revert\n        /* \"#utility.yul\":334:411   */\n    tag_139:\n        /* \"#utility.yul\":371:378   */\n      0x00\n        /* \"#utility.yul\":400:405   */\n      dup2\n        /* \"#utility.yul\":389:405   */\n      swap1\n      pop\n        /* \"#utility.yul\":334:411   */\n      swap2\n      swap1\n      pop\n      jump\t// out\n        /* \"#utility.yul\":417:539   */\n    tag_140:\n        /* \"#utility.yul\":490:514   */\n      tag_165\n        /* \"#utility.yul\":508:513   */\n      dup2\n        /* \"#utility.yul\":490:514   */\n      tag_139\n      jump\t// in\n    tag_165:\n        /* \"#utility.yul\":483:488   */\n      dup2\n        /* \"#utility.yul\":480:515   */\n      eq\n        /* \"#utility.yul\":470:533   */\n      tag_166\n      jumpi\n        /* \"#utility.yul\":529:530   */\n      0x00\n        /* \"#utility.yul\":526:527   */\n      dup1\n        /* \"#utility.yul\":519:531   */\n      revert\n        /* \"#utility.yul\":470:533   */\n    tag_166:\n        /* \"#utility.yul\":417:539   */\n      pop\n      jump\t// out\n        /* \"#utility.yul\":545:684   */\n    tag_141:\n        /* \"#utility.yul\":591:596   */\n      0x00\n        /* \"#utility.yul\":629:635   */\n      dup2\n        /* \"#utility.yul\":616:636   */\n      calldataload\n        /* \"#utility.yul\":607:636   */\n      swap1\n      pop\n        /* \"#utility.yul\":645:678   */\n      tag_168\n        /* \"#utility.yul\":672:677   */\n      dup2\n        /* \"#utility.yul\":645:678   */\n      tag_140\n      jump\t// in\n    tag_168:\n        /* \"#utility.yul\":545:684   */\n      swap3\n      swap2\n      pop\n      pop\n      jump\t// out\n        /* \"#utility.yul\":690:1019   */\n    tag_13:\n        /* \"#utility.yul\":749:755   */\n      0x00\n        /* \"#utility.yul\":798:800   */\n      0x20\n        /* \"#utility.yul\":786:795   */\n      dup3\n        /* \"#utility.yul\":777:784   */\n      dup5\n        /* \"#utility.yul\":773:796   */\n      sub\n        /* \"#utility.yul\":769:801   */\n      slt\n        /* \"#utility.yul\":766:885   */\n      iszero\n      tag_170\n      jumpi\n        /* \"#utility.yul\":804:883   */\n      tag_171\n      tag_137\n      jump\t// in\n    tag_171:\n        /* \"#utility.yul\":766:885   */\n    tag_170:\n        /* \"#utility.yul\":924:925   */\n      0x00\n        /* \"#utility.yul\":949:1002   */\n      tag_172\n        /* \"#utility.yul\":994:1001   */\n      dup5\n        /* \"#utility.yul\":985:991   */\n      dup3\n        /* \"#utility.yul\":974:983   */\n      dup6\n        /* \"#utility.yul\":970:992   */\n      add\n        /* \"#utility.yul\":949:1002   */\n      tag_141\n      jump\t// in\n    tag_172:\n        /* \"#utility.yul\":939:1002   */\n      swap2\n      pop\n        /* \"#utility.yul\":895:1012   */\n      pop\n        /* \"#utility.yul\":690:1019   */\n      swap3\n      swap2\n      pop\n      pop\n      jump\t// out\n        /* \"#utility.yul\":1025:1115   */\n    tag_142:\n        /* \"#utility.yul\":1059:1066   */\n      0x00\n        /* \"#utility.yul\":1102:1107   */\n      dup2\n        /* \"#utility.yul\":1095:1108   */\n      iszero\n        /* \"#utility.yul\":1088:1109   */\n      iszero\n        /* \"#utility.yul\":1077:1109   */\n      swap1\n      pop\n        /* \"#utility.yul\":1025:1115   */\n      swap2\n      swap1\n      pop\n      jump\t// out\n        /* \"#utility.yul\":1121:1230   */\n    tag_143:\n        /* \"#utility.yul\":1202:1223   */\n      tag_175\n        /* \"#utility.yul\":1217:1222   */\n      dup2\n        /* \"#utility.yul\":1202:1223   */\n      tag_142\n      jump\t// in\n    tag_175:\n        /* \"#utility.yul\":1197:1200   */\n      dup3\n        /* \"#utility.yul\":1190:1224   */\n      mstore\n        /* \"#utility.yul\":1121:1230   */\n      pop\n      pop\n      jump\t// out\n        /* \"#utility.yul\":1236:1446   */\n    tag_16:\n        /* \"#utility.yul\":1323:1327   */\n      0x00\n        /* \"#utility.yul\":1361:1363   */\n      0x20\n        /* \"#utility.yul\":1350:1359   */\n      dup3\n        /* \"#utility.yul\":1346:1364   */\n      add\n        /* \"#utility.yul\":1338:1364   */\n      swap1\n      pop\n        /* \"#utility.yul\":1374:1439   */\n      tag_177\n        /* \"#utility.yul\":1436:1437   */\n      0x00\n        /* \"#utility.yul\":1425:1434   */\n      dup4\n        /* \"#utility.yul\":1421:1438   */\n      add\n        /* \"#utility.yul\":1412:1418   */\n      dup5\n        /* \"#utility.yul\":1374:1439   */\n      tag_143\n      jump\t// in\n    tag_177:\n        /* \"#utility.yul\":1236:1446   */\n      swap3\n      swap2\n      pop\n      pop\n      jump\t// out\n        /* \"#utility.yul\":1452:1538   */\n    tag_144:\n        /* \"#utility.yul\":1487:1494   */\n      0x00\n        /* \"#utility.yul\":1527:1531   */\n      0xff\n        /* \"#utility.yul\":1520:1525   */\n      dup3\n        /* \"#utility.yul\":1516:1532   */\n      and\n        /* \"#utility.yul\":1505:1532   */\n      swap1\n      pop\n        /* \"#utility.yul\":1452:1538   */\n      swap2\n      swap1\n      pop\n      jump\t// out\n        /* \"#utility.yul\":1544:1656   */\n    tag_145:\n        /* \"#utility.yul\":1627:1649   */\n      tag_180\n        /* \"#utility.yul\":1643:1648   */\n      dup2\n        /* \"#utility.yul\":1627:1649   */\n      tag_144\n      jump\t// in\n    tag_180:\n        /* \"#utility.yul\":1622:1625   */\n      dup3\n        /* \"#utility.yul\":1615:1650   */\n      mstore\n        /* \"#utility.yul\":1544:1656   */\n      pop\n      pop\n      jump\t// out\n        /* \"#utility.yul\":1662:1876   */\n    tag_20:\n        /* \"#utility.yul\":1751:1755   */\n      0x00\n        /* \"#utility.yul\":1789:1791   */\n      0x20\n        /* \"#utility.yul\":1778:1787   */\n      dup3\n        /* \"#utility.yul\":1774:1792   */\n      add\n        /* \"#utility.yul\":1766:1792   */\n      swap1\n      pop\n        /* \"#utility.yul\":1802:1869   */\n      tag_182\n        /* \"#utility.yul\":1866:1867   */\n      0x00\n        /* \"#utility.yul\":1855:1864   */\n      dup4\n        /* \"#utility.yul\":1851:1868   */\n      add\n        /* \"#utility.yul\":1842:1848   */\n      dup5\n        /* \"#utility.yul\":1802:1869   */\n      tag_145\n      jump\t// in\n    tag_182:\n        /* \"#utility.yul\":1662:1876   */\n      swap3\n      swap2\n      pop\n      pop\n      jump\t// out\n        /* \"#utility.yul\":1882:2008   */\n    tag_146:\n        /* \"#utility.yul\":1919:1926   */\n      0x00\n        /* \"#utility.yul\":1959:2001   */\n      0xffffffffffffffffffffffffffffffffffffffff\n        /* \"#utility.yul\":1952:1957   */\n      dup3\n        /* \"#utility.yul\":1948:2002   */\n      and\n        /* \"#utility.yul\":1937:2002   */\n      swap1\n      pop\n        /* \"#utility.yul\":1882:2008   */\n      swap2\n      swap1\n      pop\n      jump\t// out\n        /* \"#utility.yul\":2014:2110   */\n    tag_147:\n        /* \"#utility.yul\":2051:2058   */\n      0x00\n        /* \"#utility.yul\":2080:2104   */\n      tag_185\n        /* \"#utility.yul\":2098:2103   */\n      dup3\n        /* \"#utility.yul\":2080:2104   */\n      tag_146\n      jump\t// in\n    tag_185:\n        /* \"#utility.yul\":2069:2104   */\n      swap1\n      pop\n        /* \"#utility.yul\":2014:2110   */\n      swap2\n      swap1\n      pop\n      jump\t// out\n        /* \"#utility.yul\":2116:2238   */\n    tag_148:\n        /* \"#utility.yul\":2189:2213   */\n      tag_187\n        /* \"#utility.yul\":2207:2212   */\n      dup2\n        /* \"#utility.yul\":2189:2213   */\n      tag_147\n      jump\t// in\n    tag_187:\n        /* \"#utility.yul\":2182:2187   */\n      dup2\n        /* \"#utility.yul\":2179:2214   */\n      eq\n        /* \"#utility.yul\":2169:2232   */\n      tag_188\n      jumpi\n        /* \"#utility.yul\":2228:2229   */\n      0x00\n        /* \"#utility.yul\":2225:2226   */\n      dup1\n        /* \"#utility.yul\":2218:2230   */\n      revert\n        /* \"#utility.yul\":2169:2232   */\n    tag_188:\n        /* \"#utility.yul\":2116:2238   */\n      pop\n      jump\t// out\n        /* \"#utility.yul\":2244:2383   */\n    tag_149:\n        /* \"#utility.yul\":2290:2295   */\n      0x00\n        /* \"#utility.yul\":2328:2334   */\n      dup2\n        /* \"#utility.yul\":2315:2335   */\n      calldataload\n        /* \"#utility.yul\":2306:2335   */\n      swap1\n      pop\n        /* \"#utility.yul\":2344:2377   */\n      tag_190\n        /* \"#utility.yul\":2371:2376   */\n      dup2\n        /* \"#utility.yul\":2344:2377   */\n      tag_148\n      jump\t// in\n    tag_190:\n        /* \"#utility.yul\":2244:2383   */\n      swap3\n      swap2\n      pop\n      pop\n      jump\t// out\n        /* \"#utility.yul\":2389:2718   */\n    tag_23:\n        /* \"#utility.yul\":2448:2454   */\n      0x00\n        /* \"#utility.yul\":2497:2499   */\n      0x20\n        /* \"#utility.yul\":2485:2494   */\n      dup3\n        /* \"#utility.yul\":2476:2483   */\n      dup5\n        /* \"#utility.yul\":2472:2495   */\n      sub\n        /* \"#utility.yul\":2468:2500   */\n      slt\n        /* \"#utility.yul\":2465:2584   */\n      iszero\n      tag_192\n      jumpi\n        /* \"#utility.yul\":2503:2582   */\n      tag_193\n      tag_137\n      jump\t// in\n    tag_193:\n        /* \"#utility.yul\":2465:2584   */\n    tag_192:\n        /* \"#utility.yul\":2623:2624   */\n      0x00\n        /* \"#utility.yul\":2648:2701   */\n      tag_194\n        /* \"#utility.yul\":2693:2700   */\n      dup5\n        /* \"#utility.yul\":2684:2690   */\n      dup3\n        /* \"#utility.yul\":2673:2682   */\n      dup6\n        /* \"#utility.yul\":2669:2691   */\n      add\n        /* \"#utility.yul\":2648:2701   */\n      tag_149\n      jump\t// in\n    tag_194:\n        /* \"#utility.yul\":2638:2701   */\n      swap2\n      pop\n        /* \"#utility.yul\":2594:2711   */\n      pop\n        /* \"#utility.yul\":2389:2718   */\n      swap3\n      swap2\n      pop\n      pop\n      jump\t// out\n        /* \"#utility.yul\":2724:2842   */\n    tag_150:\n        /* \"#utility.yul\":2795:2817   */\n      tag_196\n        /* \"#utility.yul\":2811:2816   */\n      dup2\n        /* \"#utility.yul\":2795:2817   */\n      tag_144\n      jump\t// in\n    tag_196:\n        /* \"#utility.yul\":2788:2793   */\n      dup2\n        /* \"#utility.yul\":2785:2818   */\n      eq\n        /* \"#utility.yul\":2775:2836   */\n      tag_197\n      jumpi\n        /* \"#utility.yul\":2832:2833   */\n      0x00\n        /* \"#utility.yul\":2829:2830   */\n      dup1\n        /* \"#utility.yul\":2822:2834   */\n      revert\n        /* \"#utility.yul\":2775:2836   */\n    tag_197:\n        /* \"#utility.yul\":2724:2842   */\n      pop\n      jump\t// out\n        /* \"#utility.yul\":2848:2983   */\n    tag_151:\n        /* \"#utility.yul\":2892:2897   */\n      0x00\n        /* \"#utility.yul\":2930:2936   */\n      dup2\n        /* \"#utility.yul\":2917:2937   */\n      calldataload\n        /* \"#utility.yul\":2908:2937   */\n      swap1\n      pop\n        /* \"#utility.yul\":2946:2977   */\n      tag_199\n        /* \"#utility.yul\":2971:2976   */\n      dup2\n        /* \"#utility.yul\":2946:2977   */\n      tag_150\n      jump\t// in\n    tag_199:\n        /* \"#utility.yul\":2848:2983   */\n      swap3\n      swap2\n      pop\n      pop\n      jump\t// out\n        /* \"#utility.yul\":2989:3314   */\n    tag_28:\n        /* \"#utility.yul\":3046:3052   */\n      0x00\n        /* \"#utility.yul\":3095:3097   */\n      0x20\n        /* \"#utility.yul\":3083:3092   */\n      dup3\n        /* \"#utility.yul\":3074:3081   */\n      dup5\n        /* \"#utility.yul\":3070:3093   */\n      sub\n        /* \"#utility.yul\":3066:3098   */\n      slt\n        /* \"#utility.yul\":3063:3182   */\n      iszero\n      tag_201\n      jumpi\n        /* \"#utility.yul\":3101:3180   */\n      tag_202\n      tag_137\n      jump\t// in\n    tag_202:\n        /* \"#utility.yul\":3063:3182   */\n    tag_201:\n        /* \"#utility.yul\":3221:3222   */\n      0x00\n        /* \"#utility.yul\":3246:3297   */\n      tag_203\n        /* \"#utility.yul\":3289:3296   */\n      dup5\n        /* \"#utility.yul\":3280:3286   */\n      dup3\n        /* \"#utility.yul\":3269:3278   */\n      dup6\n        /* \"#utility.yul\":3265:3287   */\n      add\n        /* \"#utility.yul\":3246:3297   */\n      tag_151\n      jump\t// in\n    tag_203:\n        /* \"#utility.yul\":3236:3297   */\n      swap2\n      pop\n        /* \"#utility.yul\":3192:3307   */\n      pop\n        /* \"#utility.yul\":2989:3314   */\n      swap3\n      swap2\n      pop\n      pop\n      jump\t// out\n        /* \"#utility.yul\":3320:3438   */\n    tag_152:\n        /* \"#utility.yul\":3407:3431   */\n      tag_205\n        /* \"#utility.yul\":3425:3430   */\n      dup2\n        /* \"#utility.yul\":3407:3431   */\n      tag_147\n      jump\t// in\n    tag_205:\n        /* \"#utility.yul\":3402:3405   */\n      dup3\n        /* \"#utility.yul\":3395:3432   */\n      mstore\n        /* \"#utility.yul\":3320:3438   */\n      pop\n      pop\n      jump\t// out\n        /* \"#utility.yul\":3444:3666   */\n    tag_35:\n        /* \"#utility.yul\":3537:3541   */\n      0x00\n        /* \"#utility.yul\":3575:3577   */\n      0x20\n        /* \"#utility.yul\":3564:3573   */\n      dup3\n        /* \"#utility.yul\":3560:3578   */\n      add\n        /* \"#utility.yul\":3552:3578   */\n      swap1\n      pop\n        /* \"#utility.yul\":3588:3659   */\n      tag_207\n        /* \"#utility.yul\":3656:3657   */\n      0x00\n        /* \"#utility.yul\":3645:3654   */\n      dup4\n        /* \"#utility.yul\":3641:3658   */\n      add\n        /* \"#utility.yul\":3632:3638   */\n      dup5\n        /* \"#utility.yul\":3588:3659   */\n      tag_152\n      jump\t// in\n    tag_207:\n        /* \"#utility.yul\":3444:3666   */\n      swap3\n      swap2\n      pop\n      pop\n      jump\t// out\n        /* \"#utility.yul\":3672:3771   */\n    tag_153:\n        /* \"#utility.yul\":3724:3730   */\n      0x00\n        /* \"#utility.yul\":3758:3763   */\n      dup2\n        /* \"#utility.yul\":3752:3764   */\n      mload\n        /* \"#utility.yul\":3742:3764   */\n      swap1\n      pop\n        /* \"#utility.yul\":3672:3771   */\n      swap2\n      swap1\n      pop\n      jump\t// out\n        /* \"#utility.yul\":3777:3946   */\n    tag_154:\n        /* \"#utility.yul\":3861:3872   */\n      0x00\n        /* \"#utility.yul\":3895:3901   */\n      dup3\n        /* \"#utility.yul\":3890:3893   */\n      dup3\n        /* \"#utility.yul\":3883:3902   */\n      mstore\n        /* \"#utility.yul\":3935:3939   */\n      0x20\n        /* \"#utility.yul\":3930:3933   */\n      dup3\n        /* \"#utility.yul\":3926:3940   */\n      add\n        /* \"#utility.yul\":3911:3940   */\n      swap1\n      pop\n        /* \"#utility.yul\":3777:3946   */\n      swap3\n      swap2\n      pop\n      pop\n      jump\t// out\n        /* \"#utility.yul\":3952:4259   */\n    tag_155:\n        /* \"#utility.yul\":4020:4021   */\n      0x00\n        /* \"#utility.yul\":4030:4143   */\n    tag_211:\n        /* \"#utility.yul\":4044:4050   */\n      dup4\n        /* \"#utility.yul\":4041:4042   */\n      dup2\n        /* \"#utility.yul\":4038:4051   */\n      lt\n        /* \"#utility.yul\":4030:4143   */\n      iszero\n      tag_213\n      jumpi\n        /* \"#utility.yul\":4129:4130   */\n      dup1\n        /* \"#utility.yul\":4124:4127   */\n      dup3\n        /* \"#utility.yul\":4120:4131   */\n      add\n        /* \"#utility.yul\":4114:4132   */\n      mload\n        /* \"#utility.yul\":4110:4111   */\n      dup2\n        /* \"#utility.yul\":4105:4108   */\n      dup5\n        /* \"#utility.yul\":4101:4112   */\n      add\n        /* \"#utility.yul\":4094:4133   */\n      mstore\n        /* \"#utility.yul\":4066:4068   */\n      0x20\n        /* \"#utility.yul\":4063:4064   */\n      dup2\n        /* \"#utility.yul\":4059:4069   */\n      add\n        /* \"#utility.yul\":4054:4069   */\n      swap1\n      pop\n        /* \"#utility.yul\":4030:4143   */\n      jump(tag_211)\n    tag_213:\n        /* \"#utility.yul\":4161:4167   */\n      dup4\n        /* \"#utility.yul\":4158:4159   */\n      dup2\n        /* \"#utility.yul\":4155:4168   */\n      gt\n        /* \"#utility.yul\":4152:4253   */\n      iszero\n      tag_214\n      jumpi\n        /* \"#utility.yul\":4241:4242   */\n      0x00\n        /* \"#utility.yul\":4232:4238   */\n      dup5\n        /* \"#utility.yul\":4227:4230   */\n      dup5\n        /* \"#utility.yul\":4223:4239   */\n      add\n        /* \"#utility.yul\":4216:4243   */\n      mstore\n        /* \"#utility.yul\":4152:4253   */\n    tag_214:\n        /* \"#utility.yul\":4001:4259   */\n      pop\n        /* \"#utility.yul\":3952:4259   */\n      pop\n      pop\n      pop\n      jump\t// out\n        /* \"#utility.yul\":4265:4367   */\n    tag_156:\n        /* \"#utility.yul\":4306:4312   */\n      0x00\n        /* \"#utility.yul\":4357:4359   */\n      0x1f\n        /* \"#utility.yul\":4353:4360   */\n      not\n        /* \"#utility.yul\":4348:4350   */\n      0x1f\n        /* \"#utility.yul\":4341:4346   */\n      dup4\n        /* \"#utility.yul\":4337:4351   */\n      add\n        /* \"#utility.yul\":4333:4361   */\n      and\n        /* \"#utility.yul\":4323:4361   */\n      swap1\n      pop\n        /* \"#utility.yul\":4265:4367   */\n      swap2\n      swap1\n      pop\n      jump\t// out\n        /* \"#utility.yul\":4373:4737   */\n    tag_157:\n        /* \"#utility.yul\":4461:4464   */\n      0x00\n        /* \"#utility.yul\":4489:4528   */\n      tag_217\n        /* \"#utility.yul\":4522:4527   */\n      dup3\n        /* \"#utility.yul\":4489:4528   */\n      tag_153\n      jump\t// in\n    tag_217:\n        /* \"#utility.yul\":4544:4615   */\n      tag_218\n        /* \"#utility.yul\":4608:4614   */\n      dup2\n        /* \"#utility.yul\":4603:4606   */\n      dup6\n        /* \"#utility.yul\":4544:4615   */\n      tag_154\n      jump\t// in\n    tag_218:\n        /* \"#utility.yul\":4537:4615   */\n      swap4\n      pop\n        /* \"#utility.yul\":4624:4676   */\n      tag_219\n        /* \"#utility.yul\":4669:4675   */\n      dup2\n        /* \"#utility.yul\":4664:4667   */\n      dup6\n        /* \"#utility.yul\":4657:4661   */\n      0x20\n        /* \"#utility.yul\":4650:4655   */\n      dup7\n        /* \"#utility.yul\":4646:4662   */\n      add\n        /* \"#utility.yul\":4624:4676   */\n      tag_155\n      jump\t// in\n    tag_219:\n        /* \"#utility.yul\":4701:4730   */\n      tag_220\n        /* \"#utility.yul\":4723:4729   */\n      dup2\n        /* \"#utility.yul\":4701:4730   */\n      tag_156\n      jump\t// in\n    tag_220:\n        /* \"#utility.yul\":4696:4699   */\n      dup5\n        /* \"#utility.yul\":4692:4731   */\n      add\n        /* \"#utility.yul\":4685:4731   */\n      swap2\n      pop\n        /* \"#utility.yul\":4465:4737   */\n      pop\n        /* \"#utility.yul\":4373:4737   */\n      swap3\n      swap2\n      pop\n      pop\n      jump\t// out\n        /* \"#utility.yul\":4743:5056   */\n    tag_40:\n        /* \"#utility.yul\":4856:4860   */\n      0x00\n        /* \"#utility.yul\":4894:4896   */\n      0x20\n        /* \"#utility.yul\":4883:4892   */\n      dup3\n        /* \"#utility.yul\":4879:4897   */\n      add\n        /* \"#utility.yul\":4871:4897   */\n      swap1\n      pop\n        /* \"#utility.yul\":4943:4952   */\n      dup2\n        /* \"#utility.yul\":4937:4941   */\n      dup2\n        /* \"#utility.yul\":4933:4953   */\n      sub\n        /* \"#utility.yul\":4929:4930   */\n      0x00\n        /* \"#utility.yul\":4918:4927   */\n      dup4\n        /* \"#utility.yul\":4914:4931   */\n      add\n        /* \"#utility.yul\":4907:4954   */\n      mstore\n        /* \"#utility.yul\":4971:5049   */\n      tag_222\n        /* \"#utility.yul\":5044:5048   */\n      dup2\n        /* \"#utility.yul\":5035:5041   */\n      dup5\n        /* \"#utility.yul\":4971:5049   */\n      tag_157\n      jump\t// in\n    tag_222:\n        /* \"#utility.yul\":4963:5049   */\n      swap1\n      pop\n        /* \"#utility.yul\":4743:5056   */\n      swap3\n      swap2\n      pop\n      pop\n      jump\t// out\n        /* \"#utility.yul\":5062:5242   */\n    tag_158:\n        /* \"#utility.yul\":5110:5187   */\n      0x4e487b7100000000000000000000000000000000000000000000000000000000\n        /* \"#utility.yul\":5107:5108   */\n      0x00\n        /* \"#utility.yul\":5100:5188   */\n      mstore\n        /* \"#utility.yul\":5207:5211   */\n      0x11\n        /* \"#utility.yul\":5204:5205   */\n      0x04\n        /* \"#utility.yul\":5197:5212   */\n      mstore\n        /* \"#utility.yul\":5231:5235   */\n      0x24\n        /* \"#utility.yul\":5228:5229   */\n      0x00\n        /* \"#utility.yul\":5221:5236   */\n      revert\n        /* \"#utility.yul\":5248:5415   */\n    tag_56:\n        /* \"#utility.yul\":5285:5288   */\n      0x00\n        /* \"#utility.yul\":5308:5330   */\n      tag_225\n        /* \"#utility.yul\":5324:5329   */\n      dup3\n        /* \"#utility.yul\":5308:5330   */\n      tag_144\n      jump\t// in\n    tag_225:\n        /* \"#utility.yul\":5299:5330   */\n      swap2\n      pop\n        /* \"#utility.yul\":5352:5356   */\n      0xff\n        /* \"#utility.yul\":5345:5350   */\n      dup3\n        /* \"#utility.yul\":5342:5357   */\n      eq\n        /* \"#utility.yul\":5339:5380   */\n      iszero\n      tag_226\n      jumpi\n        /* \"#utility.yul\":5360:5378   */\n      tag_227\n      tag_158\n      jump\t// in\n    tag_227:\n        /* \"#utility.yul\":5339:5380   */\n    tag_226:\n        /* \"#utility.yul\":5407:5408   */\n      0x01\n        /* \"#utility.yul\":5400:5405   */\n      dup3\n        /* \"#utility.yul\":5396:5409   */\n      add\n        /* \"#utility.yul\":5389:5409   */\n      swap1\n      pop\n        /* \"#utility.yul\":5248:5415   */\n      swap2\n      swap1\n      pop\n      jump\t// out\n\n    auxdata: 0xa2646970667358221220916cb2817ed38ba91669b1a1d490d506178d47c4a841032e0ee7e896e630221964736f6c634300080a0033\n}\n",
				"bytecode": {
					"linkReferences": {},
					"object": "608060405234801561001057600080fd5b506000600260146101000a81548160ff021916908360ff1602179055506000600260156101000a81548160ff021916908360ff1602179055506000600260166101000a81548160ff021916908360ff1602179055506000600260176101000a81548160ff021916908360ff1602179055506000600260186101000a81548160ff021916908360ff1602179055506000600260196101000a81548160ff021916908360ff16021790555060006002601a6101000a81548160ff021916908360ff16021790555060006002601b6101000a81548160ff021916908360ff1602179055506000600360006101000a81548173ffffffffffffffffffffffffffffffffffffffff021916908373ffffffffffffffffffffffffffffffffffffffff1602179055506000600360146101000a81548160ff021916908360ff1602179055506118568061015e6000396000f3fe608060405234801561001057600080fd5b506004361061007d5760003560e01c80634c111ff81161005b5780634c111ff81461010057806374a29267146101305780637594a9e614610160578063f2fde38b146101905761007d565b80630121b93f1461008257806320965255146100b25780632bad96ba146100d0575b600080fd5b61009c60048036038101906100979190611564565b6101ac565b6040516100a991906115ac565b60405180910390f35b6100ba610a7e565b6040516100c791906115e3565b60405180910390f35b6100ea60048036038101906100e5919061165c565b610a95565b6040516100f791906115ac565b60405180910390f35b61011a600480360381019061011591906116b5565b610da0565b60405161012791906115ac565b60405180910390f35b61014a60048036038101906101459190611564565b610e20565b60405161015791906116f1565b60405180910390f35b61017a6004803603810190610175919061165c565b610ec3565b60405161018791906117a5565b60405180910390f35b6101aa60048036038101906101a5919061165c565b610f96565b005b60008060009054906101000a900473ffffffffffffffffffffffffffffffffffffffff1673ffffffffffffffffffffffffffffffffffffffff163373ffffffffffffffffffffffffffffffffffffffff1614806102565750600160009054906101000a900473ffffffffffffffffffffffffffffffffffffffff1673ffffffffffffffffffffffffffffffffffffffff163373ffffffffffffffffffffffffffffffffffffffff16145b806102ae5750600260009054906101000a900473ffffffffffffffffffffffffffffffffffffffff1673ffffffffffffffffffffffffffffffffffffffff163373ffffffffffffffffffffffffffffffffffffffff16145b6102b757600080fd5b60018214806102c65750600282145b806102d15750600382145b6102da57600080fd5b60008054906101000a900473ffffffffffffffffffffffffffffffffffffffff1673ffffffffffffffffffffffffffffffffffffffff163373ffffffffffffffffffffffffffffffffffffffff1614801561034757506000600260169054906101000a900460ff1660ff16145b15610439576001821415610392576002601981819054906101000a900460ff1680929190610374906117f6565b91906101000a81548160ff021916908360ff1602179055505061041c565b60028214156103d8576002601a81819054906101000a900460ff16809291906103ba906117f6565b91906101000a81548160ff021916908360ff1602179055505061041b565b600382141561041a576002601b81819054906101000a900460ff1680929190610400906117f6565b91906101000a81548160ff021916908360ff160217905550505b5b5b6001600260166101000a81548160ff021916908360ff1602179055505b600160009054906101000a900473ffffffffffffffffffffffffffffffffffffffff1673ffffffffffffffffffffffffffffffffffffffff163373ffffffffffffffffffffffffffffffffffffffff161480156104a857506000600260179054906101000a900460ff1660ff16145b1561059a5760018214156104f3576002601981819054906101000a900460ff16809291906104d5906117f6565b91906101000a81548160ff021916908360ff1602179055505061057d565b6002821415610539576002601a81819054906101000a900460ff168092919061051b906117f6565b91906101000a81548160ff021916908360ff1602179055505061057c565b600382141561057b576002601b81819054906101000a900460ff1680929190610561906117f6565b91906101000a81548160ff021916908360ff160217905550505b5b5b6001600260176101000a81548160ff021916908360ff1602179055505b600260009054906101000a900473ffffffffffffffffffffffffffffffffffffffff1673ffffffffffffffffffffffffffffffffffffffff163373ffffffffffffffffffffffffffffffffffffffff1614801561060957506000600260189054906101000a900460ff1660ff16145b156106fb576001821415610654576002601981819054906101000a900460ff1680929190610636906117f6565b91906101000a81548160ff021916908360ff160217905550506106de565b600282141561069a576002601a81819054906101000a900460ff168092919061067c906117f6565b91906101000a81548160ff021916908360ff160217905550506106dd565b60038214156106dc576002601b81819054906101000a900460ff16809291906106c2906117f6565b91906101000a81548160ff021916908360ff160217905550505b5b5b6001600260186101000a81548160ff021916908360ff1602179055505b6001600260169054906101000a900460ff1660ff1614801561072f57506001600260179054906101000a900460ff1660ff16145b801561074d57506001600260189054906101000a900460ff1660ff16145b80156107a75750600073ffffffffffffffffffffffffffffffffffffffff16600360009054906101000a900473ffffffffffffffffffffffffffffffffffffffff1673ffffffffffffffffffffffffffffffffffffffff16145b15610a745760028060199054906101000a900460ff1660ff161061082b5760008054906101000a900473ffffffffffffffffffffffffffffffffffffffff16600360006101000a81548173ffffffffffffffffffffffffffffffffffffffff021916908373ffffffffffffffffffffffffffffffffffffffff16021790555061092b565b600280601a9054906101000a900460ff1660ff16106108ac57600160009054906101000a900473ffffffffffffffffffffffffffffffffffffffff16600360006101000a81548173ffffffffffffffffffffffffffffffffffffffff021916908373ffffffffffffffffffffffffffffffffffffffff16021790555061092a565b600280601b9054906101000a900460ff1660ff161061092957600260009054906101000a900473ffffffffffffffffffffffffffffffffffffffff16600360006101000a81548173ffffffffffffffffffffffffffffffffffffffff021916908373ffffffffffffffffffffffffffffffffffffffff1602179055505b5b5b6000600260166101000a81548160ff021916908360ff1602179055506000600260176101000a81548160ff021916908360ff1602179055506000600260186101000a81548160ff021916908360ff1602179055506000600260196101000a81548160ff021916908360ff16021790555060006002601a6101000a81548160ff021916908360ff16021790555060006002601b6101000a81548160ff021916908360ff160217905550600073ffffffffffffffffffffffffffffffffffffffff16600360009054906101000a900473ffffffffffffffffffffffffffffffffffffffff1673ffffffffffffffffffffffffffffffffffffffff161415610a6b576002601581819054906101000a900460ff1680929190610a49906117f6565b91906101000a81548160ff021916908360ff1602179055505060009050610a79565b60019050610a79565b600090505b919050565b6000600360149054906101000a900460ff16905090565b60006003600260149054906101000a900460ff1660ff161415610abb5760009050610d9b565b6000600260149054906101000a900460ff1660ff161415610b5757816000806101000a81548173ffffffffffffffffffffffffffffffffffffffff021916908373ffffffffffffffffffffffffffffffffffffffff1602179055506002601481819054906101000a900460ff1680929190610b35906117f6565b91906101000a81548160ff021916908360ff1602179055505060019050610d9b565b6001600260149054906101000a900460ff1660ff16148015610bc557508173ffffffffffffffffffffffffffffffffffffffff1660008054906101000a900473ffffffffffffffffffffffffffffffffffffffff1673ffffffffffffffffffffffffffffffffffffffff1614155b15610c4c5781600160006101000a81548173ffffffffffffffffffffffffffffffffffffffff021916908373ffffffffffffffffffffffffffffffffffffffff1602179055506002601481819054906101000a900460ff1680929190610c2a906117f6565b91906101000a81548160ff021916908360ff1602179055505060019050610d9b565b60028060149054906101000a900460ff1660ff16148015610cb957508173ffffffffffffffffffffffffffffffffffffffff1660008054906101000a900473ffffffffffffffffffffffffffffffffffffffff1673ffffffffffffffffffffffffffffffffffffffff1614155b8015610d1357508173ffffffffffffffffffffffffffffffffffffffff16600160009054906101000a900473ffffffffffffffffffffffffffffffffffffffff1673ffffffffffffffffffffffffffffffffffffffff1614155b15610d9a5781600260006101000a81548173ffffffffffffffffffffffffffffffffffffffff021916908373ffffffffffffffffffffffffffffffffffffffff1602179055506002601481819054906101000a900460ff1680929190610d78906117f6565b91906101000a81548160ff021916908360ff1602179055505060019050610d9b565b5b919050565b6000600360009054906101000a900473ffffffffffffffffffffffffffffffffffffffff1673ffffffffffffffffffffffffffffffffffffffff163373ffffffffffffffffffffffffffffffffffffffff1614610dfc57600080fd5b81600360146101000a81548160ff021916908360ff16021790555060019050919050565b60006001821415610e535760008054906101000a900473ffffffffffffffffffffffffffffffffffffffff169050610ebe565b6002821415610e8657600160009054906101000a900473ffffffffffffffffffffffffffffffffffffffff169050610ebe565b6003821415610eb957600260009054906101000a900473ffffffffffffffffffffffffffffffffffffffff169050610ebe565b600090505b919050565b60608173ffffffffffffffffffffffffffffffffffffffff16600360009054906101000a900473ffffffffffffffffffffffffffffffffffffffff1673ffffffffffffffffffffffffffffffffffffffff161415610f58576040518060400160405280600981526020017f7265616c4f776e657200000000000000000000000000000000000000000000008152509050610f91565b6040518060400160405280600d81526020017f4e6f74207265616c4f776e65720000000000000000000000000000000000000081525090505b919050565b60008054906101000a900473ffffffffffffffffffffffffffffffffffffffff1673ffffffffffffffffffffffffffffffffffffffff163373ffffffffffffffffffffffffffffffffffffffff16148061103d5750600160009054906101000a900473ffffffffffffffffffffffffffffffffffffffff1673ffffffffffffffffffffffffffffffffffffffff163373ffffffffffffffffffffffffffffffffffffffff16145b806110955750600260009054906101000a900473ffffffffffffffffffffffffffffffffffffffff1673ffffffffffffffffffffffffffffffffffffffff163373ffffffffffffffffffffffffffffffffffffffff16145b61109e57600080fd5b60008054906101000a900473ffffffffffffffffffffffffffffffffffffffff1673ffffffffffffffffffffffffffffffffffffffff168173ffffffffffffffffffffffffffffffffffffffff16141580156111485750600160009054906101000a900473ffffffffffffffffffffffffffffffffffffffff1673ffffffffffffffffffffffffffffffffffffffff168173ffffffffffffffffffffffffffffffffffffffff1614155b80156111a25750600260009054906101000a900473ffffffffffffffffffffffffffffffffffffffff1673ffffffffffffffffffffffffffffffffffffffff168173ffffffffffffffffffffffffffffffffffffffff1614155b6111ab57600080fd5b600073ffffffffffffffffffffffffffffffffffffffff168173ffffffffffffffffffffffffffffffffffffffff1614156111e557600080fd5b60008054906101000a900473ffffffffffffffffffffffffffffffffffffffff1673ffffffffffffffffffffffffffffffffffffffff163373ffffffffffffffffffffffffffffffffffffffff1614156112f857806000806101000a81548173ffffffffffffffffffffffffffffffffffffffff021916908373ffffffffffffffffffffffffffffffffffffffff1602179055508073ffffffffffffffffffffffffffffffffffffffff1660008054906101000a900473ffffffffffffffffffffffffffffffffffffffff1673ffffffffffffffffffffffffffffffffffffffff167f2ae143016adc0aa482e6ba5d9a350f3e3122aeb005ca4bf47d1d7b8221bce47260405160405180910390a3611526565b600160009054906101000a900473ffffffffffffffffffffffffffffffffffffffff1673ffffffffffffffffffffffffffffffffffffffff163373ffffffffffffffffffffffffffffffffffffffff1614156114105780600160006101000a81548173ffffffffffffffffffffffffffffffffffffffff021916908373ffffffffffffffffffffffffffffffffffffffff1602179055508073ffffffffffffffffffffffffffffffffffffffff16600160009054906101000a900473ffffffffffffffffffffffffffffffffffffffff1673ffffffffffffffffffffffffffffffffffffffff167f2ae143016adc0aa482e6ba5d9a350f3e3122aeb005ca4bf47d1d7b8221bce47260405160405180910390a3611525565b600260009054906101000a900473ffffffffffffffffffffffffffffffffffffffff1673ffffffffffffffffffffffffffffffffffffffff163373ffffffffffffffffffffffffffffffffffffffff1614156115245780600260006101000a81548173ffffffffffffffffffffffffffffffffffffffff021916908373ffffffffffffffffffffffffffffffffffffffff1602179055508073ffffffffffffffffffffffffffffffffffffffff16600260009054906101000a900473ffffffffffffffffffffffffffffffffffffffff1673ffffffffffffffffffffffffffffffffffffffff167f2ae143016adc0aa482e6ba5d9a350f3e3122aeb005ca4bf47d1d7b8221bce47260405160405180910390a35b5b5b50565b600080fd5b6000819050919050565b6115418161152e565b811461154c57600080fd5b50565b60008135905061155e81611538565b92915050565b60006020828403121561157a57611579611529565b5b60006115888482850161154f565b91505092915050565b60008115159050919050565b6115a681611591565b82525050565b60006020820190506115c1600083018461159d565b92915050565b600060ff82169050919050565b6115dd816115c7565b82525050565b60006020820190506115f860008301846115d4565b92915050565b600073ffffffffffffffffffffffffffffffffffffffff82169050919050565b6000611629826115fe565b9050919050565b6116398161161e565b811461164457600080fd5b50565b60008135905061165681611630565b92915050565b60006020828403121561167257611671611529565b5b600061168084828501611647565b91505092915050565b611692816115c7565b811461169d57600080fd5b50565b6000813590506116af81611689565b92915050565b6000602082840312156116cb576116ca611529565b5b60006116d9848285016116a0565b91505092915050565b6116eb8161161e565b82525050565b600060208201905061170660008301846116e2565b92915050565b600081519050919050565b600082825260208201905092915050565b60005b8381101561174657808201518184015260208101905061172b565b83811115611755576000848401525b50505050565b6000601f19601f8301169050919050565b60006117778261170c565b6117818185611717565b9350611791818560208601611728565b61179a8161175b565b840191505092915050565b600060208201905081810360008301526117bf818461176c565b905092915050565b7f4e487b7100000000000000000000000000000000000000000000000000000000600052601160045260246000fd5b6000611801826115c7565b915060ff821415611815576118146117c7565b5b60018201905091905056fea2646970667358221220916cb2817ed38ba91669b1a1d490d506178d47c4a841032e0ee7e896e630221964736f6c634300080a0033",
					"opcodes": "PUSH1 0x80 PUSH1 0x40 MSTORE CALLVALUE DUP1 ISZERO PUSH2 0x10 JUMPI PUSH1 0x0 DUP1 REVERT JUMPDEST POP PUSH1 0x0 PUSH1 0x2 PUSH1 0x14 PUSH2 0x100 EXP DUP2 SLOAD DUP2 PUSH1 0xFF MUL NOT AND SWAP1 DUP4 PUSH1 0xFF AND MUL OR SWAP1 SSTORE POP PUSH1 0x0 PUSH1 0x2 PUSH1 0x15 PUSH2 0x100 EXP DUP2 SLOAD DUP2 PUSH1 0xFF MUL NOT AND SWAP1 DUP4 PUSH1 0xFF AND MUL OR SWAP1 SSTORE POP PUSH1 0x0 PUSH1 0x2 PUSH1 0x16 PUSH2 0x100 EXP DUP2 SLOAD DUP2 PUSH1 0xFF MUL NOT AND SWAP1 DUP4 PUSH1 0xFF AND MUL OR SWAP1 SSTORE POP PUSH1 0x0 PUSH1 0x2 PUSH1 0x17 PUSH2 0x100 EXP DUP2 SLOAD DUP2 PUSH1 0xFF MUL NOT AND SWAP1 DUP4 PUSH1 0xFF AND MUL OR SWAP1 SSTORE POP PUSH1 0x0 PUSH1 0x2 PUSH1 0x18 PUSH2 0x100 EXP DUP2 SLOAD DUP2 PUSH1 0xFF MUL NOT AND SWAP1 DUP4 PUSH1 0xFF AND MUL OR SWAP1 SSTORE POP PUSH1 0x0 PUSH1 0x2 PUSH1 0x19 PUSH2 0x100 EXP DUP2 SLOAD DUP2 PUSH1 0xFF MUL NOT AND SWAP1 DUP4 PUSH1 0xFF AND MUL OR SWAP1 SSTORE POP PUSH1 0x0 PUSH1 0x2 PUSH1 0x1A PUSH2 0x100 EXP DUP2 SLOAD DUP2 PUSH1 0xFF MUL NOT AND SWAP1 DUP4 PUSH1 0xFF AND MUL OR SWAP1 SSTORE POP PUSH1 0x0 PUSH1 0x2 PUSH1 0x1B PUSH2 0x100 EXP DUP2 SLOAD DUP2 PUSH1 0xFF MUL NOT AND SWAP1 DUP4 PUSH1 0xFF AND MUL OR SWAP1 SSTORE POP PUSH1 0x0 PUSH1 0x3 PUSH1 0x0 PUSH2 0x100 EXP DUP2 SLOAD DUP2 PUSH20 0xFFFFFFFFFFFFFFFFFFFFFFFFFFFFFFFFFFFFFFFF MUL NOT AND SWAP1 DUP4 PUSH20 0xFFFFFFFFFFFFFFFFFFFFFFFFFFFFFFFFFFFFFFFF AND MUL OR SWAP1 SSTORE POP PUSH1 0x0 PUSH1 0x3 PUSH1 0x14 PUSH2 0x100 EXP DUP2 SLOAD DUP2 PUSH1 0xFF MUL NOT AND SWAP1 DUP4 PUSH1 0xFF AND MUL OR SWAP1 SSTORE POP PUSH2 0x1856 DUP1 PUSH2 0x15E PUSH1 0x0 CODECOPY PUSH1 0x0 RETURN INVALID PUSH1 0x80 PUSH1 0x40 MSTORE CALLVALUE DUP1 ISZERO PUSH2 0x10 JUMPI PUSH1 0x0 DUP1 REVERT JUMPDEST POP PUSH1 0x4 CALLDATASIZE LT PUSH2 0x7D JUMPI PUSH1 0x0 CALLDATALOAD PUSH1 0xE0 SHR DUP1 PUSH4 0x4C111FF8 GT PUSH2 0x5B JUMPI DUP1 PUSH4 0x4C111FF8 EQ PUSH2 0x100 JUMPI DUP1 PUSH4 0x74A29267 EQ PUSH2 0x130 JUMPI DUP1 PUSH4 0x7594A9E6 EQ PUSH2 0x160 JUMPI DUP1 PUSH4 0xF2FDE38B EQ PUSH2 0x190 JUMPI PUSH2 0x7D JUMP JUMPDEST DUP1 PUSH4 0x121B93F EQ PUSH2 0x82 JUMPI DUP1 PUSH4 0x20965255 EQ PUSH2 0xB2 JUMPI DUP1 PUSH4 0x2BAD96BA EQ PUSH2 0xD0 JUMPI JUMPDEST PUSH1 0x0 DUP1 REVERT JUMPDEST PUSH2 0x9C PUSH1 0x4 DUP1 CALLDATASIZE SUB DUP2 ADD SWAP1 PUSH2 0x97 SWAP2 SWAP1 PUSH2 0x1564 JUMP JUMPDEST PUSH2 0x1AC JUMP JUMPDEST PUSH1 0x40 MLOAD PUSH2 0xA9 SWAP2 SWAP1 PUSH2 0x15AC JUMP JUMPDEST PUSH1 0x40 MLOAD DUP1 SWAP2 SUB SWAP1 RETURN JUMPDEST PUSH2 0xBA PUSH2 0xA7E JUMP JUMPDEST PUSH1 0x40 MLOAD PUSH2 0xC7 SWAP2 SWAP1 PUSH2 0x15E3 JUMP JUMPDEST PUSH1 0x40 MLOAD DUP1 SWAP2 SUB SWAP1 RETURN JUMPDEST PUSH2 0xEA PUSH1 0x4 DUP1 CALLDATASIZE SUB DUP2 ADD SWAP1 PUSH2 0xE5 SWAP2 SWAP1 PUSH2 0x165C JUMP JUMPDEST PUSH2 0xA95 JUMP JUMPDEST PUSH1 0x40 MLOAD PUSH2 0xF7 SWAP2 SWAP1 PUSH2 0x15AC JUMP JUMPDEST PUSH1 0x40 MLOAD DUP1 SWAP2 SUB SWAP1 RETURN JUMPDEST PUSH2 0x11A PUSH1 0x4 DUP1 CALLDATASIZE SUB DUP2 ADD SWAP1 PUSH2 0x115 SWAP2 SWAP1 PUSH2 0x16B5 JUMP JUMPDEST PUSH2 0xDA0 JUMP JUMPDEST PUSH1 0x40 MLOAD PUSH2 0x127 SWAP2 SWAP1 PUSH2 0x15AC JUMP JUMPDEST PUSH1 0x40 MLOAD DUP1 SWAP2 SUB SWAP1 RETURN JUMPDEST PUSH2 0x14A PUSH1 0x4 DUP1 CALLDATASIZE SUB DUP2 ADD SWAP1 PUSH2 0x145 SWAP2 SWAP1 PUSH2 0x1564 JUMP JUMPDEST PUSH2 0xE20 JUMP JUMPDEST PUSH1 0x40 MLOAD PUSH2 0x157 SWAP2 SWAP1 PUSH2 0x16F1 JUMP JUMPDEST PUSH1 0x40 MLOAD DUP1 SWAP2 SUB SWAP1 RETURN JUMPDEST PUSH2 0x17A PUSH1 0x4 DUP1 CALLDATASIZE SUB DUP2 ADD SWAP1 PUSH2 0x175 SWAP2 SWAP1 PUSH2 0x165C JUMP JUMPDEST PUSH2 0xEC3 JUMP JUMPDEST PUSH1 0x40 MLOAD PUSH2 0x187 SWAP2 SWAP1 PUSH2 0x17A5 JUMP JUMPDEST PUSH1 0x40 MLOAD DUP1 SWAP2 SUB SWAP1 RETURN JUMPDEST PUSH2 0x1AA PUSH1 0x4 DUP1 CALLDATASIZE SUB DUP2 ADD SWAP1 PUSH2 0x1A5 SWAP2 SWAP1 PUSH2 0x165C JUMP JUMPDEST PUSH2 0xF96 JUMP JUMPDEST STOP JUMPDEST PUSH1 0x0 DUP1 PUSH1 0x0 SWAP1 SLOAD SWAP1 PUSH2 0x100 EXP SWAP1 DIV PUSH20 0xFFFFFFFFFFFFFFFFFFFFFFFFFFFFFFFFFFFFFFFF AND PUSH20 0xFFFFFFFFFFFFFFFFFFFFFFFFFFFFFFFFFFFFFFFF AND CALLER PUSH20 0xFFFFFFFFFFFFFFFFFFFFFFFFFFFFFFFFFFFFFFFF AND EQ DUP1 PUSH2 0x256 JUMPI POP PUSH1 0x1 PUSH1 0x0 SWAP1 SLOAD SWAP1 PUSH2 0x100 EXP SWAP1 DIV PUSH20 0xFFFFFFFFFFFFFFFFFFFFFFFFFFFFFFFFFFFFFFFF AND PUSH20 0xFFFFFFFFFFFFFFFFFFFFFFFFFFFFFFFFFFFFFFFF AND CALLER PUSH20 0xFFFFFFFFFFFFFFFFFFFFFFFFFFFFFFFFFFFFFFFF AND EQ JUMPDEST DUP1 PUSH2 0x2AE JUMPI POP PUSH1 0x2 PUSH1 0x0 SWAP1 SLOAD SWAP1 PUSH2 0x100 EXP SWAP1 DIV PUSH20 0xFFFFFFFFFFFFFFFFFFFFFFFFFFFFFFFFFFFFFFFF AND PUSH20 0xFFFFFFFFFFFFFFFFFFFFFFFFFFFFFFFFFFFFFFFF AND CALLER PUSH20 0xFFFFFFFFFFFFFFFFFFFFFFFFFFFFFFFFFFFFFFFF AND EQ JUMPDEST PUSH2 0x2B7 JUMPI PUSH1 0x0 DUP1 REVERT JUMPDEST PUSH1 0x1 DUP3 EQ DUP1 PUSH2 0x2C6 JUMPI POP PUSH1 0x2 DUP3 EQ JUMPDEST DUP1 PUSH2 0x2D1 JUMPI POP PUSH1 0x3 DUP3 EQ JUMPDEST PUSH2 0x2DA JUMPI PUSH1 0x0 DUP1 REVERT JUMPDEST PUSH1 0x0 DUP1 SLOAD SWAP1 PUSH2 0x100 EXP SWAP1 DIV PUSH20 0xFFFFFFFFFFFFFFFFFFFFFFFFFFFFFFFFFFFFFFFF AND PUSH20 0xFFFFFFFFFFFFFFFFFFFFFFFFFFFFFFFFFFFFFFFF AND CALLER PUSH20 0xFFFFFFFFFFFFFFFFFFFFFFFFFFFFFFFFFFFFFFFF AND EQ DUP1 ISZERO PUSH2 0x347 JUMPI POP PUSH1 0x0 PUSH1 0x2 PUSH1 0x16 SWAP1 SLOAD SWAP1 PUSH2 0x100 EXP SWAP1 DIV PUSH1 0xFF AND PUSH1 0xFF AND EQ JUMPDEST ISZERO PUSH2 0x439 JUMPI PUSH1 0x1 DUP3 EQ ISZERO PUSH2 0x392 JUMPI PUSH1 0x2 PUSH1 0x19 DUP2 DUP2 SWAP1 SLOAD SWAP1 PUSH2 0x100 EXP SWAP1 DIV PUSH1 0xFF AND DUP1 SWAP3 SWAP2 SWAP1 PUSH2 0x374 SWAP1 PUSH2 0x17F6 JUMP JUMPDEST SWAP2 SWAP1 PUSH2 0x100 EXP DUP2 SLOAD DUP2 PUSH1 0xFF MUL NOT AND SWAP1 DUP4 PUSH1 0xFF AND MUL OR SWAP1 SSTORE POP POP PUSH2 0x41C JUMP JUMPDEST PUSH1 0x2 DUP3 EQ ISZERO PUSH2 0x3D8 JUMPI PUSH1 0x2 PUSH1 0x1A DUP2 DUP2 SWAP1 SLOAD SWAP1 PUSH2 0x100 EXP SWAP1 DIV PUSH1 0xFF AND DUP1 SWAP3 SWAP2 SWAP1 PUSH2 0x3BA SWAP1 PUSH2 0x17F6 JUMP JUMPDEST SWAP2 SWAP1 PUSH2 0x100 EXP DUP2 SLOAD DUP2 PUSH1 0xFF MUL NOT AND SWAP1 DUP4 PUSH1 0xFF AND MUL OR SWAP1 SSTORE POP POP PUSH2 0x41B JUMP JUMPDEST PUSH1 0x3 DUP3 EQ ISZERO PUSH2 0x41A JUMPI PUSH1 0x2 PUSH1 0x1B DUP2 DUP2 SWAP1 SLOAD SWAP1 PUSH2 0x100 EXP SWAP1 DIV PUSH1 0xFF AND DUP1 SWAP3 SWAP2 SWAP1 PUSH2 0x400 SWAP1 PUSH2 0x17F6 JUMP JUMPDEST SWAP2 SWAP1 PUSH2 0x100 EXP DUP2 SLOAD DUP2 PUSH1 0xFF MUL NOT AND SWAP1 DUP4 PUSH1 0xFF AND MUL OR SWAP1 SSTORE POP POP JUMPDEST JUMPDEST JUMPDEST PUSH1 0x1 PUSH1 0x2 PUSH1 0x16 PUSH2 0x100 EXP DUP2 SLOAD DUP2 PUSH1 0xFF MUL NOT AND SWAP1 DUP4 PUSH1 0xFF AND MUL OR SWAP1 SSTORE POP JUMPDEST PUSH1 0x1 PUSH1 0x0 SWAP1 SLOAD SWAP1 PUSH2 0x100 EXP SWAP1 DIV PUSH20 0xFFFFFFFFFFFFFFFFFFFFFFFFFFFFFFFFFFFFFFFF AND PUSH20 0xFFFFFFFFFFFFFFFFFFFFFFFFFFFFFFFFFFFFFFFF AND CALLER PUSH20 0xFFFFFFFFFFFFFFFFFFFFFFFFFFFFFFFFFFFFFFFF AND EQ DUP1 ISZERO PUSH2 0x4A8 JUMPI POP PUSH1 0x0 PUSH1 0x2 PUSH1 0x17 SWAP1 SLOAD SWAP1 PUSH2 0x100 EXP SWAP1 DIV PUSH1 0xFF AND PUSH1 0xFF AND EQ JUMPDEST ISZERO PUSH2 0x59A JUMPI PUSH1 0x1 DUP3 EQ ISZERO PUSH2 0x4F3 JUMPI PUSH1 0x2 PUSH1 0x19 DUP2 DUP2 SWAP1 SLOAD SWAP1 PUSH2 0x100 EXP SWAP1 DIV PUSH1 0xFF AND DUP1 SWAP3 SWAP2 SWAP1 PUSH2 0x4D5 SWAP1 PUSH2 0x17F6 JUMP JUMPDEST SWAP2 SWAP1 PUSH2 0x100 EXP DUP2 SLOAD DUP2 PUSH1 0xFF MUL NOT AND SWAP1 DUP4 PUSH1 0xFF AND MUL OR SWAP1 SSTORE POP POP PUSH2 0x57D JUMP JUMPDEST PUSH1 0x2 DUP3 EQ ISZERO PUSH2 0x539 JUMPI PUSH1 0x2 PUSH1 0x1A DUP2 DUP2 SWAP1 SLOAD SWAP1 PUSH2 0x100 EXP SWAP1 DIV PUSH1 0xFF AND DUP1 SWAP3 SWAP2 SWAP1 PUSH2 0x51B SWAP1 PUSH2 0x17F6 JUMP JUMPDEST SWAP2 SWAP1 PUSH2 0x100 EXP DUP2 SLOAD DUP2 PUSH1 0xFF MUL NOT AND SWAP1 DUP4 PUSH1 0xFF AND MUL OR SWAP1 SSTORE POP POP PUSH2 0x57C JUMP JUMPDEST PUSH1 0x3 DUP3 EQ ISZERO PUSH2 0x57B JUMPI PUSH1 0x2 PUSH1 0x1B DUP2 DUP2 SWAP1 SLOAD SWAP1 PUSH2 0x100 EXP SWAP1 DIV PUSH1 0xFF AND DUP1 SWAP3 SWAP2 SWAP1 PUSH2 0x561 SWAP1 PUSH2 0x17F6 JUMP JUMPDEST SWAP2 SWAP1 PUSH2 0x100 EXP DUP2 SLOAD DUP2 PUSH1 0xFF MUL NOT AND SWAP1 DUP4 PUSH1 0xFF AND MUL OR SWAP1 SSTORE POP POP JUMPDEST JUMPDEST JUMPDEST PUSH1 0x1 PUSH1 0x2 PUSH1 0x17 PUSH2 0x100 EXP DUP2 SLOAD DUP2 PUSH1 0xFF MUL NOT AND SWAP1 DUP4 PUSH1 0xFF AND MUL OR SWAP1 SSTORE POP JUMPDEST PUSH1 0x2 PUSH1 0x0 SWAP1 SLOAD SWAP1 PUSH2 0x100 EXP SWAP1 DIV PUSH20 0xFFFFFFFFFFFFFFFFFFFFFFFFFFFFFFFFFFFFFFFF AND PUSH20 0xFFFFFFFFFFFFFFFFFFFFFFFFFFFFFFFFFFFFFFFF AND CALLER PUSH20 0xFFFFFFFFFFFFFFFFFFFFFFFFFFFFFFFFFFFFFFFF AND EQ DUP1 ISZERO PUSH2 0x609 JUMPI POP PUSH1 0x0 PUSH1 0x2 PUSH1 0x18 SWAP1 SLOAD SWAP1 PUSH2 0x100 EXP SWAP1 DIV PUSH1 0xFF AND PUSH1 0xFF AND EQ JUMPDEST ISZERO PUSH2 0x6FB JUMPI PUSH1 0x1 DUP3 EQ ISZERO PUSH2 0x654 JUMPI PUSH1 0x2 PUSH1 0x19 DUP2 DUP2 SWAP1 SLOAD SWAP1 PUSH2 0x100 EXP SWAP1 DIV PUSH1 0xFF AND DUP1 SWAP3 SWAP2 SWAP1 PUSH2 0x636 SWAP1 PUSH2 0x17F6 JUMP JUMPDEST SWAP2 SWAP1 PUSH2 0x100 EXP DUP2 SLOAD DUP2 PUSH1 0xFF MUL NOT AND SWAP1 DUP4 PUSH1 0xFF AND MUL OR SWAP1 SSTORE POP POP PUSH2 0x6DE JUMP JUMPDEST PUSH1 0x2 DUP3 EQ ISZERO PUSH2 0x69A JUMPI PUSH1 0x2 PUSH1 0x1A DUP2 DUP2 SWAP1 SLOAD SWAP1 PUSH2 0x100 EXP SWAP1 DIV PUSH1 0xFF AND DUP1 SWAP3 SWAP2 SWAP1 PUSH2 0x67C SWAP1 PUSH2 0x17F6 JUMP JUMPDEST SWAP2 SWAP1 PUSH2 0x100 EXP DUP2 SLOAD DUP2 PUSH1 0xFF MUL NOT AND SWAP1 DUP4 PUSH1 0xFF AND MUL OR SWAP1 SSTORE POP POP PUSH2 0x6DD JUMP JUMPDEST PUSH1 0x3 DUP3 EQ ISZERO PUSH2 0x6DC JUMPI PUSH1 0x2 PUSH1 0x1B DUP2 DUP2 SWAP1 SLOAD SWAP1 PUSH2 0x100 EXP SWAP1 DIV PUSH1 0xFF AND DUP1 SWAP3 SWAP2 SWAP1 PUSH2 0x6C2 SWAP1 PUSH2 0x17F6 JUMP JUMPDEST SWAP2 SWAP1 PUSH2 0x100 EXP DUP2 SLOAD DUP2 PUSH1 0xFF MUL NOT AND SWAP1 DUP4 PUSH1 0xFF AND MUL OR SWAP1 SSTORE POP POP JUMPDEST JUMPDEST JUMPDEST PUSH1 0x1 PUSH1 0x2 PUSH1 0x18 PUSH2 0x100 EXP DUP2 SLOAD DUP2 PUSH1 0xFF MUL NOT AND SWAP1 DUP4 PUSH1 0xFF AND MUL OR SWAP1 SSTORE POP JUMPDEST PUSH1 0x1 PUSH1 0x2 PUSH1 0x16 SWAP1 SLOAD SWAP1 PUSH2 0x100 EXP SWAP1 DIV PUSH1 0xFF AND PUSH1 0xFF AND EQ DUP1 ISZERO PUSH2 0x72F JUMPI POP PUSH1 0x1 PUSH1 0x2 PUSH1 0x17 SWAP1 SLOAD SWAP1 PUSH2 0x100 EXP SWAP1 DIV PUSH1 0xFF AND PUSH1 0xFF AND EQ JUMPDEST DUP1 ISZERO PUSH2 0x74D JUMPI POP PUSH1 0x1 PUSH1 0x2 PUSH1 0x18 SWAP1 SLOAD SWAP1 PUSH2 0x100 EXP SWAP1 DIV PUSH1 0xFF AND PUSH1 0xFF AND EQ JUMPDEST DUP1 ISZERO PUSH2 0x7A7 JUMPI POP PUSH1 0x0 PUSH20 0xFFFFFFFFFFFFFFFFFFFFFFFFFFFFFFFFFFFFFFFF AND PUSH1 0x3 PUSH1 0x0 SWAP1 SLOAD SWAP1 PUSH2 0x100 EXP SWAP1 DIV PUSH20 0xFFFFFFFFFFFFFFFFFFFFFFFFFFFFFFFFFFFFFFFF AND PUSH20 0xFFFFFFFFFFFFFFFFFFFFFFFFFFFFFFFFFFFFFFFF AND EQ JUMPDEST ISZERO PUSH2 0xA74 JUMPI PUSH1 0x2 DUP1 PUSH1 0x19 SWAP1 SLOAD SWAP1 PUSH2 0x100 EXP SWAP1 DIV PUSH1 0xFF AND PUSH1 0xFF AND LT PUSH2 0x82B JUMPI PUSH1 0x0 DUP1 SLOAD SWAP1 PUSH2 0x100 EXP SWAP1 DIV PUSH20 0xFFFFFFFFFFFFFFFFFFFFFFFFFFFFFFFFFFFFFFFF AND PUSH1 0x3 PUSH1 0x0 PUSH2 0x100 EXP DUP2 SLOAD DUP2 PUSH20 0xFFFFFFFFFFFFFFFFFFFFFFFFFFFFFFFFFFFFFFFF MUL NOT AND SWAP1 DUP4 PUSH20 0xFFFFFFFFFFFFFFFFFFFFFFFFFFFFFFFFFFFFFFFF AND MUL OR SWAP1 SSTORE POP PUSH2 0x92B JUMP JUMPDEST PUSH1 0x2 DUP1 PUSH1 0x1A SWAP1 SLOAD SWAP1 PUSH2 0x100 EXP SWAP1 DIV PUSH1 0xFF AND PUSH1 0xFF AND LT PUSH2 0x8AC JUMPI PUSH1 0x1 PUSH1 0x0 SWAP1 SLOAD SWAP1 PUSH2 0x100 EXP SWAP1 DIV PUSH20 0xFFFFFFFFFFFFFFFFFFFFFFFFFFFFFFFFFFFFFFFF AND PUSH1 0x3 PUSH1 0x0 PUSH2 0x100 EXP DUP2 SLOAD DUP2 PUSH20 0xFFFFFFFFFFFFFFFFFFFFFFFFFFFFFFFFFFFFFFFF MUL NOT AND SWAP1 DUP4 PUSH20 0xFFFFFFFFFFFFFFFFFFFFFFFFFFFFFFFFFFFFFFFF AND MUL OR SWAP1 SSTORE POP PUSH2 0x92A JUMP JUMPDEST PUSH1 0x2 DUP1 PUSH1 0x1B SWAP1 SLOAD SWAP1 PUSH2 0x100 EXP SWAP1 DIV PUSH1 0xFF AND PUSH1 0xFF AND LT PUSH2 0x929 JUMPI PUSH1 0x2 PUSH1 0x0 SWAP1 SLOAD SWAP1 PUSH2 0x100 EXP SWAP1 DIV PUSH20 0xFFFFFFFFFFFFFFFFFFFFFFFFFFFFFFFFFFFFFFFF AND PUSH1 0x3 PUSH1 0x0 PUSH2 0x100 EXP DUP2 SLOAD DUP2 PUSH20 0xFFFFFFFFFFFFFFFFFFFFFFFFFFFFFFFFFFFFFFFF MUL NOT AND SWAP1 DUP4 PUSH20 0xFFFFFFFFFFFFFFFFFFFFFFFFFFFFFFFFFFFFFFFF AND MUL OR SWAP1 SSTORE POP JUMPDEST JUMPDEST JUMPDEST PUSH1 0x0 PUSH1 0x2 PUSH1 0x16 PUSH2 0x100 EXP DUP2 SLOAD DUP2 PUSH1 0xFF MUL NOT AND SWAP1 DUP4 PUSH1 0xFF AND MUL OR SWAP1 SSTORE POP PUSH1 0x0 PUSH1 0x2 PUSH1 0x17 PUSH2 0x100 EXP DUP2 SLOAD DUP2 PUSH1 0xFF MUL NOT AND SWAP1 DUP4 PUSH1 0xFF AND MUL OR SWAP1 SSTORE POP PUSH1 0x0 PUSH1 0x2 PUSH1 0x18 PUSH2 0x100 EXP DUP2 SLOAD DUP2 PUSH1 0xFF MUL NOT AND SWAP1 DUP4 PUSH1 0xFF AND MUL OR SWAP1 SSTORE POP PUSH1 0x0 PUSH1 0x2 PUSH1 0x19 PUSH2 0x100 EXP DUP2 SLOAD DUP2 PUSH1 0xFF MUL NOT AND SWAP1 DUP4 PUSH1 0xFF AND MUL OR SWAP1 SSTORE POP PUSH1 0x0 PUSH1 0x2 PUSH1 0x1A PUSH2 0x100 EXP DUP2 SLOAD DUP2 PUSH1 0xFF MUL NOT AND SWAP1 DUP4 PUSH1 0xFF AND MUL OR SWAP1 SSTORE POP PUSH1 0x0 PUSH1 0x2 PUSH1 0x1B PUSH2 0x100 EXP DUP2 SLOAD DUP2 PUSH1 0xFF MUL NOT AND SWAP1 DUP4 PUSH1 0xFF AND MUL OR SWAP1 SSTORE POP PUSH1 0x0 PUSH20 0xFFFFFFFFFFFFFFFFFFFFFFFFFFFFFFFFFFFFFFFF AND PUSH1 0x3 PUSH1 0x0 SWAP1 SLOAD SWAP1 PUSH2 0x100 EXP SWAP1 DIV PUSH20 0xFFFFFFFFFFFFFFFFFFFFFFFFFFFFFFFFFFFFFFFF AND PUSH20 0xFFFFFFFFFFFFFFFFFFFFFFFFFFFFFFFFFFFFFFFF AND EQ ISZERO PUSH2 0xA6B JUMPI PUSH1 0x2 PUSH1 0x15 DUP2 DUP2 SWAP1 SLOAD SWAP1 PUSH2 0x100 EXP SWAP1 DIV PUSH1 0xFF AND DUP1 SWAP3 SWAP2 SWAP1 PUSH2 0xA49 SWAP1 PUSH2 0x17F6 JUMP JUMPDEST SWAP2 SWAP1 PUSH2 0x100 EXP DUP2 SLOAD DUP2 PUSH1 0xFF MUL NOT AND SWAP1 DUP4 PUSH1 0xFF AND MUL OR SWAP1 SSTORE POP POP PUSH1 0x0 SWAP1 POP PUSH2 0xA79 JUMP JUMPDEST PUSH1 0x1 SWAP1 POP PUSH2 0xA79 JUMP JUMPDEST PUSH1 0x0 SWAP1 POP JUMPDEST SWAP2 SWAP1 POP JUMP JUMPDEST PUSH1 0x0 PUSH1 0x3 PUSH1 0x14 SWAP1 SLOAD SWAP1 PUSH2 0x100 EXP SWAP1 DIV PUSH1 0xFF AND SWAP1 POP SWAP1 JUMP JUMPDEST PUSH1 0x0 PUSH1 0x3 PUSH1 0x2 PUSH1 0x14 SWAP1 SLOAD SWAP1 PUSH2 0x100 EXP SWAP1 DIV PUSH1 0xFF AND PUSH1 0xFF AND EQ ISZERO PUSH2 0xABB JUMPI PUSH1 0x0 SWAP1 POP PUSH2 0xD9B JUMP JUMPDEST PUSH1 0x0 PUSH1 0x2 PUSH1 0x14 SWAP1 SLOAD SWAP1 PUSH2 0x100 EXP SWAP1 DIV PUSH1 0xFF AND PUSH1 0xFF AND EQ ISZERO PUSH2 0xB57 JUMPI DUP2 PUSH1 0x0 DUP1 PUSH2 0x100 EXP DUP2 SLOAD DUP2 PUSH20 0xFFFFFFFFFFFFFFFFFFFFFFFFFFFFFFFFFFFFFFFF MUL NOT AND SWAP1 DUP4 PUSH20 0xFFFFFFFFFFFFFFFFFFFFFFFFFFFFFFFFFFFFFFFF AND MUL OR SWAP1 SSTORE POP PUSH1 0x2 PUSH1 0x14 DUP2 DUP2 SWAP1 SLOAD SWAP1 PUSH2 0x100 EXP SWAP1 DIV PUSH1 0xFF AND DUP1 SWAP3 SWAP2 SWAP1 PUSH2 0xB35 SWAP1 PUSH2 0x17F6 JUMP JUMPDEST SWAP2 SWAP1 PUSH2 0x100 EXP DUP2 SLOAD DUP2 PUSH1 0xFF MUL NOT AND SWAP1 DUP4 PUSH1 0xFF AND MUL OR SWAP1 SSTORE POP POP PUSH1 0x1 SWAP1 POP PUSH2 0xD9B JUMP JUMPDEST PUSH1 0x1 PUSH1 0x2 PUSH1 0x14 SWAP1 SLOAD SWAP1 PUSH2 0x100 EXP SWAP1 DIV PUSH1 0xFF AND PUSH1 0xFF AND EQ DUP1 ISZERO PUSH2 0xBC5 JUMPI POP DUP2 PUSH20 0xFFFFFFFFFFFFFFFFFFFFFFFFFFFFFFFFFFFFFFFF AND PUSH1 0x0 DUP1 SLOAD SWAP1 PUSH2 0x100 EXP SWAP1 DIV PUSH20 0xFFFFFFFFFFFFFFFFFFFFFFFFFFFFFFFFFFFFFFFF AND PUSH20 0xFFFFFFFFFFFFFFFFFFFFFFFFFFFFFFFFFFFFFFFF AND EQ ISZERO JUMPDEST ISZERO PUSH2 0xC4C JUMPI DUP2 PUSH1 0x1 PUSH1 0x0 PUSH2 0x100 EXP DUP2 SLOAD DUP2 PUSH20 0xFFFFFFFFFFFFFFFFFFFFFFFFFFFFFFFFFFFFFFFF MUL NOT AND SWAP1 DUP4 PUSH20 0xFFFFFFFFFFFFFFFFFFFFFFFFFFFFFFFFFFFFFFFF AND MUL OR SWAP1 SSTORE POP PUSH1 0x2 PUSH1 0x14 DUP2 DUP2 SWAP1 SLOAD SWAP1 PUSH2 0x100 EXP SWAP1 DIV PUSH1 0xFF AND DUP1 SWAP3 SWAP2 SWAP1 PUSH2 0xC2A SWAP1 PUSH2 0x17F6 JUMP JUMPDEST SWAP2 SWAP1 PUSH2 0x100 EXP DUP2 SLOAD DUP2 PUSH1 0xFF MUL NOT AND SWAP1 DUP4 PUSH1 0xFF AND MUL OR SWAP1 SSTORE POP POP PUSH1 0x1 SWAP1 POP PUSH2 0xD9B JUMP JUMPDEST PUSH1 0x2 DUP1 PUSH1 0x14 SWAP1 SLOAD SWAP1 PUSH2 0x100 EXP SWAP1 DIV PUSH1 0xFF AND PUSH1 0xFF AND EQ DUP1 ISZERO PUSH2 0xCB9 JUMPI POP DUP2 PUSH20 0xFFFFFFFFFFFFFFFFFFFFFFFFFFFFFFFFFFFFFFFF AND PUSH1 0x0 DUP1 SLOAD SWAP1 PUSH2 0x100 EXP SWAP1 DIV PUSH20 0xFFFFFFFFFFFFFFFFFFFFFFFFFFFFFFFFFFFFFFFF AND PUSH20 0xFFFFFFFFFFFFFFFFFFFFFFFFFFFFFFFFFFFFFFFF AND EQ ISZERO JUMPDEST DUP1 ISZERO PUSH2 0xD13 JUMPI POP DUP2 PUSH20 0xFFFFFFFFFFFFFFFFFFFFFFFFFFFFFFFFFFFFFFFF AND PUSH1 0x1 PUSH1 0x0 SWAP1 SLOAD SWAP1 PUSH2 0x100 EXP SWAP1 DIV PUSH20 0xFFFFFFFFFFFFFFFFFFFFFFFFFFFFFFFFFFFFFFFF AND PUSH20 0xFFFFFFFFFFFFFFFFFFFFFFFFFFFFFFFFFFFFFFFF AND EQ ISZERO JUMPDEST ISZERO PUSH2 0xD9A JUMPI DUP2 PUSH1 0x2 PUSH1 0x0 PUSH2 0x100 EXP DUP2 SLOAD DUP2 PUSH20 0xFFFFFFFFFFFFFFFFFFFFFFFFFFFFFFFFFFFFFFFF MUL NOT AND SWAP1 DUP4 PUSH20 0xFFFFFFFFFFFFFFFFFFFFFFFFFFFFFFFFFFFFFFFF AND MUL OR SWAP1 SSTORE POP PUSH1 0x2 PUSH1 0x14 DUP2 DUP2 SWAP1 SLOAD SWAP1 PUSH2 0x100 EXP SWAP1 DIV PUSH1 0xFF AND DUP1 SWAP3 SWAP2 SWAP1 PUSH2 0xD78 SWAP1 PUSH2 0x17F6 JUMP JUMPDEST SWAP2 SWAP1 PUSH2 0x100 EXP DUP2 SLOAD DUP2 PUSH1 0xFF MUL NOT AND SWAP1 DUP4 PUSH1 0xFF AND MUL OR SWAP1 SSTORE POP POP PUSH1 0x1 SWAP1 POP PUSH2 0xD9B JUMP JUMPDEST JUMPDEST SWAP2 SWAP1 POP JUMP JUMPDEST PUSH1 0x0 PUSH1 0x3 PUSH1 0x0 SWAP1 SLOAD SWAP1 PUSH2 0x100 EXP SWAP1 DIV PUSH20 0xFFFFFFFFFFFFFFFFFFFFFFFFFFFFFFFFFFFFFFFF AND PUSH20 0xFFFFFFFFFFFFFFFFFFFFFFFFFFFFFFFFFFFFFFFF AND CALLER PUSH20 0xFFFFFFFFFFFFFFFFFFFFFFFFFFFFFFFFFFFFFFFF AND EQ PUSH2 0xDFC JUMPI PUSH1 0x0 DUP1 REVERT JUMPDEST DUP2 PUSH1 0x3 PUSH1 0x14 PUSH2 0x100 EXP DUP2 SLOAD DUP2 PUSH1 0xFF MUL NOT AND SWAP1 DUP4 PUSH1 0xFF AND MUL OR SWAP1 SSTORE POP PUSH1 0x1 SWAP1 POP SWAP2 SWAP1 POP JUMP JUMPDEST PUSH1 0x0 PUSH1 0x1 DUP3 EQ ISZERO PUSH2 0xE53 JUMPI PUSH1 0x0 DUP1 SLOAD SWAP1 PUSH2 0x100 EXP SWAP1 DIV PUSH20 0xFFFFFFFFFFFFFFFFFFFFFFFFFFFFFFFFFFFFFFFF AND SWAP1 POP PUSH2 0xEBE JUMP JUMPDEST PUSH1 0x2 DUP3 EQ ISZERO PUSH2 0xE86 JUMPI PUSH1 0x1 PUSH1 0x0 SWAP1 SLOAD SWAP1 PUSH2 0x100 EXP SWAP1 DIV PUSH20 0xFFFFFFFFFFFFFFFFFFFFFFFFFFFFFFFFFFFFFFFF AND SWAP1 POP PUSH2 0xEBE JUMP JUMPDEST PUSH1 0x3 DUP3 EQ ISZERO PUSH2 0xEB9 JUMPI PUSH1 0x2 PUSH1 0x0 SWAP1 SLOAD SWAP1 PUSH2 0x100 EXP SWAP1 DIV PUSH20 0xFFFFFFFFFFFFFFFFFFFFFFFFFFFFFFFFFFFFFFFF AND SWAP1 POP PUSH2 0xEBE JUMP JUMPDEST PUSH1 0x0 SWAP1 POP JUMPDEST SWAP2 SWAP1 POP JUMP JUMPDEST PUSH1 0x60 DUP2 PUSH20 0xFFFFFFFFFFFFFFFFFFFFFFFFFFFFFFFFFFFFFFFF AND PUSH1 0x3 PUSH1 0x0 SWAP1 SLOAD SWAP1 PUSH2 0x100 EXP SWAP1 DIV PUSH20 0xFFFFFFFFFFFFFFFFFFFFFFFFFFFFFFFFFFFFFFFF AND PUSH20 0xFFFFFFFFFFFFFFFFFFFFFFFFFFFFFFFFFFFFFFFF AND EQ ISZERO PUSH2 0xF58 JUMPI PUSH1 0x40 MLOAD DUP1 PUSH1 0x40 ADD PUSH1 0x40 MSTORE DUP1 PUSH1 0x9 DUP2 MSTORE PUSH1 0x20 ADD PUSH32 0x7265616C4F776E65720000000000000000000000000000000000000000000000 DUP2 MSTORE POP SWAP1 POP PUSH2 0xF91 JUMP JUMPDEST PUSH1 0x40 MLOAD DUP1 PUSH1 0x40 ADD PUSH1 0x40 MSTORE DUP1 PUSH1 0xD DUP2 MSTORE PUSH1 0x20 ADD PUSH32 0x4E6F74207265616C4F776E657200000000000000000000000000000000000000 DUP2 MSTORE POP SWAP1 POP JUMPDEST SWAP2 SWAP1 POP JUMP JUMPDEST PUSH1 0x0 DUP1 SLOAD SWAP1 PUSH2 0x100 EXP SWAP1 DIV PUSH20 0xFFFFFFFFFFFFFFFFFFFFFFFFFFFFFFFFFFFFFFFF AND PUSH20 0xFFFFFFFFFFFFFFFFFFFFFFFFFFFFFFFFFFFFFFFF AND CALLER PUSH20 0xFFFFFFFFFFFFFFFFFFFFFFFFFFFFFFFFFFFFFFFF AND EQ DUP1 PUSH2 0x103D JUMPI POP PUSH1 0x1 PUSH1 0x0 SWAP1 SLOAD SWAP1 PUSH2 0x100 EXP SWAP1 DIV PUSH20 0xFFFFFFFFFFFFFFFFFFFFFFFFFFFFFFFFFFFFFFFF AND PUSH20 0xFFFFFFFFFFFFFFFFFFFFFFFFFFFFFFFFFFFFFFFF AND CALLER PUSH20 0xFFFFFFFFFFFFFFFFFFFFFFFFFFFFFFFFFFFFFFFF AND EQ JUMPDEST DUP1 PUSH2 0x1095 JUMPI POP PUSH1 0x2 PUSH1 0x0 SWAP1 SLOAD SWAP1 PUSH2 0x100 EXP SWAP1 DIV PUSH20 0xFFFFFFFFFFFFFFFFFFFFFFFFFFFFFFFFFFFFFFFF AND PUSH20 0xFFFFFFFFFFFFFFFFFFFFFFFFFFFFFFFFFFFFFFFF AND CALLER PUSH20 0xFFFFFFFFFFFFFFFFFFFFFFFFFFFFFFFFFFFFFFFF AND EQ JUMPDEST PUSH2 0x109E JUMPI PUSH1 0x0 DUP1 REVERT JUMPDEST PUSH1 0x0 DUP1 SLOAD SWAP1 PUSH2 0x100 EXP SWAP1 DIV PUSH20 0xFFFFFFFFFFFFFFFFFFFFFFFFFFFFFFFFFFFFFFFF AND PUSH20 0xFFFFFFFFFFFFFFFFFFFFFFFFFFFFFFFFFFFFFFFF AND DUP2 PUSH20 0xFFFFFFFFFFFFFFFFFFFFFFFFFFFFFFFFFFFFFFFF AND EQ ISZERO DUP1 ISZERO PUSH2 0x1148 JUMPI POP PUSH1 0x1 PUSH1 0x0 SWAP1 SLOAD SWAP1 PUSH2 0x100 EXP SWAP1 DIV PUSH20 0xFFFFFFFFFFFFFFFFFFFFFFFFFFFFFFFFFFFFFFFF AND PUSH20 0xFFFFFFFFFFFFFFFFFFFFFFFFFFFFFFFFFFFFFFFF AND DUP2 PUSH20 0xFFFFFFFFFFFFFFFFFFFFFFFFFFFFFFFFFFFFFFFF AND EQ ISZERO JUMPDEST DUP1 ISZERO PUSH2 0x11A2 JUMPI POP PUSH1 0x2 PUSH1 0x0 SWAP1 SLOAD SWAP1 PUSH2 0x100 EXP SWAP1 DIV PUSH20 0xFFFFFFFFFFFFFFFFFFFFFFFFFFFFFFFFFFFFFFFF AND PUSH20 0xFFFFFFFFFFFFFFFFFFFFFFFFFFFFFFFFFFFFFFFF AND DUP2 PUSH20 0xFFFFFFFFFFFFFFFFFFFFFFFFFFFFFFFFFFFFFFFF AND EQ ISZERO JUMPDEST PUSH2 0x11AB JUMPI PUSH1 0x0 DUP1 REVERT JUMPDEST PUSH1 0x0 PUSH20 0xFFFFFFFFFFFFFFFFFFFFFFFFFFFFFFFFFFFFFFFF AND DUP2 PUSH20 0xFFFFFFFFFFFFFFFFFFFFFFFFFFFFFFFFFFFFFFFF AND EQ ISZERO PUSH2 0x11E5 JUMPI PUSH1 0x0 DUP1 REVERT JUMPDEST PUSH1 0x0 DUP1 SLOAD SWAP1 PUSH2 0x100 EXP SWAP1 DIV PUSH20 0xFFFFFFFFFFFFFFFFFFFFFFFFFFFFFFFFFFFFFFFF AND PUSH20 0xFFFFFFFFFFFFFFFFFFFFFFFFFFFFFFFFFFFFFFFF AND CALLER PUSH20 0xFFFFFFFFFFFFFFFFFFFFFFFFFFFFFFFFFFFFFFFF AND EQ ISZERO PUSH2 0x12F8 JUMPI DUP1 PUSH1 0x0 DUP1 PUSH2 0x100 EXP DUP2 SLOAD DUP2 PUSH20 0xFFFFFFFFFFFFFFFFFFFFFFFFFFFFFFFFFFFFFFFF MUL NOT AND SWAP1 DUP4 PUSH20 0xFFFFFFFFFFFFFFFFFFFFFFFFFFFFFFFFFFFFFFFF AND MUL OR SWAP1 SSTORE POP DUP1 PUSH20 0xFFFFFFFFFFFFFFFFFFFFFFFFFFFFFFFFFFFFFFFF AND PUSH1 0x0 DUP1 SLOAD SWAP1 PUSH2 0x100 EXP SWAP1 DIV PUSH20 0xFFFFFFFFFFFFFFFFFFFFFFFFFFFFFFFFFFFFFFFF AND PUSH20 0xFFFFFFFFFFFFFFFFFFFFFFFFFFFFFFFFFFFFFFFF AND PUSH32 0x2AE143016ADC0AA482E6BA5D9A350F3E3122AEB005CA4BF47D1D7B8221BCE472 PUSH1 0x40 MLOAD PUSH1 0x40 MLOAD DUP1 SWAP2 SUB SWAP1 LOG3 PUSH2 0x1526 JUMP JUMPDEST PUSH1 0x1 PUSH1 0x0 SWAP1 SLOAD SWAP1 PUSH2 0x100 EXP SWAP1 DIV PUSH20 0xFFFFFFFFFFFFFFFFFFFFFFFFFFFFFFFFFFFFFFFF AND PUSH20 0xFFFFFFFFFFFFFFFFFFFFFFFFFFFFFFFFFFFFFFFF AND CALLER PUSH20 0xFFFFFFFFFFFFFFFFFFFFFFFFFFFFFFFFFFFFFFFF AND EQ ISZERO PUSH2 0x1410 JUMPI DUP1 PUSH1 0x1 PUSH1 0x0 PUSH2 0x100 EXP DUP2 SLOAD DUP2 PUSH20 0xFFFFFFFFFFFFFFFFFFFFFFFFFFFFFFFFFFFFFFFF MUL NOT AND SWAP1 DUP4 PUSH20 0xFFFFFFFFFFFFFFFFFFFFFFFFFFFFFFFFFFFFFFFF AND MUL OR SWAP1 SSTORE POP DUP1 PUSH20 0xFFFFFFFFFFFFFFFFFFFFFFFFFFFFFFFFFFFFFFFF AND PUSH1 0x1 PUSH1 0x0 SWAP1 SLOAD SWAP1 PUSH2 0x100 EXP SWAP1 DIV PUSH20 0xFFFFFFFFFFFFFFFFFFFFFFFFFFFFFFFFFFFFFFFF AND PUSH20 0xFFFFFFFFFFFFFFFFFFFFFFFFFFFFFFFFFFFFFFFF AND PUSH32 0x2AE143016ADC0AA482E6BA5D9A350F3E3122AEB005CA4BF47D1D7B8221BCE472 PUSH1 0x40 MLOAD PUSH1 0x40 MLOAD DUP1 SWAP2 SUB SWAP1 LOG3 PUSH2 0x1525 JUMP JUMPDEST PUSH1 0x2 PUSH1 0x0 SWAP1 SLOAD SWAP1 PUSH2 0x100 EXP SWAP1 DIV PUSH20 0xFFFFFFFFFFFFFFFFFFFFFFFFFFFFFFFFFFFFFFFF AND PUSH20 0xFFFFFFFFFFFFFFFFFFFFFFFFFFFFFFFFFFFFFFFF AND CALLER PUSH20 0xFFFFFFFFFFFFFFFFFFFFFFFFFFFFFFFFFFFFFFFF AND EQ ISZERO PUSH2 0x1524 JUMPI DUP1 PUSH1 0x2 PUSH1 0x0 PUSH2 0x100 EXP DUP2 SLOAD DUP2 PUSH20 0xFFFFFFFFFFFFFFFFFFFFFFFFFFFFFFFFFFFFFFFF MUL NOT AND SWAP1 DUP4 PUSH20 0xFFFFFFFFFFFFFFFFFFFFFFFFFFFFFFFFFFFFFFFF AND MUL OR SWAP1 SSTORE POP DUP1 PUSH20 0xFFFFFFFFFFFFFFFFFFFFFFFFFFFFFFFFFFFFFFFF AND PUSH1 0x2 PUSH1 0x0 SWAP1 SLOAD SWAP1 PUSH2 0x100 EXP SWAP1 DIV PUSH20 0xFFFFFFFFFFFFFFFFFFFFFFFFFFFFFFFFFFFFFFFF AND PUSH20 0xFFFFFFFFFFFFFFFFFFFFFFFFFFFFFFFFFFFFFFFF AND PUSH32 0x2AE143016ADC0AA482E6BA5D9A350F3E3122AEB005CA4BF47D1D7B8221BCE472 PUSH1 0x40 MLOAD PUSH1 0x40 MLOAD DUP1 SWAP2 SUB SWAP1 LOG3 JUMPDEST JUMPDEST JUMPDEST POP JUMP JUMPDEST PUSH1 0x0 DUP1 REVERT JUMPDEST PUSH1 0x0 DUP2 SWAP1 POP SWAP2 SWAP1 POP JUMP JUMPDEST PUSH2 0x1541 DUP2 PUSH2 0x152E JUMP JUMPDEST DUP2 EQ PUSH2 0x154C JUMPI PUSH1 0x0 DUP1 REVERT JUMPDEST POP JUMP JUMPDEST PUSH1 0x0 DUP2 CALLDATALOAD SWAP1 POP PUSH2 0x155E DUP2 PUSH2 0x1538 JUMP JUMPDEST SWAP3 SWAP2 POP POP JUMP JUMPDEST PUSH1 0x0 PUSH1 0x20 DUP3 DUP5 SUB SLT ISZERO PUSH2 0x157A JUMPI PUSH2 0x1579 PUSH2 0x1529 JUMP JUMPDEST JUMPDEST PUSH1 0x0 PUSH2 0x1588 DUP5 DUP3 DUP6 ADD PUSH2 0x154F JUMP JUMPDEST SWAP2 POP POP SWAP3 SWAP2 POP POP JUMP JUMPDEST PUSH1 0x0 DUP2 ISZERO ISZERO SWAP1 POP SWAP2 SWAP1 POP JUMP JUMPDEST PUSH2 0x15A6 DUP2 PUSH2 0x1591 JUMP JUMPDEST DUP3 MSTORE POP POP JUMP JUMPDEST PUSH1 0x0 PUSH1 0x20 DUP3 ADD SWAP1 POP PUSH2 0x15C1 PUSH1 0x0 DUP4 ADD DUP5 PUSH2 0x159D JUMP JUMPDEST SWAP3 SWAP2 POP POP JUMP JUMPDEST PUSH1 0x0 PUSH1 0xFF DUP3 AND SWAP1 POP SWAP2 SWAP1 POP JUMP JUMPDEST PUSH2 0x15DD DUP2 PUSH2 0x15C7 JUMP JUMPDEST DUP3 MSTORE POP POP JUMP JUMPDEST PUSH1 0x0 PUSH1 0x20 DUP3 ADD SWAP1 POP PUSH2 0x15F8 PUSH1 0x0 DUP4 ADD DUP5 PUSH2 0x15D4 JUMP JUMPDEST SWAP3 SWAP2 POP POP JUMP JUMPDEST PUSH1 0x0 PUSH20 0xFFFFFFFFFFFFFFFFFFFFFFFFFFFFFFFFFFFFFFFF DUP3 AND SWAP1 POP SWAP2 SWAP1 POP JUMP JUMPDEST PUSH1 0x0 PUSH2 0x1629 DUP3 PUSH2 0x15FE JUMP JUMPDEST SWAP1 POP SWAP2 SWAP1 POP JUMP JUMPDEST PUSH2 0x1639 DUP2 PUSH2 0x161E JUMP JUMPDEST DUP2 EQ PUSH2 0x1644 JUMPI PUSH1 0x0 DUP1 REVERT JUMPDEST POP JUMP JUMPDEST PUSH1 0x0 DUP2 CALLDATALOAD SWAP1 POP PUSH2 0x1656 DUP2 PUSH2 0x1630 JUMP JUMPDEST SWAP3 SWAP2 POP POP JUMP JUMPDEST PUSH1 0x0 PUSH1 0x20 DUP3 DUP5 SUB SLT ISZERO PUSH2 0x1672 JUMPI PUSH2 0x1671 PUSH2 0x1529 JUMP JUMPDEST JUMPDEST PUSH1 0x0 PUSH2 0x1680 DUP5 DUP3 DUP6 ADD PUSH2 0x1647 JUMP JUMPDEST SWAP2 POP POP SWAP3 SWAP2 POP POP JUMP JUMPDEST PUSH2 0x1692 DUP2 PUSH2 0x15C7 JUMP JUMPDEST DUP2 EQ PUSH2 0x169D JUMPI PUSH1 0x0 DUP1 REVERT JUMPDEST POP JUMP JUMPDEST PUSH1 0x0 DUP2 CALLDATALOAD SWAP1 POP PUSH2 0x16AF DUP2 PUSH2 0x1689 JUMP JUMPDEST SWAP3 SWAP2 POP POP JUMP JUMPDEST PUSH1 0x0 PUSH1 0x20 DUP3 DUP5 SUB SLT ISZERO PUSH2 0x16CB JUMPI PUSH2 0x16CA PUSH2 0x1529 JUMP JUMPDEST JUMPDEST PUSH1 0x0 PUSH2 0x16D9 DUP5 DUP3 DUP6 ADD PUSH2 0x16A0 JUMP JUMPDEST SWAP2 POP POP SWAP3 SWAP2 POP POP JUMP JUMPDEST PUSH2 0x16EB DUP2 PUSH2 0x161E JUMP JUMPDEST DUP3 MSTORE POP POP JUMP JUMPDEST PUSH1 0x0 PUSH1 0x20 DUP3 ADD SWAP1 POP PUSH2 0x1706 PUSH1 0x0 DUP4 ADD DUP5 PUSH2 0x16E2 JUMP JUMPDEST SWAP3 SWAP2 POP POP JUMP JUMPDEST PUSH1 0x0 DUP2 MLOAD SWAP1 POP SWAP2 SWAP1 POP JUMP JUMPDEST PUSH1 0x0 DUP3 DUP3 MSTORE PUSH1 0x20 DUP3 ADD SWAP1 POP SWAP3 SWAP2 POP POP JUMP JUMPDEST PUSH1 0x0 JUMPDEST DUP4 DUP2 LT ISZERO PUSH2 0x1746 JUMPI DUP1 DUP3 ADD MLOAD DUP2 DUP5 ADD MSTORE PUSH1 0x20 DUP2 ADD SWAP1 POP PUSH2 0x172B JUMP JUMPDEST DUP4 DUP2 GT ISZERO PUSH2 0x1755 JUMPI PUSH1 0x0 DUP5 DUP5 ADD MSTORE JUMPDEST POP POP POP POP JUMP JUMPDEST PUSH1 0x0 PUSH1 0x1F NOT PUSH1 0x1F DUP4 ADD AND SWAP1 POP SWAP2 SWAP1 POP JUMP JUMPDEST PUSH1 0x0 PUSH2 0x1777 DUP3 PUSH2 0x170C JUMP JUMPDEST PUSH2 0x1781 DUP2 DUP6 PUSH2 0x1717 JUMP JUMPDEST SWAP4 POP PUSH2 0x1791 DUP2 DUP6 PUSH1 0x20 DUP7 ADD PUSH2 0x1728 JUMP JUMPDEST PUSH2 0x179A DUP2 PUSH2 0x175B JUMP JUMPDEST DUP5 ADD SWAP2 POP POP SWAP3 SWAP2 POP POP JUMP JUMPDEST PUSH1 0x0 PUSH1 0x20 DUP3 ADD SWAP1 POP DUP2 DUP2 SUB PUSH1 0x0 DUP4 ADD MSTORE PUSH2 0x17BF DUP2 DUP5 PUSH2 0x176C JUMP JUMPDEST SWAP1 POP SWAP3 SWAP2 POP POP JUMP JUMPDEST PUSH32 0x4E487B7100000000000000000000000000000000000000000000000000000000 PUSH1 0x0 MSTORE PUSH1 0x11 PUSH1 0x4 MSTORE PUSH1 0x24 PUSH1 0x0 REVERT JUMPDEST PUSH1 0x0 PUSH2 0x1801 DUP3 PUSH2 0x15C7 JUMP JUMPDEST SWAP2 POP PUSH1 0xFF DUP3 EQ ISZERO PUSH2 0x1815 JUMPI PUSH2 0x1814 PUSH2 0x17C7 JUMP JUMPDEST JUMPDEST PUSH1 0x1 DUP3 ADD SWAP1 POP SWAP2 SWAP1 POP JUMP INVALID LOG2 PUSH5 0x6970667358 0x22 SLT KECCAK256 SWAP2 PUSH13 0xB2817ED38BA91669B1A1D490D5 MOD OR DUP14 SELFBALANCE 0xC4 0xA8 COINBASE SUB 0x2E 0xE 0xE7 0xE8 SWAP7 0xE6 ADDRESS 0x22 NOT PUSH5 0x736F6C6343 STOP ADDMOD EXP STOP CALLER "
				},
				"gasEstimates": {
					"creation": {
						"codeDepositCost": "1246000",
						"executionCost": "244415",
						"totalCost": "1490415"
					},
					"external": {
						"becomeOwner(address)": "67050",
						"getValue()": "2552",
						"setValue(uint8)": "27101",
						"showOwner(uint256)": "2898",
						"showRealOwner(address)": "infinite",
						"transferOwnership(address)": "48077",
						"vote(uint256)": "infinite"
					}
				},
				"methodIdentifiers": {
					"becomeOwner(address)": "2bad96ba",
					"getValue()": "20965255",
					"setValue(uint8)": "4c111ff8",
					"showOwner(uint256)": "74a29267",
					"showRealOwner(address)": "7594a9e6",
					"transferOwnership(address)": "f2fde38b",
					"vote(uint256)": "0121b93f"
				}
			},
			"userdoc": {
				"kind": "user",
				"methods": {},
				"version": 1
			}
		}
	}
}