{
	"voting.sol": {
		"Voting": {
			"abi": [
				{
					"inputs": [],
					"stateMutability": "nonpayable",
					"type": "constructor"
				},
				{
					"anonymous": false,
					"inputs": [
						{
							"indexed": true,
							"internalType": "address",
							"name": "_from",
							"type": "address"
						},
						{
							"indexed": true,
							"internalType": "address",
							"name": "_to",
							"type": "address"
						}
					],
					"name": "OwnerTransferPropose",
					"type": "event"
				},
				{
					"inputs": [
						{
							"internalType": "address",
							"name": "_person",
							"type": "address"
						}
					],
					"name": "becomeOwner",
					"outputs": [
						{
							"internalType": "bool",
							"name": "",
							"type": "bool"
						}
					],
					"stateMutability": "nonpayable",
					"type": "function"
				},
				{
					"inputs": [],
					"name": "proveRealOwner",
					"outputs": [
						{
							"internalType": "string",
							"name": "",
							"type": "string"
						}
					],
					"stateMutability": "nonpayable",
					"type": "function"
				},
				{
					"inputs": [
						{
							"internalType": "uint256",
							"name": "_order",
							"type": "uint256"
						}
					],
					"name": "showOwner",
					"outputs": [
						{
							"internalType": "address",
							"name": "",
							"type": "address"
						}
					],
					"stateMutability": "view",
					"type": "function"
				},
				{
					"inputs": [
						{
							"internalType": "address",
							"name": "_to",
							"type": "address"
						}
					],
					"name": "transferOwnership",
					"outputs": [],
					"stateMutability": "nonpayable",
					"type": "function"
				},
				{
					"inputs": [
						{
							"internalType": "uint256",
							"name": "_order",
							"type": "uint256"
						}
					],
					"name": "vote",
					"outputs": [
						{
							"internalType": "bool",
							"name": "",
							"type": "bool"
						}
					],
					"stateMutability": "nonpayable",
					"type": "function"
				}
			],
			"devdoc": {
				"kind": "dev",
				"methods": {},
				"version": 1
			},
			"evm": {
				"assembly": "    /* \"voting.sol\":948:4315  contract Voting is OwnerHelper {... */\n  mstore(0x40, 0x80)\n    /* \"voting.sol\":1312:1537  constructor() {... */\n  callvalue\n  dup1\n  iszero\n  tag_1\n  jumpi\n  0x00\n  dup1\n  revert\ntag_1:\n  pop\n    /* \"voting.sol\":1349:1350  0 */\n  0x00\n    /* \"voting.sol\":1336:1346  ownerCount */\n  0x02\n  0x14\n    /* \"voting.sol\":1336:1350  ownerCount = 0 */\n  0x0100\n  exp\n  dup2\n  sload\n  dup2\n  0xff\n  mul\n  not\n  and\n  swap1\n  dup4\n  0xff\n  and\n  mul\n  or\n  swap1\n  sstore\n  pop\n    /* \"voting.sol\":1372:1373  0 */\n  0x00\n    /* \"voting.sol\":1360:1369  voteCount */\n  0x02\n  0x15\n    /* \"voting.sol\":1360:1373  voteCount = 0 */\n  0x0100\n  exp\n  dup2\n  sload\n  dup2\n  0xff\n  mul\n  not\n  and\n  swap1\n  dup4\n  0xff\n  and\n  mul\n  or\n  swap1\n  sstore\n  pop\n    /* \"voting.sol\":1391:1392  0 */\n  0x00\n    /* \"voting.sol\":1383:1388  vote1 */\n  0x02\n  0x16\n    /* \"voting.sol\":1383:1392  vote1 = 0 */\n  0x0100\n  exp\n  dup2\n  sload\n  dup2\n  0xff\n  mul\n  not\n  and\n  swap1\n  dup4\n  0xff\n  and\n  mul\n  or\n  swap1\n  sstore\n  pop\n    /* \"voting.sol\":1410:1411  0 */\n  0x00\n    /* \"voting.sol\":1402:1407  vote2 */\n  0x02\n  0x17\n    /* \"voting.sol\":1402:1411  vote2 = 0 */\n  0x0100\n  exp\n  dup2\n  sload\n  dup2\n  0xff\n  mul\n  not\n  and\n  swap1\n  dup4\n  0xff\n  and\n  mul\n  or\n  swap1\n  sstore\n  pop\n    /* \"voting.sol\":1429:1430  0 */\n  0x00\n    /* \"voting.sol\":1421:1426  vote3 */\n  0x02\n  0x18\n    /* \"voting.sol\":1421:1430  vote3 = 0 */\n  0x0100\n  exp\n  dup2\n  sload\n  dup2\n  0xff\n  mul\n  not\n  and\n  swap1\n  dup4\n  0xff\n  and\n  mul\n  or\n  swap1\n  sstore\n  pop\n    /* \"voting.sol\":1451:1452  0 */\n  0x00\n    /* \"voting.sol\":1440:1448  getVote1 */\n  0x02\n  0x19\n    /* \"voting.sol\":1440:1452  getVote1 = 0 */\n  0x0100\n  exp\n  dup2\n  sload\n  dup2\n  0xff\n  mul\n  not\n  and\n  swap1\n  dup4\n  0xff\n  and\n  mul\n  or\n  swap1\n  sstore\n  pop\n    /* \"voting.sol\":1473:1474  0 */\n  0x00\n    /* \"voting.sol\":1462:1470  getVote2 */\n  0x02\n  0x1a\n    /* \"voting.sol\":1462:1474  getVote2 = 0 */\n  0x0100\n  exp\n  dup2\n  sload\n  dup2\n  0xff\n  mul\n  not\n  and\n  swap1\n  dup4\n  0xff\n  and\n  mul\n  or\n  swap1\n  sstore\n  pop\n    /* \"voting.sol\":1495:1496  0 */\n  0x00\n    /* \"voting.sol\":1484:1492  getVote3 */\n  0x02\n  0x1b\n    /* \"voting.sol\":1484:1496  getVote3 = 0 */\n  0x0100\n  exp\n  dup2\n  sload\n  dup2\n  0xff\n  mul\n  not\n  and\n  swap1\n  dup4\n  0xff\n  and\n  mul\n  or\n  swap1\n  sstore\n  pop\n    /* \"voting.sol\":1526:1529  0x0 */\n  0x00\n    /* \"voting.sol\":1506:1515  realOwner */\n  0x03\n  0x00\n    /* \"voting.sol\":1506:1530  realOwner = address(0x0) */\n  0x0100\n  exp\n  dup2\n  sload\n  dup2\n  0xffffffffffffffffffffffffffffffffffffffff\n  mul\n  not\n  and\n  swap1\n  dup4\n  0xffffffffffffffffffffffffffffffffffffffff\n  and\n  mul\n  or\n  swap1\n  sstore\n  pop\n    /* \"voting.sol\":948:4315  contract Voting is OwnerHelper {... */\n  dataSize(sub_0)\n  dup1\n  dataOffset(sub_0)\n  0x00\n  codecopy\n  0x00\n  return\nstop\n\nsub_0: assembly {\n        /* \"voting.sol\":948:4315  contract Voting is OwnerHelper {... */\n      mstore(0x40, 0x80)\n      callvalue\n      dup1\n      iszero\n      tag_1\n      jumpi\n      0x00\n      dup1\n      revert\n    tag_1:\n      pop\n      jumpi(tag_2, lt(calldatasize, 0x04))\n      shr(0xe0, calldataload(0x00))\n      dup1\n      0x0121b93f\n      eq\n      tag_3\n      jumpi\n      dup1\n      0x09305af6\n      eq\n      tag_4\n      jumpi\n      dup1\n      0x2bad96ba\n      eq\n      tag_5\n      jumpi\n      dup1\n      0x74a29267\n      eq\n      tag_6\n      jumpi\n      dup1\n      0xf2fde38b\n      eq\n      tag_7\n      jumpi\n    tag_2:\n      0x00\n      dup1\n      revert\n        /* \"voting.sol\":2449:4195  function vote(uint _order) onlyOwner public returns(bool) {... */\n    tag_3:\n      tag_8\n      0x04\n      dup1\n      calldatasize\n      sub\n      dup2\n      add\n      swap1\n      tag_9\n      swap2\n      swap1\n      tag_10\n      jump\t// in\n    tag_9:\n      tag_11\n      jump\t// in\n    tag_8:\n      mload(0x40)\n      tag_12\n      swap2\n      swap1\n      tag_13\n      jump\t// in\n    tag_12:\n      mload(0x40)\n      dup1\n      swap2\n      sub\n      swap1\n      return\n        /* \"voting.sol\":4201:4312  function proveRealOwner() checkOwner public returns (string memory){... */\n    tag_4:\n      tag_14\n      tag_15\n      jump\t// in\n    tag_14:\n      mload(0x40)\n      tag_16\n      swap2\n      swap1\n      tag_17\n      jump\t// in\n    tag_16:\n      mload(0x40)\n      dup1\n      swap2\n      sub\n      swap1\n      return\n        /* \"voting.sol\":1543:2111  function becomeOwner(address _person) public returns (bool){... */\n    tag_5:\n      tag_18\n      0x04\n      dup1\n      calldatasize\n      sub\n      dup2\n      add\n      swap1\n      tag_19\n      swap2\n      swap1\n      tag_20\n      jump\t// in\n    tag_19:\n      tag_21\n      jump\t// in\n    tag_18:\n      mload(0x40)\n      tag_22\n      swap2\n      swap1\n      tag_13\n      jump\t// in\n    tag_22:\n      mload(0x40)\n      dup1\n      swap2\n      sub\n      swap1\n      return\n        /* \"voting.sol\":2117:2443  function showOwner(uint _order) public view returns (address) {... */\n    tag_6:\n      tag_23\n      0x04\n      dup1\n      calldatasize\n      sub\n      dup2\n      add\n      swap1\n      tag_24\n      swap2\n      swap1\n      tag_10\n      jump\t// in\n    tag_24:\n      tag_25\n      jump\t// in\n    tag_23:\n      mload(0x40)\n      tag_26\n      swap2\n      swap1\n      tag_27\n      jump\t// in\n    tag_26:\n      mload(0x40)\n      dup1\n      swap2\n      sub\n      swap1\n      return\n        /* \"voting.sol\":398:944  function transferOwnership(address _to) onlyOwner public {... */\n    tag_7:\n      tag_28\n      0x04\n      dup1\n      calldatasize\n      sub\n      dup2\n      add\n      swap1\n      tag_29\n      swap2\n      swap1\n      tag_20\n      jump\t// in\n    tag_29:\n      tag_30\n      jump\t// in\n    tag_28:\n      stop\n        /* \"voting.sol\":2449:4195  function vote(uint _order) onlyOwner public returns(bool) {... */\n    tag_11:\n        /* \"voting.sol\":2501:2505  bool */\n      0x00\n        /* \"voting.sol\":306:312  owner1 */\n      dup1\n      0x00\n      swap1\n      sload\n      swap1\n      0x0100\n      exp\n      swap1\n      div\n      0xffffffffffffffffffffffffffffffffffffffff\n      and\n        /* \"voting.sol\":292:312  msg.sender == owner1 */\n      0xffffffffffffffffffffffffffffffffffffffff\n      and\n        /* \"voting.sol\":292:302  msg.sender */\n      caller\n        /* \"voting.sol\":292:312  msg.sender == owner1 */\n      0xffffffffffffffffffffffffffffffffffffffff\n      and\n      eq\n        /* \"voting.sol\":292:336  msg.sender == owner1 || msg.sender == owner2 */\n      dup1\n      tag_32\n      jumpi\n      pop\n        /* \"voting.sol\":330:336  owner2 */\n      0x01\n      0x00\n      swap1\n      sload\n      swap1\n      0x0100\n      exp\n      swap1\n      div\n      0xffffffffffffffffffffffffffffffffffffffff\n      and\n        /* \"voting.sol\":316:336  msg.sender == owner2 */\n      0xffffffffffffffffffffffffffffffffffffffff\n      and\n        /* \"voting.sol\":316:326  msg.sender */\n      caller\n        /* \"voting.sol\":316:336  msg.sender == owner2 */\n      0xffffffffffffffffffffffffffffffffffffffff\n      and\n      eq\n        /* \"voting.sol\":292:336  msg.sender == owner1 || msg.sender == owner2 */\n    tag_32:\n        /* \"voting.sol\":292:360  msg.sender == owner1 || msg.sender == owner2 || msg.sender == owner3 */\n      dup1\n      tag_33\n      jumpi\n      pop\n        /* \"voting.sol\":354:360  owner3 */\n      0x02\n      0x00\n      swap1\n      sload\n      swap1\n      0x0100\n      exp\n      swap1\n      div\n      0xffffffffffffffffffffffffffffffffffffffff\n      and\n        /* \"voting.sol\":340:360  msg.sender == owner3 */\n      0xffffffffffffffffffffffffffffffffffffffff\n      and\n        /* \"voting.sol\":340:350  msg.sender */\n      caller\n        /* \"voting.sol\":340:360  msg.sender == owner3 */\n      0xffffffffffffffffffffffffffffffffffffffff\n      and\n      eq\n        /* \"voting.sol\":292:360  msg.sender == owner1 || msg.sender == owner2 || msg.sender == owner3 */\n    tag_33:\n        /* \"voting.sol\":284:361  require(msg.sender == owner1 || msg.sender == owner2 || msg.sender == owner3) */\n      tag_34\n      jumpi\n      0x00\n      dup1\n      revert\n    tag_34:\n        /* \"voting.sol\":2535:2536  1 */\n      0x01\n        /* \"voting.sol\":2525:2531  _order */\n      dup3\n        /* \"voting.sol\":2525:2536  _order == 1 */\n      eq\n        /* \"voting.sol\":2525:2551  _order == 1 || _order == 2 */\n      dup1\n      tag_36\n      jumpi\n      pop\n        /* \"voting.sol\":2550:2551  2 */\n      0x02\n        /* \"voting.sol\":2540:2546  _order */\n      dup3\n        /* \"voting.sol\":2540:2551  _order == 2 */\n      eq\n        /* \"voting.sol\":2525:2551  _order == 1 || _order == 2 */\n    tag_36:\n        /* \"voting.sol\":2525:2566  _order == 1 || _order == 2 || _order == 3 */\n      dup1\n      tag_37\n      jumpi\n      pop\n        /* \"voting.sol\":2565:2566  3 */\n      0x03\n        /* \"voting.sol\":2555:2561  _order */\n      dup3\n        /* \"voting.sol\":2555:2566  _order == 3 */\n      eq\n        /* \"voting.sol\":2525:2566  _order == 1 || _order == 2 || _order == 3 */\n    tag_37:\n        /* \"voting.sol\":2517:2567  require(_order == 1 || _order == 2 || _order == 3) */\n      tag_38\n      jumpi\n      0x00\n      dup1\n      revert\n    tag_38:\n        /* \"voting.sol\":2595:2601  owner1 */\n      0x00\n      dup1\n      sload\n      swap1\n      0x0100\n      exp\n      swap1\n      div\n      0xffffffffffffffffffffffffffffffffffffffff\n      and\n        /* \"voting.sol\":2581:2601  msg.sender == owner1 */\n      0xffffffffffffffffffffffffffffffffffffffff\n      and\n        /* \"voting.sol\":2581:2591  msg.sender */\n      caller\n        /* \"voting.sol\":2581:2601  msg.sender == owner1 */\n      0xffffffffffffffffffffffffffffffffffffffff\n      and\n      eq\n        /* \"voting.sol\":2581:2615  msg.sender == owner1 && vote1 == 0 */\n      dup1\n      iszero\n      tag_39\n      jumpi\n      pop\n        /* \"voting.sol\":2614:2615  0 */\n      0x00\n        /* \"voting.sol\":2605:2610  vote1 */\n      0x02\n      0x16\n      swap1\n      sload\n      swap1\n      0x0100\n      exp\n      swap1\n      div\n      0xff\n      and\n        /* \"voting.sol\":2605:2615  vote1 == 0 */\n      0xff\n      and\n      eq\n        /* \"voting.sol\":2581:2615  msg.sender == owner1 && vote1 == 0 */\n    tag_39:\n        /* \"voting.sol\":2577:2876  if (msg.sender == owner1 && vote1 == 0){... */\n      iszero\n      tag_40\n      jumpi\n        /* \"voting.sol\":2644:2645  1 */\n      0x01\n        /* \"voting.sol\":2634:2640  _order */\n      dup3\n        /* \"voting.sol\":2634:2645  _order == 1 */\n      eq\n        /* \"voting.sol\":2630:2843  if (_order == 1){... */\n      iszero\n      tag_41\n      jumpi\n        /* \"voting.sol\":2664:2672  getVote1 */\n      0x02\n      0x19\n        /* \"voting.sol\":2664:2674  getVote1++ */\n      dup2\n      dup2\n      swap1\n      sload\n      swap1\n      0x0100\n      exp\n      swap1\n      div\n      0xff\n      and\n      dup1\n      swap3\n      swap2\n      swap1\n      tag_42\n      swap1\n      tag_43\n      jump\t// in\n    tag_42:\n      swap2\n      swap1\n      0x0100\n      exp\n      dup2\n      sload\n      dup2\n      0xff\n      mul\n      not\n      and\n      swap1\n      dup4\n      0xff\n      and\n      mul\n      or\n      swap1\n      sstore\n      pop\n      pop\n        /* \"voting.sol\":2630:2843  if (_order == 1){... */\n      jump(tag_44)\n    tag_41:\n        /* \"voting.sol\":2721:2722  2 */\n      0x02\n        /* \"voting.sol\":2711:2717  _order */\n      dup3\n        /* \"voting.sol\":2711:2722  _order == 2 */\n      eq\n        /* \"voting.sol\":2707:2843  if (_order == 2){... */\n      iszero\n      tag_45\n      jumpi\n        /* \"voting.sol\":2741:2749  getVote2 */\n      0x02\n      0x1a\n        /* \"voting.sol\":2741:2751  getVote2++ */\n      dup2\n      dup2\n      swap1\n      sload\n      swap1\n      0x0100\n      exp\n      swap1\n      div\n      0xff\n      and\n      dup1\n      swap3\n      swap2\n      swap1\n      tag_46\n      swap1\n      tag_43\n      jump\t// in\n    tag_46:\n      swap2\n      swap1\n      0x0100\n      exp\n      dup2\n      sload\n      dup2\n      0xff\n      mul\n      not\n      and\n      swap1\n      dup4\n      0xff\n      and\n      mul\n      or\n      swap1\n      sstore\n      pop\n      pop\n        /* \"voting.sol\":2707:2843  if (_order == 2){... */\n      jump(tag_47)\n    tag_45:\n        /* \"voting.sol\":2798:2799  3 */\n      0x03\n        /* \"voting.sol\":2788:2794  _order */\n      dup3\n        /* \"voting.sol\":2788:2799  _order == 3 */\n      eq\n        /* \"voting.sol\":2784:2843  if (_order == 3){... */\n      iszero\n      tag_48\n      jumpi\n        /* \"voting.sol\":2818:2826  getVote3 */\n      0x02\n      0x1b\n        /* \"voting.sol\":2818:2828  getVote3++ */\n      dup2\n      dup2\n      swap1\n      sload\n      swap1\n      0x0100\n      exp\n      swap1\n      div\n      0xff\n      and\n      dup1\n      swap3\n      swap2\n      swap1\n      tag_49\n      swap1\n      tag_43\n      jump\t// in\n    tag_49:\n      swap2\n      swap1\n      0x0100\n      exp\n      dup2\n      sload\n      dup2\n      0xff\n      mul\n      not\n      and\n      swap1\n      dup4\n      0xff\n      and\n      mul\n      or\n      swap1\n      sstore\n      pop\n      pop\n        /* \"voting.sol\":2784:2843  if (_order == 3){... */\n    tag_48:\n        /* \"voting.sol\":2707:2843  if (_order == 2){... */\n    tag_47:\n        /* \"voting.sol\":2630:2843  if (_order == 1){... */\n    tag_44:\n        /* \"voting.sol\":2864:2865  1 */\n      0x01\n        /* \"voting.sol\":2856:2861  vote1 */\n      0x02\n      0x16\n        /* \"voting.sol\":2856:2865  vote1 = 1 */\n      0x0100\n      exp\n      dup2\n      sload\n      dup2\n      0xff\n      mul\n      not\n      and\n      swap1\n      dup4\n      0xff\n      and\n      mul\n      or\n      swap1\n      sstore\n      pop\n        /* \"voting.sol\":2577:2876  if (msg.sender == owner1 && vote1 == 0){... */\n    tag_40:\n        /* \"voting.sol\":2903:2909  owner2 */\n      0x01\n      0x00\n      swap1\n      sload\n      swap1\n      0x0100\n      exp\n      swap1\n      div\n      0xffffffffffffffffffffffffffffffffffffffff\n      and\n        /* \"voting.sol\":2889:2909  msg.sender == owner2 */\n      0xffffffffffffffffffffffffffffffffffffffff\n      and\n        /* \"voting.sol\":2889:2899  msg.sender */\n      caller\n        /* \"voting.sol\":2889:2909  msg.sender == owner2 */\n      0xffffffffffffffffffffffffffffffffffffffff\n      and\n      eq\n        /* \"voting.sol\":2889:2923  msg.sender == owner2 && vote2 == 0 */\n      dup1\n      iszero\n      tag_50\n      jumpi\n      pop\n        /* \"voting.sol\":2922:2923  0 */\n      0x00\n        /* \"voting.sol\":2913:2918  vote2 */\n      0x02\n      0x17\n      swap1\n      sload\n      swap1\n      0x0100\n      exp\n      swap1\n      div\n      0xff\n      and\n        /* \"voting.sol\":2913:2923  vote2 == 0 */\n      0xff\n      and\n      eq\n        /* \"voting.sol\":2889:2923  msg.sender == owner2 && vote2 == 0 */\n    tag_50:\n        /* \"voting.sol\":2885:3184  if (msg.sender == owner2 && vote2 == 0){... */\n      iszero\n      tag_51\n      jumpi\n        /* \"voting.sol\":2952:2953  1 */\n      0x01\n        /* \"voting.sol\":2942:2948  _order */\n      dup3\n        /* \"voting.sol\":2942:2953  _order == 1 */\n      eq\n        /* \"voting.sol\":2938:3151  if (_order == 1){... */\n      iszero\n      tag_52\n      jumpi\n        /* \"voting.sol\":2972:2980  getVote1 */\n      0x02\n      0x19\n        /* \"voting.sol\":2972:2982  getVote1++ */\n      dup2\n      dup2\n      swap1\n      sload\n      swap1\n      0x0100\n      exp\n      swap1\n      div\n      0xff\n      and\n      dup1\n      swap3\n      swap2\n      swap1\n      tag_53\n      swap1\n      tag_43\n      jump\t// in\n    tag_53:\n      swap2\n      swap1\n      0x0100\n      exp\n      dup2\n      sload\n      dup2\n      0xff\n      mul\n      not\n      and\n      swap1\n      dup4\n      0xff\n      and\n      mul\n      or\n      swap1\n      sstore\n      pop\n      pop\n        /* \"voting.sol\":2938:3151  if (_order == 1){... */\n      jump(tag_54)\n    tag_52:\n        /* \"voting.sol\":3029:3030  2 */\n      0x02\n        /* \"voting.sol\":3019:3025  _order */\n      dup3\n        /* \"voting.sol\":3019:3030  _order == 2 */\n      eq\n        /* \"voting.sol\":3015:3151  if (_order == 2){... */\n      iszero\n      tag_55\n      jumpi\n        /* \"voting.sol\":3049:3057  getVote2 */\n      0x02\n      0x1a\n        /* \"voting.sol\":3049:3059  getVote2++ */\n      dup2\n      dup2\n      swap1\n      sload\n      swap1\n      0x0100\n      exp\n      swap1\n      div\n      0xff\n      and\n      dup1\n      swap3\n      swap2\n      swap1\n      tag_56\n      swap1\n      tag_43\n      jump\t// in\n    tag_56:\n      swap2\n      swap1\n      0x0100\n      exp\n      dup2\n      sload\n      dup2\n      0xff\n      mul\n      not\n      and\n      swap1\n      dup4\n      0xff\n      and\n      mul\n      or\n      swap1\n      sstore\n      pop\n      pop\n        /* \"voting.sol\":3015:3151  if (_order == 2){... */\n      jump(tag_57)\n    tag_55:\n        /* \"voting.sol\":3106:3107  3 */\n      0x03\n        /* \"voting.sol\":3096:3102  _order */\n      dup3\n        /* \"voting.sol\":3096:3107  _order == 3 */\n      eq\n        /* \"voting.sol\":3092:3151  if (_order == 3){... */\n      iszero\n      tag_58\n      jumpi\n        /* \"voting.sol\":3126:3134  getVote3 */\n      0x02\n      0x1b\n        /* \"voting.sol\":3126:3136  getVote3++ */\n      dup2\n      dup2\n      swap1\n      sload\n      swap1\n      0x0100\n      exp\n      swap1\n      div\n      0xff\n      and\n      dup1\n      swap3\n      swap2\n      swap1\n      tag_59\n      swap1\n      tag_43\n      jump\t// in\n    tag_59:\n      swap2\n      swap1\n      0x0100\n      exp\n      dup2\n      sload\n      dup2\n      0xff\n      mul\n      not\n      and\n      swap1\n      dup4\n      0xff\n      and\n      mul\n      or\n      swap1\n      sstore\n      pop\n      pop\n        /* \"voting.sol\":3092:3151  if (_order == 3){... */\n    tag_58:\n        /* \"voting.sol\":3015:3151  if (_order == 2){... */\n    tag_57:\n        /* \"voting.sol\":2938:3151  if (_order == 1){... */\n    tag_54:\n        /* \"voting.sol\":3172:3173  1 */\n      0x01\n        /* \"voting.sol\":3164:3169  vote2 */\n      0x02\n      0x17\n        /* \"voting.sol\":3164:3173  vote2 = 1 */\n      0x0100\n      exp\n      dup2\n      sload\n      dup2\n      0xff\n      mul\n      not\n      and\n      swap1\n      dup4\n      0xff\n      and\n      mul\n      or\n      swap1\n      sstore\n      pop\n        /* \"voting.sol\":2885:3184  if (msg.sender == owner2 && vote2 == 0){... */\n    tag_51:\n        /* \"voting.sol\":3211:3217  owner3 */\n      0x02\n      0x00\n      swap1\n      sload\n      swap1\n      0x0100\n      exp\n      swap1\n      div\n      0xffffffffffffffffffffffffffffffffffffffff\n      and\n        /* \"voting.sol\":3197:3217  msg.sender == owner3 */\n      0xffffffffffffffffffffffffffffffffffffffff\n      and\n        /* \"voting.sol\":3197:3207  msg.sender */\n      caller\n        /* \"voting.sol\":3197:3217  msg.sender == owner3 */\n      0xffffffffffffffffffffffffffffffffffffffff\n      and\n      eq\n        /* \"voting.sol\":3197:3231  msg.sender == owner3 && vote3 == 0 */\n      dup1\n      iszero\n      tag_60\n      jumpi\n      pop\n        /* \"voting.sol\":3230:3231  0 */\n      0x00\n        /* \"voting.sol\":3221:3226  vote3 */\n      0x02\n      0x18\n      swap1\n      sload\n      swap1\n      0x0100\n      exp\n      swap1\n      div\n      0xff\n      and\n        /* \"voting.sol\":3221:3231  vote3 == 0 */\n      0xff\n      and\n      eq\n        /* \"voting.sol\":3197:3231  msg.sender == owner3 && vote3 == 0 */\n    tag_60:\n        /* \"voting.sol\":3193:3492  if (msg.sender == owner3 && vote3 == 0){... */\n      iszero\n      tag_61\n      jumpi\n        /* \"voting.sol\":3260:3261  1 */\n      0x01\n        /* \"voting.sol\":3250:3256  _order */\n      dup3\n        /* \"voting.sol\":3250:3261  _order == 1 */\n      eq\n        /* \"voting.sol\":3246:3459  if (_order == 1){... */\n      iszero\n      tag_62\n      jumpi\n        /* \"voting.sol\":3280:3288  getVote1 */\n      0x02\n      0x19\n        /* \"voting.sol\":3280:3290  getVote1++ */\n      dup2\n      dup2\n      swap1\n      sload\n      swap1\n      0x0100\n      exp\n      swap1\n      div\n      0xff\n      and\n      dup1\n      swap3\n      swap2\n      swap1\n      tag_63\n      swap1\n      tag_43\n      jump\t// in\n    tag_63:\n      swap2\n      swap1\n      0x0100\n      exp\n      dup2\n      sload\n      dup2\n      0xff\n      mul\n      not\n      and\n      swap1\n      dup4\n      0xff\n      and\n      mul\n      or\n      swap1\n      sstore\n      pop\n      pop\n        /* \"voting.sol\":3246:3459  if (_order == 1){... */\n      jump(tag_64)\n    tag_62:\n        /* \"voting.sol\":3337:3338  2 */\n      0x02\n        /* \"voting.sol\":3327:3333  _order */\n      dup3\n        /* \"voting.sol\":3327:3338  _order == 2 */\n      eq\n        /* \"voting.sol\":3323:3459  if (_order == 2){... */\n      iszero\n      tag_65\n      jumpi\n        /* \"voting.sol\":3357:3365  getVote2 */\n      0x02\n      0x1a\n        /* \"voting.sol\":3357:3367  getVote2++ */\n      dup2\n      dup2\n      swap1\n      sload\n      swap1\n      0x0100\n      exp\n      swap1\n      div\n      0xff\n      and\n      dup1\n      swap3\n      swap2\n      swap1\n      tag_66\n      swap1\n      tag_43\n      jump\t// in\n    tag_66:\n      swap2\n      swap1\n      0x0100\n      exp\n      dup2\n      sload\n      dup2\n      0xff\n      mul\n      not\n      and\n      swap1\n      dup4\n      0xff\n      and\n      mul\n      or\n      swap1\n      sstore\n      pop\n      pop\n        /* \"voting.sol\":3323:3459  if (_order == 2){... */\n      jump(tag_67)\n    tag_65:\n        /* \"voting.sol\":3414:3415  3 */\n      0x03\n        /* \"voting.sol\":3404:3410  _order */\n      dup3\n        /* \"voting.sol\":3404:3415  _order == 3 */\n      eq\n        /* \"voting.sol\":3400:3459  if (_order == 3){... */\n      iszero\n      tag_68\n      jumpi\n        /* \"voting.sol\":3434:3442  getVote3 */\n      0x02\n      0x1b\n        /* \"voting.sol\":3434:3444  getVote3++ */\n      dup2\n      dup2\n      swap1\n      sload\n      swap1\n      0x0100\n      exp\n      swap1\n      div\n      0xff\n      and\n      dup1\n      swap3\n      swap2\n      swap1\n      tag_69\n      swap1\n      tag_43\n      jump\t// in\n    tag_69:\n      swap2\n      swap1\n      0x0100\n      exp\n      dup2\n      sload\n      dup2\n      0xff\n      mul\n      not\n      and\n      swap1\n      dup4\n      0xff\n      and\n      mul\n      or\n      swap1\n      sstore\n      pop\n      pop\n        /* \"voting.sol\":3400:3459  if (_order == 3){... */\n    tag_68:\n        /* \"voting.sol\":3323:3459  if (_order == 2){... */\n    tag_67:\n        /* \"voting.sol\":3246:3459  if (_order == 1){... */\n    tag_64:\n        /* \"voting.sol\":3480:3481  1 */\n      0x01\n        /* \"voting.sol\":3472:3477  vote3 */\n      0x02\n      0x18\n        /* \"voting.sol\":3472:3481  vote3 = 1 */\n      0x0100\n      exp\n      dup2\n      sload\n      dup2\n      0xff\n      mul\n      not\n      and\n      swap1\n      dup4\n      0xff\n      and\n      mul\n      or\n      swap1\n      sstore\n      pop\n        /* \"voting.sol\":3193:3492  if (msg.sender == owner3 && vote3 == 0){... */\n    tag_61:\n        /* \"voting.sol\":3523:3524  1 */\n      0x01\n        /* \"voting.sol\":3514:3519  vote1 */\n      0x02\n      0x16\n      swap1\n      sload\n      swap1\n      0x0100\n      exp\n      swap1\n      div\n      0xff\n      and\n        /* \"voting.sol\":3514:3524  vote1 == 1 */\n      0xff\n      and\n      eq\n        /* \"voting.sol\":3514:3538  vote1 == 1 && vote2 == 1 */\n      dup1\n      iszero\n      tag_70\n      jumpi\n      pop\n        /* \"voting.sol\":3537:3538  1 */\n      0x01\n        /* \"voting.sol\":3528:3533  vote2 */\n      0x02\n      0x17\n      swap1\n      sload\n      swap1\n      0x0100\n      exp\n      swap1\n      div\n      0xff\n      and\n        /* \"voting.sol\":3528:3538  vote2 == 1 */\n      0xff\n      and\n      eq\n        /* \"voting.sol\":3514:3538  vote1 == 1 && vote2 == 1 */\n    tag_70:\n        /* \"voting.sol\":3514:3552  vote1 == 1 && vote2 == 1 && vote3 == 1 */\n      dup1\n      iszero\n      tag_71\n      jumpi\n      pop\n        /* \"voting.sol\":3551:3552  1 */\n      0x01\n        /* \"voting.sol\":3542:3547  vote3 */\n      0x02\n      0x18\n      swap1\n      sload\n      swap1\n      0x0100\n      exp\n      swap1\n      div\n      0xff\n      and\n        /* \"voting.sol\":3542:3552  vote3 == 1 */\n      0xff\n      and\n      eq\n        /* \"voting.sol\":3514:3552  vote1 == 1 && vote2 == 1 && vote3 == 1 */\n    tag_71:\n        /* \"voting.sol\":3514:3581  vote1 == 1 && vote2 == 1 && vote3 == 1 && realOwner == address(0x0) */\n      dup1\n      iszero\n      tag_72\n      jumpi\n      pop\n        /* \"voting.sol\":3577:3580  0x0 */\n      0x00\n        /* \"voting.sol\":3556:3581  realOwner == address(0x0) */\n      0xffffffffffffffffffffffffffffffffffffffff\n      and\n        /* \"voting.sol\":3556:3565  realOwner */\n      0x03\n      0x00\n      swap1\n      sload\n      swap1\n      0x0100\n      exp\n      swap1\n      div\n      0xffffffffffffffffffffffffffffffffffffffff\n      and\n        /* \"voting.sol\":3556:3581  realOwner == address(0x0) */\n      0xffffffffffffffffffffffffffffffffffffffff\n      and\n      eq\n        /* \"voting.sol\":3514:3581  vote1 == 1 && vote2 == 1 && vote3 == 1 && realOwner == address(0x0) */\n    tag_72:\n        /* \"voting.sol\":3510:4189  if (vote1 == 1 && vote2 == 1 && vote3 == 1 && realOwner == address(0x0)){... */\n      iszero\n      tag_73\n      jumpi\n        /* \"voting.sol\":3612:3613  2 */\n      0x02\n        /* \"voting.sol\":3600:3608  getVote1 */\n      dup1\n      0x19\n      swap1\n      sload\n      swap1\n      0x0100\n      exp\n      swap1\n      div\n      0xff\n      and\n        /* \"voting.sol\":3600:3613  getVote1 >= 2 */\n      0xff\n      and\n      lt\n        /* \"voting.sol\":3596:3839  if (getVote1 >= 2){... */\n      tag_74\n      jumpi\n        /* \"voting.sol\":3644:3650  owner1 */\n      0x00\n      dup1\n      sload\n      swap1\n      0x0100\n      exp\n      swap1\n      div\n      0xffffffffffffffffffffffffffffffffffffffff\n      and\n        /* \"voting.sol\":3632:3641  realOwner */\n      0x03\n      0x00\n        /* \"voting.sol\":3632:3650  realOwner = owner1 */\n      0x0100\n      exp\n      dup2\n      sload\n      dup2\n      0xffffffffffffffffffffffffffffffffffffffff\n      mul\n      not\n      and\n      swap1\n      dup4\n      0xffffffffffffffffffffffffffffffffffffffff\n      and\n      mul\n      or\n      swap1\n      sstore\n      pop\n        /* \"voting.sol\":3596:3839  if (getVote1 >= 2){... */\n      jump(tag_75)\n    tag_74:\n        /* \"voting.sol\":3699:3700  2 */\n      0x02\n        /* \"voting.sol\":3687:3695  getVote2 */\n      dup1\n      0x1a\n      swap1\n      sload\n      swap1\n      0x0100\n      exp\n      swap1\n      div\n      0xff\n      and\n        /* \"voting.sol\":3687:3700  getVote2 >= 2 */\n      0xff\n      and\n      lt\n        /* \"voting.sol\":3683:3839  if (getVote2 >= 2){... */\n      tag_76\n      jumpi\n        /* \"voting.sol\":3731:3737  owner2 */\n      0x01\n      0x00\n      swap1\n      sload\n      swap1\n      0x0100\n      exp\n      swap1\n      div\n      0xffffffffffffffffffffffffffffffffffffffff\n      and\n        /* \"voting.sol\":3719:3728  realOwner */\n      0x03\n      0x00\n        /* \"voting.sol\":3719:3737  realOwner = owner2 */\n      0x0100\n      exp\n      dup2\n      sload\n      dup2\n      0xffffffffffffffffffffffffffffffffffffffff\n      mul\n      not\n      and\n      swap1\n      dup4\n      0xffffffffffffffffffffffffffffffffffffffff\n      and\n      mul\n      or\n      swap1\n      sstore\n      pop\n        /* \"voting.sol\":3683:3839  if (getVote2 >= 2){... */\n      jump(tag_77)\n    tag_76:\n        /* \"voting.sol\":3786:3787  2 */\n      0x02\n        /* \"voting.sol\":3774:3782  getVote3 */\n      dup1\n      0x1b\n      swap1\n      sload\n      swap1\n      0x0100\n      exp\n      swap1\n      div\n      0xff\n      and\n        /* \"voting.sol\":3774:3787  getVote3 >= 2 */\n      0xff\n      and\n      lt\n        /* \"voting.sol\":3770:3839  if (getVote3 >= 2){... */\n      tag_78\n      jumpi\n        /* \"voting.sol\":3818:3824  owner3 */\n      0x02\n      0x00\n      swap1\n      sload\n      swap1\n      0x0100\n      exp\n      swap1\n      div\n      0xffffffffffffffffffffffffffffffffffffffff\n      and\n        /* \"voting.sol\":3806:3815  realOwner */\n      0x03\n      0x00\n        /* \"voting.sol\":3806:3824  realOwner = owner3 */\n      0x0100\n      exp\n      dup2\n      sload\n      dup2\n      0xffffffffffffffffffffffffffffffffffffffff\n      mul\n      not\n      and\n      swap1\n      dup4\n      0xffffffffffffffffffffffffffffffffffffffff\n      and\n      mul\n      or\n      swap1\n      sstore\n      pop\n        /* \"voting.sol\":3770:3839  if (getVote3 >= 2){... */\n    tag_78:\n        /* \"voting.sol\":3683:3839  if (getVote2 >= 2){... */\n    tag_77:\n        /* \"voting.sol\":3596:3839  if (getVote1 >= 2){... */\n    tag_75:\n        /* \"voting.sol\":3860:3861  0 */\n      0x00\n        /* \"voting.sol\":3852:3857  vote1 */\n      0x02\n      0x16\n        /* \"voting.sol\":3852:3861  vote1 = 0 */\n      0x0100\n      exp\n      dup2\n      sload\n      dup2\n      0xff\n      mul\n      not\n      and\n      swap1\n      dup4\n      0xff\n      and\n      mul\n      or\n      swap1\n      sstore\n      pop\n        /* \"voting.sol\":3883:3884  0 */\n      0x00\n        /* \"voting.sol\":3875:3880  vote2 */\n      0x02\n      0x17\n        /* \"voting.sol\":3875:3884  vote2 = 0 */\n      0x0100\n      exp\n      dup2\n      sload\n      dup2\n      0xff\n      mul\n      not\n      and\n      swap1\n      dup4\n      0xff\n      and\n      mul\n      or\n      swap1\n      sstore\n      pop\n        /* \"voting.sol\":3906:3907  0 */\n      0x00\n        /* \"voting.sol\":3898:3903  vote3 */\n      0x02\n      0x18\n        /* \"voting.sol\":3898:3907  vote3 = 0 */\n      0x0100\n      exp\n      dup2\n      sload\n      dup2\n      0xff\n      mul\n      not\n      and\n      swap1\n      dup4\n      0xff\n      and\n      mul\n      or\n      swap1\n      sstore\n      pop\n        /* \"voting.sol\":3932:3933  0 */\n      0x00\n        /* \"voting.sol\":3921:3929  getVote1 */\n      0x02\n      0x19\n        /* \"voting.sol\":3921:3933  getVote1 = 0 */\n      0x0100\n      exp\n      dup2\n      sload\n      dup2\n      0xff\n      mul\n      not\n      and\n      swap1\n      dup4\n      0xff\n      and\n      mul\n      or\n      swap1\n      sstore\n      pop\n        /* \"voting.sol\":3958:3959  0 */\n      0x00\n        /* \"voting.sol\":3947:3955  getVote2 */\n      0x02\n      0x1a\n        /* \"voting.sol\":3947:3959  getVote2 = 0 */\n      0x0100\n      exp\n      dup2\n      sload\n      dup2\n      0xff\n      mul\n      not\n      and\n      swap1\n      dup4\n      0xff\n      and\n      mul\n      or\n      swap1\n      sstore\n      pop\n        /* \"voting.sol\":3984:3985  0 */\n      0x00\n        /* \"voting.sol\":3973:3981  getVote3 */\n      0x02\n      0x1b\n        /* \"voting.sol\":3973:3985  getVote3 = 0 */\n      0x0100\n      exp\n      dup2\n      sload\n      dup2\n      0xff\n      mul\n      not\n      and\n      swap1\n      dup4\n      0xff\n      and\n      mul\n      or\n      swap1\n      sstore\n      pop\n        /* \"voting.sol\":4024:4027  0x0 */\n      0x00\n        /* \"voting.sol\":4003:4028  realOwner == address(0x0) */\n      0xffffffffffffffffffffffffffffffffffffffff\n      and\n        /* \"voting.sol\":4003:4012  realOwner */\n      0x03\n      0x00\n      swap1\n      sload\n      swap1\n      0x0100\n      exp\n      swap1\n      div\n      0xffffffffffffffffffffffffffffffffffffffff\n      and\n        /* \"voting.sol\":4003:4028  realOwner == address(0x0) */\n      0xffffffffffffffffffffffffffffffffffffffff\n      and\n      eq\n        /* \"voting.sol\":3999:4103  if (realOwner == address(0x0)){... */\n      iszero\n      tag_79\n      jumpi\n        /* \"voting.sol\":4047:4056  voteCount */\n      0x02\n      0x15\n        /* \"voting.sol\":4047:4058  voteCount++ */\n      dup2\n      dup2\n      swap1\n      sload\n      swap1\n      0x0100\n      exp\n      swap1\n      div\n      0xff\n      and\n      dup1\n      swap3\n      swap2\n      swap1\n      tag_80\n      swap1\n      tag_43\n      jump\t// in\n    tag_80:\n      swap2\n      swap1\n      0x0100\n      exp\n      dup2\n      sload\n      dup2\n      0xff\n      mul\n      not\n      and\n      swap1\n      dup4\n      0xff\n      and\n      mul\n      or\n      swap1\n      sstore\n      pop\n      pop\n        /* \"voting.sol\":4083:4088  false */\n      0x00\n        /* \"voting.sol\":4076:4088  return false */\n      swap1\n      pop\n      jump(tag_35)\n        /* \"voting.sol\":3999:4103  if (realOwner == address(0x0)){... */\n    tag_79:\n        /* \"voting.sol\":4123:4127  true */\n      0x01\n        /* \"voting.sol\":4116:4127  return true */\n      swap1\n      pop\n      jump(tag_35)\n        /* \"voting.sol\":3510:4189  if (vote1 == 1 && vote2 == 1 && vote3 == 1 && realOwner == address(0x0)){... */\n    tag_73:\n        /* \"voting.sol\":4173:4178  false */\n      0x00\n        /* \"voting.sol\":4166:4178  return false */\n      swap1\n      pop\n        /* \"voting.sol\":365:366  _ */\n    tag_35:\n        /* \"voting.sol\":2449:4195  function vote(uint _order) onlyOwner public returns(bool) {... */\n      swap2\n      swap1\n      pop\n      jump\t// out\n        /* \"voting.sol\":4201:4312  function proveRealOwner() checkOwner public returns (string memory){... */\n    tag_15:\n        /* \"voting.sol\":4254:4267  string memory */\n      0x60\n        /* \"voting.sol\":1281:1290  realOwner */\n      0x03\n      0x00\n      swap1\n      sload\n      swap1\n      0x0100\n      exp\n      swap1\n      div\n      0xffffffffffffffffffffffffffffffffffffffff\n      and\n        /* \"voting.sol\":1267:1290  msg.sender == realOwner */\n      0xffffffffffffffffffffffffffffffffffffffff\n      and\n        /* \"voting.sol\":1267:1277  msg.sender */\n      caller\n        /* \"voting.sol\":1267:1290  msg.sender == realOwner */\n      0xffffffffffffffffffffffffffffffffffffffff\n      and\n      eq\n        /* \"voting.sol\":1259:1291  require(msg.sender == realOwner) */\n      tag_83\n      jumpi\n      0x00\n      dup1\n      revert\n    tag_83:\n        /* \"voting.sol\":4278:4305  return \"The voting is over\" */\n      mload(0x40)\n      dup1\n      0x40\n      add\n      0x40\n      mstore\n      dup1\n      0x12\n      dup2\n      mstore\n      0x20\n      add\n      0x54686520766f74696e67206973206f7665720000000000000000000000000000\n      dup2\n      mstore\n      pop\n      swap1\n      pop\n        /* \"voting.sol\":4201:4312  function proveRealOwner() checkOwner public returns (string memory){... */\n      swap1\n      jump\t// out\n        /* \"voting.sol\":1543:2111  function becomeOwner(address _person) public returns (bool){... */\n    tag_21:\n        /* \"voting.sol\":1597:1601  bool */\n      0x00\n        /* \"voting.sol\":1630:1631  3 */\n      0x03\n        /* \"voting.sol\":1616:1626  ownerCount */\n      0x02\n      0x14\n      swap1\n      sload\n      swap1\n      0x0100\n      exp\n      swap1\n      div\n      0xff\n      and\n        /* \"voting.sol\":1616:1631  ownerCount == 3 */\n      0xff\n      and\n      eq\n        /* \"voting.sol\":1612:1669  if (ownerCount == 3){... */\n      iszero\n      tag_86\n      jumpi\n        /* \"voting.sol\":1653:1658  false */\n      0x00\n        /* \"voting.sol\":1646:1658  return false */\n      swap1\n      pop\n      jump(tag_85)\n        /* \"voting.sol\":1612:1669  if (ownerCount == 3){... */\n    tag_86:\n        /* \"voting.sol\":1696:1697  0 */\n      0x00\n        /* \"voting.sol\":1682:1692  ownerCount */\n      0x02\n      0x14\n      swap1\n      sload\n      swap1\n      0x0100\n      exp\n      swap1\n      div\n      0xff\n      and\n        /* \"voting.sol\":1682:1697  ownerCount == 0 */\n      0xff\n      and\n      eq\n        /* \"voting.sol\":1678:2105  if (ownerCount == 0){... */\n      iszero\n      tag_87\n      jumpi\n        /* \"voting.sol\":1721:1728  _person */\n      dup2\n        /* \"voting.sol\":1712:1718  owner1 */\n      0x00\n      dup1\n        /* \"voting.sol\":1712:1728  owner1 = _person */\n      0x0100\n      exp\n      dup2\n      sload\n      dup2\n      0xffffffffffffffffffffffffffffffffffffffff\n      mul\n      not\n      and\n      swap1\n      dup4\n      0xffffffffffffffffffffffffffffffffffffffff\n      and\n      mul\n      or\n      swap1\n      sstore\n      pop\n        /* \"voting.sol\":1742:1752  ownerCount */\n      0x02\n      0x14\n        /* \"voting.sol\":1742:1754  ownerCount++ */\n      dup2\n      dup2\n      swap1\n      sload\n      swap1\n      0x0100\n      exp\n      swap1\n      div\n      0xff\n      and\n      dup1\n      swap3\n      swap2\n      swap1\n      tag_88\n      swap1\n      tag_43\n      jump\t// in\n    tag_88:\n      swap2\n      swap1\n      0x0100\n      exp\n      dup2\n      sload\n      dup2\n      0xff\n      mul\n      not\n      and\n      swap1\n      dup4\n      0xff\n      and\n      mul\n      or\n      swap1\n      sstore\n      pop\n      pop\n        /* \"voting.sol\":1775:1779  true */\n      0x01\n        /* \"voting.sol\":1768:1779  return true */\n      swap1\n      pop\n      jump(tag_85)\n        /* \"voting.sol\":1678:2105  if (ownerCount == 0){... */\n    tag_87:\n        /* \"voting.sol\":1822:1823  1 */\n      0x01\n        /* \"voting.sol\":1808:1818  ownerCount */\n      0x02\n      0x14\n      swap1\n      sload\n      swap1\n      0x0100\n      exp\n      swap1\n      div\n      0xff\n      and\n        /* \"voting.sol\":1808:1823  ownerCount == 1 */\n      0xff\n      and\n      eq\n        /* \"voting.sol\":1808:1844  ownerCount == 1 && owner1 != _person */\n      dup1\n      iszero\n      tag_90\n      jumpi\n      pop\n        /* \"voting.sol\":1837:1844  _person */\n      dup2\n        /* \"voting.sol\":1827:1844  owner1 != _person */\n      0xffffffffffffffffffffffffffffffffffffffff\n      and\n        /* \"voting.sol\":1827:1833  owner1 */\n      0x00\n      dup1\n      sload\n      swap1\n      0x0100\n      exp\n      swap1\n      div\n      0xffffffffffffffffffffffffffffffffffffffff\n      and\n        /* \"voting.sol\":1827:1844  owner1 != _person */\n      0xffffffffffffffffffffffffffffffffffffffff\n      and\n      eq\n      iszero\n        /* \"voting.sol\":1808:1844  ownerCount == 1 && owner1 != _person */\n    tag_90:\n        /* \"voting.sol\":1804:2105  if (ownerCount == 1 && owner1 != _person){... */\n      iszero\n      tag_91\n      jumpi\n        /* \"voting.sol\":1868:1875  _person */\n      dup2\n        /* \"voting.sol\":1859:1865  owner2 */\n      0x01\n      0x00\n        /* \"voting.sol\":1859:1875  owner2 = _person */\n      0x0100\n      exp\n      dup2\n      sload\n      dup2\n      0xffffffffffffffffffffffffffffffffffffffff\n      mul\n      not\n      and\n      swap1\n      dup4\n      0xffffffffffffffffffffffffffffffffffffffff\n      and\n      mul\n      or\n      swap1\n      sstore\n      pop\n        /* \"voting.sol\":1889:1899  ownerCount */\n      0x02\n      0x14\n        /* \"voting.sol\":1889:1901  ownerCount++ */\n      dup2\n      dup2\n      swap1\n      sload\n      swap1\n      0x0100\n      exp\n      swap1\n      div\n      0xff\n      and\n      dup1\n      swap3\n      swap2\n      swap1\n      tag_92\n      swap1\n      tag_43\n      jump\t// in\n    tag_92:\n      swap2\n      swap1\n      0x0100\n      exp\n      dup2\n      sload\n      dup2\n      0xff\n      mul\n      not\n      and\n      swap1\n      dup4\n      0xff\n      and\n      mul\n      or\n      swap1\n      sstore\n      pop\n      pop\n        /* \"voting.sol\":1922:1926  true */\n      0x01\n        /* \"voting.sol\":1915:1926  return true */\n      swap1\n      pop\n      jump(tag_85)\n        /* \"voting.sol\":1804:2105  if (ownerCount == 1 && owner1 != _person){... */\n    tag_91:\n        /* \"voting.sol\":1969:1970  2 */\n      0x02\n        /* \"voting.sol\":1955:1965  ownerCount */\n      dup1\n      0x14\n      swap1\n      sload\n      swap1\n      0x0100\n      exp\n      swap1\n      div\n      0xff\n      and\n        /* \"voting.sol\":1955:1970  ownerCount == 2 */\n      0xff\n      and\n      eq\n        /* \"voting.sol\":1955:1991  ownerCount == 2 && owner1 != _person */\n      dup1\n      iszero\n      tag_94\n      jumpi\n      pop\n        /* \"voting.sol\":1984:1991  _person */\n      dup2\n        /* \"voting.sol\":1974:1991  owner1 != _person */\n      0xffffffffffffffffffffffffffffffffffffffff\n      and\n        /* \"voting.sol\":1974:1980  owner1 */\n      0x00\n      dup1\n      sload\n      swap1\n      0x0100\n      exp\n      swap1\n      div\n      0xffffffffffffffffffffffffffffffffffffffff\n      and\n        /* \"voting.sol\":1974:1991  owner1 != _person */\n      0xffffffffffffffffffffffffffffffffffffffff\n      and\n      eq\n      iszero\n        /* \"voting.sol\":1955:1991  ownerCount == 2 && owner1 != _person */\n    tag_94:\n        /* \"voting.sol\":1955:2012  ownerCount == 2 && owner1 != _person && owner2 != _person */\n      dup1\n      iszero\n      tag_95\n      jumpi\n      pop\n        /* \"voting.sol\":2005:2012  _person */\n      dup2\n        /* \"voting.sol\":1995:2012  owner2 != _person */\n      0xffffffffffffffffffffffffffffffffffffffff\n      and\n        /* \"voting.sol\":1995:2001  owner2 */\n      0x01\n      0x00\n      swap1\n      sload\n      swap1\n      0x0100\n      exp\n      swap1\n      div\n      0xffffffffffffffffffffffffffffffffffffffff\n      and\n        /* \"voting.sol\":1995:2012  owner2 != _person */\n      0xffffffffffffffffffffffffffffffffffffffff\n      and\n      eq\n      iszero\n        /* \"voting.sol\":1955:2012  ownerCount == 2 && owner1 != _person && owner2 != _person */\n    tag_95:\n        /* \"voting.sol\":1951:2105  if (ownerCount == 2 && owner1 != _person && owner2 != _person){... */\n      iszero\n      tag_96\n      jumpi\n        /* \"voting.sol\":2036:2043  _person */\n      dup2\n        /* \"voting.sol\":2027:2033  owner3 */\n      0x02\n      0x00\n        /* \"voting.sol\":2027:2043  owner3 = _person */\n      0x0100\n      exp\n      dup2\n      sload\n      dup2\n      0xffffffffffffffffffffffffffffffffffffffff\n      mul\n      not\n      and\n      swap1\n      dup4\n      0xffffffffffffffffffffffffffffffffffffffff\n      and\n      mul\n      or\n      swap1\n      sstore\n      pop\n        /* \"voting.sol\":2057:2067  ownerCount */\n      0x02\n      0x14\n        /* \"voting.sol\":2057:2069  ownerCount++ */\n      dup2\n      dup2\n      swap1\n      sload\n      swap1\n      0x0100\n      exp\n      swap1\n      div\n      0xff\n      and\n      dup1\n      swap3\n      swap2\n      swap1\n      tag_97\n      swap1\n      tag_43\n      jump\t// in\n    tag_97:\n      swap2\n      swap1\n      0x0100\n      exp\n      dup2\n      sload\n      dup2\n      0xff\n      mul\n      not\n      and\n      swap1\n      dup4\n      0xff\n      and\n      mul\n      or\n      swap1\n      sstore\n      pop\n      pop\n        /* \"voting.sol\":2090:2094  true */\n      0x01\n        /* \"voting.sol\":2083:2094  return true */\n      swap1\n      pop\n      jump(tag_85)\n        /* \"voting.sol\":1951:2105  if (ownerCount == 2 && owner1 != _person && owner2 != _person){... */\n    tag_96:\n        /* \"voting.sol\":1543:2111  function becomeOwner(address _person) public returns (bool){... */\n    tag_85:\n      swap2\n      swap1\n      pop\n      jump\t// out\n        /* \"voting.sol\":2117:2443  function showOwner(uint _order) public view returns (address) {... */\n    tag_25:\n        /* \"voting.sol\":2170:2177  address */\n      0x00\n        /* \"voting.sol\":2203:2204  1 */\n      0x01\n        /* \"voting.sol\":2193:2199  _order */\n      dup3\n        /* \"voting.sol\":2193:2204  _order == 1 */\n      eq\n        /* \"voting.sol\":2189:2437  if (_order == 1){... */\n      iszero\n      tag_99\n      jumpi\n        /* \"voting.sol\":2226:2232  owner1 */\n      0x00\n      dup1\n      sload\n      swap1\n      0x0100\n      exp\n      swap1\n      div\n      0xffffffffffffffffffffffffffffffffffffffff\n      and\n        /* \"voting.sol\":2219:2232  return owner1 */\n      swap1\n      pop\n      jump(tag_98)\n        /* \"voting.sol\":2189:2437  if (_order == 1){... */\n    tag_99:\n        /* \"voting.sol\":2271:2272  2 */\n      0x02\n        /* \"voting.sol\":2261:2267  _order */\n      dup3\n        /* \"voting.sol\":2261:2272  _order == 2 */\n      eq\n        /* \"voting.sol\":2257:2437  if (_order == 2){... */\n      iszero\n      tag_101\n      jumpi\n        /* \"voting.sol\":2294:2300  owner2 */\n      0x01\n      0x00\n      swap1\n      sload\n      swap1\n      0x0100\n      exp\n      swap1\n      div\n      0xffffffffffffffffffffffffffffffffffffffff\n      and\n        /* \"voting.sol\":2287:2300  return owner2 */\n      swap1\n      pop\n      jump(tag_98)\n        /* \"voting.sol\":2257:2437  if (_order == 2){... */\n    tag_101:\n        /* \"voting.sol\":2339:2340  3 */\n      0x03\n        /* \"voting.sol\":2329:2335  _order */\n      dup3\n        /* \"voting.sol\":2329:2340  _order == 3 */\n      eq\n        /* \"voting.sol\":2325:2437  if (_order == 3){... */\n      iszero\n      tag_103\n      jumpi\n        /* \"voting.sol\":2362:2368  owner3 */\n      0x02\n      0x00\n      swap1\n      sload\n      swap1\n      0x0100\n      exp\n      swap1\n      div\n      0xffffffffffffffffffffffffffffffffffffffff\n      and\n        /* \"voting.sol\":2355:2368  return owner3 */\n      swap1\n      pop\n      jump(tag_98)\n        /* \"voting.sol\":2325:2437  if (_order == 3){... */\n    tag_103:\n        /* \"voting.sol\":2422:2425  0x0 */\n      0x00\n        /* \"voting.sol\":2407:2426  return address(0x0) */\n      swap1\n      pop\n        /* \"voting.sol\":2117:2443  function showOwner(uint _order) public view returns (address) {... */\n    tag_98:\n      swap2\n      swap1\n      pop\n      jump\t// out\n        /* \"voting.sol\":398:944  function transferOwnership(address _to) onlyOwner public {... */\n    tag_30:\n        /* \"voting.sol\":306:312  owner1 */\n      0x00\n      dup1\n      sload\n      swap1\n      0x0100\n      exp\n      swap1\n      div\n      0xffffffffffffffffffffffffffffffffffffffff\n      and\n        /* \"voting.sol\":292:312  msg.sender == owner1 */\n      0xffffffffffffffffffffffffffffffffffffffff\n      and\n        /* \"voting.sol\":292:302  msg.sender */\n      caller\n        /* \"voting.sol\":292:312  msg.sender == owner1 */\n      0xffffffffffffffffffffffffffffffffffffffff\n      and\n      eq\n        /* \"voting.sol\":292:336  msg.sender == owner1 || msg.sender == owner2 */\n      dup1\n      tag_106\n      jumpi\n      pop\n        /* \"voting.sol\":330:336  owner2 */\n      0x01\n      0x00\n      swap1\n      sload\n      swap1\n      0x0100\n      exp\n      swap1\n      div\n      0xffffffffffffffffffffffffffffffffffffffff\n      and\n        /* \"voting.sol\":316:336  msg.sender == owner2 */\n      0xffffffffffffffffffffffffffffffffffffffff\n      and\n        /* \"voting.sol\":316:326  msg.sender */\n      caller\n        /* \"voting.sol\":316:336  msg.sender == owner2 */\n      0xffffffffffffffffffffffffffffffffffffffff\n      and\n      eq\n        /* \"voting.sol\":292:336  msg.sender == owner1 || msg.sender == owner2 */\n    tag_106:\n        /* \"voting.sol\":292:360  msg.sender == owner1 || msg.sender == owner2 || msg.sender == owner3 */\n      dup1\n      tag_107\n      jumpi\n      pop\n        /* \"voting.sol\":354:360  owner3 */\n      0x02\n      0x00\n      swap1\n      sload\n      swap1\n      0x0100\n      exp\n      swap1\n      div\n      0xffffffffffffffffffffffffffffffffffffffff\n      and\n        /* \"voting.sol\":340:360  msg.sender == owner3 */\n      0xffffffffffffffffffffffffffffffffffffffff\n      and\n        /* \"voting.sol\":340:350  msg.sender */\n      caller\n        /* \"voting.sol\":340:360  msg.sender == owner3 */\n      0xffffffffffffffffffffffffffffffffffffffff\n      and\n      eq\n        /* \"voting.sol\":292:360  msg.sender == owner1 || msg.sender == owner2 || msg.sender == owner3 */\n    tag_107:\n        /* \"voting.sol\":284:361  require(msg.sender == owner1 || msg.sender == owner2 || msg.sender == owner3) */\n      tag_108\n      jumpi\n      0x00\n      dup1\n      revert\n    tag_108:\n        /* \"voting.sol\":480:486  owner1 */\n      0x00\n      dup1\n      sload\n      swap1\n      0x0100\n      exp\n      swap1\n      div\n      0xffffffffffffffffffffffffffffffffffffffff\n      and\n        /* \"voting.sol\":473:486  _to != owner1 */\n      0xffffffffffffffffffffffffffffffffffffffff\n      and\n        /* \"voting.sol\":473:476  _to */\n      dup2\n        /* \"voting.sol\":473:486  _to != owner1 */\n      0xffffffffffffffffffffffffffffffffffffffff\n      and\n      eq\n      iszero\n        /* \"voting.sol\":473:503  _to != owner1 && _to != owner2 */\n      dup1\n      iszero\n      tag_110\n      jumpi\n      pop\n        /* \"voting.sol\":497:503  owner2 */\n      0x01\n      0x00\n      swap1\n      sload\n      swap1\n      0x0100\n      exp\n      swap1\n      div\n      0xffffffffffffffffffffffffffffffffffffffff\n      and\n        /* \"voting.sol\":490:503  _to != owner2 */\n      0xffffffffffffffffffffffffffffffffffffffff\n      and\n        /* \"voting.sol\":490:493  _to */\n      dup2\n        /* \"voting.sol\":490:503  _to != owner2 */\n      0xffffffffffffffffffffffffffffffffffffffff\n      and\n      eq\n      iszero\n        /* \"voting.sol\":473:503  _to != owner1 && _to != owner2 */\n    tag_110:\n        /* \"voting.sol\":473:520  _to != owner1 && _to != owner2 && _to != owner3 */\n      dup1\n      iszero\n      tag_111\n      jumpi\n      pop\n        /* \"voting.sol\":514:520  owner3 */\n      0x02\n      0x00\n      swap1\n      sload\n      swap1\n      0x0100\n      exp\n      swap1\n      div\n      0xffffffffffffffffffffffffffffffffffffffff\n      and\n        /* \"voting.sol\":507:520  _to != owner3 */\n      0xffffffffffffffffffffffffffffffffffffffff\n      and\n        /* \"voting.sol\":507:510  _to */\n      dup2\n        /* \"voting.sol\":507:520  _to != owner3 */\n      0xffffffffffffffffffffffffffffffffffffffff\n      and\n      eq\n      iszero\n        /* \"voting.sol\":473:520  _to != owner1 && _to != owner2 && _to != owner3 */\n    tag_111:\n        /* \"voting.sol\":465:521  require(_to != owner1 && _to != owner2 && _to != owner3) */\n      tag_112\n      jumpi\n      0x00\n      dup1\n      revert\n    tag_112:\n        /* \"voting.sol\":554:557  0x0 */\n      0x00\n        /* \"voting.sol\":539:558  _to != address(0x0) */\n      0xffffffffffffffffffffffffffffffffffffffff\n      and\n        /* \"voting.sol\":539:542  _to */\n      dup2\n        /* \"voting.sol\":539:558  _to != address(0x0) */\n      0xffffffffffffffffffffffffffffffffffffffff\n      and\n      eq\n      iszero\n        /* \"voting.sol\":531:559  require(_to != address(0x0)) */\n      tag_113\n      jumpi\n      0x00\n      dup1\n      revert\n    tag_113:\n        /* \"voting.sol\":587:593  owner1 */\n      0x00\n      dup1\n      sload\n      swap1\n      0x0100\n      exp\n      swap1\n      div\n      0xffffffffffffffffffffffffffffffffffffffff\n      and\n        /* \"voting.sol\":573:593  msg.sender == owner1 */\n      0xffffffffffffffffffffffffffffffffffffffff\n      and\n        /* \"voting.sol\":573:583  msg.sender */\n      caller\n        /* \"voting.sol\":573:593  msg.sender == owner1 */\n      0xffffffffffffffffffffffffffffffffffffffff\n      and\n      eq\n        /* \"voting.sol\":569:939  if (msg.sender == owner1){... */\n      iszero\n      tag_114\n      jumpi\n        /* \"voting.sol\":617:620  _to */\n      dup1\n        /* \"voting.sol\":608:614  owner1 */\n      0x00\n      dup1\n        /* \"voting.sol\":608:620  owner1 = _to */\n      0x0100\n      exp\n      dup2\n      sload\n      dup2\n      0xffffffffffffffffffffffffffffffffffffffff\n      mul\n      not\n      and\n      swap1\n      dup4\n      0xffffffffffffffffffffffffffffffffffffffff\n      and\n      mul\n      or\n      swap1\n      sstore\n      pop\n        /* \"voting.sol\":668:671  _to */\n      dup1\n        /* \"voting.sol\":639:672  OwnerTransferPropose(owner1, _to) */\n      0xffffffffffffffffffffffffffffffffffffffff\n      and\n        /* \"voting.sol\":660:666  owner1 */\n      0x00\n      dup1\n      sload\n      swap1\n      0x0100\n      exp\n      swap1\n      div\n      0xffffffffffffffffffffffffffffffffffffffff\n      and\n        /* \"voting.sol\":639:672  OwnerTransferPropose(owner1, _to) */\n      0xffffffffffffffffffffffffffffffffffffffff\n      and\n      0x2ae143016adc0aa482e6ba5d9a350f3e3122aeb005ca4bf47d1d7b8221bce472\n      mload(0x40)\n      mload(0x40)\n      dup1\n      swap2\n      sub\n      swap1\n      log3\n        /* \"voting.sol\":569:939  if (msg.sender == owner1){... */\n      jump(tag_115)\n    tag_114:\n        /* \"voting.sol\":715:721  owner2 */\n      0x01\n      0x00\n      swap1\n      sload\n      swap1\n      0x0100\n      exp\n      swap1\n      div\n      0xffffffffffffffffffffffffffffffffffffffff\n      and\n        /* \"voting.sol\":701:721  msg.sender == owner2 */\n      0xffffffffffffffffffffffffffffffffffffffff\n      and\n        /* \"voting.sol\":701:711  msg.sender */\n      caller\n        /* \"voting.sol\":701:721  msg.sender == owner2 */\n      0xffffffffffffffffffffffffffffffffffffffff\n      and\n      eq\n        /* \"voting.sol\":697:939  if (msg.sender == owner2){... */\n      iszero\n      tag_116\n      jumpi\n        /* \"voting.sol\":745:748  _to */\n      dup1\n        /* \"voting.sol\":736:742  owner2 */\n      0x01\n      0x00\n        /* \"voting.sol\":736:748  owner2 = _to */\n      0x0100\n      exp\n      dup2\n      sload\n      dup2\n      0xffffffffffffffffffffffffffffffffffffffff\n      mul\n      not\n      and\n      swap1\n      dup4\n      0xffffffffffffffffffffffffffffffffffffffff\n      and\n      mul\n      or\n      swap1\n      sstore\n      pop\n        /* \"voting.sol\":796:799  _to */\n      dup1\n        /* \"voting.sol\":767:800  OwnerTransferPropose(owner2, _to) */\n      0xffffffffffffffffffffffffffffffffffffffff\n      and\n        /* \"voting.sol\":788:794  owner2 */\n      0x01\n      0x00\n      swap1\n      sload\n      swap1\n      0x0100\n      exp\n      swap1\n      div\n      0xffffffffffffffffffffffffffffffffffffffff\n      and\n        /* \"voting.sol\":767:800  OwnerTransferPropose(owner2, _to) */\n      0xffffffffffffffffffffffffffffffffffffffff\n      and\n      0x2ae143016adc0aa482e6ba5d9a350f3e3122aeb005ca4bf47d1d7b8221bce472\n      mload(0x40)\n      mload(0x40)\n      dup1\n      swap2\n      sub\n      swap1\n      log3\n        /* \"voting.sol\":697:939  if (msg.sender == owner2){... */\n      jump(tag_117)\n    tag_116:\n        /* \"voting.sol\":843:849  owner3 */\n      0x02\n      0x00\n      swap1\n      sload\n      swap1\n      0x0100\n      exp\n      swap1\n      div\n      0xffffffffffffffffffffffffffffffffffffffff\n      and\n        /* \"voting.sol\":829:849  msg.sender == owner3 */\n      0xffffffffffffffffffffffffffffffffffffffff\n      and\n        /* \"voting.sol\":829:839  msg.sender */\n      caller\n        /* \"voting.sol\":829:849  msg.sender == owner3 */\n      0xffffffffffffffffffffffffffffffffffffffff\n      and\n      eq\n        /* \"voting.sol\":825:939  if (msg.sender == owner3){... */\n      iszero\n      tag_118\n      jumpi\n        /* \"voting.sol\":873:876  _to */\n      dup1\n        /* \"voting.sol\":864:870  owner3 */\n      0x02\n      0x00\n        /* \"voting.sol\":864:876  owner3 = _to */\n      0x0100\n      exp\n      dup2\n      sload\n      dup2\n      0xffffffffffffffffffffffffffffffffffffffff\n      mul\n      not\n      and\n      swap1\n      dup4\n      0xffffffffffffffffffffffffffffffffffffffff\n      and\n      mul\n      or\n      swap1\n      sstore\n      pop\n        /* \"voting.sol\":924:927  _to */\n      dup1\n        /* \"voting.sol\":895:928  OwnerTransferPropose(owner3, _to) */\n      0xffffffffffffffffffffffffffffffffffffffff\n      and\n        /* \"voting.sol\":916:922  owner3 */\n      0x02\n      0x00\n      swap1\n      sload\n      swap1\n      0x0100\n      exp\n      swap1\n      div\n      0xffffffffffffffffffffffffffffffffffffffff\n      and\n        /* \"voting.sol\":895:928  OwnerTransferPropose(owner3, _to) */\n      0xffffffffffffffffffffffffffffffffffffffff\n      and\n      0x2ae143016adc0aa482e6ba5d9a350f3e3122aeb005ca4bf47d1d7b8221bce472\n      mload(0x40)\n      mload(0x40)\n      dup1\n      swap2\n      sub\n      swap1\n      log3\n        /* \"voting.sol\":825:939  if (msg.sender == owner3){... */\n    tag_118:\n        /* \"voting.sol\":697:939  if (msg.sender == owner2){... */\n    tag_117:\n        /* \"voting.sol\":569:939  if (msg.sender == owner1){... */\n    tag_115:\n        /* \"voting.sol\":398:944  function transferOwnership(address _to) onlyOwner public {... */\n      pop\n      jump\t// out\n        /* \"#utility.yul\":88:205   */\n    tag_120:\n        /* \"#utility.yul\":197:198   */\n      0x00\n        /* \"#utility.yul\":194:195   */\n      dup1\n        /* \"#utility.yul\":187:199   */\n      revert\n        /* \"#utility.yul\":334:411   */\n    tag_122:\n        /* \"#utility.yul\":371:378   */\n      0x00\n        /* \"#utility.yul\":400:405   */\n      dup2\n        /* \"#utility.yul\":389:405   */\n      swap1\n      pop\n        /* \"#utility.yul\":334:411   */\n      swap2\n      swap1\n      pop\n      jump\t// out\n        /* \"#utility.yul\":417:539   */\n    tag_123:\n        /* \"#utility.yul\":490:514   */\n      tag_145\n        /* \"#utility.yul\":508:513   */\n      dup2\n        /* \"#utility.yul\":490:514   */\n      tag_122\n      jump\t// in\n    tag_145:\n        /* \"#utility.yul\":483:488   */\n      dup2\n        /* \"#utility.yul\":480:515   */\n      eq\n        /* \"#utility.yul\":470:533   */\n      tag_146\n      jumpi\n        /* \"#utility.yul\":529:530   */\n      0x00\n        /* \"#utility.yul\":526:527   */\n      dup1\n        /* \"#utility.yul\":519:531   */\n      revert\n        /* \"#utility.yul\":470:533   */\n    tag_146:\n        /* \"#utility.yul\":417:539   */\n      pop\n      jump\t// out\n        /* \"#utility.yul\":545:684   */\n    tag_124:\n        /* \"#utility.yul\":591:596   */\n      0x00\n        /* \"#utility.yul\":629:635   */\n      dup2\n        /* \"#utility.yul\":616:636   */\n      calldataload\n        /* \"#utility.yul\":607:636   */\n      swap1\n      pop\n        /* \"#utility.yul\":645:678   */\n      tag_148\n        /* \"#utility.yul\":672:677   */\n      dup2\n        /* \"#utility.yul\":645:678   */\n      tag_123\n      jump\t// in\n    tag_148:\n        /* \"#utility.yul\":545:684   */\n      swap3\n      swap2\n      pop\n      pop\n      jump\t// out\n        /* \"#utility.yul\":690:1019   */\n    tag_10:\n        /* \"#utility.yul\":749:755   */\n      0x00\n        /* \"#utility.yul\":798:800   */\n      0x20\n        /* \"#utility.yul\":786:795   */\n      dup3\n        /* \"#utility.yul\":777:784   */\n      dup5\n        /* \"#utility.yul\":773:796   */\n      sub\n        /* \"#utility.yul\":769:801   */\n      slt\n        /* \"#utility.yul\":766:885   */\n      iszero\n      tag_150\n      jumpi\n        /* \"#utility.yul\":804:883   */\n      tag_151\n      tag_120\n      jump\t// in\n    tag_151:\n        /* \"#utility.yul\":766:885   */\n    tag_150:\n        /* \"#utility.yul\":924:925   */\n      0x00\n        /* \"#utility.yul\":949:1002   */\n      tag_152\n        /* \"#utility.yul\":994:1001   */\n      dup5\n        /* \"#utility.yul\":985:991   */\n      dup3\n        /* \"#utility.yul\":974:983   */\n      dup6\n        /* \"#utility.yul\":970:992   */\n      add\n        /* \"#utility.yul\":949:1002   */\n      tag_124\n      jump\t// in\n    tag_152:\n        /* \"#utility.yul\":939:1002   */\n      swap2\n      pop\n        /* \"#utility.yul\":895:1012   */\n      pop\n        /* \"#utility.yul\":690:1019   */\n      swap3\n      swap2\n      pop\n      pop\n      jump\t// out\n        /* \"#utility.yul\":1025:1115   */\n    tag_125:\n        /* \"#utility.yul\":1059:1066   */\n      0x00\n        /* \"#utility.yul\":1102:1107   */\n      dup2\n        /* \"#utility.yul\":1095:1108   */\n      iszero\n        /* \"#utility.yul\":1088:1109   */\n      iszero\n        /* \"#utility.yul\":1077:1109   */\n      swap1\n      pop\n        /* \"#utility.yul\":1025:1115   */\n      swap2\n      swap1\n      pop\n      jump\t// out\n        /* \"#utility.yul\":1121:1230   */\n    tag_126:\n        /* \"#utility.yul\":1202:1223   */\n      tag_155\n        /* \"#utility.yul\":1217:1222   */\n      dup2\n        /* \"#utility.yul\":1202:1223   */\n      tag_125\n      jump\t// in\n    tag_155:\n        /* \"#utility.yul\":1197:1200   */\n      dup3\n        /* \"#utility.yul\":1190:1224   */\n      mstore\n        /* \"#utility.yul\":1121:1230   */\n      pop\n      pop\n      jump\t// out\n        /* \"#utility.yul\":1236:1446   */\n    tag_13:\n        /* \"#utility.yul\":1323:1327   */\n      0x00\n        /* \"#utility.yul\":1361:1363   */\n      0x20\n        /* \"#utility.yul\":1350:1359   */\n      dup3\n        /* \"#utility.yul\":1346:1364   */\n      add\n        /* \"#utility.yul\":1338:1364   */\n      swap1\n      pop\n        /* \"#utility.yul\":1374:1439   */\n      tag_157\n        /* \"#utility.yul\":1436:1437   */\n      0x00\n        /* \"#utility.yul\":1425:1434   */\n      dup4\n        /* \"#utility.yul\":1421:1438   */\n      add\n        /* \"#utility.yul\":1412:1418   */\n      dup5\n        /* \"#utility.yul\":1374:1439   */\n      tag_126\n      jump\t// in\n    tag_157:\n        /* \"#utility.yul\":1236:1446   */\n      swap3\n      swap2\n      pop\n      pop\n      jump\t// out\n        /* \"#utility.yul\":1452:1551   */\n    tag_127:\n        /* \"#utility.yul\":1504:1510   */\n      0x00\n        /* \"#utility.yul\":1538:1543   */\n      dup2\n        /* \"#utility.yul\":1532:1544   */\n      mload\n        /* \"#utility.yul\":1522:1544   */\n      swap1\n      pop\n        /* \"#utility.yul\":1452:1551   */\n      swap2\n      swap1\n      pop\n      jump\t// out\n        /* \"#utility.yul\":1557:1726   */\n    tag_128:\n        /* \"#utility.yul\":1641:1652   */\n      0x00\n        /* \"#utility.yul\":1675:1681   */\n      dup3\n        /* \"#utility.yul\":1670:1673   */\n      dup3\n        /* \"#utility.yul\":1663:1682   */\n      mstore\n        /* \"#utility.yul\":1715:1719   */\n      0x20\n        /* \"#utility.yul\":1710:1713   */\n      dup3\n        /* \"#utility.yul\":1706:1720   */\n      add\n        /* \"#utility.yul\":1691:1720   */\n      swap1\n      pop\n        /* \"#utility.yul\":1557:1726   */\n      swap3\n      swap2\n      pop\n      pop\n      jump\t// out\n        /* \"#utility.yul\":1732:2039   */\n    tag_129:\n        /* \"#utility.yul\":1800:1801   */\n      0x00\n        /* \"#utility.yul\":1810:1923   */\n    tag_161:\n        /* \"#utility.yul\":1824:1830   */\n      dup4\n        /* \"#utility.yul\":1821:1822   */\n      dup2\n        /* \"#utility.yul\":1818:1831   */\n      lt\n        /* \"#utility.yul\":1810:1923   */\n      iszero\n      tag_163\n      jumpi\n        /* \"#utility.yul\":1909:1910   */\n      dup1\n        /* \"#utility.yul\":1904:1907   */\n      dup3\n        /* \"#utility.yul\":1900:1911   */\n      add\n        /* \"#utility.yul\":1894:1912   */\n      mload\n        /* \"#utility.yul\":1890:1891   */\n      dup2\n        /* \"#utility.yul\":1885:1888   */\n      dup5\n        /* \"#utility.yul\":1881:1892   */\n      add\n        /* \"#utility.yul\":1874:1913   */\n      mstore\n        /* \"#utility.yul\":1846:1848   */\n      0x20\n        /* \"#utility.yul\":1843:1844   */\n      dup2\n        /* \"#utility.yul\":1839:1849   */\n      add\n        /* \"#utility.yul\":1834:1849   */\n      swap1\n      pop\n        /* \"#utility.yul\":1810:1923   */\n      jump(tag_161)\n    tag_163:\n        /* \"#utility.yul\":1941:1947   */\n      dup4\n        /* \"#utility.yul\":1938:1939   */\n      dup2\n        /* \"#utility.yul\":1935:1948   */\n      gt\n        /* \"#utility.yul\":1932:2033   */\n      iszero\n      tag_164\n      jumpi\n        /* \"#utility.yul\":2021:2022   */\n      0x00\n        /* \"#utility.yul\":2012:2018   */\n      dup5\n        /* \"#utility.yul\":2007:2010   */\n      dup5\n        /* \"#utility.yul\":2003:2019   */\n      add\n        /* \"#utility.yul\":1996:2023   */\n      mstore\n        /* \"#utility.yul\":1932:2033   */\n    tag_164:\n        /* \"#utility.yul\":1781:2039   */\n      pop\n        /* \"#utility.yul\":1732:2039   */\n      pop\n      pop\n      pop\n      jump\t// out\n        /* \"#utility.yul\":2045:2147   */\n    tag_130:\n        /* \"#utility.yul\":2086:2092   */\n      0x00\n        /* \"#utility.yul\":2137:2139   */\n      0x1f\n        /* \"#utility.yul\":2133:2140   */\n      not\n        /* \"#utility.yul\":2128:2130   */\n      0x1f\n        /* \"#utility.yul\":2121:2126   */\n      dup4\n        /* \"#utility.yul\":2117:2131   */\n      add\n        /* \"#utility.yul\":2113:2141   */\n      and\n        /* \"#utility.yul\":2103:2141   */\n      swap1\n      pop\n        /* \"#utility.yul\":2045:2147   */\n      swap2\n      swap1\n      pop\n      jump\t// out\n        /* \"#utility.yul\":2153:2517   */\n    tag_131:\n        /* \"#utility.yul\":2241:2244   */\n      0x00\n        /* \"#utility.yul\":2269:2308   */\n      tag_167\n        /* \"#utility.yul\":2302:2307   */\n      dup3\n        /* \"#utility.yul\":2269:2308   */\n      tag_127\n      jump\t// in\n    tag_167:\n        /* \"#utility.yul\":2324:2395   */\n      tag_168\n        /* \"#utility.yul\":2388:2394   */\n      dup2\n        /* \"#utility.yul\":2383:2386   */\n      dup6\n        /* \"#utility.yul\":2324:2395   */\n      tag_128\n      jump\t// in\n    tag_168:\n        /* \"#utility.yul\":2317:2395   */\n      swap4\n      pop\n        /* \"#utility.yul\":2404:2456   */\n      tag_169\n        /* \"#utility.yul\":2449:2455   */\n      dup2\n        /* \"#utility.yul\":2444:2447   */\n      dup6\n        /* \"#utility.yul\":2437:2441   */\n      0x20\n        /* \"#utility.yul\":2430:2435   */\n      dup7\n        /* \"#utility.yul\":2426:2442   */\n      add\n        /* \"#utility.yul\":2404:2456   */\n      tag_129\n      jump\t// in\n    tag_169:\n        /* \"#utility.yul\":2481:2510   */\n      tag_170\n        /* \"#utility.yul\":2503:2509   */\n      dup2\n        /* \"#utility.yul\":2481:2510   */\n      tag_130\n      jump\t// in\n    tag_170:\n        /* \"#utility.yul\":2476:2479   */\n      dup5\n        /* \"#utility.yul\":2472:2511   */\n      add\n        /* \"#utility.yul\":2465:2511   */\n      swap2\n      pop\n        /* \"#utility.yul\":2245:2517   */\n      pop\n        /* \"#utility.yul\":2153:2517   */\n      swap3\n      swap2\n      pop\n      pop\n      jump\t// out\n        /* \"#utility.yul\":2523:2836   */\n    tag_17:\n        /* \"#utility.yul\":2636:2640   */\n      0x00\n        /* \"#utility.yul\":2674:2676   */\n      0x20\n        /* \"#utility.yul\":2663:2672   */\n      dup3\n        /* \"#utility.yul\":2659:2677   */\n      add\n        /* \"#utility.yul\":2651:2677   */\n      swap1\n      pop\n        /* \"#utility.yul\":2723:2732   */\n      dup2\n        /* \"#utility.yul\":2717:2721   */\n      dup2\n        /* \"#utility.yul\":2713:2733   */\n      sub\n        /* \"#utility.yul\":2709:2710   */\n      0x00\n        /* \"#utility.yul\":2698:2707   */\n      dup4\n        /* \"#utility.yul\":2694:2711   */\n      add\n        /* \"#utility.yul\":2687:2734   */\n      mstore\n        /* \"#utility.yul\":2751:2829   */\n      tag_172\n        /* \"#utility.yul\":2824:2828   */\n      dup2\n        /* \"#utility.yul\":2815:2821   */\n      dup5\n        /* \"#utility.yul\":2751:2829   */\n      tag_131\n      jump\t// in\n    tag_172:\n        /* \"#utility.yul\":2743:2829   */\n      swap1\n      pop\n        /* \"#utility.yul\":2523:2836   */\n      swap3\n      swap2\n      pop\n      pop\n      jump\t// out\n        /* \"#utility.yul\":2842:2968   */\n    tag_132:\n        /* \"#utility.yul\":2879:2886   */\n      0x00\n        /* \"#utility.yul\":2919:2961   */\n      0xffffffffffffffffffffffffffffffffffffffff\n        /* \"#utility.yul\":2912:2917   */\n      dup3\n        /* \"#utility.yul\":2908:2962   */\n      and\n        /* \"#utility.yul\":2897:2962   */\n      swap1\n      pop\n        /* \"#utility.yul\":2842:2968   */\n      swap2\n      swap1\n      pop\n      jump\t// out\n        /* \"#utility.yul\":2974:3070   */\n    tag_133:\n        /* \"#utility.yul\":3011:3018   */\n      0x00\n        /* \"#utility.yul\":3040:3064   */\n      tag_175\n        /* \"#utility.yul\":3058:3063   */\n      dup3\n        /* \"#utility.yul\":3040:3064   */\n      tag_132\n      jump\t// in\n    tag_175:\n        /* \"#utility.yul\":3029:3064   */\n      swap1\n      pop\n        /* \"#utility.yul\":2974:3070   */\n      swap2\n      swap1\n      pop\n      jump\t// out\n        /* \"#utility.yul\":3076:3198   */\n    tag_134:\n        /* \"#utility.yul\":3149:3173   */\n      tag_177\n        /* \"#utility.yul\":3167:3172   */\n      dup2\n        /* \"#utility.yul\":3149:3173   */\n      tag_133\n      jump\t// in\n    tag_177:\n        /* \"#utility.yul\":3142:3147   */\n      dup2\n        /* \"#utility.yul\":3139:3174   */\n      eq\n        /* \"#utility.yul\":3129:3192   */\n      tag_178\n      jumpi\n        /* \"#utility.yul\":3188:3189   */\n      0x00\n        /* \"#utility.yul\":3185:3186   */\n      dup1\n        /* \"#utility.yul\":3178:3190   */\n      revert\n        /* \"#utility.yul\":3129:3192   */\n    tag_178:\n        /* \"#utility.yul\":3076:3198   */\n      pop\n      jump\t// out\n        /* \"#utility.yul\":3204:3343   */\n    tag_135:\n        /* \"#utility.yul\":3250:3255   */\n      0x00\n        /* \"#utility.yul\":3288:3294   */\n      dup2\n        /* \"#utility.yul\":3275:3295   */\n      calldataload\n        /* \"#utility.yul\":3266:3295   */\n      swap1\n      pop\n        /* \"#utility.yul\":3304:3337   */\n      tag_180\n        /* \"#utility.yul\":3331:3336   */\n      dup2\n        /* \"#utility.yul\":3304:3337   */\n      tag_134\n      jump\t// in\n    tag_180:\n        /* \"#utility.yul\":3204:3343   */\n      swap3\n      swap2\n      pop\n      pop\n      jump\t// out\n        /* \"#utility.yul\":3349:3678   */\n    tag_20:\n        /* \"#utility.yul\":3408:3414   */\n      0x00\n        /* \"#utility.yul\":3457:3459   */\n      0x20\n        /* \"#utility.yul\":3445:3454   */\n      dup3\n        /* \"#utility.yul\":3436:3443   */\n      dup5\n        /* \"#utility.yul\":3432:3455   */\n      sub\n        /* \"#utility.yul\":3428:3460   */\n      slt\n        /* \"#utility.yul\":3425:3544   */\n      iszero\n      tag_182\n      jumpi\n        /* \"#utility.yul\":3463:3542   */\n      tag_183\n      tag_120\n      jump\t// in\n    tag_183:\n        /* \"#utility.yul\":3425:3544   */\n    tag_182:\n        /* \"#utility.yul\":3583:3584   */\n      0x00\n        /* \"#utility.yul\":3608:3661   */\n      tag_184\n        /* \"#utility.yul\":3653:3660   */\n      dup5\n        /* \"#utility.yul\":3644:3650   */\n      dup3\n        /* \"#utility.yul\":3633:3642   */\n      dup6\n        /* \"#utility.yul\":3629:3651   */\n      add\n        /* \"#utility.yul\":3608:3661   */\n      tag_135\n      jump\t// in\n    tag_184:\n        /* \"#utility.yul\":3598:3661   */\n      swap2\n      pop\n        /* \"#utility.yul\":3554:3671   */\n      pop\n        /* \"#utility.yul\":3349:3678   */\n      swap3\n      swap2\n      pop\n      pop\n      jump\t// out\n        /* \"#utility.yul\":3684:3802   */\n    tag_136:\n        /* \"#utility.yul\":3771:3795   */\n      tag_186\n        /* \"#utility.yul\":3789:3794   */\n      dup2\n        /* \"#utility.yul\":3771:3795   */\n      tag_133\n      jump\t// in\n    tag_186:\n        /* \"#utility.yul\":3766:3769   */\n      dup3\n        /* \"#utility.yul\":3759:3796   */\n      mstore\n        /* \"#utility.yul\":3684:3802   */\n      pop\n      pop\n      jump\t// out\n        /* \"#utility.yul\":3808:4030   */\n    tag_27:\n        /* \"#utility.yul\":3901:3905   */\n      0x00\n        /* \"#utility.yul\":3939:3941   */\n      0x20\n        /* \"#utility.yul\":3928:3937   */\n      dup3\n        /* \"#utility.yul\":3924:3942   */\n      add\n        /* \"#utility.yul\":3916:3942   */\n      swap1\n      pop\n        /* \"#utility.yul\":3952:4023   */\n      tag_188\n        /* \"#utility.yul\":4020:4021   */\n      0x00\n        /* \"#utility.yul\":4009:4018   */\n      dup4\n        /* \"#utility.yul\":4005:4022   */\n      add\n        /* \"#utility.yul\":3996:4002   */\n      dup5\n        /* \"#utility.yul\":3952:4023   */\n      tag_136\n      jump\t// in\n    tag_188:\n        /* \"#utility.yul\":3808:4030   */\n      swap3\n      swap2\n      pop\n      pop\n      jump\t// out\n        /* \"#utility.yul\":4036:4216   */\n    tag_137:\n        /* \"#utility.yul\":4084:4161   */\n      0x4e487b7100000000000000000000000000000000000000000000000000000000\n        /* \"#utility.yul\":4081:4082   */\n      0x00\n        /* \"#utility.yul\":4074:4162   */\n      mstore\n        /* \"#utility.yul\":4181:4185   */\n      0x11\n        /* \"#utility.yul\":4178:4179   */\n      0x04\n        /* \"#utility.yul\":4171:4186   */\n      mstore\n        /* \"#utility.yul\":4205:4209   */\n      0x24\n        /* \"#utility.yul\":4202:4203   */\n      0x00\n        /* \"#utility.yul\":4195:4210   */\n      revert\n        /* \"#utility.yul\":4222:4308   */\n    tag_138:\n        /* \"#utility.yul\":4257:4264   */\n      0x00\n        /* \"#utility.yul\":4297:4301   */\n      0xff\n        /* \"#utility.yul\":4290:4295   */\n      dup3\n        /* \"#utility.yul\":4286:4302   */\n      and\n        /* \"#utility.yul\":4275:4302   */\n      swap1\n      pop\n        /* \"#utility.yul\":4222:4308   */\n      swap2\n      swap1\n      pop\n      jump\t// out\n        /* \"#utility.yul\":4314:4481   */\n    tag_43:\n        /* \"#utility.yul\":4351:4354   */\n      0x00\n        /* \"#utility.yul\":4374:4396   */\n      tag_192\n        /* \"#utility.yul\":4390:4395   */\n      dup3\n        /* \"#utility.yul\":4374:4396   */\n      tag_138\n      jump\t// in\n    tag_192:\n        /* \"#utility.yul\":4365:4396   */\n      swap2\n      pop\n        /* \"#utility.yul\":4418:4422   */\n      0xff\n        /* \"#utility.yul\":4411:4416   */\n      dup3\n        /* \"#utility.yul\":4408:4423   */\n      eq\n        /* \"#utility.yul\":4405:4446   */\n      iszero\n      tag_193\n      jumpi\n        /* \"#utility.yul\":4426:4444   */\n      tag_194\n      tag_137\n      jump\t// in\n    tag_194:\n        /* \"#utility.yul\":4405:4446   */\n    tag_193:\n        /* \"#utility.yul\":4473:4474   */\n      0x01\n        /* \"#utility.yul\":4466:4471   */\n      dup3\n        /* \"#utility.yul\":4462:4475   */\n      add\n        /* \"#utility.yul\":4455:4475   */\n      swap1\n      pop\n        /* \"#utility.yul\":4314:4481   */\n      swap2\n      swap1\n      pop\n      jump\t// out\n\n    auxdata: 0xa2646970667358221220644fdd3d9c6723537888f484690d2614cfc1e93c7dd25a11a94ffcc2a384c16c64736f6c634300080a0033\n}\n",
				"bytecode": {
					"linkReferences": {},
					"object": "608060405234801561001057600080fd5b506000600260146101000a81548160ff021916908360ff1602179055506000600260156101000a81548160ff021916908360ff1602179055506000600260166101000a81548160ff021916908360ff1602179055506000600260176101000a81548160ff021916908360ff1602179055506000600260186101000a81548160ff021916908360ff1602179055506000600260196101000a81548160ff021916908360ff16021790555060006002601a6101000a81548160ff021916908360ff16021790555060006002601b6101000a81548160ff021916908360ff1602179055506000600360006101000a81548173ffffffffffffffffffffffffffffffffffffffff021916908373ffffffffffffffffffffffffffffffffffffffff16021790555061167a806101426000396000f3fe608060405234801561001057600080fd5b50600436106100575760003560e01c80630121b93f1461005c57806309305af61461008c5780632bad96ba146100aa57806374a29267146100da578063f2fde38b1461010a575b600080fd5b6100766004803603810190610071919061140b565b610126565b6040516100839190611453565b60405180910390f35b6100946109f8565b6040516100a19190611507565b60405180910390f35b6100c460048036038101906100bf9190611587565b610a8f565b6040516100d19190611453565b60405180910390f35b6100f460048036038101906100ef919061140b565b610d9a565b60405161010191906115c3565b60405180910390f35b610124600480360381019061011f9190611587565b610e3d565b005b60008060009054906101000a900473ffffffffffffffffffffffffffffffffffffffff1673ffffffffffffffffffffffffffffffffffffffff163373ffffffffffffffffffffffffffffffffffffffff1614806101d05750600160009054906101000a900473ffffffffffffffffffffffffffffffffffffffff1673ffffffffffffffffffffffffffffffffffffffff163373ffffffffffffffffffffffffffffffffffffffff16145b806102285750600260009054906101000a900473ffffffffffffffffffffffffffffffffffffffff1673ffffffffffffffffffffffffffffffffffffffff163373ffffffffffffffffffffffffffffffffffffffff16145b61023157600080fd5b60018214806102405750600282145b8061024b5750600382145b61025457600080fd5b60008054906101000a900473ffffffffffffffffffffffffffffffffffffffff1673ffffffffffffffffffffffffffffffffffffffff163373ffffffffffffffffffffffffffffffffffffffff161480156102c157506000600260169054906101000a900460ff1660ff16145b156103b357600182141561030c576002601981819054906101000a900460ff16809291906102ee9061161a565b91906101000a81548160ff021916908360ff16021790555050610396565b6002821415610352576002601a81819054906101000a900460ff16809291906103349061161a565b91906101000a81548160ff021916908360ff16021790555050610395565b6003821415610394576002601b81819054906101000a900460ff168092919061037a9061161a565b91906101000a81548160ff021916908360ff160217905550505b5b5b6001600260166101000a81548160ff021916908360ff1602179055505b600160009054906101000a900473ffffffffffffffffffffffffffffffffffffffff1673ffffffffffffffffffffffffffffffffffffffff163373ffffffffffffffffffffffffffffffffffffffff1614801561042257506000600260179054906101000a900460ff1660ff16145b1561051457600182141561046d576002601981819054906101000a900460ff168092919061044f9061161a565b91906101000a81548160ff021916908360ff160217905550506104f7565b60028214156104b3576002601a81819054906101000a900460ff16809291906104959061161a565b91906101000a81548160ff021916908360ff160217905550506104f6565b60038214156104f5576002601b81819054906101000a900460ff16809291906104db9061161a565b91906101000a81548160ff021916908360ff160217905550505b5b5b6001600260176101000a81548160ff021916908360ff1602179055505b600260009054906101000a900473ffffffffffffffffffffffffffffffffffffffff1673ffffffffffffffffffffffffffffffffffffffff163373ffffffffffffffffffffffffffffffffffffffff1614801561058357506000600260189054906101000a900460ff1660ff16145b156106755760018214156105ce576002601981819054906101000a900460ff16809291906105b09061161a565b91906101000a81548160ff021916908360ff16021790555050610658565b6002821415610614576002601a81819054906101000a900460ff16809291906105f69061161a565b91906101000a81548160ff021916908360ff16021790555050610657565b6003821415610656576002601b81819054906101000a900460ff168092919061063c9061161a565b91906101000a81548160ff021916908360ff160217905550505b5b5b6001600260186101000a81548160ff021916908360ff1602179055505b6001600260169054906101000a900460ff1660ff161480156106a957506001600260179054906101000a900460ff1660ff16145b80156106c757506001600260189054906101000a900460ff1660ff16145b80156107215750600073ffffffffffffffffffffffffffffffffffffffff16600360009054906101000a900473ffffffffffffffffffffffffffffffffffffffff1673ffffffffffffffffffffffffffffffffffffffff16145b156109ee5760028060199054906101000a900460ff1660ff16106107a55760008054906101000a900473ffffffffffffffffffffffffffffffffffffffff16600360006101000a81548173ffffffffffffffffffffffffffffffffffffffff021916908373ffffffffffffffffffffffffffffffffffffffff1602179055506108a5565b600280601a9054906101000a900460ff1660ff161061082657600160009054906101000a900473ffffffffffffffffffffffffffffffffffffffff16600360006101000a81548173ffffffffffffffffffffffffffffffffffffffff021916908373ffffffffffffffffffffffffffffffffffffffff1602179055506108a4565b600280601b9054906101000a900460ff1660ff16106108a357600260009054906101000a900473ffffffffffffffffffffffffffffffffffffffff16600360006101000a81548173ffffffffffffffffffffffffffffffffffffffff021916908373ffffffffffffffffffffffffffffffffffffffff1602179055505b5b5b6000600260166101000a81548160ff021916908360ff1602179055506000600260176101000a81548160ff021916908360ff1602179055506000600260186101000a81548160ff021916908360ff1602179055506000600260196101000a81548160ff021916908360ff16021790555060006002601a6101000a81548160ff021916908360ff16021790555060006002601b6101000a81548160ff021916908360ff160217905550600073ffffffffffffffffffffffffffffffffffffffff16600360009054906101000a900473ffffffffffffffffffffffffffffffffffffffff1673ffffffffffffffffffffffffffffffffffffffff1614156109e5576002601581819054906101000a900460ff16809291906109c39061161a565b91906101000a81548160ff021916908360ff16021790555050600090506109f3565b600190506109f3565b600090505b919050565b6060600360009054906101000a900473ffffffffffffffffffffffffffffffffffffffff1673ffffffffffffffffffffffffffffffffffffffff163373ffffffffffffffffffffffffffffffffffffffff1614610a5457600080fd5b6040518060400160405280601281526020017f54686520766f74696e67206973206f7665720000000000000000000000000000815250905090565b60006003600260149054906101000a900460ff1660ff161415610ab55760009050610d95565b6000600260149054906101000a900460ff1660ff161415610b5157816000806101000a81548173ffffffffffffffffffffffffffffffffffffffff021916908373ffffffffffffffffffffffffffffffffffffffff1602179055506002601481819054906101000a900460ff1680929190610b2f9061161a565b91906101000a81548160ff021916908360ff1602179055505060019050610d95565b6001600260149054906101000a900460ff1660ff16148015610bbf57508173ffffffffffffffffffffffffffffffffffffffff1660008054906101000a900473ffffffffffffffffffffffffffffffffffffffff1673ffffffffffffffffffffffffffffffffffffffff1614155b15610c465781600160006101000a81548173ffffffffffffffffffffffffffffffffffffffff021916908373ffffffffffffffffffffffffffffffffffffffff1602179055506002601481819054906101000a900460ff1680929190610c249061161a565b91906101000a81548160ff021916908360ff1602179055505060019050610d95565b60028060149054906101000a900460ff1660ff16148015610cb357508173ffffffffffffffffffffffffffffffffffffffff1660008054906101000a900473ffffffffffffffffffffffffffffffffffffffff1673ffffffffffffffffffffffffffffffffffffffff1614155b8015610d0d57508173ffffffffffffffffffffffffffffffffffffffff16600160009054906101000a900473ffffffffffffffffffffffffffffffffffffffff1673ffffffffffffffffffffffffffffffffffffffff1614155b15610d945781600260006101000a81548173ffffffffffffffffffffffffffffffffffffffff021916908373ffffffffffffffffffffffffffffffffffffffff1602179055506002601481819054906101000a900460ff1680929190610d729061161a565b91906101000a81548160ff021916908360ff1602179055505060019050610d95565b5b919050565b60006001821415610dcd5760008054906101000a900473ffffffffffffffffffffffffffffffffffffffff169050610e38565b6002821415610e0057600160009054906101000a900473ffffffffffffffffffffffffffffffffffffffff169050610e38565b6003821415610e3357600260009054906101000a900473ffffffffffffffffffffffffffffffffffffffff169050610e38565b600090505b919050565b60008054906101000a900473ffffffffffffffffffffffffffffffffffffffff1673ffffffffffffffffffffffffffffffffffffffff163373ffffffffffffffffffffffffffffffffffffffff161480610ee45750600160009054906101000a900473ffffffffffffffffffffffffffffffffffffffff1673ffffffffffffffffffffffffffffffffffffffff163373ffffffffffffffffffffffffffffffffffffffff16145b80610f3c5750600260009054906101000a900473ffffffffffffffffffffffffffffffffffffffff1673ffffffffffffffffffffffffffffffffffffffff163373ffffffffffffffffffffffffffffffffffffffff16145b610f4557600080fd5b60008054906101000a900473ffffffffffffffffffffffffffffffffffffffff1673ffffffffffffffffffffffffffffffffffffffff168173ffffffffffffffffffffffffffffffffffffffff1614158015610fef5750600160009054906101000a900473ffffffffffffffffffffffffffffffffffffffff1673ffffffffffffffffffffffffffffffffffffffff168173ffffffffffffffffffffffffffffffffffffffff1614155b80156110495750600260009054906101000a900473ffffffffffffffffffffffffffffffffffffffff1673ffffffffffffffffffffffffffffffffffffffff168173ffffffffffffffffffffffffffffffffffffffff1614155b61105257600080fd5b600073ffffffffffffffffffffffffffffffffffffffff168173ffffffffffffffffffffffffffffffffffffffff16141561108c57600080fd5b60008054906101000a900473ffffffffffffffffffffffffffffffffffffffff1673ffffffffffffffffffffffffffffffffffffffff163373ffffffffffffffffffffffffffffffffffffffff16141561119f57806000806101000a81548173ffffffffffffffffffffffffffffffffffffffff021916908373ffffffffffffffffffffffffffffffffffffffff1602179055508073ffffffffffffffffffffffffffffffffffffffff1660008054906101000a900473ffffffffffffffffffffffffffffffffffffffff1673ffffffffffffffffffffffffffffffffffffffff167f2ae143016adc0aa482e6ba5d9a350f3e3122aeb005ca4bf47d1d7b8221bce47260405160405180910390a36113cd565b600160009054906101000a900473ffffffffffffffffffffffffffffffffffffffff1673ffffffffffffffffffffffffffffffffffffffff163373ffffffffffffffffffffffffffffffffffffffff1614156112b75780600160006101000a81548173ffffffffffffffffffffffffffffffffffffffff021916908373ffffffffffffffffffffffffffffffffffffffff1602179055508073ffffffffffffffffffffffffffffffffffffffff16600160009054906101000a900473ffffffffffffffffffffffffffffffffffffffff1673ffffffffffffffffffffffffffffffffffffffff167f2ae143016adc0aa482e6ba5d9a350f3e3122aeb005ca4bf47d1d7b8221bce47260405160405180910390a36113cc565b600260009054906101000a900473ffffffffffffffffffffffffffffffffffffffff1673ffffffffffffffffffffffffffffffffffffffff163373ffffffffffffffffffffffffffffffffffffffff1614156113cb5780600260006101000a81548173ffffffffffffffffffffffffffffffffffffffff021916908373ffffffffffffffffffffffffffffffffffffffff1602179055508073ffffffffffffffffffffffffffffffffffffffff16600260009054906101000a900473ffffffffffffffffffffffffffffffffffffffff1673ffffffffffffffffffffffffffffffffffffffff167f2ae143016adc0aa482e6ba5d9a350f3e3122aeb005ca4bf47d1d7b8221bce47260405160405180910390a35b5b5b50565b600080fd5b6000819050919050565b6113e8816113d5565b81146113f357600080fd5b50565b600081359050611405816113df565b92915050565b600060208284031215611421576114206113d0565b5b600061142f848285016113f6565b91505092915050565b60008115159050919050565b61144d81611438565b82525050565b60006020820190506114686000830184611444565b92915050565b600081519050919050565b600082825260208201905092915050565b60005b838110156114a857808201518184015260208101905061148d565b838111156114b7576000848401525b50505050565b6000601f19601f8301169050919050565b60006114d98261146e565b6114e38185611479565b93506114f381856020860161148a565b6114fc816114bd565b840191505092915050565b6000602082019050818103600083015261152181846114ce565b905092915050565b600073ffffffffffffffffffffffffffffffffffffffff82169050919050565b600061155482611529565b9050919050565b61156481611549565b811461156f57600080fd5b50565b6000813590506115818161155b565b92915050565b60006020828403121561159d5761159c6113d0565b5b60006115ab84828501611572565b91505092915050565b6115bd81611549565b82525050565b60006020820190506115d860008301846115b4565b92915050565b7f4e487b7100000000000000000000000000000000000000000000000000000000600052601160045260246000fd5b600060ff82169050919050565b60006116258261160d565b915060ff821415611639576116386115de565b5b60018201905091905056fea2646970667358221220644fdd3d9c6723537888f484690d2614cfc1e93c7dd25a11a94ffcc2a384c16c64736f6c634300080a0033",
					"opcodes": "PUSH1 0x80 PUSH1 0x40 MSTORE CALLVALUE DUP1 ISZERO PUSH2 0x10 JUMPI PUSH1 0x0 DUP1 REVERT JUMPDEST POP PUSH1 0x0 PUSH1 0x2 PUSH1 0x14 PUSH2 0x100 EXP DUP2 SLOAD DUP2 PUSH1 0xFF MUL NOT AND SWAP1 DUP4 PUSH1 0xFF AND MUL OR SWAP1 SSTORE POP PUSH1 0x0 PUSH1 0x2 PUSH1 0x15 PUSH2 0x100 EXP DUP2 SLOAD DUP2 PUSH1 0xFF MUL NOT AND SWAP1 DUP4 PUSH1 0xFF AND MUL OR SWAP1 SSTORE POP PUSH1 0x0 PUSH1 0x2 PUSH1 0x16 PUSH2 0x100 EXP DUP2 SLOAD DUP2 PUSH1 0xFF MUL NOT AND SWAP1 DUP4 PUSH1 0xFF AND MUL OR SWAP1 SSTORE POP PUSH1 0x0 PUSH1 0x2 PUSH1 0x17 PUSH2 0x100 EXP DUP2 SLOAD DUP2 PUSH1 0xFF MUL NOT AND SWAP1 DUP4 PUSH1 0xFF AND MUL OR SWAP1 SSTORE POP PUSH1 0x0 PUSH1 0x2 PUSH1 0x18 PUSH2 0x100 EXP DUP2 SLOAD DUP2 PUSH1 0xFF MUL NOT AND SWAP1 DUP4 PUSH1 0xFF AND MUL OR SWAP1 SSTORE POP PUSH1 0x0 PUSH1 0x2 PUSH1 0x19 PUSH2 0x100 EXP DUP2 SLOAD DUP2 PUSH1 0xFF MUL NOT AND SWAP1 DUP4 PUSH1 0xFF AND MUL OR SWAP1 SSTORE POP PUSH1 0x0 PUSH1 0x2 PUSH1 0x1A PUSH2 0x100 EXP DUP2 SLOAD DUP2 PUSH1 0xFF MUL NOT AND SWAP1 DUP4 PUSH1 0xFF AND MUL OR SWAP1 SSTORE POP PUSH1 0x0 PUSH1 0x2 PUSH1 0x1B PUSH2 0x100 EXP DUP2 SLOAD DUP2 PUSH1 0xFF MUL NOT AND SWAP1 DUP4 PUSH1 0xFF AND MUL OR SWAP1 SSTORE POP PUSH1 0x0 PUSH1 0x3 PUSH1 0x0 PUSH2 0x100 EXP DUP2 SLOAD DUP2 PUSH20 0xFFFFFFFFFFFFFFFFFFFFFFFFFFFFFFFFFFFFFFFF MUL NOT AND SWAP1 DUP4 PUSH20 0xFFFFFFFFFFFFFFFFFFFFFFFFFFFFFFFFFFFFFFFF AND MUL OR SWAP1 SSTORE POP PUSH2 0x167A DUP1 PUSH2 0x142 PUSH1 0x0 CODECOPY PUSH1 0x0 RETURN INVALID PUSH1 0x80 PUSH1 0x40 MSTORE CALLVALUE DUP1 ISZERO PUSH2 0x10 JUMPI PUSH1 0x0 DUP1 REVERT JUMPDEST POP PUSH1 0x4 CALLDATASIZE LT PUSH2 0x57 JUMPI PUSH1 0x0 CALLDATALOAD PUSH1 0xE0 SHR DUP1 PUSH4 0x121B93F EQ PUSH2 0x5C JUMPI DUP1 PUSH4 0x9305AF6 EQ PUSH2 0x8C JUMPI DUP1 PUSH4 0x2BAD96BA EQ PUSH2 0xAA JUMPI DUP1 PUSH4 0x74A29267 EQ PUSH2 0xDA JUMPI DUP1 PUSH4 0xF2FDE38B EQ PUSH2 0x10A JUMPI JUMPDEST PUSH1 0x0 DUP1 REVERT JUMPDEST PUSH2 0x76 PUSH1 0x4 DUP1 CALLDATASIZE SUB DUP2 ADD SWAP1 PUSH2 0x71 SWAP2 SWAP1 PUSH2 0x140B JUMP JUMPDEST PUSH2 0x126 JUMP JUMPDEST PUSH1 0x40 MLOAD PUSH2 0x83 SWAP2 SWAP1 PUSH2 0x1453 JUMP JUMPDEST PUSH1 0x40 MLOAD DUP1 SWAP2 SUB SWAP1 RETURN JUMPDEST PUSH2 0x94 PUSH2 0x9F8 JUMP JUMPDEST PUSH1 0x40 MLOAD PUSH2 0xA1 SWAP2 SWAP1 PUSH2 0x1507 JUMP JUMPDEST PUSH1 0x40 MLOAD DUP1 SWAP2 SUB SWAP1 RETURN JUMPDEST PUSH2 0xC4 PUSH1 0x4 DUP1 CALLDATASIZE SUB DUP2 ADD SWAP1 PUSH2 0xBF SWAP2 SWAP1 PUSH2 0x1587 JUMP JUMPDEST PUSH2 0xA8F JUMP JUMPDEST PUSH1 0x40 MLOAD PUSH2 0xD1 SWAP2 SWAP1 PUSH2 0x1453 JUMP JUMPDEST PUSH1 0x40 MLOAD DUP1 SWAP2 SUB SWAP1 RETURN JUMPDEST PUSH2 0xF4 PUSH1 0x4 DUP1 CALLDATASIZE SUB DUP2 ADD SWAP1 PUSH2 0xEF SWAP2 SWAP1 PUSH2 0x140B JUMP JUMPDEST PUSH2 0xD9A JUMP JUMPDEST PUSH1 0x40 MLOAD PUSH2 0x101 SWAP2 SWAP1 PUSH2 0x15C3 JUMP JUMPDEST PUSH1 0x40 MLOAD DUP1 SWAP2 SUB SWAP1 RETURN JUMPDEST PUSH2 0x124 PUSH1 0x4 DUP1 CALLDATASIZE SUB DUP2 ADD SWAP1 PUSH2 0x11F SWAP2 SWAP1 PUSH2 0x1587 JUMP JUMPDEST PUSH2 0xE3D JUMP JUMPDEST STOP JUMPDEST PUSH1 0x0 DUP1 PUSH1 0x0 SWAP1 SLOAD SWAP1 PUSH2 0x100 EXP SWAP1 DIV PUSH20 0xFFFFFFFFFFFFFFFFFFFFFFFFFFFFFFFFFFFFFFFF AND PUSH20 0xFFFFFFFFFFFFFFFFFFFFFFFFFFFFFFFFFFFFFFFF AND CALLER PUSH20 0xFFFFFFFFFFFFFFFFFFFFFFFFFFFFFFFFFFFFFFFF AND EQ DUP1 PUSH2 0x1D0 JUMPI POP PUSH1 0x1 PUSH1 0x0 SWAP1 SLOAD SWAP1 PUSH2 0x100 EXP SWAP1 DIV PUSH20 0xFFFFFFFFFFFFFFFFFFFFFFFFFFFFFFFFFFFFFFFF AND PUSH20 0xFFFFFFFFFFFFFFFFFFFFFFFFFFFFFFFFFFFFFFFF AND CALLER PUSH20 0xFFFFFFFFFFFFFFFFFFFFFFFFFFFFFFFFFFFFFFFF AND EQ JUMPDEST DUP1 PUSH2 0x228 JUMPI POP PUSH1 0x2 PUSH1 0x0 SWAP1 SLOAD SWAP1 PUSH2 0x100 EXP SWAP1 DIV PUSH20 0xFFFFFFFFFFFFFFFFFFFFFFFFFFFFFFFFFFFFFFFF AND PUSH20 0xFFFFFFFFFFFFFFFFFFFFFFFFFFFFFFFFFFFFFFFF AND CALLER PUSH20 0xFFFFFFFFFFFFFFFFFFFFFFFFFFFFFFFFFFFFFFFF AND EQ JUMPDEST PUSH2 0x231 JUMPI PUSH1 0x0 DUP1 REVERT JUMPDEST PUSH1 0x1 DUP3 EQ DUP1 PUSH2 0x240 JUMPI POP PUSH1 0x2 DUP3 EQ JUMPDEST DUP1 PUSH2 0x24B JUMPI POP PUSH1 0x3 DUP3 EQ JUMPDEST PUSH2 0x254 JUMPI PUSH1 0x0 DUP1 REVERT JUMPDEST PUSH1 0x0 DUP1 SLOAD SWAP1 PUSH2 0x100 EXP SWAP1 DIV PUSH20 0xFFFFFFFFFFFFFFFFFFFFFFFFFFFFFFFFFFFFFFFF AND PUSH20 0xFFFFFFFFFFFFFFFFFFFFFFFFFFFFFFFFFFFFFFFF AND CALLER PUSH20 0xFFFFFFFFFFFFFFFFFFFFFFFFFFFFFFFFFFFFFFFF AND EQ DUP1 ISZERO PUSH2 0x2C1 JUMPI POP PUSH1 0x0 PUSH1 0x2 PUSH1 0x16 SWAP1 SLOAD SWAP1 PUSH2 0x100 EXP SWAP1 DIV PUSH1 0xFF AND PUSH1 0xFF AND EQ JUMPDEST ISZERO PUSH2 0x3B3 JUMPI PUSH1 0x1 DUP3 EQ ISZERO PUSH2 0x30C JUMPI PUSH1 0x2 PUSH1 0x19 DUP2 DUP2 SWAP1 SLOAD SWAP1 PUSH2 0x100 EXP SWAP1 DIV PUSH1 0xFF AND DUP1 SWAP3 SWAP2 SWAP1 PUSH2 0x2EE SWAP1 PUSH2 0x161A JUMP JUMPDEST SWAP2 SWAP1 PUSH2 0x100 EXP DUP2 SLOAD DUP2 PUSH1 0xFF MUL NOT AND SWAP1 DUP4 PUSH1 0xFF AND MUL OR SWAP1 SSTORE POP POP PUSH2 0x396 JUMP JUMPDEST PUSH1 0x2 DUP3 EQ ISZERO PUSH2 0x352 JUMPI PUSH1 0x2 PUSH1 0x1A DUP2 DUP2 SWAP1 SLOAD SWAP1 PUSH2 0x100 EXP SWAP1 DIV PUSH1 0xFF AND DUP1 SWAP3 SWAP2 SWAP1 PUSH2 0x334 SWAP1 PUSH2 0x161A JUMP JUMPDEST SWAP2 SWAP1 PUSH2 0x100 EXP DUP2 SLOAD DUP2 PUSH1 0xFF MUL NOT AND SWAP1 DUP4 PUSH1 0xFF AND MUL OR SWAP1 SSTORE POP POP PUSH2 0x395 JUMP JUMPDEST PUSH1 0x3 DUP3 EQ ISZERO PUSH2 0x394 JUMPI PUSH1 0x2 PUSH1 0x1B DUP2 DUP2 SWAP1 SLOAD SWAP1 PUSH2 0x100 EXP SWAP1 DIV PUSH1 0xFF AND DUP1 SWAP3 SWAP2 SWAP1 PUSH2 0x37A SWAP1 PUSH2 0x161A JUMP JUMPDEST SWAP2 SWAP1 PUSH2 0x100 EXP DUP2 SLOAD DUP2 PUSH1 0xFF MUL NOT AND SWAP1 DUP4 PUSH1 0xFF AND MUL OR SWAP1 SSTORE POP POP JUMPDEST JUMPDEST JUMPDEST PUSH1 0x1 PUSH1 0x2 PUSH1 0x16 PUSH2 0x100 EXP DUP2 SLOAD DUP2 PUSH1 0xFF MUL NOT AND SWAP1 DUP4 PUSH1 0xFF AND MUL OR SWAP1 SSTORE POP JUMPDEST PUSH1 0x1 PUSH1 0x0 SWAP1 SLOAD SWAP1 PUSH2 0x100 EXP SWAP1 DIV PUSH20 0xFFFFFFFFFFFFFFFFFFFFFFFFFFFFFFFFFFFFFFFF AND PUSH20 0xFFFFFFFFFFFFFFFFFFFFFFFFFFFFFFFFFFFFFFFF AND CALLER PUSH20 0xFFFFFFFFFFFFFFFFFFFFFFFFFFFFFFFFFFFFFFFF AND EQ DUP1 ISZERO PUSH2 0x422 JUMPI POP PUSH1 0x0 PUSH1 0x2 PUSH1 0x17 SWAP1 SLOAD SWAP1 PUSH2 0x100 EXP SWAP1 DIV PUSH1 0xFF AND PUSH1 0xFF AND EQ JUMPDEST ISZERO PUSH2 0x514 JUMPI PUSH1 0x1 DUP3 EQ ISZERO PUSH2 0x46D JUMPI PUSH1 0x2 PUSH1 0x19 DUP2 DUP2 SWAP1 SLOAD SWAP1 PUSH2 0x100 EXP SWAP1 DIV PUSH1 0xFF AND DUP1 SWAP3 SWAP2 SWAP1 PUSH2 0x44F SWAP1 PUSH2 0x161A JUMP JUMPDEST SWAP2 SWAP1 PUSH2 0x100 EXP DUP2 SLOAD DUP2 PUSH1 0xFF MUL NOT AND SWAP1 DUP4 PUSH1 0xFF AND MUL OR SWAP1 SSTORE POP POP PUSH2 0x4F7 JUMP JUMPDEST PUSH1 0x2 DUP3 EQ ISZERO PUSH2 0x4B3 JUMPI PUSH1 0x2 PUSH1 0x1A DUP2 DUP2 SWAP1 SLOAD SWAP1 PUSH2 0x100 EXP SWAP1 DIV PUSH1 0xFF AND DUP1 SWAP3 SWAP2 SWAP1 PUSH2 0x495 SWAP1 PUSH2 0x161A JUMP JUMPDEST SWAP2 SWAP1 PUSH2 0x100 EXP DUP2 SLOAD DUP2 PUSH1 0xFF MUL NOT AND SWAP1 DUP4 PUSH1 0xFF AND MUL OR SWAP1 SSTORE POP POP PUSH2 0x4F6 JUMP JUMPDEST PUSH1 0x3 DUP3 EQ ISZERO PUSH2 0x4F5 JUMPI PUSH1 0x2 PUSH1 0x1B DUP2 DUP2 SWAP1 SLOAD SWAP1 PUSH2 0x100 EXP SWAP1 DIV PUSH1 0xFF AND DUP1 SWAP3 SWAP2 SWAP1 PUSH2 0x4DB SWAP1 PUSH2 0x161A JUMP JUMPDEST SWAP2 SWAP1 PUSH2 0x100 EXP DUP2 SLOAD DUP2 PUSH1 0xFF MUL NOT AND SWAP1 DUP4 PUSH1 0xFF AND MUL OR SWAP1 SSTORE POP POP JUMPDEST JUMPDEST JUMPDEST PUSH1 0x1 PUSH1 0x2 PUSH1 0x17 PUSH2 0x100 EXP DUP2 SLOAD DUP2 PUSH1 0xFF MUL NOT AND SWAP1 DUP4 PUSH1 0xFF AND MUL OR SWAP1 SSTORE POP JUMPDEST PUSH1 0x2 PUSH1 0x0 SWAP1 SLOAD SWAP1 PUSH2 0x100 EXP SWAP1 DIV PUSH20 0xFFFFFFFFFFFFFFFFFFFFFFFFFFFFFFFFFFFFFFFF AND PUSH20 0xFFFFFFFFFFFFFFFFFFFFFFFFFFFFFFFFFFFFFFFF AND CALLER PUSH20 0xFFFFFFFFFFFFFFFFFFFFFFFFFFFFFFFFFFFFFFFF AND EQ DUP1 ISZERO PUSH2 0x583 JUMPI POP PUSH1 0x0 PUSH1 0x2 PUSH1 0x18 SWAP1 SLOAD SWAP1 PUSH2 0x100 EXP SWAP1 DIV PUSH1 0xFF AND PUSH1 0xFF AND EQ JUMPDEST ISZERO PUSH2 0x675 JUMPI PUSH1 0x1 DUP3 EQ ISZERO PUSH2 0x5CE JUMPI PUSH1 0x2 PUSH1 0x19 DUP2 DUP2 SWAP1 SLOAD SWAP1 PUSH2 0x100 EXP SWAP1 DIV PUSH1 0xFF AND DUP1 SWAP3 SWAP2 SWAP1 PUSH2 0x5B0 SWAP1 PUSH2 0x161A JUMP JUMPDEST SWAP2 SWAP1 PUSH2 0x100 EXP DUP2 SLOAD DUP2 PUSH1 0xFF MUL NOT AND SWAP1 DUP4 PUSH1 0xFF AND MUL OR SWAP1 SSTORE POP POP PUSH2 0x658 JUMP JUMPDEST PUSH1 0x2 DUP3 EQ ISZERO PUSH2 0x614 JUMPI PUSH1 0x2 PUSH1 0x1A DUP2 DUP2 SWAP1 SLOAD SWAP1 PUSH2 0x100 EXP SWAP1 DIV PUSH1 0xFF AND DUP1 SWAP3 SWAP2 SWAP1 PUSH2 0x5F6 SWAP1 PUSH2 0x161A JUMP JUMPDEST SWAP2 SWAP1 PUSH2 0x100 EXP DUP2 SLOAD DUP2 PUSH1 0xFF MUL NOT AND SWAP1 DUP4 PUSH1 0xFF AND MUL OR SWAP1 SSTORE POP POP PUSH2 0x657 JUMP JUMPDEST PUSH1 0x3 DUP3 EQ ISZERO PUSH2 0x656 JUMPI PUSH1 0x2 PUSH1 0x1B DUP2 DUP2 SWAP1 SLOAD SWAP1 PUSH2 0x100 EXP SWAP1 DIV PUSH1 0xFF AND DUP1 SWAP3 SWAP2 SWAP1 PUSH2 0x63C SWAP1 PUSH2 0x161A JUMP JUMPDEST SWAP2 SWAP1 PUSH2 0x100 EXP DUP2 SLOAD DUP2 PUSH1 0xFF MUL NOT AND SWAP1 DUP4 PUSH1 0xFF AND MUL OR SWAP1 SSTORE POP POP JUMPDEST JUMPDEST JUMPDEST PUSH1 0x1 PUSH1 0x2 PUSH1 0x18 PUSH2 0x100 EXP DUP2 SLOAD DUP2 PUSH1 0xFF MUL NOT AND SWAP1 DUP4 PUSH1 0xFF AND MUL OR SWAP1 SSTORE POP JUMPDEST PUSH1 0x1 PUSH1 0x2 PUSH1 0x16 SWAP1 SLOAD SWAP1 PUSH2 0x100 EXP SWAP1 DIV PUSH1 0xFF AND PUSH1 0xFF AND EQ DUP1 ISZERO PUSH2 0x6A9 JUMPI POP PUSH1 0x1 PUSH1 0x2 PUSH1 0x17 SWAP1 SLOAD SWAP1 PUSH2 0x100 EXP SWAP1 DIV PUSH1 0xFF AND PUSH1 0xFF AND EQ JUMPDEST DUP1 ISZERO PUSH2 0x6C7 JUMPI POP PUSH1 0x1 PUSH1 0x2 PUSH1 0x18 SWAP1 SLOAD SWAP1 PUSH2 0x100 EXP SWAP1 DIV PUSH1 0xFF AND PUSH1 0xFF AND EQ JUMPDEST DUP1 ISZERO PUSH2 0x721 JUMPI POP PUSH1 0x0 PUSH20 0xFFFFFFFFFFFFFFFFFFFFFFFFFFFFFFFFFFFFFFFF AND PUSH1 0x3 PUSH1 0x0 SWAP1 SLOAD SWAP1 PUSH2 0x100 EXP SWAP1 DIV PUSH20 0xFFFFFFFFFFFFFFFFFFFFFFFFFFFFFFFFFFFFFFFF AND PUSH20 0xFFFFFFFFFFFFFFFFFFFFFFFFFFFFFFFFFFFFFFFF AND EQ JUMPDEST ISZERO PUSH2 0x9EE JUMPI PUSH1 0x2 DUP1 PUSH1 0x19 SWAP1 SLOAD SWAP1 PUSH2 0x100 EXP SWAP1 DIV PUSH1 0xFF AND PUSH1 0xFF AND LT PUSH2 0x7A5 JUMPI PUSH1 0x0 DUP1 SLOAD SWAP1 PUSH2 0x100 EXP SWAP1 DIV PUSH20 0xFFFFFFFFFFFFFFFFFFFFFFFFFFFFFFFFFFFFFFFF AND PUSH1 0x3 PUSH1 0x0 PUSH2 0x100 EXP DUP2 SLOAD DUP2 PUSH20 0xFFFFFFFFFFFFFFFFFFFFFFFFFFFFFFFFFFFFFFFF MUL NOT AND SWAP1 DUP4 PUSH20 0xFFFFFFFFFFFFFFFFFFFFFFFFFFFFFFFFFFFFFFFF AND MUL OR SWAP1 SSTORE POP PUSH2 0x8A5 JUMP JUMPDEST PUSH1 0x2 DUP1 PUSH1 0x1A SWAP1 SLOAD SWAP1 PUSH2 0x100 EXP SWAP1 DIV PUSH1 0xFF AND PUSH1 0xFF AND LT PUSH2 0x826 JUMPI PUSH1 0x1 PUSH1 0x0 SWAP1 SLOAD SWAP1 PUSH2 0x100 EXP SWAP1 DIV PUSH20 0xFFFFFFFFFFFFFFFFFFFFFFFFFFFFFFFFFFFFFFFF AND PUSH1 0x3 PUSH1 0x0 PUSH2 0x100 EXP DUP2 SLOAD DUP2 PUSH20 0xFFFFFFFFFFFFFFFFFFFFFFFFFFFFFFFFFFFFFFFF MUL NOT AND SWAP1 DUP4 PUSH20 0xFFFFFFFFFFFFFFFFFFFFFFFFFFFFFFFFFFFFFFFF AND MUL OR SWAP1 SSTORE POP PUSH2 0x8A4 JUMP JUMPDEST PUSH1 0x2 DUP1 PUSH1 0x1B SWAP1 SLOAD SWAP1 PUSH2 0x100 EXP SWAP1 DIV PUSH1 0xFF AND PUSH1 0xFF AND LT PUSH2 0x8A3 JUMPI PUSH1 0x2 PUSH1 0x0 SWAP1 SLOAD SWAP1 PUSH2 0x100 EXP SWAP1 DIV PUSH20 0xFFFFFFFFFFFFFFFFFFFFFFFFFFFFFFFFFFFFFFFF AND PUSH1 0x3 PUSH1 0x0 PUSH2 0x100 EXP DUP2 SLOAD DUP2 PUSH20 0xFFFFFFFFFFFFFFFFFFFFFFFFFFFFFFFFFFFFFFFF MUL NOT AND SWAP1 DUP4 PUSH20 0xFFFFFFFFFFFFFFFFFFFFFFFFFFFFFFFFFFFFFFFF AND MUL OR SWAP1 SSTORE POP JUMPDEST JUMPDEST JUMPDEST PUSH1 0x0 PUSH1 0x2 PUSH1 0x16 PUSH2 0x100 EXP DUP2 SLOAD DUP2 PUSH1 0xFF MUL NOT AND SWAP1 DUP4 PUSH1 0xFF AND MUL OR SWAP1 SSTORE POP PUSH1 0x0 PUSH1 0x2 PUSH1 0x17 PUSH2 0x100 EXP DUP2 SLOAD DUP2 PUSH1 0xFF MUL NOT AND SWAP1 DUP4 PUSH1 0xFF AND MUL OR SWAP1 SSTORE POP PUSH1 0x0 PUSH1 0x2 PUSH1 0x18 PUSH2 0x100 EXP DUP2 SLOAD DUP2 PUSH1 0xFF MUL NOT AND SWAP1 DUP4 PUSH1 0xFF AND MUL OR SWAP1 SSTORE POP PUSH1 0x0 PUSH1 0x2 PUSH1 0x19 PUSH2 0x100 EXP DUP2 SLOAD DUP2 PUSH1 0xFF MUL NOT AND SWAP1 DUP4 PUSH1 0xFF AND MUL OR SWAP1 SSTORE POP PUSH1 0x0 PUSH1 0x2 PUSH1 0x1A PUSH2 0x100 EXP DUP2 SLOAD DUP2 PUSH1 0xFF MUL NOT AND SWAP1 DUP4 PUSH1 0xFF AND MUL OR SWAP1 SSTORE POP PUSH1 0x0 PUSH1 0x2 PUSH1 0x1B PUSH2 0x100 EXP DUP2 SLOAD DUP2 PUSH1 0xFF MUL NOT AND SWAP1 DUP4 PUSH1 0xFF AND MUL OR SWAP1 SSTORE POP PUSH1 0x0 PUSH20 0xFFFFFFFFFFFFFFFFFFFFFFFFFFFFFFFFFFFFFFFF AND PUSH1 0x3 PUSH1 0x0 SWAP1 SLOAD SWAP1 PUSH2 0x100 EXP SWAP1 DIV PUSH20 0xFFFFFFFFFFFFFFFFFFFFFFFFFFFFFFFFFFFFFFFF AND PUSH20 0xFFFFFFFFFFFFFFFFFFFFFFFFFFFFFFFFFFFFFFFF AND EQ ISZERO PUSH2 0x9E5 JUMPI PUSH1 0x2 PUSH1 0x15 DUP2 DUP2 SWAP1 SLOAD SWAP1 PUSH2 0x100 EXP SWAP1 DIV PUSH1 0xFF AND DUP1 SWAP3 SWAP2 SWAP1 PUSH2 0x9C3 SWAP1 PUSH2 0x161A JUMP JUMPDEST SWAP2 SWAP1 PUSH2 0x100 EXP DUP2 SLOAD DUP2 PUSH1 0xFF MUL NOT AND SWAP1 DUP4 PUSH1 0xFF AND MUL OR SWAP1 SSTORE POP POP PUSH1 0x0 SWAP1 POP PUSH2 0x9F3 JUMP JUMPDEST PUSH1 0x1 SWAP1 POP PUSH2 0x9F3 JUMP JUMPDEST PUSH1 0x0 SWAP1 POP JUMPDEST SWAP2 SWAP1 POP JUMP JUMPDEST PUSH1 0x60 PUSH1 0x3 PUSH1 0x0 SWAP1 SLOAD SWAP1 PUSH2 0x100 EXP SWAP1 DIV PUSH20 0xFFFFFFFFFFFFFFFFFFFFFFFFFFFFFFFFFFFFFFFF AND PUSH20 0xFFFFFFFFFFFFFFFFFFFFFFFFFFFFFFFFFFFFFFFF AND CALLER PUSH20 0xFFFFFFFFFFFFFFFFFFFFFFFFFFFFFFFFFFFFFFFF AND EQ PUSH2 0xA54 JUMPI PUSH1 0x0 DUP1 REVERT JUMPDEST PUSH1 0x40 MLOAD DUP1 PUSH1 0x40 ADD PUSH1 0x40 MSTORE DUP1 PUSH1 0x12 DUP2 MSTORE PUSH1 0x20 ADD PUSH32 0x54686520766F74696E67206973206F7665720000000000000000000000000000 DUP2 MSTORE POP SWAP1 POP SWAP1 JUMP JUMPDEST PUSH1 0x0 PUSH1 0x3 PUSH1 0x2 PUSH1 0x14 SWAP1 SLOAD SWAP1 PUSH2 0x100 EXP SWAP1 DIV PUSH1 0xFF AND PUSH1 0xFF AND EQ ISZERO PUSH2 0xAB5 JUMPI PUSH1 0x0 SWAP1 POP PUSH2 0xD95 JUMP JUMPDEST PUSH1 0x0 PUSH1 0x2 PUSH1 0x14 SWAP1 SLOAD SWAP1 PUSH2 0x100 EXP SWAP1 DIV PUSH1 0xFF AND PUSH1 0xFF AND EQ ISZERO PUSH2 0xB51 JUMPI DUP2 PUSH1 0x0 DUP1 PUSH2 0x100 EXP DUP2 SLOAD DUP2 PUSH20 0xFFFFFFFFFFFFFFFFFFFFFFFFFFFFFFFFFFFFFFFF MUL NOT AND SWAP1 DUP4 PUSH20 0xFFFFFFFFFFFFFFFFFFFFFFFFFFFFFFFFFFFFFFFF AND MUL OR SWAP1 SSTORE POP PUSH1 0x2 PUSH1 0x14 DUP2 DUP2 SWAP1 SLOAD SWAP1 PUSH2 0x100 EXP SWAP1 DIV PUSH1 0xFF AND DUP1 SWAP3 SWAP2 SWAP1 PUSH2 0xB2F SWAP1 PUSH2 0x161A JUMP JUMPDEST SWAP2 SWAP1 PUSH2 0x100 EXP DUP2 SLOAD DUP2 PUSH1 0xFF MUL NOT AND SWAP1 DUP4 PUSH1 0xFF AND MUL OR SWAP1 SSTORE POP POP PUSH1 0x1 SWAP1 POP PUSH2 0xD95 JUMP JUMPDEST PUSH1 0x1 PUSH1 0x2 PUSH1 0x14 SWAP1 SLOAD SWAP1 PUSH2 0x100 EXP SWAP1 DIV PUSH1 0xFF AND PUSH1 0xFF AND EQ DUP1 ISZERO PUSH2 0xBBF JUMPI POP DUP2 PUSH20 0xFFFFFFFFFFFFFFFFFFFFFFFFFFFFFFFFFFFFFFFF AND PUSH1 0x0 DUP1 SLOAD SWAP1 PUSH2 0x100 EXP SWAP1 DIV PUSH20 0xFFFFFFFFFFFFFFFFFFFFFFFFFFFFFFFFFFFFFFFF AND PUSH20 0xFFFFFFFFFFFFFFFFFFFFFFFFFFFFFFFFFFFFFFFF AND EQ ISZERO JUMPDEST ISZERO PUSH2 0xC46 JUMPI DUP2 PUSH1 0x1 PUSH1 0x0 PUSH2 0x100 EXP DUP2 SLOAD DUP2 PUSH20 0xFFFFFFFFFFFFFFFFFFFFFFFFFFFFFFFFFFFFFFFF MUL NOT AND SWAP1 DUP4 PUSH20 0xFFFFFFFFFFFFFFFFFFFFFFFFFFFFFFFFFFFFFFFF AND MUL OR SWAP1 SSTORE POP PUSH1 0x2 PUSH1 0x14 DUP2 DUP2 SWAP1 SLOAD SWAP1 PUSH2 0x100 EXP SWAP1 DIV PUSH1 0xFF AND DUP1 SWAP3 SWAP2 SWAP1 PUSH2 0xC24 SWAP1 PUSH2 0x161A JUMP JUMPDEST SWAP2 SWAP1 PUSH2 0x100 EXP DUP2 SLOAD DUP2 PUSH1 0xFF MUL NOT AND SWAP1 DUP4 PUSH1 0xFF AND MUL OR SWAP1 SSTORE POP POP PUSH1 0x1 SWAP1 POP PUSH2 0xD95 JUMP JUMPDEST PUSH1 0x2 DUP1 PUSH1 0x14 SWAP1 SLOAD SWAP1 PUSH2 0x100 EXP SWAP1 DIV PUSH1 0xFF AND PUSH1 0xFF AND EQ DUP1 ISZERO PUSH2 0xCB3 JUMPI POP DUP2 PUSH20 0xFFFFFFFFFFFFFFFFFFFFFFFFFFFFFFFFFFFFFFFF AND PUSH1 0x0 DUP1 SLOAD SWAP1 PUSH2 0x100 EXP SWAP1 DIV PUSH20 0xFFFFFFFFFFFFFFFFFFFFFFFFFFFFFFFFFFFFFFFF AND PUSH20 0xFFFFFFFFFFFFFFFFFFFFFFFFFFFFFFFFFFFFFFFF AND EQ ISZERO JUMPDEST DUP1 ISZERO PUSH2 0xD0D JUMPI POP DUP2 PUSH20 0xFFFFFFFFFFFFFFFFFFFFFFFFFFFFFFFFFFFFFFFF AND PUSH1 0x1 PUSH1 0x0 SWAP1 SLOAD SWAP1 PUSH2 0x100 EXP SWAP1 DIV PUSH20 0xFFFFFFFFFFFFFFFFFFFFFFFFFFFFFFFFFFFFFFFF AND PUSH20 0xFFFFFFFFFFFFFFFFFFFFFFFFFFFFFFFFFFFFFFFF AND EQ ISZERO JUMPDEST ISZERO PUSH2 0xD94 JUMPI DUP2 PUSH1 0x2 PUSH1 0x0 PUSH2 0x100 EXP DUP2 SLOAD DUP2 PUSH20 0xFFFFFFFFFFFFFFFFFFFFFFFFFFFFFFFFFFFFFFFF MUL NOT AND SWAP1 DUP4 PUSH20 0xFFFFFFFFFFFFFFFFFFFFFFFFFFFFFFFFFFFFFFFF AND MUL OR SWAP1 SSTORE POP PUSH1 0x2 PUSH1 0x14 DUP2 DUP2 SWAP1 SLOAD SWAP1 PUSH2 0x100 EXP SWAP1 DIV PUSH1 0xFF AND DUP1 SWAP3 SWAP2 SWAP1 PUSH2 0xD72 SWAP1 PUSH2 0x161A JUMP JUMPDEST SWAP2 SWAP1 PUSH2 0x100 EXP DUP2 SLOAD DUP2 PUSH1 0xFF MUL NOT AND SWAP1 DUP4 PUSH1 0xFF AND MUL OR SWAP1 SSTORE POP POP PUSH1 0x1 SWAP1 POP PUSH2 0xD95 JUMP JUMPDEST JUMPDEST SWAP2 SWAP1 POP JUMP JUMPDEST PUSH1 0x0 PUSH1 0x1 DUP3 EQ ISZERO PUSH2 0xDCD JUMPI PUSH1 0x0 DUP1 SLOAD SWAP1 PUSH2 0x100 EXP SWAP1 DIV PUSH20 0xFFFFFFFFFFFFFFFFFFFFFFFFFFFFFFFFFFFFFFFF AND SWAP1 POP PUSH2 0xE38 JUMP JUMPDEST PUSH1 0x2 DUP3 EQ ISZERO PUSH2 0xE00 JUMPI PUSH1 0x1 PUSH1 0x0 SWAP1 SLOAD SWAP1 PUSH2 0x100 EXP SWAP1 DIV PUSH20 0xFFFFFFFFFFFFFFFFFFFFFFFFFFFFFFFFFFFFFFFF AND SWAP1 POP PUSH2 0xE38 JUMP JUMPDEST PUSH1 0x3 DUP3 EQ ISZERO PUSH2 0xE33 JUMPI PUSH1 0x2 PUSH1 0x0 SWAP1 SLOAD SWAP1 PUSH2 0x100 EXP SWAP1 DIV PUSH20 0xFFFFFFFFFFFFFFFFFFFFFFFFFFFFFFFFFFFFFFFF AND SWAP1 POP PUSH2 0xE38 JUMP JUMPDEST PUSH1 0x0 SWAP1 POP JUMPDEST SWAP2 SWAP1 POP JUMP JUMPDEST PUSH1 0x0 DUP1 SLOAD SWAP1 PUSH2 0x100 EXP SWAP1 DIV PUSH20 0xFFFFFFFFFFFFFFFFFFFFFFFFFFFFFFFFFFFFFFFF AND PUSH20 0xFFFFFFFFFFFFFFFFFFFFFFFFFFFFFFFFFFFFFFFF AND CALLER PUSH20 0xFFFFFFFFFFFFFFFFFFFFFFFFFFFFFFFFFFFFFFFF AND EQ DUP1 PUSH2 0xEE4 JUMPI POP PUSH1 0x1 PUSH1 0x0 SWAP1 SLOAD SWAP1 PUSH2 0x100 EXP SWAP1 DIV PUSH20 0xFFFFFFFFFFFFFFFFFFFFFFFFFFFFFFFFFFFFFFFF AND PUSH20 0xFFFFFFFFFFFFFFFFFFFFFFFFFFFFFFFFFFFFFFFF AND CALLER PUSH20 0xFFFFFFFFFFFFFFFFFFFFFFFFFFFFFFFFFFFFFFFF AND EQ JUMPDEST DUP1 PUSH2 0xF3C JUMPI POP PUSH1 0x2 PUSH1 0x0 SWAP1 SLOAD SWAP1 PUSH2 0x100 EXP SWAP1 DIV PUSH20 0xFFFFFFFFFFFFFFFFFFFFFFFFFFFFFFFFFFFFFFFF AND PUSH20 0xFFFFFFFFFFFFFFFFFFFFFFFFFFFFFFFFFFFFFFFF AND CALLER PUSH20 0xFFFFFFFFFFFFFFFFFFFFFFFFFFFFFFFFFFFFFFFF AND EQ JUMPDEST PUSH2 0xF45 JUMPI PUSH1 0x0 DUP1 REVERT JUMPDEST PUSH1 0x0 DUP1 SLOAD SWAP1 PUSH2 0x100 EXP SWAP1 DIV PUSH20 0xFFFFFFFFFFFFFFFFFFFFFFFFFFFFFFFFFFFFFFFF AND PUSH20 0xFFFFFFFFFFFFFFFFFFFFFFFFFFFFFFFFFFFFFFFF AND DUP2 PUSH20 0xFFFFFFFFFFFFFFFFFFFFFFFFFFFFFFFFFFFFFFFF AND EQ ISZERO DUP1 ISZERO PUSH2 0xFEF JUMPI POP PUSH1 0x1 PUSH1 0x0 SWAP1 SLOAD SWAP1 PUSH2 0x100 EXP SWAP1 DIV PUSH20 0xFFFFFFFFFFFFFFFFFFFFFFFFFFFFFFFFFFFFFFFF AND PUSH20 0xFFFFFFFFFFFFFFFFFFFFFFFFFFFFFFFFFFFFFFFF AND DUP2 PUSH20 0xFFFFFFFFFFFFFFFFFFFFFFFFFFFFFFFFFFFFFFFF AND EQ ISZERO JUMPDEST DUP1 ISZERO PUSH2 0x1049 JUMPI POP PUSH1 0x2 PUSH1 0x0 SWAP1 SLOAD SWAP1 PUSH2 0x100 EXP SWAP1 DIV PUSH20 0xFFFFFFFFFFFFFFFFFFFFFFFFFFFFFFFFFFFFFFFF AND PUSH20 0xFFFFFFFFFFFFFFFFFFFFFFFFFFFFFFFFFFFFFFFF AND DUP2 PUSH20 0xFFFFFFFFFFFFFFFFFFFFFFFFFFFFFFFFFFFFFFFF AND EQ ISZERO JUMPDEST PUSH2 0x1052 JUMPI PUSH1 0x0 DUP1 REVERT JUMPDEST PUSH1 0x0 PUSH20 0xFFFFFFFFFFFFFFFFFFFFFFFFFFFFFFFFFFFFFFFF AND DUP2 PUSH20 0xFFFFFFFFFFFFFFFFFFFFFFFFFFFFFFFFFFFFFFFF AND EQ ISZERO PUSH2 0x108C JUMPI PUSH1 0x0 DUP1 REVERT JUMPDEST PUSH1 0x0 DUP1 SLOAD SWAP1 PUSH2 0x100 EXP SWAP1 DIV PUSH20 0xFFFFFFFFFFFFFFFFFFFFFFFFFFFFFFFFFFFFFFFF AND PUSH20 0xFFFFFFFFFFFFFFFFFFFFFFFFFFFFFFFFFFFFFFFF AND CALLER PUSH20 0xFFFFFFFFFFFFFFFFFFFFFFFFFFFFFFFFFFFFFFFF AND EQ ISZERO PUSH2 0x119F JUMPI DUP1 PUSH1 0x0 DUP1 PUSH2 0x100 EXP DUP2 SLOAD DUP2 PUSH20 0xFFFFFFFFFFFFFFFFFFFFFFFFFFFFFFFFFFFFFFFF MUL NOT AND SWAP1 DUP4 PUSH20 0xFFFFFFFFFFFFFFFFFFFFFFFFFFFFFFFFFFFFFFFF AND MUL OR SWAP1 SSTORE POP DUP1 PUSH20 0xFFFFFFFFFFFFFFFFFFFFFFFFFFFFFFFFFFFFFFFF AND PUSH1 0x0 DUP1 SLOAD SWAP1 PUSH2 0x100 EXP SWAP1 DIV PUSH20 0xFFFFFFFFFFFFFFFFFFFFFFFFFFFFFFFFFFFFFFFF AND PUSH20 0xFFFFFFFFFFFFFFFFFFFFFFFFFFFFFFFFFFFFFFFF AND PUSH32 0x2AE143016ADC0AA482E6BA5D9A350F3E3122AEB005CA4BF47D1D7B8221BCE472 PUSH1 0x40 MLOAD PUSH1 0x40 MLOAD DUP1 SWAP2 SUB SWAP1 LOG3 PUSH2 0x13CD JUMP JUMPDEST PUSH1 0x1 PUSH1 0x0 SWAP1 SLOAD SWAP1 PUSH2 0x100 EXP SWAP1 DIV PUSH20 0xFFFFFFFFFFFFFFFFFFFFFFFFFFFFFFFFFFFFFFFF AND PUSH20 0xFFFFFFFFFFFFFFFFFFFFFFFFFFFFFFFFFFFFFFFF AND CALLER PUSH20 0xFFFFFFFFFFFFFFFFFFFFFFFFFFFFFFFFFFFFFFFF AND EQ ISZERO PUSH2 0x12B7 JUMPI DUP1 PUSH1 0x1 PUSH1 0x0 PUSH2 0x100 EXP DUP2 SLOAD DUP2 PUSH20 0xFFFFFFFFFFFFFFFFFFFFFFFFFFFFFFFFFFFFFFFF MUL NOT AND SWAP1 DUP4 PUSH20 0xFFFFFFFFFFFFFFFFFFFFFFFFFFFFFFFFFFFFFFFF AND MUL OR SWAP1 SSTORE POP DUP1 PUSH20 0xFFFFFFFFFFFFFFFFFFFFFFFFFFFFFFFFFFFFFFFF AND PUSH1 0x1 PUSH1 0x0 SWAP1 SLOAD SWAP1 PUSH2 0x100 EXP SWAP1 DIV PUSH20 0xFFFFFFFFFFFFFFFFFFFFFFFFFFFFFFFFFFFFFFFF AND PUSH20 0xFFFFFFFFFFFFFFFFFFFFFFFFFFFFFFFFFFFFFFFF AND PUSH32 0x2AE143016ADC0AA482E6BA5D9A350F3E3122AEB005CA4BF47D1D7B8221BCE472 PUSH1 0x40 MLOAD PUSH1 0x40 MLOAD DUP1 SWAP2 SUB SWAP1 LOG3 PUSH2 0x13CC JUMP JUMPDEST PUSH1 0x2 PUSH1 0x0 SWAP1 SLOAD SWAP1 PUSH2 0x100 EXP SWAP1 DIV PUSH20 0xFFFFFFFFFFFFFFFFFFFFFFFFFFFFFFFFFFFFFFFF AND PUSH20 0xFFFFFFFFFFFFFFFFFFFFFFFFFFFFFFFFFFFFFFFF AND CALLER PUSH20 0xFFFFFFFFFFFFFFFFFFFFFFFFFFFFFFFFFFFFFFFF AND EQ ISZERO PUSH2 0x13CB JUMPI DUP1 PUSH1 0x2 PUSH1 0x0 PUSH2 0x100 EXP DUP2 SLOAD DUP2 PUSH20 0xFFFFFFFFFFFFFFFFFFFFFFFFFFFFFFFFFFFFFFFF MUL NOT AND SWAP1 DUP4 PUSH20 0xFFFFFFFFFFFFFFFFFFFFFFFFFFFFFFFFFFFFFFFF AND MUL OR SWAP1 SSTORE POP DUP1 PUSH20 0xFFFFFFFFFFFFFFFFFFFFFFFFFFFFFFFFFFFFFFFF AND PUSH1 0x2 PUSH1 0x0 SWAP1 SLOAD SWAP1 PUSH2 0x100 EXP SWAP1 DIV PUSH20 0xFFFFFFFFFFFFFFFFFFFFFFFFFFFFFFFFFFFFFFFF AND PUSH20 0xFFFFFFFFFFFFFFFFFFFFFFFFFFFFFFFFFFFFFFFF AND PUSH32 0x2AE143016ADC0AA482E6BA5D9A350F3E3122AEB005CA4BF47D1D7B8221BCE472 PUSH1 0x40 MLOAD PUSH1 0x40 MLOAD DUP1 SWAP2 SUB SWAP1 LOG3 JUMPDEST JUMPDEST JUMPDEST POP JUMP JUMPDEST PUSH1 0x0 DUP1 REVERT JUMPDEST PUSH1 0x0 DUP2 SWAP1 POP SWAP2 SWAP1 POP JUMP JUMPDEST PUSH2 0x13E8 DUP2 PUSH2 0x13D5 JUMP JUMPDEST DUP2 EQ PUSH2 0x13F3 JUMPI PUSH1 0x0 DUP1 REVERT JUMPDEST POP JUMP JUMPDEST PUSH1 0x0 DUP2 CALLDATALOAD SWAP1 POP PUSH2 0x1405 DUP2 PUSH2 0x13DF JUMP JUMPDEST SWAP3 SWAP2 POP POP JUMP JUMPDEST PUSH1 0x0 PUSH1 0x20 DUP3 DUP5 SUB SLT ISZERO PUSH2 0x1421 JUMPI PUSH2 0x1420 PUSH2 0x13D0 JUMP JUMPDEST JUMPDEST PUSH1 0x0 PUSH2 0x142F DUP5 DUP3 DUP6 ADD PUSH2 0x13F6 JUMP JUMPDEST SWAP2 POP POP SWAP3 SWAP2 POP POP JUMP JUMPDEST PUSH1 0x0 DUP2 ISZERO ISZERO SWAP1 POP SWAP2 SWAP1 POP JUMP JUMPDEST PUSH2 0x144D DUP2 PUSH2 0x1438 JUMP JUMPDEST DUP3 MSTORE POP POP JUMP JUMPDEST PUSH1 0x0 PUSH1 0x20 DUP3 ADD SWAP1 POP PUSH2 0x1468 PUSH1 0x0 DUP4 ADD DUP5 PUSH2 0x1444 JUMP JUMPDEST SWAP3 SWAP2 POP POP JUMP JUMPDEST PUSH1 0x0 DUP2 MLOAD SWAP1 POP SWAP2 SWAP1 POP JUMP JUMPDEST PUSH1 0x0 DUP3 DUP3 MSTORE PUSH1 0x20 DUP3 ADD SWAP1 POP SWAP3 SWAP2 POP POP JUMP JUMPDEST PUSH1 0x0 JUMPDEST DUP4 DUP2 LT ISZERO PUSH2 0x14A8 JUMPI DUP1 DUP3 ADD MLOAD DUP2 DUP5 ADD MSTORE PUSH1 0x20 DUP2 ADD SWAP1 POP PUSH2 0x148D JUMP JUMPDEST DUP4 DUP2 GT ISZERO PUSH2 0x14B7 JUMPI PUSH1 0x0 DUP5 DUP5 ADD MSTORE JUMPDEST POP POP POP POP JUMP JUMPDEST PUSH1 0x0 PUSH1 0x1F NOT PUSH1 0x1F DUP4 ADD AND SWAP1 POP SWAP2 SWAP1 POP JUMP JUMPDEST PUSH1 0x0 PUSH2 0x14D9 DUP3 PUSH2 0x146E JUMP JUMPDEST PUSH2 0x14E3 DUP2 DUP6 PUSH2 0x1479 JUMP JUMPDEST SWAP4 POP PUSH2 0x14F3 DUP2 DUP6 PUSH1 0x20 DUP7 ADD PUSH2 0x148A JUMP JUMPDEST PUSH2 0x14FC DUP2 PUSH2 0x14BD JUMP JUMPDEST DUP5 ADD SWAP2 POP POP SWAP3 SWAP2 POP POP JUMP JUMPDEST PUSH1 0x0 PUSH1 0x20 DUP3 ADD SWAP1 POP DUP2 DUP2 SUB PUSH1 0x0 DUP4 ADD MSTORE PUSH2 0x1521 DUP2 DUP5 PUSH2 0x14CE JUMP JUMPDEST SWAP1 POP SWAP3 SWAP2 POP POP JUMP JUMPDEST PUSH1 0x0 PUSH20 0xFFFFFFFFFFFFFFFFFFFFFFFFFFFFFFFFFFFFFFFF DUP3 AND SWAP1 POP SWAP2 SWAP1 POP JUMP JUMPDEST PUSH1 0x0 PUSH2 0x1554 DUP3 PUSH2 0x1529 JUMP JUMPDEST SWAP1 POP SWAP2 SWAP1 POP JUMP JUMPDEST PUSH2 0x1564 DUP2 PUSH2 0x1549 JUMP JUMPDEST DUP2 EQ PUSH2 0x156F JUMPI PUSH1 0x0 DUP1 REVERT JUMPDEST POP JUMP JUMPDEST PUSH1 0x0 DUP2 CALLDATALOAD SWAP1 POP PUSH2 0x1581 DUP2 PUSH2 0x155B JUMP JUMPDEST SWAP3 SWAP2 POP POP JUMP JUMPDEST PUSH1 0x0 PUSH1 0x20 DUP3 DUP5 SUB SLT ISZERO PUSH2 0x159D JUMPI PUSH2 0x159C PUSH2 0x13D0 JUMP JUMPDEST JUMPDEST PUSH1 0x0 PUSH2 0x15AB DUP5 DUP3 DUP6 ADD PUSH2 0x1572 JUMP JUMPDEST SWAP2 POP POP SWAP3 SWAP2 POP POP JUMP JUMPDEST PUSH2 0x15BD DUP2 PUSH2 0x1549 JUMP JUMPDEST DUP3 MSTORE POP POP JUMP JUMPDEST PUSH1 0x0 PUSH1 0x20 DUP3 ADD SWAP1 POP PUSH2 0x15D8 PUSH1 0x0 DUP4 ADD DUP5 PUSH2 0x15B4 JUMP JUMPDEST SWAP3 SWAP2 POP POP JUMP JUMPDEST PUSH32 0x4E487B7100000000000000000000000000000000000000000000000000000000 PUSH1 0x0 MSTORE PUSH1 0x11 PUSH1 0x4 MSTORE PUSH1 0x24 PUSH1 0x0 REVERT JUMPDEST PUSH1 0x0 PUSH1 0xFF DUP3 AND SWAP1 POP SWAP2 SWAP1 POP JUMP JUMPDEST PUSH1 0x0 PUSH2 0x1625 DUP3 PUSH2 0x160D JUMP JUMPDEST SWAP2 POP PUSH1 0xFF DUP3 EQ ISZERO PUSH2 0x1639 JUMPI PUSH2 0x1638 PUSH2 0x15DE JUMP JUMPDEST JUMPDEST PUSH1 0x1 DUP3 ADD SWAP1 POP SWAP2 SWAP1 POP JUMP INVALID LOG2 PUSH5 0x6970667358 0x22 SLT KECCAK256 PUSH5 0x4FDD3D9C67 0x23 MSTORE8 PUSH25 0x88F484690D2614CFC1E93C7DD25A11A94FFCC2A384C16C6473 PUSH16 0x6C634300080A00330000000000000000 "
				},
				"gasEstimates": {
					"creation": {
						"codeDepositCost": "1150800",
						"executionCost": "219997",
						"totalCost": "1370797"
					},
					"external": {
						"becomeOwner(address)": "67027",
						"proveRealOwner()": "infinite",
						"showOwner(uint256)": "2920",
						"transferOwnership(address)": "48077",
						"vote(uint256)": "infinite"
					}
				},
				"methodIdentifiers": {
					"becomeOwner(address)": "2bad96ba",
					"proveRealOwner()": "09305af6",
					"showOwner(uint256)": "74a29267",
					"transferOwnership(address)": "f2fde38b",
					"vote(uint256)": "0121b93f"
				}
			},
			"userdoc": {
				"kind": "user",
				"methods": {},
				"version": 1
			}
		}
	}
}