{
	"voting.sol": {
		"Voting": {
			"abi": [
				{
					"inputs": [],
					"stateMutability": "nonpayable",
					"type": "constructor"
				},
				{
					"anonymous": false,
					"inputs": [
						{
							"indexed": true,
							"internalType": "address",
							"name": "_from",
							"type": "address"
						},
						{
							"indexed": true,
							"internalType": "address",
							"name": "_to",
							"type": "address"
						}
					],
					"name": "OwnerTransferPropose",
					"type": "event"
				},
				{
					"inputs": [
						{
							"internalType": "address",
							"name": "_person",
							"type": "address"
						}
					],
					"name": "becomeOwner",
					"outputs": [
						{
							"internalType": "bool",
							"name": "",
							"type": "bool"
						}
					],
					"stateMutability": "nonpayable",
					"type": "function"
				},
				{
					"inputs": [],
					"name": "getStatus",
					"outputs": [
						{
							"components": [
								{
									"internalType": "uint8",
									"name": "sownerCount",
									"type": "uint8"
								},
								{
									"internalType": "uint8",
									"name": "svoteCount",
									"type": "uint8"
								},
								{
									"internalType": "uint8",
									"name": "svote1",
									"type": "uint8"
								},
								{
									"internalType": "uint8",
									"name": "svote2",
									"type": "uint8"
								},
								{
									"internalType": "uint8",
									"name": "svote3",
									"type": "uint8"
								},
								{
									"internalType": "uint8",
									"name": "sgetVote1",
									"type": "uint8"
								},
								{
									"internalType": "uint8",
									"name": "sgetVote2",
									"type": "uint8"
								},
								{
									"internalType": "uint8",
									"name": "sgetVote3",
									"type": "uint8"
								},
								{
									"internalType": "address",
									"name": "srealOwner",
									"type": "address"
								},
								{
									"internalType": "uint8",
									"name": "svalue",
									"type": "uint8"
								},
								{
									"internalType": "uint256",
									"name": "time",
									"type": "uint256"
								}
							],
							"internalType": "struct Voting.Status",
							"name": "",
							"type": "tuple"
						}
					],
					"stateMutability": "view",
					"type": "function"
				},
				{
					"inputs": [],
					"name": "getValue",
					"outputs": [
						{
							"internalType": "uint8",
							"name": "",
							"type": "uint8"
						}
					],
					"stateMutability": "view",
					"type": "function"
				},
				{
					"inputs": [
						{
							"internalType": "uint8",
							"name": "_order",
							"type": "uint8"
						}
					],
					"name": "lastMethod",
					"outputs": [
						{
							"internalType": "bool",
							"name": "",
							"type": "bool"
						}
					],
					"stateMutability": "nonpayable",
					"type": "function"
				},
				{
					"inputs": [
						{
							"internalType": "uint8",
							"name": "_val",
							"type": "uint8"
						}
					],
					"name": "setValue",
					"outputs": [
						{
							"internalType": "bool",
							"name": "",
							"type": "bool"
						}
					],
					"stateMutability": "nonpayable",
					"type": "function"
				},
				{
					"inputs": [
						{
							"internalType": "uint256",
							"name": "_order",
							"type": "uint256"
						}
					],
					"name": "showOwner",
					"outputs": [
						{
							"internalType": "address",
							"name": "",
							"type": "address"
						}
					],
					"stateMutability": "view",
					"type": "function"
				},
				{
					"inputs": [
						{
							"internalType": "address",
							"name": "_person",
							"type": "address"
						}
					],
					"name": "showRealOwner",
					"outputs": [
						{
							"internalType": "string",
							"name": "",
							"type": "string"
						}
					],
					"stateMutability": "view",
					"type": "function"
				},
				{
					"inputs": [
						{
							"internalType": "address",
							"name": "_to",
							"type": "address"
						}
					],
					"name": "transferOwnership",
					"outputs": [],
					"stateMutability": "nonpayable",
					"type": "function"
				},
				{
					"inputs": [
						{
							"internalType": "uint256",
							"name": "_order",
							"type": "uint256"
						}
					],
					"name": "vote",
					"outputs": [
						{
							"internalType": "bool",
							"name": "",
							"type": "bool"
						}
					],
					"stateMutability": "nonpayable",
					"type": "function"
				}
			],
			"devdoc": {
				"kind": "dev",
				"methods": {},
				"version": 1
			},
			"evm": {
				"assembly": "    /* \"voting.sol\":1021:6508  contract Voting is OwnerHelper {... */\n  mstore(0x40, 0x80)\n    /* \"voting.sol\":1410:1654  constructor() {... */\n  callvalue\n  dup1\n  iszero\n  tag_1\n  jumpi\n  0x00\n  dup1\n  revert\ntag_1:\n  pop\n    /* \"voting.sol\":447:459  block.number */\n  number\n    /* \"voting.sol\":435:444  startTime */\n  0x03\n    /* \"voting.sol\":435:459  startTime = block.number */\n  dup2\n  swap1\n  sstore\n  pop\n    /* \"voting.sol\":1447:1448  0 */\n  0x00\n    /* \"voting.sol\":1434:1444  ownerCount */\n  0x04\n  0x00\n    /* \"voting.sol\":1434:1448  ownerCount = 0 */\n  0x0100\n  exp\n  dup2\n  sload\n  dup2\n  0xff\n  mul\n  not\n  and\n  swap1\n  dup4\n  0xff\n  and\n  mul\n  or\n  swap1\n  sstore\n  pop\n    /* \"voting.sol\":1470:1471  0 */\n  0x00\n    /* \"voting.sol\":1458:1467  voteCount */\n  0x04\n  0x01\n    /* \"voting.sol\":1458:1471  voteCount = 0 */\n  0x0100\n  exp\n  dup2\n  sload\n  dup2\n  0xff\n  mul\n  not\n  and\n  swap1\n  dup4\n  0xff\n  and\n  mul\n  or\n  swap1\n  sstore\n  pop\n    /* \"voting.sol\":1489:1490  0 */\n  0x00\n    /* \"voting.sol\":1481:1486  vote1 */\n  0x04\n  0x02\n    /* \"voting.sol\":1481:1490  vote1 = 0 */\n  0x0100\n  exp\n  dup2\n  sload\n  dup2\n  0xff\n  mul\n  not\n  and\n  swap1\n  dup4\n  0xff\n  and\n  mul\n  or\n  swap1\n  sstore\n  pop\n    /* \"voting.sol\":1508:1509  0 */\n  0x00\n    /* \"voting.sol\":1500:1505  vote2 */\n  0x04\n  0x03\n    /* \"voting.sol\":1500:1509  vote2 = 0 */\n  0x0100\n  exp\n  dup2\n  sload\n  dup2\n  0xff\n  mul\n  not\n  and\n  swap1\n  dup4\n  0xff\n  and\n  mul\n  or\n  swap1\n  sstore\n  pop\n    /* \"voting.sol\":1527:1528  0 */\n  0x00\n    /* \"voting.sol\":1519:1524  vote3 */\n  0x04\n  dup1\n    /* \"voting.sol\":1519:1528  vote3 = 0 */\n  0x0100\n  exp\n  dup2\n  sload\n  dup2\n  0xff\n  mul\n  not\n  and\n  swap1\n  dup4\n  0xff\n  and\n  mul\n  or\n  swap1\n  sstore\n  pop\n    /* \"voting.sol\":1549:1550  0 */\n  0x00\n    /* \"voting.sol\":1538:1546  getVote1 */\n  0x04\n  0x05\n    /* \"voting.sol\":1538:1550  getVote1 = 0 */\n  0x0100\n  exp\n  dup2\n  sload\n  dup2\n  0xff\n  mul\n  not\n  and\n  swap1\n  dup4\n  0xff\n  and\n  mul\n  or\n  swap1\n  sstore\n  pop\n    /* \"voting.sol\":1571:1572  0 */\n  0x00\n    /* \"voting.sol\":1560:1568  getVote2 */\n  0x04\n  0x06\n    /* \"voting.sol\":1560:1572  getVote2 = 0 */\n  0x0100\n  exp\n  dup2\n  sload\n  dup2\n  0xff\n  mul\n  not\n  and\n  swap1\n  dup4\n  0xff\n  and\n  mul\n  or\n  swap1\n  sstore\n  pop\n    /* \"voting.sol\":1593:1594  0 */\n  0x00\n    /* \"voting.sol\":1582:1590  getVote3 */\n  0x04\n  0x07\n    /* \"voting.sol\":1582:1594  getVote3 = 0 */\n  0x0100\n  exp\n  dup2\n  sload\n  dup2\n  0xff\n  mul\n  not\n  and\n  swap1\n  dup4\n  0xff\n  and\n  mul\n  or\n  swap1\n  sstore\n  pop\n    /* \"voting.sol\":1624:1627  0x0 */\n  0x00\n    /* \"voting.sol\":1604:1613  realOwner */\n  0x04\n  0x08\n    /* \"voting.sol\":1604:1628  realOwner = address(0x0) */\n  0x0100\n  exp\n  dup2\n  sload\n  dup2\n  0xffffffffffffffffffffffffffffffffffffffff\n  mul\n  not\n  and\n  swap1\n  dup4\n  0xffffffffffffffffffffffffffffffffffffffff\n  and\n  mul\n  or\n  swap1\n  sstore\n  pop\n    /* \"voting.sol\":1646:1647  0 */\n  0x00\n    /* \"voting.sol\":1638:1643  value */\n  0x04\n  0x1c\n    /* \"voting.sol\":1638:1647  value = 0 */\n  0x0100\n  exp\n  dup2\n  sload\n  dup2\n  0xff\n  mul\n  not\n  and\n  swap1\n  dup4\n  0xff\n  and\n  mul\n  or\n  swap1\n  sstore\n  pop\n    /* \"voting.sol\":1021:6508  contract Voting is OwnerHelper {... */\n  dataSize(sub_0)\n  dup1\n  dataOffset(sub_0)\n  0x00\n  codecopy\n  0x00\n  return\nstop\n\nsub_0: assembly {\n        /* \"voting.sol\":1021:6508  contract Voting is OwnerHelper {... */\n      mstore(0x40, 0x80)\n      callvalue\n      dup1\n      iszero\n      tag_1\n      jumpi\n      0x00\n      dup1\n      revert\n    tag_1:\n      pop\n      jumpi(tag_2, lt(calldatasize, 0x04))\n      shr(0xe0, calldataload(0x00))\n      dup1\n      0x4e69d560\n      gt\n      tag_12\n      jumpi\n      dup1\n      0x4e69d560\n      eq\n      tag_7\n      jumpi\n      dup1\n      0x74a29267\n      eq\n      tag_8\n      jumpi\n      dup1\n      0x7594a9e6\n      eq\n      tag_9\n      jumpi\n      dup1\n      0xef220789\n      eq\n      tag_10\n      jumpi\n      dup1\n      0xf2fde38b\n      eq\n      tag_11\n      jumpi\n      jump(tag_2)\n    tag_12:\n      dup1\n      0x0121b93f\n      eq\n      tag_3\n      jumpi\n      dup1\n      0x20965255\n      eq\n      tag_4\n      jumpi\n      dup1\n      0x2bad96ba\n      eq\n      tag_5\n      jumpi\n      dup1\n      0x4c111ff8\n      eq\n      tag_6\n      jumpi\n    tag_2:\n      0x00\n      dup1\n      revert\n        /* \"voting.sol\":3373:5096  function vote(uint _order) onlyOwner public returns(bool) {... */\n    tag_3:\n      tag_13\n      0x04\n      dup1\n      calldatasize\n      sub\n      dup2\n      add\n      swap1\n      tag_14\n      swap2\n      swap1\n      tag_15\n      jump\t// in\n    tag_14:\n      tag_16\n      jump\t// in\n    tag_13:\n      mload(0x40)\n      tag_17\n      swap2\n      swap1\n      tag_18\n      jump\t// in\n    tag_17:\n      mload(0x40)\n      dup1\n      swap2\n      sub\n      swap1\n      return\n        /* \"voting.sol\":5328:5404  function getValue() public view returns (uint8){... */\n    tag_4:\n      tag_19\n      tag_20\n      jump\t// in\n    tag_19:\n      mload(0x40)\n      tag_21\n      swap2\n      swap1\n      tag_22\n      jump\t// in\n    tag_21:\n      mload(0x40)\n      dup1\n      swap2\n      sub\n      swap1\n      return\n        /* \"voting.sol\":2467:3035  function becomeOwner(address _person) public returns (bool){... */\n    tag_5:\n      tag_23\n      0x04\n      dup1\n      calldatasize\n      sub\n      dup2\n      add\n      swap1\n      tag_24\n      swap2\n      swap1\n      tag_25\n      jump\t// in\n    tag_24:\n      tag_26\n      jump\t// in\n    tag_23:\n      mload(0x40)\n      tag_27\n      swap2\n      swap1\n      tag_18\n      jump\t// in\n    tag_27:\n      mload(0x40)\n      dup1\n      swap2\n      sub\n      swap1\n      return\n        /* \"voting.sol\":5410:5522  function setValue(uint8 _val) checkOwner public returns (bool){... */\n    tag_6:\n      tag_28\n      0x04\n      dup1\n      calldatasize\n      sub\n      dup2\n      add\n      swap1\n      tag_29\n      swap2\n      swap1\n      tag_30\n      jump\t// in\n    tag_29:\n      tag_31\n      jump\t// in\n    tag_28:\n      mload(0x40)\n      tag_32\n      swap2\n      swap1\n      tag_18\n      jump\t// in\n    tag_32:\n      mload(0x40)\n      dup1\n      swap2\n      sub\n      swap1\n      return\n        /* \"voting.sol\":1953:2461  function getStatus() public view returns(Status memory){... */\n    tag_7:\n      tag_33\n      tag_34\n      jump\t// in\n    tag_33:\n      mload(0x40)\n      tag_35\n      swap2\n      swap1\n      tag_36\n      jump\t// in\n    tag_35:\n      mload(0x40)\n      dup1\n      swap2\n      sub\n      swap1\n      return\n        /* \"voting.sol\":3041:3367  function showOwner(uint _order) public view returns (address) {... */\n    tag_8:\n      tag_37\n      0x04\n      dup1\n      calldatasize\n      sub\n      dup2\n      add\n      swap1\n      tag_38\n      swap2\n      swap1\n      tag_15\n      jump\t// in\n    tag_38:\n      tag_39\n      jump\t// in\n    tag_37:\n      mload(0x40)\n      tag_40\n      swap2\n      swap1\n      tag_41\n      jump\t// in\n    tag_40:\n      mload(0x40)\n      dup1\n      swap2\n      sub\n      swap1\n      return\n        /* \"voting.sol\":5102:5322  function showRealOwner(address _person) public view returns (string memory){... */\n    tag_9:\n      tag_42\n      0x04\n      dup1\n      calldatasize\n      sub\n      dup2\n      add\n      swap1\n      tag_43\n      swap2\n      swap1\n      tag_25\n      jump\t// in\n    tag_43:\n      tag_44\n      jump\t// in\n    tag_42:\n      mload(0x40)\n      tag_45\n      swap2\n      swap1\n      tag_46\n      jump\t// in\n    tag_45:\n      mload(0x40)\n      dup1\n      swap2\n      sub\n      swap1\n      return\n        /* \"voting.sol\":5528:6505  function lastMethod(uint8 _order) onlyOwner public returns (bool){... */\n    tag_10:\n      tag_47\n      0x04\n      dup1\n      calldatasize\n      sub\n      dup2\n      add\n      swap1\n      tag_48\n      swap2\n      swap1\n      tag_30\n      jump\t// in\n    tag_48:\n      tag_49\n      jump\t// in\n    tag_47:\n      mload(0x40)\n      tag_50\n      swap2\n      swap1\n      tag_18\n      jump\t// in\n    tag_50:\n      mload(0x40)\n      dup1\n      swap2\n      sub\n      swap1\n      return\n        /* \"voting.sol\":471:1017  function transferOwnership(address _to) onlyOwner public {... */\n    tag_11:\n      tag_51\n      0x04\n      dup1\n      calldatasize\n      sub\n      dup2\n      add\n      swap1\n      tag_52\n      swap2\n      swap1\n      tag_25\n      jump\t// in\n    tag_52:\n      tag_53\n      jump\t// in\n    tag_51:\n      stop\n        /* \"voting.sol\":3373:5096  function vote(uint _order) onlyOwner public returns(bool) {... */\n    tag_16:\n        /* \"voting.sol\":3425:3429  bool */\n      0x00\n        /* \"voting.sol\":338:344  owner1 */\n      dup1\n      0x00\n      swap1\n      sload\n      swap1\n      0x0100\n      exp\n      swap1\n      div\n      0xffffffffffffffffffffffffffffffffffffffff\n      and\n        /* \"voting.sol\":324:344  msg.sender == owner1 */\n      0xffffffffffffffffffffffffffffffffffffffff\n      and\n        /* \"voting.sol\":324:334  msg.sender */\n      caller\n        /* \"voting.sol\":324:344  msg.sender == owner1 */\n      0xffffffffffffffffffffffffffffffffffffffff\n      and\n      eq\n        /* \"voting.sol\":324:368  msg.sender == owner1 || msg.sender == owner2 */\n      dup1\n      tag_55\n      jumpi\n      pop\n        /* \"voting.sol\":362:368  owner2 */\n      0x01\n      0x00\n      swap1\n      sload\n      swap1\n      0x0100\n      exp\n      swap1\n      div\n      0xffffffffffffffffffffffffffffffffffffffff\n      and\n        /* \"voting.sol\":348:368  msg.sender == owner2 */\n      0xffffffffffffffffffffffffffffffffffffffff\n      and\n        /* \"voting.sol\":348:358  msg.sender */\n      caller\n        /* \"voting.sol\":348:368  msg.sender == owner2 */\n      0xffffffffffffffffffffffffffffffffffffffff\n      and\n      eq\n        /* \"voting.sol\":324:368  msg.sender == owner1 || msg.sender == owner2 */\n    tag_55:\n        /* \"voting.sol\":324:392  msg.sender == owner1 || msg.sender == owner2 || msg.sender == owner3 */\n      dup1\n      tag_56\n      jumpi\n      pop\n        /* \"voting.sol\":386:392  owner3 */\n      0x02\n      0x00\n      swap1\n      sload\n      swap1\n      0x0100\n      exp\n      swap1\n      div\n      0xffffffffffffffffffffffffffffffffffffffff\n      and\n        /* \"voting.sol\":372:392  msg.sender == owner3 */\n      0xffffffffffffffffffffffffffffffffffffffff\n      and\n        /* \"voting.sol\":372:382  msg.sender */\n      caller\n        /* \"voting.sol\":372:392  msg.sender == owner3 */\n      0xffffffffffffffffffffffffffffffffffffffff\n      and\n      eq\n        /* \"voting.sol\":324:392  msg.sender == owner1 || msg.sender == owner2 || msg.sender == owner3 */\n    tag_56:\n        /* \"voting.sol\":316:393  require(msg.sender == owner1 || msg.sender == owner2 || msg.sender == owner3) */\n      tag_57\n      jumpi\n      0x00\n      dup1\n      revert\n    tag_57:\n        /* \"voting.sol\":3459:3460  1 */\n      0x01\n        /* \"voting.sol\":3449:3455  _order */\n      dup3\n        /* \"voting.sol\":3449:3460  _order == 1 */\n      eq\n        /* \"voting.sol\":3449:3475  _order == 1 || _order == 2 */\n      dup1\n      tag_59\n      jumpi\n      pop\n        /* \"voting.sol\":3474:3475  2 */\n      0x02\n        /* \"voting.sol\":3464:3470  _order */\n      dup3\n        /* \"voting.sol\":3464:3475  _order == 2 */\n      eq\n        /* \"voting.sol\":3449:3475  _order == 1 || _order == 2 */\n    tag_59:\n        /* \"voting.sol\":3449:3490  _order == 1 || _order == 2 || _order == 3 */\n      dup1\n      tag_60\n      jumpi\n      pop\n        /* \"voting.sol\":3489:3490  3 */\n      0x03\n        /* \"voting.sol\":3479:3485  _order */\n      dup3\n        /* \"voting.sol\":3479:3490  _order == 3 */\n      eq\n        /* \"voting.sol\":3449:3490  _order == 1 || _order == 2 || _order == 3 */\n    tag_60:\n        /* \"voting.sol\":3441:3491  require(_order == 1 || _order == 2 || _order == 3) */\n      tag_61\n      jumpi\n      0x00\n      dup1\n      revert\n    tag_61:\n        /* \"voting.sol\":3519:3525  owner1 */\n      0x00\n      dup1\n      sload\n      swap1\n      0x0100\n      exp\n      swap1\n      div\n      0xffffffffffffffffffffffffffffffffffffffff\n      and\n        /* \"voting.sol\":3505:3525  msg.sender == owner1 */\n      0xffffffffffffffffffffffffffffffffffffffff\n      and\n        /* \"voting.sol\":3505:3515  msg.sender */\n      caller\n        /* \"voting.sol\":3505:3525  msg.sender == owner1 */\n      0xffffffffffffffffffffffffffffffffffffffff\n      and\n      eq\n        /* \"voting.sol\":3505:3539  msg.sender == owner1 && vote1 == 0 */\n      dup1\n      iszero\n      tag_62\n      jumpi\n      pop\n        /* \"voting.sol\":3538:3539  0 */\n      0x00\n        /* \"voting.sol\":3529:3534  vote1 */\n      0x04\n      0x02\n      swap1\n      sload\n      swap1\n      0x0100\n      exp\n      swap1\n      div\n      0xff\n      and\n        /* \"voting.sol\":3529:3539  vote1 == 0 */\n      0xff\n      and\n      eq\n        /* \"voting.sol\":3505:3539  msg.sender == owner1 && vote1 == 0 */\n    tag_62:\n        /* \"voting.sol\":3501:3800  if (msg.sender == owner1 && vote1 == 0){... */\n      iszero\n      tag_63\n      jumpi\n        /* \"voting.sol\":3568:3569  1 */\n      0x01\n        /* \"voting.sol\":3558:3564  _order */\n      dup3\n        /* \"voting.sol\":3558:3569  _order == 1 */\n      eq\n        /* \"voting.sol\":3554:3767  if (_order == 1){... */\n      iszero\n      tag_64\n      jumpi\n        /* \"voting.sol\":3588:3596  getVote1 */\n      0x04\n      0x05\n        /* \"voting.sol\":3588:3598  getVote1++ */\n      dup2\n      dup2\n      swap1\n      sload\n      swap1\n      0x0100\n      exp\n      swap1\n      div\n      0xff\n      and\n      dup1\n      swap3\n      swap2\n      swap1\n      tag_65\n      swap1\n      tag_66\n      jump\t// in\n    tag_65:\n      swap2\n      swap1\n      0x0100\n      exp\n      dup2\n      sload\n      dup2\n      0xff\n      mul\n      not\n      and\n      swap1\n      dup4\n      0xff\n      and\n      mul\n      or\n      swap1\n      sstore\n      pop\n      pop\n        /* \"voting.sol\":3554:3767  if (_order == 1){... */\n      jump(tag_67)\n    tag_64:\n        /* \"voting.sol\":3645:3646  2 */\n      0x02\n        /* \"voting.sol\":3635:3641  _order */\n      dup3\n        /* \"voting.sol\":3635:3646  _order == 2 */\n      eq\n        /* \"voting.sol\":3631:3767  if (_order == 2){... */\n      iszero\n      tag_68\n      jumpi\n        /* \"voting.sol\":3665:3673  getVote2 */\n      0x04\n      0x06\n        /* \"voting.sol\":3665:3675  getVote2++ */\n      dup2\n      dup2\n      swap1\n      sload\n      swap1\n      0x0100\n      exp\n      swap1\n      div\n      0xff\n      and\n      dup1\n      swap3\n      swap2\n      swap1\n      tag_69\n      swap1\n      tag_66\n      jump\t// in\n    tag_69:\n      swap2\n      swap1\n      0x0100\n      exp\n      dup2\n      sload\n      dup2\n      0xff\n      mul\n      not\n      and\n      swap1\n      dup4\n      0xff\n      and\n      mul\n      or\n      swap1\n      sstore\n      pop\n      pop\n        /* \"voting.sol\":3631:3767  if (_order == 2){... */\n      jump(tag_70)\n    tag_68:\n        /* \"voting.sol\":3722:3723  3 */\n      0x03\n        /* \"voting.sol\":3712:3718  _order */\n      dup3\n        /* \"voting.sol\":3712:3723  _order == 3 */\n      eq\n        /* \"voting.sol\":3708:3767  if (_order == 3){... */\n      iszero\n      tag_71\n      jumpi\n        /* \"voting.sol\":3742:3750  getVote3 */\n      0x04\n      0x07\n        /* \"voting.sol\":3742:3752  getVote3++ */\n      dup2\n      dup2\n      swap1\n      sload\n      swap1\n      0x0100\n      exp\n      swap1\n      div\n      0xff\n      and\n      dup1\n      swap3\n      swap2\n      swap1\n      tag_72\n      swap1\n      tag_66\n      jump\t// in\n    tag_72:\n      swap2\n      swap1\n      0x0100\n      exp\n      dup2\n      sload\n      dup2\n      0xff\n      mul\n      not\n      and\n      swap1\n      dup4\n      0xff\n      and\n      mul\n      or\n      swap1\n      sstore\n      pop\n      pop\n        /* \"voting.sol\":3708:3767  if (_order == 3){... */\n    tag_71:\n        /* \"voting.sol\":3631:3767  if (_order == 2){... */\n    tag_70:\n        /* \"voting.sol\":3554:3767  if (_order == 1){... */\n    tag_67:\n        /* \"voting.sol\":3788:3789  1 */\n      0x01\n        /* \"voting.sol\":3780:3785  vote1 */\n      0x04\n      0x02\n        /* \"voting.sol\":3780:3789  vote1 = 1 */\n      0x0100\n      exp\n      dup2\n      sload\n      dup2\n      0xff\n      mul\n      not\n      and\n      swap1\n      dup4\n      0xff\n      and\n      mul\n      or\n      swap1\n      sstore\n      pop\n        /* \"voting.sol\":3501:3800  if (msg.sender == owner1 && vote1 == 0){... */\n    tag_63:\n        /* \"voting.sol\":3827:3833  owner2 */\n      0x01\n      0x00\n      swap1\n      sload\n      swap1\n      0x0100\n      exp\n      swap1\n      div\n      0xffffffffffffffffffffffffffffffffffffffff\n      and\n        /* \"voting.sol\":3813:3833  msg.sender == owner2 */\n      0xffffffffffffffffffffffffffffffffffffffff\n      and\n        /* \"voting.sol\":3813:3823  msg.sender */\n      caller\n        /* \"voting.sol\":3813:3833  msg.sender == owner2 */\n      0xffffffffffffffffffffffffffffffffffffffff\n      and\n      eq\n        /* \"voting.sol\":3813:3847  msg.sender == owner2 && vote2 == 0 */\n      dup1\n      iszero\n      tag_73\n      jumpi\n      pop\n        /* \"voting.sol\":3846:3847  0 */\n      0x00\n        /* \"voting.sol\":3837:3842  vote2 */\n      0x04\n      0x03\n      swap1\n      sload\n      swap1\n      0x0100\n      exp\n      swap1\n      div\n      0xff\n      and\n        /* \"voting.sol\":3837:3847  vote2 == 0 */\n      0xff\n      and\n      eq\n        /* \"voting.sol\":3813:3847  msg.sender == owner2 && vote2 == 0 */\n    tag_73:\n        /* \"voting.sol\":3809:4108  if (msg.sender == owner2 && vote2 == 0){... */\n      iszero\n      tag_74\n      jumpi\n        /* \"voting.sol\":3876:3877  1 */\n      0x01\n        /* \"voting.sol\":3866:3872  _order */\n      dup3\n        /* \"voting.sol\":3866:3877  _order == 1 */\n      eq\n        /* \"voting.sol\":3862:4075  if (_order == 1){... */\n      iszero\n      tag_75\n      jumpi\n        /* \"voting.sol\":3896:3904  getVote1 */\n      0x04\n      0x05\n        /* \"voting.sol\":3896:3906  getVote1++ */\n      dup2\n      dup2\n      swap1\n      sload\n      swap1\n      0x0100\n      exp\n      swap1\n      div\n      0xff\n      and\n      dup1\n      swap3\n      swap2\n      swap1\n      tag_76\n      swap1\n      tag_66\n      jump\t// in\n    tag_76:\n      swap2\n      swap1\n      0x0100\n      exp\n      dup2\n      sload\n      dup2\n      0xff\n      mul\n      not\n      and\n      swap1\n      dup4\n      0xff\n      and\n      mul\n      or\n      swap1\n      sstore\n      pop\n      pop\n        /* \"voting.sol\":3862:4075  if (_order == 1){... */\n      jump(tag_77)\n    tag_75:\n        /* \"voting.sol\":3953:3954  2 */\n      0x02\n        /* \"voting.sol\":3943:3949  _order */\n      dup3\n        /* \"voting.sol\":3943:3954  _order == 2 */\n      eq\n        /* \"voting.sol\":3939:4075  if (_order == 2){... */\n      iszero\n      tag_78\n      jumpi\n        /* \"voting.sol\":3973:3981  getVote2 */\n      0x04\n      0x06\n        /* \"voting.sol\":3973:3983  getVote2++ */\n      dup2\n      dup2\n      swap1\n      sload\n      swap1\n      0x0100\n      exp\n      swap1\n      div\n      0xff\n      and\n      dup1\n      swap3\n      swap2\n      swap1\n      tag_79\n      swap1\n      tag_66\n      jump\t// in\n    tag_79:\n      swap2\n      swap1\n      0x0100\n      exp\n      dup2\n      sload\n      dup2\n      0xff\n      mul\n      not\n      and\n      swap1\n      dup4\n      0xff\n      and\n      mul\n      or\n      swap1\n      sstore\n      pop\n      pop\n        /* \"voting.sol\":3939:4075  if (_order == 2){... */\n      jump(tag_80)\n    tag_78:\n        /* \"voting.sol\":4030:4031  3 */\n      0x03\n        /* \"voting.sol\":4020:4026  _order */\n      dup3\n        /* \"voting.sol\":4020:4031  _order == 3 */\n      eq\n        /* \"voting.sol\":4016:4075  if (_order == 3){... */\n      iszero\n      tag_81\n      jumpi\n        /* \"voting.sol\":4050:4058  getVote3 */\n      0x04\n      0x07\n        /* \"voting.sol\":4050:4060  getVote3++ */\n      dup2\n      dup2\n      swap1\n      sload\n      swap1\n      0x0100\n      exp\n      swap1\n      div\n      0xff\n      and\n      dup1\n      swap3\n      swap2\n      swap1\n      tag_82\n      swap1\n      tag_66\n      jump\t// in\n    tag_82:\n      swap2\n      swap1\n      0x0100\n      exp\n      dup2\n      sload\n      dup2\n      0xff\n      mul\n      not\n      and\n      swap1\n      dup4\n      0xff\n      and\n      mul\n      or\n      swap1\n      sstore\n      pop\n      pop\n        /* \"voting.sol\":4016:4075  if (_order == 3){... */\n    tag_81:\n        /* \"voting.sol\":3939:4075  if (_order == 2){... */\n    tag_80:\n        /* \"voting.sol\":3862:4075  if (_order == 1){... */\n    tag_77:\n        /* \"voting.sol\":4096:4097  1 */\n      0x01\n        /* \"voting.sol\":4088:4093  vote2 */\n      0x04\n      0x03\n        /* \"voting.sol\":4088:4097  vote2 = 1 */\n      0x0100\n      exp\n      dup2\n      sload\n      dup2\n      0xff\n      mul\n      not\n      and\n      swap1\n      dup4\n      0xff\n      and\n      mul\n      or\n      swap1\n      sstore\n      pop\n        /* \"voting.sol\":3809:4108  if (msg.sender == owner2 && vote2 == 0){... */\n    tag_74:\n        /* \"voting.sol\":4135:4141  owner3 */\n      0x02\n      0x00\n      swap1\n      sload\n      swap1\n      0x0100\n      exp\n      swap1\n      div\n      0xffffffffffffffffffffffffffffffffffffffff\n      and\n        /* \"voting.sol\":4121:4141  msg.sender == owner3 */\n      0xffffffffffffffffffffffffffffffffffffffff\n      and\n        /* \"voting.sol\":4121:4131  msg.sender */\n      caller\n        /* \"voting.sol\":4121:4141  msg.sender == owner3 */\n      0xffffffffffffffffffffffffffffffffffffffff\n      and\n      eq\n        /* \"voting.sol\":4121:4155  msg.sender == owner3 && vote3 == 0 */\n      dup1\n      iszero\n      tag_83\n      jumpi\n      pop\n        /* \"voting.sol\":4154:4155  0 */\n      0x00\n        /* \"voting.sol\":4145:4150  vote3 */\n      0x04\n      dup1\n      sload\n      swap1\n      0x0100\n      exp\n      swap1\n      div\n      0xff\n      and\n        /* \"voting.sol\":4145:4155  vote3 == 0 */\n      0xff\n      and\n      eq\n        /* \"voting.sol\":4121:4155  msg.sender == owner3 && vote3 == 0 */\n    tag_83:\n        /* \"voting.sol\":4117:4416  if (msg.sender == owner3 && vote3 == 0){... */\n      iszero\n      tag_84\n      jumpi\n        /* \"voting.sol\":4184:4185  1 */\n      0x01\n        /* \"voting.sol\":4174:4180  _order */\n      dup3\n        /* \"voting.sol\":4174:4185  _order == 1 */\n      eq\n        /* \"voting.sol\":4170:4383  if (_order == 1){... */\n      iszero\n      tag_85\n      jumpi\n        /* \"voting.sol\":4204:4212  getVote1 */\n      0x04\n      0x05\n        /* \"voting.sol\":4204:4214  getVote1++ */\n      dup2\n      dup2\n      swap1\n      sload\n      swap1\n      0x0100\n      exp\n      swap1\n      div\n      0xff\n      and\n      dup1\n      swap3\n      swap2\n      swap1\n      tag_86\n      swap1\n      tag_66\n      jump\t// in\n    tag_86:\n      swap2\n      swap1\n      0x0100\n      exp\n      dup2\n      sload\n      dup2\n      0xff\n      mul\n      not\n      and\n      swap1\n      dup4\n      0xff\n      and\n      mul\n      or\n      swap1\n      sstore\n      pop\n      pop\n        /* \"voting.sol\":4170:4383  if (_order == 1){... */\n      jump(tag_87)\n    tag_85:\n        /* \"voting.sol\":4261:4262  2 */\n      0x02\n        /* \"voting.sol\":4251:4257  _order */\n      dup3\n        /* \"voting.sol\":4251:4262  _order == 2 */\n      eq\n        /* \"voting.sol\":4247:4383  if (_order == 2){... */\n      iszero\n      tag_88\n      jumpi\n        /* \"voting.sol\":4281:4289  getVote2 */\n      0x04\n      0x06\n        /* \"voting.sol\":4281:4291  getVote2++ */\n      dup2\n      dup2\n      swap1\n      sload\n      swap1\n      0x0100\n      exp\n      swap1\n      div\n      0xff\n      and\n      dup1\n      swap3\n      swap2\n      swap1\n      tag_89\n      swap1\n      tag_66\n      jump\t// in\n    tag_89:\n      swap2\n      swap1\n      0x0100\n      exp\n      dup2\n      sload\n      dup2\n      0xff\n      mul\n      not\n      and\n      swap1\n      dup4\n      0xff\n      and\n      mul\n      or\n      swap1\n      sstore\n      pop\n      pop\n        /* \"voting.sol\":4247:4383  if (_order == 2){... */\n      jump(tag_90)\n    tag_88:\n        /* \"voting.sol\":4338:4339  3 */\n      0x03\n        /* \"voting.sol\":4328:4334  _order */\n      dup3\n        /* \"voting.sol\":4328:4339  _order == 3 */\n      eq\n        /* \"voting.sol\":4324:4383  if (_order == 3){... */\n      iszero\n      tag_91\n      jumpi\n        /* \"voting.sol\":4358:4366  getVote3 */\n      0x04\n      0x07\n        /* \"voting.sol\":4358:4368  getVote3++ */\n      dup2\n      dup2\n      swap1\n      sload\n      swap1\n      0x0100\n      exp\n      swap1\n      div\n      0xff\n      and\n      dup1\n      swap3\n      swap2\n      swap1\n      tag_92\n      swap1\n      tag_66\n      jump\t// in\n    tag_92:\n      swap2\n      swap1\n      0x0100\n      exp\n      dup2\n      sload\n      dup2\n      0xff\n      mul\n      not\n      and\n      swap1\n      dup4\n      0xff\n      and\n      mul\n      or\n      swap1\n      sstore\n      pop\n      pop\n        /* \"voting.sol\":4324:4383  if (_order == 3){... */\n    tag_91:\n        /* \"voting.sol\":4247:4383  if (_order == 2){... */\n    tag_90:\n        /* \"voting.sol\":4170:4383  if (_order == 1){... */\n    tag_87:\n        /* \"voting.sol\":4404:4405  1 */\n      0x01\n        /* \"voting.sol\":4396:4401  vote3 */\n      0x04\n      dup1\n        /* \"voting.sol\":4396:4405  vote3 = 1 */\n      0x0100\n      exp\n      dup2\n      sload\n      dup2\n      0xff\n      mul\n      not\n      and\n      swap1\n      dup4\n      0xff\n      and\n      mul\n      or\n      swap1\n      sstore\n      pop\n        /* \"voting.sol\":4117:4416  if (msg.sender == owner3 && vote3 == 0){... */\n    tag_84:\n        /* \"voting.sol\":4447:4448  1 */\n      0x01\n        /* \"voting.sol\":4438:4443  vote1 */\n      0x04\n      0x02\n      swap1\n      sload\n      swap1\n      0x0100\n      exp\n      swap1\n      div\n      0xff\n      and\n        /* \"voting.sol\":4438:4448  vote1 == 1 */\n      0xff\n      and\n      eq\n        /* \"voting.sol\":4438:4462  vote1 == 1 && vote2 == 1 */\n      dup1\n      iszero\n      tag_93\n      jumpi\n      pop\n        /* \"voting.sol\":4461:4462  1 */\n      0x01\n        /* \"voting.sol\":4452:4457  vote2 */\n      0x04\n      0x03\n      swap1\n      sload\n      swap1\n      0x0100\n      exp\n      swap1\n      div\n      0xff\n      and\n        /* \"voting.sol\":4452:4462  vote2 == 1 */\n      0xff\n      and\n      eq\n        /* \"voting.sol\":4438:4462  vote1 == 1 && vote2 == 1 */\n    tag_93:\n        /* \"voting.sol\":4438:4476  vote1 == 1 && vote2 == 1 && vote3 == 1 */\n      dup1\n      iszero\n      tag_94\n      jumpi\n      pop\n        /* \"voting.sol\":4475:4476  1 */\n      0x01\n        /* \"voting.sol\":4466:4471  vote3 */\n      0x04\n      dup1\n      sload\n      swap1\n      0x0100\n      exp\n      swap1\n      div\n      0xff\n      and\n        /* \"voting.sol\":4466:4476  vote3 == 1 */\n      0xff\n      and\n      eq\n        /* \"voting.sol\":4438:4476  vote1 == 1 && vote2 == 1 && vote3 == 1 */\n    tag_94:\n        /* \"voting.sol\":4438:4505  vote1 == 1 && vote2 == 1 && vote3 == 1 && realOwner == address(0x0) */\n      dup1\n      iszero\n      tag_95\n      jumpi\n      pop\n        /* \"voting.sol\":4501:4504  0x0 */\n      0x00\n        /* \"voting.sol\":4480:4505  realOwner == address(0x0) */\n      0xffffffffffffffffffffffffffffffffffffffff\n      and\n        /* \"voting.sol\":4480:4489  realOwner */\n      0x04\n      0x08\n      swap1\n      sload\n      swap1\n      0x0100\n      exp\n      swap1\n      div\n      0xffffffffffffffffffffffffffffffffffffffff\n      and\n        /* \"voting.sol\":4480:4505  realOwner == address(0x0) */\n      0xffffffffffffffffffffffffffffffffffffffff\n      and\n      eq\n        /* \"voting.sol\":4438:4505  vote1 == 1 && vote2 == 1 && vote3 == 1 && realOwner == address(0x0) */\n    tag_95:\n        /* \"voting.sol\":4434:5090  if (vote1 == 1 && vote2 == 1 && vote3 == 1 && realOwner == address(0x0)){... */\n      iszero\n      tag_96\n      jumpi\n        /* \"voting.sol\":4536:4537  2 */\n      0x02\n        /* \"voting.sol\":4524:4532  getVote1 */\n      0x04\n      0x05\n      swap1\n      sload\n      swap1\n      0x0100\n      exp\n      swap1\n      div\n      0xff\n      and\n        /* \"voting.sol\":4524:4537  getVote1 >= 2 */\n      0xff\n      and\n      lt\n        /* \"voting.sol\":4520:4763  if (getVote1 >= 2){... */\n      tag_97\n      jumpi\n        /* \"voting.sol\":4568:4574  owner1 */\n      0x00\n      dup1\n      sload\n      swap1\n      0x0100\n      exp\n      swap1\n      div\n      0xffffffffffffffffffffffffffffffffffffffff\n      and\n        /* \"voting.sol\":4556:4565  realOwner */\n      0x04\n      0x08\n        /* \"voting.sol\":4556:4574  realOwner = owner1 */\n      0x0100\n      exp\n      dup2\n      sload\n      dup2\n      0xffffffffffffffffffffffffffffffffffffffff\n      mul\n      not\n      and\n      swap1\n      dup4\n      0xffffffffffffffffffffffffffffffffffffffff\n      and\n      mul\n      or\n      swap1\n      sstore\n      pop\n        /* \"voting.sol\":4520:4763  if (getVote1 >= 2){... */\n      jump(tag_98)\n    tag_97:\n        /* \"voting.sol\":4623:4624  2 */\n      0x02\n        /* \"voting.sol\":4611:4619  getVote2 */\n      0x04\n      0x06\n      swap1\n      sload\n      swap1\n      0x0100\n      exp\n      swap1\n      div\n      0xff\n      and\n        /* \"voting.sol\":4611:4624  getVote2 >= 2 */\n      0xff\n      and\n      lt\n        /* \"voting.sol\":4607:4763  if (getVote2 >= 2){... */\n      tag_99\n      jumpi\n        /* \"voting.sol\":4655:4661  owner2 */\n      0x01\n      0x00\n      swap1\n      sload\n      swap1\n      0x0100\n      exp\n      swap1\n      div\n      0xffffffffffffffffffffffffffffffffffffffff\n      and\n        /* \"voting.sol\":4643:4652  realOwner */\n      0x04\n      0x08\n        /* \"voting.sol\":4643:4661  realOwner = owner2 */\n      0x0100\n      exp\n      dup2\n      sload\n      dup2\n      0xffffffffffffffffffffffffffffffffffffffff\n      mul\n      not\n      and\n      swap1\n      dup4\n      0xffffffffffffffffffffffffffffffffffffffff\n      and\n      mul\n      or\n      swap1\n      sstore\n      pop\n        /* \"voting.sol\":4607:4763  if (getVote2 >= 2){... */\n      jump(tag_100)\n    tag_99:\n        /* \"voting.sol\":4710:4711  2 */\n      0x02\n        /* \"voting.sol\":4698:4706  getVote3 */\n      0x04\n      0x07\n      swap1\n      sload\n      swap1\n      0x0100\n      exp\n      swap1\n      div\n      0xff\n      and\n        /* \"voting.sol\":4698:4711  getVote3 >= 2 */\n      0xff\n      and\n      lt\n        /* \"voting.sol\":4694:4763  if (getVote3 >= 2){... */\n      tag_101\n      jumpi\n        /* \"voting.sol\":4742:4748  owner3 */\n      0x02\n      0x00\n      swap1\n      sload\n      swap1\n      0x0100\n      exp\n      swap1\n      div\n      0xffffffffffffffffffffffffffffffffffffffff\n      and\n        /* \"voting.sol\":4730:4739  realOwner */\n      0x04\n      0x08\n        /* \"voting.sol\":4730:4748  realOwner = owner3 */\n      0x0100\n      exp\n      dup2\n      sload\n      dup2\n      0xffffffffffffffffffffffffffffffffffffffff\n      mul\n      not\n      and\n      swap1\n      dup4\n      0xffffffffffffffffffffffffffffffffffffffff\n      and\n      mul\n      or\n      swap1\n      sstore\n      pop\n        /* \"voting.sol\":4694:4763  if (getVote3 >= 2){... */\n    tag_101:\n        /* \"voting.sol\":4607:4763  if (getVote2 >= 2){... */\n    tag_100:\n        /* \"voting.sol\":4520:4763  if (getVote1 >= 2){... */\n    tag_98:\n        /* \"voting.sol\":4784:4785  0 */\n      0x00\n        /* \"voting.sol\":4776:4781  vote1 */\n      0x04\n      0x02\n        /* \"voting.sol\":4776:4785  vote1 = 0 */\n      0x0100\n      exp\n      dup2\n      sload\n      dup2\n      0xff\n      mul\n      not\n      and\n      swap1\n      dup4\n      0xff\n      and\n      mul\n      or\n      swap1\n      sstore\n      pop\n        /* \"voting.sol\":4807:4808  0 */\n      0x00\n        /* \"voting.sol\":4799:4804  vote2 */\n      0x04\n      0x03\n        /* \"voting.sol\":4799:4808  vote2 = 0 */\n      0x0100\n      exp\n      dup2\n      sload\n      dup2\n      0xff\n      mul\n      not\n      and\n      swap1\n      dup4\n      0xff\n      and\n      mul\n      or\n      swap1\n      sstore\n      pop\n        /* \"voting.sol\":4830:4831  0 */\n      0x00\n        /* \"voting.sol\":4822:4827  vote3 */\n      0x04\n      dup1\n        /* \"voting.sol\":4822:4831  vote3 = 0 */\n      0x0100\n      exp\n      dup2\n      sload\n      dup2\n      0xff\n      mul\n      not\n      and\n      swap1\n      dup4\n      0xff\n      and\n      mul\n      or\n      swap1\n      sstore\n      pop\n        /* \"voting.sol\":4856:4857  0 */\n      0x00\n        /* \"voting.sol\":4845:4853  getVote1 */\n      0x04\n      0x05\n        /* \"voting.sol\":4845:4857  getVote1 = 0 */\n      0x0100\n      exp\n      dup2\n      sload\n      dup2\n      0xff\n      mul\n      not\n      and\n      swap1\n      dup4\n      0xff\n      and\n      mul\n      or\n      swap1\n      sstore\n      pop\n        /* \"voting.sol\":4882:4883  0 */\n      0x00\n        /* \"voting.sol\":4871:4879  getVote2 */\n      0x04\n      0x06\n        /* \"voting.sol\":4871:4883  getVote2 = 0 */\n      0x0100\n      exp\n      dup2\n      sload\n      dup2\n      0xff\n      mul\n      not\n      and\n      swap1\n      dup4\n      0xff\n      and\n      mul\n      or\n      swap1\n      sstore\n      pop\n        /* \"voting.sol\":4908:4909  0 */\n      0x00\n        /* \"voting.sol\":4897:4905  getVote3 */\n      0x04\n      0x07\n        /* \"voting.sol\":4897:4909  getVote3 = 0 */\n      0x0100\n      exp\n      dup2\n      sload\n      dup2\n      0xff\n      mul\n      not\n      and\n      swap1\n      dup4\n      0xff\n      and\n      mul\n      or\n      swap1\n      sstore\n      pop\n        /* \"voting.sol\":4948:4951  0x0 */\n      0x00\n        /* \"voting.sol\":4927:4952  realOwner == address(0x0) */\n      0xffffffffffffffffffffffffffffffffffffffff\n      and\n        /* \"voting.sol\":4927:4936  realOwner */\n      0x04\n      0x08\n      swap1\n      sload\n      swap1\n      0x0100\n      exp\n      swap1\n      div\n      0xffffffffffffffffffffffffffffffffffffffff\n      and\n        /* \"voting.sol\":4927:4952  realOwner == address(0x0) */\n      0xffffffffffffffffffffffffffffffffffffffff\n      and\n      eq\n        /* \"voting.sol\":4923:5004  if (realOwner == address(0x0)){... */\n      iszero\n      tag_102\n      jumpi\n        /* \"voting.sol\":4983:4989  owner1 */\n      0x00\n      dup1\n      sload\n      swap1\n      0x0100\n      exp\n      swap1\n      div\n      0xffffffffffffffffffffffffffffffffffffffff\n      and\n        /* \"voting.sol\":4971:4980  realOwner */\n      0x04\n      0x08\n        /* \"voting.sol\":4971:4989  realOwner = owner1 */\n      0x0100\n      exp\n      dup2\n      sload\n      dup2\n      0xffffffffffffffffffffffffffffffffffffffff\n      mul\n      not\n      and\n      swap1\n      dup4\n      0xffffffffffffffffffffffffffffffffffffffff\n      and\n      mul\n      or\n      swap1\n      sstore\n      pop\n        /* \"voting.sol\":4923:5004  if (realOwner == address(0x0)){... */\n    tag_102:\n        /* \"voting.sol\":5024:5028  true */\n      0x01\n        /* \"voting.sol\":5017:5028  return true */\n      swap1\n      pop\n      jump(tag_58)\n        /* \"voting.sol\":4434:5090  if (vote1 == 1 && vote2 == 1 && vote3 == 1 && realOwner == address(0x0)){... */\n    tag_96:\n        /* \"voting.sol\":5074:5079  false */\n      0x00\n        /* \"voting.sol\":5067:5079  return false */\n      swap1\n      pop\n        /* \"voting.sol\":397:398  _ */\n    tag_58:\n        /* \"voting.sol\":3373:5096  function vote(uint _order) onlyOwner public returns(bool) {... */\n      swap2\n      swap1\n      pop\n      jump\t// out\n        /* \"voting.sol\":5328:5404  function getValue() public view returns (uint8){... */\n    tag_20:\n        /* \"voting.sol\":5369:5374  uint8 */\n      0x00\n        /* \"voting.sol\":5392:5397  value */\n      0x04\n      0x1c\n      swap1\n      sload\n      swap1\n      0x0100\n      exp\n      swap1\n      div\n      0xff\n      and\n        /* \"voting.sol\":5385:5397  return value */\n      swap1\n      pop\n        /* \"voting.sol\":5328:5404  function getValue() public view returns (uint8){... */\n      swap1\n      jump\t// out\n        /* \"voting.sol\":2467:3035  function becomeOwner(address _person) public returns (bool){... */\n    tag_26:\n        /* \"voting.sol\":2521:2525  bool */\n      0x00\n        /* \"voting.sol\":2554:2555  3 */\n      0x03\n        /* \"voting.sol\":2540:2550  ownerCount */\n      0x04\n      0x00\n      swap1\n      sload\n      swap1\n      0x0100\n      exp\n      swap1\n      div\n      0xff\n      and\n        /* \"voting.sol\":2540:2555  ownerCount == 3 */\n      0xff\n      and\n      eq\n        /* \"voting.sol\":2536:2593  if (ownerCount == 3){... */\n      iszero\n      tag_106\n      jumpi\n        /* \"voting.sol\":2577:2582  false */\n      0x00\n        /* \"voting.sol\":2570:2582  return false */\n      swap1\n      pop\n      jump(tag_105)\n        /* \"voting.sol\":2536:2593  if (ownerCount == 3){... */\n    tag_106:\n        /* \"voting.sol\":2620:2621  0 */\n      0x00\n        /* \"voting.sol\":2606:2616  ownerCount */\n      0x04\n      0x00\n      swap1\n      sload\n      swap1\n      0x0100\n      exp\n      swap1\n      div\n      0xff\n      and\n        /* \"voting.sol\":2606:2621  ownerCount == 0 */\n      0xff\n      and\n      eq\n        /* \"voting.sol\":2602:3029  if (ownerCount == 0){... */\n      iszero\n      tag_107\n      jumpi\n        /* \"voting.sol\":2645:2652  _person */\n      dup2\n        /* \"voting.sol\":2636:2642  owner1 */\n      0x00\n      dup1\n        /* \"voting.sol\":2636:2652  owner1 = _person */\n      0x0100\n      exp\n      dup2\n      sload\n      dup2\n      0xffffffffffffffffffffffffffffffffffffffff\n      mul\n      not\n      and\n      swap1\n      dup4\n      0xffffffffffffffffffffffffffffffffffffffff\n      and\n      mul\n      or\n      swap1\n      sstore\n      pop\n        /* \"voting.sol\":2666:2676  ownerCount */\n      0x04\n      0x00\n        /* \"voting.sol\":2666:2678  ownerCount++ */\n      dup2\n      dup2\n      swap1\n      sload\n      swap1\n      0x0100\n      exp\n      swap1\n      div\n      0xff\n      and\n      dup1\n      swap3\n      swap2\n      swap1\n      tag_108\n      swap1\n      tag_66\n      jump\t// in\n    tag_108:\n      swap2\n      swap1\n      0x0100\n      exp\n      dup2\n      sload\n      dup2\n      0xff\n      mul\n      not\n      and\n      swap1\n      dup4\n      0xff\n      and\n      mul\n      or\n      swap1\n      sstore\n      pop\n      pop\n        /* \"voting.sol\":2699:2703  true */\n      0x01\n        /* \"voting.sol\":2692:2703  return true */\n      swap1\n      pop\n      jump(tag_105)\n        /* \"voting.sol\":2602:3029  if (ownerCount == 0){... */\n    tag_107:\n        /* \"voting.sol\":2746:2747  1 */\n      0x01\n        /* \"voting.sol\":2732:2742  ownerCount */\n      0x04\n      0x00\n      swap1\n      sload\n      swap1\n      0x0100\n      exp\n      swap1\n      div\n      0xff\n      and\n        /* \"voting.sol\":2732:2747  ownerCount == 1 */\n      0xff\n      and\n      eq\n        /* \"voting.sol\":2732:2768  ownerCount == 1 && owner1 != _person */\n      dup1\n      iszero\n      tag_110\n      jumpi\n      pop\n        /* \"voting.sol\":2761:2768  _person */\n      dup2\n        /* \"voting.sol\":2751:2768  owner1 != _person */\n      0xffffffffffffffffffffffffffffffffffffffff\n      and\n        /* \"voting.sol\":2751:2757  owner1 */\n      0x00\n      dup1\n      sload\n      swap1\n      0x0100\n      exp\n      swap1\n      div\n      0xffffffffffffffffffffffffffffffffffffffff\n      and\n        /* \"voting.sol\":2751:2768  owner1 != _person */\n      0xffffffffffffffffffffffffffffffffffffffff\n      and\n      eq\n      iszero\n        /* \"voting.sol\":2732:2768  ownerCount == 1 && owner1 != _person */\n    tag_110:\n        /* \"voting.sol\":2728:3029  if (ownerCount == 1 && owner1 != _person){... */\n      iszero\n      tag_111\n      jumpi\n        /* \"voting.sol\":2792:2799  _person */\n      dup2\n        /* \"voting.sol\":2783:2789  owner2 */\n      0x01\n      0x00\n        /* \"voting.sol\":2783:2799  owner2 = _person */\n      0x0100\n      exp\n      dup2\n      sload\n      dup2\n      0xffffffffffffffffffffffffffffffffffffffff\n      mul\n      not\n      and\n      swap1\n      dup4\n      0xffffffffffffffffffffffffffffffffffffffff\n      and\n      mul\n      or\n      swap1\n      sstore\n      pop\n        /* \"voting.sol\":2813:2823  ownerCount */\n      0x04\n      0x00\n        /* \"voting.sol\":2813:2825  ownerCount++ */\n      dup2\n      dup2\n      swap1\n      sload\n      swap1\n      0x0100\n      exp\n      swap1\n      div\n      0xff\n      and\n      dup1\n      swap3\n      swap2\n      swap1\n      tag_112\n      swap1\n      tag_66\n      jump\t// in\n    tag_112:\n      swap2\n      swap1\n      0x0100\n      exp\n      dup2\n      sload\n      dup2\n      0xff\n      mul\n      not\n      and\n      swap1\n      dup4\n      0xff\n      and\n      mul\n      or\n      swap1\n      sstore\n      pop\n      pop\n        /* \"voting.sol\":2846:2850  true */\n      0x01\n        /* \"voting.sol\":2839:2850  return true */\n      swap1\n      pop\n      jump(tag_105)\n        /* \"voting.sol\":2728:3029  if (ownerCount == 1 && owner1 != _person){... */\n    tag_111:\n        /* \"voting.sol\":2893:2894  2 */\n      0x02\n        /* \"voting.sol\":2879:2889  ownerCount */\n      0x04\n      0x00\n      swap1\n      sload\n      swap1\n      0x0100\n      exp\n      swap1\n      div\n      0xff\n      and\n        /* \"voting.sol\":2879:2894  ownerCount == 2 */\n      0xff\n      and\n      eq\n        /* \"voting.sol\":2879:2915  ownerCount == 2 && owner1 != _person */\n      dup1\n      iszero\n      tag_114\n      jumpi\n      pop\n        /* \"voting.sol\":2908:2915  _person */\n      dup2\n        /* \"voting.sol\":2898:2915  owner1 != _person */\n      0xffffffffffffffffffffffffffffffffffffffff\n      and\n        /* \"voting.sol\":2898:2904  owner1 */\n      0x00\n      dup1\n      sload\n      swap1\n      0x0100\n      exp\n      swap1\n      div\n      0xffffffffffffffffffffffffffffffffffffffff\n      and\n        /* \"voting.sol\":2898:2915  owner1 != _person */\n      0xffffffffffffffffffffffffffffffffffffffff\n      and\n      eq\n      iszero\n        /* \"voting.sol\":2879:2915  ownerCount == 2 && owner1 != _person */\n    tag_114:\n        /* \"voting.sol\":2879:2936  ownerCount == 2 && owner1 != _person && owner2 != _person */\n      dup1\n      iszero\n      tag_115\n      jumpi\n      pop\n        /* \"voting.sol\":2929:2936  _person */\n      dup2\n        /* \"voting.sol\":2919:2936  owner2 != _person */\n      0xffffffffffffffffffffffffffffffffffffffff\n      and\n        /* \"voting.sol\":2919:2925  owner2 */\n      0x01\n      0x00\n      swap1\n      sload\n      swap1\n      0x0100\n      exp\n      swap1\n      div\n      0xffffffffffffffffffffffffffffffffffffffff\n      and\n        /* \"voting.sol\":2919:2936  owner2 != _person */\n      0xffffffffffffffffffffffffffffffffffffffff\n      and\n      eq\n      iszero\n        /* \"voting.sol\":2879:2936  ownerCount == 2 && owner1 != _person && owner2 != _person */\n    tag_115:\n        /* \"voting.sol\":2875:3029  if (ownerCount == 2 && owner1 != _person && owner2 != _person){... */\n      iszero\n      tag_116\n      jumpi\n        /* \"voting.sol\":2960:2967  _person */\n      dup2\n        /* \"voting.sol\":2951:2957  owner3 */\n      0x02\n      0x00\n        /* \"voting.sol\":2951:2967  owner3 = _person */\n      0x0100\n      exp\n      dup2\n      sload\n      dup2\n      0xffffffffffffffffffffffffffffffffffffffff\n      mul\n      not\n      and\n      swap1\n      dup4\n      0xffffffffffffffffffffffffffffffffffffffff\n      and\n      mul\n      or\n      swap1\n      sstore\n      pop\n        /* \"voting.sol\":2981:2991  ownerCount */\n      0x04\n      0x00\n        /* \"voting.sol\":2981:2993  ownerCount++ */\n      dup2\n      dup2\n      swap1\n      sload\n      swap1\n      0x0100\n      exp\n      swap1\n      div\n      0xff\n      and\n      dup1\n      swap3\n      swap2\n      swap1\n      tag_117\n      swap1\n      tag_66\n      jump\t// in\n    tag_117:\n      swap2\n      swap1\n      0x0100\n      exp\n      dup2\n      sload\n      dup2\n      0xff\n      mul\n      not\n      and\n      swap1\n      dup4\n      0xff\n      and\n      mul\n      or\n      swap1\n      sstore\n      pop\n      pop\n        /* \"voting.sol\":3014:3018  true */\n      0x01\n        /* \"voting.sol\":3007:3018  return true */\n      swap1\n      pop\n      jump(tag_105)\n        /* \"voting.sol\":2875:3029  if (ownerCount == 2 && owner1 != _person && owner2 != _person){... */\n    tag_116:\n        /* \"voting.sol\":2467:3035  function becomeOwner(address _person) public returns (bool){... */\n    tag_105:\n      swap2\n      swap1\n      pop\n      jump\t// out\n        /* \"voting.sol\":5410:5522  function setValue(uint8 _val) checkOwner public returns (bool){... */\n    tag_31:\n        /* \"voting.sol\":5467:5471  bool */\n      0x00\n        /* \"voting.sol\":1379:1388  realOwner */\n      0x04\n      0x08\n      swap1\n      sload\n      swap1\n      0x0100\n      exp\n      swap1\n      div\n      0xffffffffffffffffffffffffffffffffffffffff\n      and\n        /* \"voting.sol\":1365:1388  msg.sender == realOwner */\n      0xffffffffffffffffffffffffffffffffffffffff\n      and\n        /* \"voting.sol\":1365:1375  msg.sender */\n      caller\n        /* \"voting.sol\":1365:1388  msg.sender == realOwner */\n      0xffffffffffffffffffffffffffffffffffffffff\n      and\n      eq\n        /* \"voting.sol\":1357:1389  require(msg.sender == realOwner) */\n      tag_119\n      jumpi\n      0x00\n      dup1\n      revert\n    tag_119:\n        /* \"voting.sol\":5490:5494  _val */\n      dup2\n        /* \"voting.sol\":5482:5487  value */\n      0x04\n      0x1c\n        /* \"voting.sol\":5482:5494  value = _val */\n      0x0100\n      exp\n      dup2\n      sload\n      dup2\n      0xff\n      mul\n      not\n      and\n      swap1\n      dup4\n      0xff\n      and\n      mul\n      or\n      swap1\n      sstore\n      pop\n        /* \"voting.sol\":5511:5515  true */\n      0x01\n        /* \"voting.sol\":5504:5515  return true */\n      swap1\n      pop\n        /* \"voting.sol\":5410:5522  function setValue(uint8 _val) checkOwner public returns (bool){... */\n      swap2\n      swap1\n      pop\n      jump\t// out\n        /* \"voting.sol\":1953:2461  function getStatus() public view returns(Status memory){... */\n    tag_34:\n        /* \"voting.sol\":1994:2007  Status memory */\n      tag_121\n      tag_122\n      jump\t// in\n    tag_121:\n        /* \"voting.sol\":2018:2038  Status memory status */\n      tag_124\n      tag_122\n      jump\t// in\n    tag_124:\n        /* \"voting.sol\":2069:2079  ownerCount */\n      0x04\n      0x00\n      swap1\n      sload\n      swap1\n      0x0100\n      exp\n      swap1\n      div\n      0xff\n      and\n        /* \"voting.sol\":2048:2054  status */\n      dup2\n        /* \"voting.sol\":2048:2066  status.sownerCount */\n      0x00\n      add\n        /* \"voting.sol\":2048:2079  status.sownerCount = ownerCount */\n      swap1\n      0xff\n      and\n      swap1\n      dup2\n      0xff\n      and\n      dup2\n      mstore\n      pop\n      pop\n        /* \"voting.sol\":2109:2118  voteCount */\n      0x04\n      0x01\n      swap1\n      sload\n      swap1\n      0x0100\n      exp\n      swap1\n      div\n      0xff\n      and\n        /* \"voting.sol\":2089:2095  status */\n      dup2\n        /* \"voting.sol\":2089:2106  status.svoteCount */\n      0x20\n      add\n        /* \"voting.sol\":2089:2118  status.svoteCount = voteCount */\n      swap1\n      0xff\n      and\n      swap1\n      dup2\n      0xff\n      and\n      dup2\n      mstore\n      pop\n      pop\n        /* \"voting.sol\":2144:2149  vote1 */\n      0x04\n      0x02\n      swap1\n      sload\n      swap1\n      0x0100\n      exp\n      swap1\n      div\n      0xff\n      and\n        /* \"voting.sol\":2128:2134  status */\n      dup2\n        /* \"voting.sol\":2128:2141  status.svote1 */\n      0x40\n      add\n        /* \"voting.sol\":2128:2149  status.svote1 = vote1 */\n      swap1\n      0xff\n      and\n      swap1\n      dup2\n      0xff\n      and\n      dup2\n      mstore\n      pop\n      pop\n        /* \"voting.sol\":2175:2180  vote2 */\n      0x04\n      0x03\n      swap1\n      sload\n      swap1\n      0x0100\n      exp\n      swap1\n      div\n      0xff\n      and\n        /* \"voting.sol\":2159:2165  status */\n      dup2\n        /* \"voting.sol\":2159:2172  status.svote2 */\n      0x60\n      add\n        /* \"voting.sol\":2159:2180  status.svote2 = vote2 */\n      swap1\n      0xff\n      and\n      swap1\n      dup2\n      0xff\n      and\n      dup2\n      mstore\n      pop\n      pop\n        /* \"voting.sol\":2206:2211  vote3 */\n      0x04\n      dup1\n      sload\n      swap1\n      0x0100\n      exp\n      swap1\n      div\n      0xff\n      and\n        /* \"voting.sol\":2190:2196  status */\n      dup2\n        /* \"voting.sol\":2190:2203  status.svote3 */\n      0x80\n      add\n        /* \"voting.sol\":2190:2211  status.svote3 = vote3 */\n      swap1\n      0xff\n      and\n      swap1\n      dup2\n      0xff\n      and\n      dup2\n      mstore\n      pop\n      pop\n        /* \"voting.sol\":2240:2248  getVote1 */\n      0x04\n      0x05\n      swap1\n      sload\n      swap1\n      0x0100\n      exp\n      swap1\n      div\n      0xff\n      and\n        /* \"voting.sol\":2221:2227  status */\n      dup2\n        /* \"voting.sol\":2221:2237  status.sgetVote1 */\n      0xa0\n      add\n        /* \"voting.sol\":2221:2248  status.sgetVote1 = getVote1 */\n      swap1\n      0xff\n      and\n      swap1\n      dup2\n      0xff\n      and\n      dup2\n      mstore\n      pop\n      pop\n        /* \"voting.sol\":2277:2285  getVote2 */\n      0x04\n      0x06\n      swap1\n      sload\n      swap1\n      0x0100\n      exp\n      swap1\n      div\n      0xff\n      and\n        /* \"voting.sol\":2258:2264  status */\n      dup2\n        /* \"voting.sol\":2258:2274  status.sgetVote2 */\n      0xc0\n      add\n        /* \"voting.sol\":2258:2285  status.sgetVote2 = getVote2 */\n      swap1\n      0xff\n      and\n      swap1\n      dup2\n      0xff\n      and\n      dup2\n      mstore\n      pop\n      pop\n        /* \"voting.sol\":2314:2322  getVote3 */\n      0x04\n      0x07\n      swap1\n      sload\n      swap1\n      0x0100\n      exp\n      swap1\n      div\n      0xff\n      and\n        /* \"voting.sol\":2295:2301  status */\n      dup2\n        /* \"voting.sol\":2295:2311  status.sgetVote3 */\n      0xe0\n      add\n        /* \"voting.sol\":2295:2322  status.sgetVote3 = getVote3 */\n      swap1\n      0xff\n      and\n      swap1\n      dup2\n      0xff\n      and\n      dup2\n      mstore\n      pop\n      pop\n        /* \"voting.sol\":2352:2361  realOwner */\n      0x04\n      0x08\n      swap1\n      sload\n      swap1\n      0x0100\n      exp\n      swap1\n      div\n      0xffffffffffffffffffffffffffffffffffffffff\n      and\n        /* \"voting.sol\":2332:2338  status */\n      dup2\n        /* \"voting.sol\":2332:2349  status.srealOwner */\n      0x0100\n      add\n        /* \"voting.sol\":2332:2361  status.srealOwner = realOwner */\n      swap1\n      0xffffffffffffffffffffffffffffffffffffffff\n      and\n      swap1\n      dup2\n      0xffffffffffffffffffffffffffffffffffffffff\n      and\n      dup2\n      mstore\n      pop\n      pop\n        /* \"voting.sol\":2387:2392  value */\n      0x04\n      0x1c\n      swap1\n      sload\n      swap1\n      0x0100\n      exp\n      swap1\n      div\n      0xff\n      and\n        /* \"voting.sol\":2371:2377  status */\n      dup2\n        /* \"voting.sol\":2371:2384  status.svalue */\n      0x0120\n      add\n        /* \"voting.sol\":2371:2392  status.svalue = value */\n      swap1\n      0xff\n      and\n      swap1\n      dup2\n      0xff\n      and\n      dup2\n      mstore\n      pop\n      pop\n        /* \"voting.sol\":2416:2431  block.timestamp */\n      timestamp\n        /* \"voting.sol\":2402:2408  status */\n      dup2\n        /* \"voting.sol\":2402:2413  status.time */\n      0x0140\n      add\n        /* \"voting.sol\":2402:2431  status.time = block.timestamp */\n      dup2\n      dup2\n      mstore\n      pop\n      pop\n        /* \"voting.sol\":2448:2454  status */\n      dup1\n        /* \"voting.sol\":2441:2454  return status */\n      swap2\n      pop\n      pop\n        /* \"voting.sol\":1953:2461  function getStatus() public view returns(Status memory){... */\n      swap1\n      jump\t// out\n        /* \"voting.sol\":3041:3367  function showOwner(uint _order) public view returns (address) {... */\n    tag_39:\n        /* \"voting.sol\":3094:3101  address */\n      0x00\n        /* \"voting.sol\":3127:3128  1 */\n      0x01\n        /* \"voting.sol\":3117:3123  _order */\n      dup3\n        /* \"voting.sol\":3117:3128  _order == 1 */\n      eq\n        /* \"voting.sol\":3113:3361  if (_order == 1){... */\n      iszero\n      tag_126\n      jumpi\n        /* \"voting.sol\":3150:3156  owner1 */\n      0x00\n      dup1\n      sload\n      swap1\n      0x0100\n      exp\n      swap1\n      div\n      0xffffffffffffffffffffffffffffffffffffffff\n      and\n        /* \"voting.sol\":3143:3156  return owner1 */\n      swap1\n      pop\n      jump(tag_125)\n        /* \"voting.sol\":3113:3361  if (_order == 1){... */\n    tag_126:\n        /* \"voting.sol\":3195:3196  2 */\n      0x02\n        /* \"voting.sol\":3185:3191  _order */\n      dup3\n        /* \"voting.sol\":3185:3196  _order == 2 */\n      eq\n        /* \"voting.sol\":3181:3361  if (_order == 2){... */\n      iszero\n      tag_128\n      jumpi\n        /* \"voting.sol\":3218:3224  owner2 */\n      0x01\n      0x00\n      swap1\n      sload\n      swap1\n      0x0100\n      exp\n      swap1\n      div\n      0xffffffffffffffffffffffffffffffffffffffff\n      and\n        /* \"voting.sol\":3211:3224  return owner2 */\n      swap1\n      pop\n      jump(tag_125)\n        /* \"voting.sol\":3181:3361  if (_order == 2){... */\n    tag_128:\n        /* \"voting.sol\":3263:3264  3 */\n      0x03\n        /* \"voting.sol\":3253:3259  _order */\n      dup3\n        /* \"voting.sol\":3253:3264  _order == 3 */\n      eq\n        /* \"voting.sol\":3249:3361  if (_order == 3){... */\n      iszero\n      tag_130\n      jumpi\n        /* \"voting.sol\":3286:3292  owner3 */\n      0x02\n      0x00\n      swap1\n      sload\n      swap1\n      0x0100\n      exp\n      swap1\n      div\n      0xffffffffffffffffffffffffffffffffffffffff\n      and\n        /* \"voting.sol\":3279:3292  return owner3 */\n      swap1\n      pop\n      jump(tag_125)\n        /* \"voting.sol\":3249:3361  if (_order == 3){... */\n    tag_130:\n        /* \"voting.sol\":3346:3349  0x0 */\n      0x00\n        /* \"voting.sol\":3331:3350  return address(0x0) */\n      swap1\n      pop\n        /* \"voting.sol\":3041:3367  function showOwner(uint _order) public view returns (address) {... */\n    tag_125:\n      swap2\n      swap1\n      pop\n      jump\t// out\n        /* \"voting.sol\":5102:5322  function showRealOwner(address _person) public view returns (string memory){... */\n    tag_44:\n        /* \"voting.sol\":5163:5176  string memory */\n      0x60\n        /* \"voting.sol\":5204:5211  _person */\n      dup2\n        /* \"voting.sol\":5191:5211  realOwner == _person */\n      0xffffffffffffffffffffffffffffffffffffffff\n      and\n        /* \"voting.sol\":5191:5200  realOwner */\n      0x04\n      0x08\n      swap1\n      sload\n      swap1\n      0x0100\n      exp\n      swap1\n      div\n      0xffffffffffffffffffffffffffffffffffffffff\n      and\n        /* \"voting.sol\":5191:5211  realOwner == _person */\n      0xffffffffffffffffffffffffffffffffffffffff\n      and\n      eq\n        /* \"voting.sol\":5187:5316  if (realOwner == _person){... */\n      iszero\n      tag_133\n      jumpi\n        /* \"voting.sol\":5226:5244  return \"realOwner\" */\n      mload(0x40)\n      dup1\n      0x40\n      add\n      0x40\n      mstore\n      dup1\n      0x09\n      dup2\n      mstore\n      0x20\n      add\n      0x7265616c4f776e65720000000000000000000000000000000000000000000000\n      dup2\n      mstore\n      pop\n      swap1\n      pop\n      jump(tag_132)\n        /* \"voting.sol\":5187:5316  if (realOwner == _person){... */\n    tag_133:\n        /* \"voting.sol\":5283:5305  return \"Not realOwner\" */\n      mload(0x40)\n      dup1\n      0x40\n      add\n      0x40\n      mstore\n      dup1\n      0x0d\n      dup2\n      mstore\n      0x20\n      add\n      0x4e6f74207265616c4f776e657200000000000000000000000000000000000000\n      dup2\n      mstore\n      pop\n      swap1\n      pop\n        /* \"voting.sol\":5102:5322  function showRealOwner(address _person) public view returns (string memory){... */\n    tag_132:\n      swap2\n      swap1\n      pop\n      jump\t// out\n        /* \"voting.sol\":5528:6505  function lastMethod(uint8 _order) onlyOwner public returns (bool){... */\n    tag_49:\n        /* \"voting.sol\":5588:5592  bool */\n      0x00\n        /* \"voting.sol\":338:344  owner1 */\n      dup1\n      0x00\n      swap1\n      sload\n      swap1\n      0x0100\n      exp\n      swap1\n      div\n      0xffffffffffffffffffffffffffffffffffffffff\n      and\n        /* \"voting.sol\":324:344  msg.sender == owner1 */\n      0xffffffffffffffffffffffffffffffffffffffff\n      and\n        /* \"voting.sol\":324:334  msg.sender */\n      caller\n        /* \"voting.sol\":324:344  msg.sender == owner1 */\n      0xffffffffffffffffffffffffffffffffffffffff\n      and\n      eq\n        /* \"voting.sol\":324:368  msg.sender == owner1 || msg.sender == owner2 */\n      dup1\n      tag_136\n      jumpi\n      pop\n        /* \"voting.sol\":362:368  owner2 */\n      0x01\n      0x00\n      swap1\n      sload\n      swap1\n      0x0100\n      exp\n      swap1\n      div\n      0xffffffffffffffffffffffffffffffffffffffff\n      and\n        /* \"voting.sol\":348:368  msg.sender == owner2 */\n      0xffffffffffffffffffffffffffffffffffffffff\n      and\n        /* \"voting.sol\":348:358  msg.sender */\n      caller\n        /* \"voting.sol\":348:368  msg.sender == owner2 */\n      0xffffffffffffffffffffffffffffffffffffffff\n      and\n      eq\n        /* \"voting.sol\":324:368  msg.sender == owner1 || msg.sender == owner2 */\n    tag_136:\n        /* \"voting.sol\":324:392  msg.sender == owner1 || msg.sender == owner2 || msg.sender == owner3 */\n      dup1\n      tag_137\n      jumpi\n      pop\n        /* \"voting.sol\":386:392  owner3 */\n      0x02\n      0x00\n      swap1\n      sload\n      swap1\n      0x0100\n      exp\n      swap1\n      div\n      0xffffffffffffffffffffffffffffffffffffffff\n      and\n        /* \"voting.sol\":372:392  msg.sender == owner3 */\n      0xffffffffffffffffffffffffffffffffffffffff\n      and\n        /* \"voting.sol\":372:382  msg.sender */\n      caller\n        /* \"voting.sol\":372:392  msg.sender == owner3 */\n      0xffffffffffffffffffffffffffffffffffffffff\n      and\n      eq\n        /* \"voting.sol\":324:392  msg.sender == owner1 || msg.sender == owner2 || msg.sender == owner3 */\n    tag_137:\n        /* \"voting.sol\":316:393  require(msg.sender == owner1 || msg.sender == owner2 || msg.sender == owner3) */\n      tag_138\n      jumpi\n      0x00\n      dup1\n      revert\n    tag_138:\n        /* \"voting.sol\":5634:5638  5000 */\n      0x1388\n        /* \"voting.sol\":5622:5631  startTime */\n      sload(0x03)\n        /* \"voting.sol\":5622:5638  startTime + 5000 */\n      tag_140\n      swap2\n      swap1\n      tag_141\n      jump\t// in\n    tag_140:\n        /* \"voting.sol\":5607:5619  block.number */\n      number\n        /* \"voting.sol\":5607:5638  block.number < startTime + 5000 */\n      lt\n        /* \"voting.sol\":5603:5676  if (block.number < startTime + 5000){... */\n      iszero\n      tag_142\n      jumpi\n        /* \"voting.sol\":5660:5665  false */\n      0x00\n        /* \"voting.sol\":5653:5665  return false */\n      swap1\n      pop\n      jump(tag_139)\n        /* \"voting.sol\":5603:5676  if (block.number < startTime + 5000){... */\n    tag_142:\n        /* \"voting.sol\":5699:5700  1 */\n      0x01\n        /* \"voting.sol\":5689:5695  _order */\n      dup3\n        /* \"voting.sol\":5689:5700  _order == 1 */\n      0xff\n      and\n      eq\n        /* \"voting.sol\":5689:5714  _order == 1 && vote1 == 1 */\n      dup1\n      iszero\n      tag_143\n      jumpi\n      pop\n        /* \"voting.sol\":5713:5714  1 */\n      0x01\n        /* \"voting.sol\":5704:5709  vote1 */\n      0x04\n      0x02\n      swap1\n      sload\n      swap1\n      0x0100\n      exp\n      swap1\n      div\n      0xff\n      and\n        /* \"voting.sol\":5704:5714  vote1 == 1 */\n      0xff\n      and\n      eq\n        /* \"voting.sol\":5689:5714  _order == 1 && vote1 == 1 */\n    tag_143:\n        /* \"voting.sol\":5685:6499  if (_order == 1 && vote1 == 1){... */\n      iszero\n      tag_144\n      jumpi\n        /* \"voting.sol\":5741:5747  owner1 */\n      0x00\n      dup1\n      sload\n      swap1\n      0x0100\n      exp\n      swap1\n      div\n      0xffffffffffffffffffffffffffffffffffffffff\n      and\n        /* \"voting.sol\":5729:5738  realOwner */\n      0x04\n      0x08\n        /* \"voting.sol\":5729:5747  realOwner = owner1 */\n      0x0100\n      exp\n      dup2\n      sload\n      dup2\n      0xffffffffffffffffffffffffffffffffffffffff\n      mul\n      not\n      and\n      swap1\n      dup4\n      0xffffffffffffffffffffffffffffffffffffffff\n      and\n      mul\n      or\n      swap1\n      sstore\n      pop\n        /* \"voting.sol\":5769:5770  0 */\n      0x00\n        /* \"voting.sol\":5761:5766  vote1 */\n      0x04\n      0x02\n        /* \"voting.sol\":5761:5770  vote1 = 0 */\n      0x0100\n      exp\n      dup2\n      sload\n      dup2\n      0xff\n      mul\n      not\n      and\n      swap1\n      dup4\n      0xff\n      and\n      mul\n      or\n      swap1\n      sstore\n      pop\n        /* \"voting.sol\":5792:5793  0 */\n      0x00\n        /* \"voting.sol\":5784:5789  vote2 */\n      0x04\n      0x03\n        /* \"voting.sol\":5784:5793  vote2 = 0 */\n      0x0100\n      exp\n      dup2\n      sload\n      dup2\n      0xff\n      mul\n      not\n      and\n      swap1\n      dup4\n      0xff\n      and\n      mul\n      or\n      swap1\n      sstore\n      pop\n        /* \"voting.sol\":5815:5816  0 */\n      0x00\n        /* \"voting.sol\":5807:5812  vote3 */\n      0x04\n      dup1\n        /* \"voting.sol\":5807:5816  vote3 = 0 */\n      0x0100\n      exp\n      dup2\n      sload\n      dup2\n      0xff\n      mul\n      not\n      and\n      swap1\n      dup4\n      0xff\n      and\n      mul\n      or\n      swap1\n      sstore\n      pop\n        /* \"voting.sol\":5841:5842  0 */\n      0x00\n        /* \"voting.sol\":5830:5838  getVote1 */\n      0x04\n      0x05\n        /* \"voting.sol\":5830:5842  getVote1 = 0 */\n      0x0100\n      exp\n      dup2\n      sload\n      dup2\n      0xff\n      mul\n      not\n      and\n      swap1\n      dup4\n      0xff\n      and\n      mul\n      or\n      swap1\n      sstore\n      pop\n        /* \"voting.sol\":5867:5868  0 */\n      0x00\n        /* \"voting.sol\":5856:5864  getVote2 */\n      0x04\n      0x06\n        /* \"voting.sol\":5856:5868  getVote2 = 0 */\n      0x0100\n      exp\n      dup2\n      sload\n      dup2\n      0xff\n      mul\n      not\n      and\n      swap1\n      dup4\n      0xff\n      and\n      mul\n      or\n      swap1\n      sstore\n      pop\n        /* \"voting.sol\":5893:5894  0 */\n      0x00\n        /* \"voting.sol\":5882:5890  getVote3 */\n      0x04\n      0x07\n        /* \"voting.sol\":5882:5894  getVote3 = 0 */\n      0x0100\n      exp\n      dup2\n      sload\n      dup2\n      0xff\n      mul\n      not\n      and\n      swap1\n      dup4\n      0xff\n      and\n      mul\n      or\n      swap1\n      sstore\n      pop\n        /* \"voting.sol\":5915:5919  true */\n      0x01\n        /* \"voting.sol\":5908:5919  return true */\n      swap1\n      pop\n      jump(tag_139)\n        /* \"voting.sol\":5685:6499  if (_order == 1 && vote1 == 1){... */\n    tag_144:\n        /* \"voting.sol\":5958:5959  2 */\n      0x02\n        /* \"voting.sol\":5948:5954  _order */\n      dup3\n        /* \"voting.sol\":5948:5959  _order == 2 */\n      0xff\n      and\n      eq\n        /* \"voting.sol\":5948:5973  _order == 2 && vote2 == 1 */\n      dup1\n      iszero\n      tag_146\n      jumpi\n      pop\n        /* \"voting.sol\":5972:5973  1 */\n      0x01\n        /* \"voting.sol\":5963:5968  vote2 */\n      0x04\n      0x03\n      swap1\n      sload\n      swap1\n      0x0100\n      exp\n      swap1\n      div\n      0xff\n      and\n        /* \"voting.sol\":5963:5973  vote2 == 1 */\n      0xff\n      and\n      eq\n        /* \"voting.sol\":5948:5973  _order == 2 && vote2 == 1 */\n    tag_146:\n        /* \"voting.sol\":5944:6499  if (_order == 2 && vote2 == 1){... */\n      iszero\n      tag_147\n      jumpi\n        /* \"voting.sol\":6000:6006  owner2 */\n      0x01\n      0x00\n      swap1\n      sload\n      swap1\n      0x0100\n      exp\n      swap1\n      div\n      0xffffffffffffffffffffffffffffffffffffffff\n      and\n        /* \"voting.sol\":5988:5997  realOwner */\n      0x04\n      0x08\n        /* \"voting.sol\":5988:6006  realOwner = owner2 */\n      0x0100\n      exp\n      dup2\n      sload\n      dup2\n      0xffffffffffffffffffffffffffffffffffffffff\n      mul\n      not\n      and\n      swap1\n      dup4\n      0xffffffffffffffffffffffffffffffffffffffff\n      and\n      mul\n      or\n      swap1\n      sstore\n      pop\n        /* \"voting.sol\":6028:6029  0 */\n      0x00\n        /* \"voting.sol\":6020:6025  vote1 */\n      0x04\n      0x02\n        /* \"voting.sol\":6020:6029  vote1 = 0 */\n      0x0100\n      exp\n      dup2\n      sload\n      dup2\n      0xff\n      mul\n      not\n      and\n      swap1\n      dup4\n      0xff\n      and\n      mul\n      or\n      swap1\n      sstore\n      pop\n        /* \"voting.sol\":6051:6052  0 */\n      0x00\n        /* \"voting.sol\":6043:6048  vote2 */\n      0x04\n      0x03\n        /* \"voting.sol\":6043:6052  vote2 = 0 */\n      0x0100\n      exp\n      dup2\n      sload\n      dup2\n      0xff\n      mul\n      not\n      and\n      swap1\n      dup4\n      0xff\n      and\n      mul\n      or\n      swap1\n      sstore\n      pop\n        /* \"voting.sol\":6074:6075  0 */\n      0x00\n        /* \"voting.sol\":6066:6071  vote3 */\n      0x04\n      dup1\n        /* \"voting.sol\":6066:6075  vote3 = 0 */\n      0x0100\n      exp\n      dup2\n      sload\n      dup2\n      0xff\n      mul\n      not\n      and\n      swap1\n      dup4\n      0xff\n      and\n      mul\n      or\n      swap1\n      sstore\n      pop\n        /* \"voting.sol\":6100:6101  0 */\n      0x00\n        /* \"voting.sol\":6089:6097  getVote1 */\n      0x04\n      0x05\n        /* \"voting.sol\":6089:6101  getVote1 = 0 */\n      0x0100\n      exp\n      dup2\n      sload\n      dup2\n      0xff\n      mul\n      not\n      and\n      swap1\n      dup4\n      0xff\n      and\n      mul\n      or\n      swap1\n      sstore\n      pop\n        /* \"voting.sol\":6126:6127  0 */\n      0x00\n        /* \"voting.sol\":6115:6123  getVote2 */\n      0x04\n      0x06\n        /* \"voting.sol\":6115:6127  getVote2 = 0 */\n      0x0100\n      exp\n      dup2\n      sload\n      dup2\n      0xff\n      mul\n      not\n      and\n      swap1\n      dup4\n      0xff\n      and\n      mul\n      or\n      swap1\n      sstore\n      pop\n        /* \"voting.sol\":6152:6153  0 */\n      0x00\n        /* \"voting.sol\":6141:6149  getVote3 */\n      0x04\n      0x07\n        /* \"voting.sol\":6141:6153  getVote3 = 0 */\n      0x0100\n      exp\n      dup2\n      sload\n      dup2\n      0xff\n      mul\n      not\n      and\n      swap1\n      dup4\n      0xff\n      and\n      mul\n      or\n      swap1\n      sstore\n      pop\n        /* \"voting.sol\":6174:6178  true */\n      0x01\n        /* \"voting.sol\":6167:6178  return true */\n      swap1\n      pop\n      jump(tag_139)\n        /* \"voting.sol\":5944:6499  if (_order == 2 && vote2 == 1){... */\n    tag_147:\n        /* \"voting.sol\":6217:6218  3 */\n      0x03\n        /* \"voting.sol\":6207:6213  _order */\n      dup3\n        /* \"voting.sol\":6207:6218  _order == 3 */\n      0xff\n      and\n      eq\n        /* \"voting.sol\":6207:6232  _order == 3 && vote3 == 1 */\n      dup1\n      iszero\n      tag_149\n      jumpi\n      pop\n        /* \"voting.sol\":6231:6232  1 */\n      0x01\n        /* \"voting.sol\":6222:6227  vote3 */\n      0x04\n      dup1\n      sload\n      swap1\n      0x0100\n      exp\n      swap1\n      div\n      0xff\n      and\n        /* \"voting.sol\":6222:6232  vote3 == 1 */\n      0xff\n      and\n      eq\n        /* \"voting.sol\":6207:6232  _order == 3 && vote3 == 1 */\n    tag_149:\n        /* \"voting.sol\":6203:6499  if (_order == 3 && vote3 == 1){... */\n      iszero\n      tag_150\n      jumpi\n        /* \"voting.sol\":6259:6265  owner3 */\n      0x02\n      0x00\n      swap1\n      sload\n      swap1\n      0x0100\n      exp\n      swap1\n      div\n      0xffffffffffffffffffffffffffffffffffffffff\n      and\n        /* \"voting.sol\":6247:6256  realOwner */\n      0x04\n      0x08\n        /* \"voting.sol\":6247:6265  realOwner = owner3 */\n      0x0100\n      exp\n      dup2\n      sload\n      dup2\n      0xffffffffffffffffffffffffffffffffffffffff\n      mul\n      not\n      and\n      swap1\n      dup4\n      0xffffffffffffffffffffffffffffffffffffffff\n      and\n      mul\n      or\n      swap1\n      sstore\n      pop\n        /* \"voting.sol\":6287:6288  0 */\n      0x00\n        /* \"voting.sol\":6279:6284  vote1 */\n      0x04\n      0x02\n        /* \"voting.sol\":6279:6288  vote1 = 0 */\n      0x0100\n      exp\n      dup2\n      sload\n      dup2\n      0xff\n      mul\n      not\n      and\n      swap1\n      dup4\n      0xff\n      and\n      mul\n      or\n      swap1\n      sstore\n      pop\n        /* \"voting.sol\":6310:6311  0 */\n      0x00\n        /* \"voting.sol\":6302:6307  vote2 */\n      0x04\n      0x03\n        /* \"voting.sol\":6302:6311  vote2 = 0 */\n      0x0100\n      exp\n      dup2\n      sload\n      dup2\n      0xff\n      mul\n      not\n      and\n      swap1\n      dup4\n      0xff\n      and\n      mul\n      or\n      swap1\n      sstore\n      pop\n        /* \"voting.sol\":6333:6334  0 */\n      0x00\n        /* \"voting.sol\":6325:6330  vote3 */\n      0x04\n      dup1\n        /* \"voting.sol\":6325:6334  vote3 = 0 */\n      0x0100\n      exp\n      dup2\n      sload\n      dup2\n      0xff\n      mul\n      not\n      and\n      swap1\n      dup4\n      0xff\n      and\n      mul\n      or\n      swap1\n      sstore\n      pop\n        /* \"voting.sol\":6359:6360  0 */\n      0x00\n        /* \"voting.sol\":6348:6356  getVote1 */\n      0x04\n      0x05\n        /* \"voting.sol\":6348:6360  getVote1 = 0 */\n      0x0100\n      exp\n      dup2\n      sload\n      dup2\n      0xff\n      mul\n      not\n      and\n      swap1\n      dup4\n      0xff\n      and\n      mul\n      or\n      swap1\n      sstore\n      pop\n        /* \"voting.sol\":6385:6386  0 */\n      0x00\n        /* \"voting.sol\":6374:6382  getVote2 */\n      0x04\n      0x06\n        /* \"voting.sol\":6374:6386  getVote2 = 0 */\n      0x0100\n      exp\n      dup2\n      sload\n      dup2\n      0xff\n      mul\n      not\n      and\n      swap1\n      dup4\n      0xff\n      and\n      mul\n      or\n      swap1\n      sstore\n      pop\n        /* \"voting.sol\":6411:6412  0 */\n      0x00\n        /* \"voting.sol\":6400:6408  getVote3 */\n      0x04\n      0x07\n        /* \"voting.sol\":6400:6412  getVote3 = 0 */\n      0x0100\n      exp\n      dup2\n      sload\n      dup2\n      0xff\n      mul\n      not\n      and\n      swap1\n      dup4\n      0xff\n      and\n      mul\n      or\n      swap1\n      sstore\n      pop\n        /* \"voting.sol\":6433:6437  true */\n      0x01\n        /* \"voting.sol\":6426:6437  return true */\n      swap1\n      pop\n      jump(tag_139)\n        /* \"voting.sol\":6203:6499  if (_order == 3 && vote3 == 1){... */\n    tag_150:\n        /* \"voting.sol\":6483:6488  false */\n      0x00\n        /* \"voting.sol\":6476:6488  return false */\n      swap1\n      pop\n        /* \"voting.sol\":397:398  _ */\n    tag_139:\n        /* \"voting.sol\":5528:6505  function lastMethod(uint8 _order) onlyOwner public returns (bool){... */\n      swap2\n      swap1\n      pop\n      jump\t// out\n        /* \"voting.sol\":471:1017  function transferOwnership(address _to) onlyOwner public {... */\n    tag_53:\n        /* \"voting.sol\":338:344  owner1 */\n      0x00\n      dup1\n      sload\n      swap1\n      0x0100\n      exp\n      swap1\n      div\n      0xffffffffffffffffffffffffffffffffffffffff\n      and\n        /* \"voting.sol\":324:344  msg.sender == owner1 */\n      0xffffffffffffffffffffffffffffffffffffffff\n      and\n        /* \"voting.sol\":324:334  msg.sender */\n      caller\n        /* \"voting.sol\":324:344  msg.sender == owner1 */\n      0xffffffffffffffffffffffffffffffffffffffff\n      and\n      eq\n        /* \"voting.sol\":324:368  msg.sender == owner1 || msg.sender == owner2 */\n      dup1\n      tag_153\n      jumpi\n      pop\n        /* \"voting.sol\":362:368  owner2 */\n      0x01\n      0x00\n      swap1\n      sload\n      swap1\n      0x0100\n      exp\n      swap1\n      div\n      0xffffffffffffffffffffffffffffffffffffffff\n      and\n        /* \"voting.sol\":348:368  msg.sender == owner2 */\n      0xffffffffffffffffffffffffffffffffffffffff\n      and\n        /* \"voting.sol\":348:358  msg.sender */\n      caller\n        /* \"voting.sol\":348:368  msg.sender == owner2 */\n      0xffffffffffffffffffffffffffffffffffffffff\n      and\n      eq\n        /* \"voting.sol\":324:368  msg.sender == owner1 || msg.sender == owner2 */\n    tag_153:\n        /* \"voting.sol\":324:392  msg.sender == owner1 || msg.sender == owner2 || msg.sender == owner3 */\n      dup1\n      tag_154\n      jumpi\n      pop\n        /* \"voting.sol\":386:392  owner3 */\n      0x02\n      0x00\n      swap1\n      sload\n      swap1\n      0x0100\n      exp\n      swap1\n      div\n      0xffffffffffffffffffffffffffffffffffffffff\n      and\n        /* \"voting.sol\":372:392  msg.sender == owner3 */\n      0xffffffffffffffffffffffffffffffffffffffff\n      and\n        /* \"voting.sol\":372:382  msg.sender */\n      caller\n        /* \"voting.sol\":372:392  msg.sender == owner3 */\n      0xffffffffffffffffffffffffffffffffffffffff\n      and\n      eq\n        /* \"voting.sol\":324:392  msg.sender == owner1 || msg.sender == owner2 || msg.sender == owner3 */\n    tag_154:\n        /* \"voting.sol\":316:393  require(msg.sender == owner1 || msg.sender == owner2 || msg.sender == owner3) */\n      tag_155\n      jumpi\n      0x00\n      dup1\n      revert\n    tag_155:\n        /* \"voting.sol\":553:559  owner1 */\n      0x00\n      dup1\n      sload\n      swap1\n      0x0100\n      exp\n      swap1\n      div\n      0xffffffffffffffffffffffffffffffffffffffff\n      and\n        /* \"voting.sol\":546:559  _to != owner1 */\n      0xffffffffffffffffffffffffffffffffffffffff\n      and\n        /* \"voting.sol\":546:549  _to */\n      dup2\n        /* \"voting.sol\":546:559  _to != owner1 */\n      0xffffffffffffffffffffffffffffffffffffffff\n      and\n      eq\n      iszero\n        /* \"voting.sol\":546:576  _to != owner1 && _to != owner2 */\n      dup1\n      iszero\n      tag_157\n      jumpi\n      pop\n        /* \"voting.sol\":570:576  owner2 */\n      0x01\n      0x00\n      swap1\n      sload\n      swap1\n      0x0100\n      exp\n      swap1\n      div\n      0xffffffffffffffffffffffffffffffffffffffff\n      and\n        /* \"voting.sol\":563:576  _to != owner2 */\n      0xffffffffffffffffffffffffffffffffffffffff\n      and\n        /* \"voting.sol\":563:566  _to */\n      dup2\n        /* \"voting.sol\":563:576  _to != owner2 */\n      0xffffffffffffffffffffffffffffffffffffffff\n      and\n      eq\n      iszero\n        /* \"voting.sol\":546:576  _to != owner1 && _to != owner2 */\n    tag_157:\n        /* \"voting.sol\":546:593  _to != owner1 && _to != owner2 && _to != owner3 */\n      dup1\n      iszero\n      tag_158\n      jumpi\n      pop\n        /* \"voting.sol\":587:593  owner3 */\n      0x02\n      0x00\n      swap1\n      sload\n      swap1\n      0x0100\n      exp\n      swap1\n      div\n      0xffffffffffffffffffffffffffffffffffffffff\n      and\n        /* \"voting.sol\":580:593  _to != owner3 */\n      0xffffffffffffffffffffffffffffffffffffffff\n      and\n        /* \"voting.sol\":580:583  _to */\n      dup2\n        /* \"voting.sol\":580:593  _to != owner3 */\n      0xffffffffffffffffffffffffffffffffffffffff\n      and\n      eq\n      iszero\n        /* \"voting.sol\":546:593  _to != owner1 && _to != owner2 && _to != owner3 */\n    tag_158:\n        /* \"voting.sol\":538:594  require(_to != owner1 && _to != owner2 && _to != owner3) */\n      tag_159\n      jumpi\n      0x00\n      dup1\n      revert\n    tag_159:\n        /* \"voting.sol\":627:630  0x0 */\n      0x00\n        /* \"voting.sol\":612:631  _to != address(0x0) */\n      0xffffffffffffffffffffffffffffffffffffffff\n      and\n        /* \"voting.sol\":612:615  _to */\n      dup2\n        /* \"voting.sol\":612:631  _to != address(0x0) */\n      0xffffffffffffffffffffffffffffffffffffffff\n      and\n      eq\n      iszero\n        /* \"voting.sol\":604:632  require(_to != address(0x0)) */\n      tag_160\n      jumpi\n      0x00\n      dup1\n      revert\n    tag_160:\n        /* \"voting.sol\":660:666  owner1 */\n      0x00\n      dup1\n      sload\n      swap1\n      0x0100\n      exp\n      swap1\n      div\n      0xffffffffffffffffffffffffffffffffffffffff\n      and\n        /* \"voting.sol\":646:666  msg.sender == owner1 */\n      0xffffffffffffffffffffffffffffffffffffffff\n      and\n        /* \"voting.sol\":646:656  msg.sender */\n      caller\n        /* \"voting.sol\":646:666  msg.sender == owner1 */\n      0xffffffffffffffffffffffffffffffffffffffff\n      and\n      eq\n        /* \"voting.sol\":642:1012  if (msg.sender == owner1){... */\n      iszero\n      tag_161\n      jumpi\n        /* \"voting.sol\":690:693  _to */\n      dup1\n        /* \"voting.sol\":681:687  owner1 */\n      0x00\n      dup1\n        /* \"voting.sol\":681:693  owner1 = _to */\n      0x0100\n      exp\n      dup2\n      sload\n      dup2\n      0xffffffffffffffffffffffffffffffffffffffff\n      mul\n      not\n      and\n      swap1\n      dup4\n      0xffffffffffffffffffffffffffffffffffffffff\n      and\n      mul\n      or\n      swap1\n      sstore\n      pop\n        /* \"voting.sol\":741:744  _to */\n      dup1\n        /* \"voting.sol\":712:745  OwnerTransferPropose(owner1, _to) */\n      0xffffffffffffffffffffffffffffffffffffffff\n      and\n        /* \"voting.sol\":733:739  owner1 */\n      0x00\n      dup1\n      sload\n      swap1\n      0x0100\n      exp\n      swap1\n      div\n      0xffffffffffffffffffffffffffffffffffffffff\n      and\n        /* \"voting.sol\":712:745  OwnerTransferPropose(owner1, _to) */\n      0xffffffffffffffffffffffffffffffffffffffff\n      and\n      0x2ae143016adc0aa482e6ba5d9a350f3e3122aeb005ca4bf47d1d7b8221bce472\n      mload(0x40)\n      mload(0x40)\n      dup1\n      swap2\n      sub\n      swap1\n      log3\n        /* \"voting.sol\":642:1012  if (msg.sender == owner1){... */\n      jump(tag_162)\n    tag_161:\n        /* \"voting.sol\":788:794  owner2 */\n      0x01\n      0x00\n      swap1\n      sload\n      swap1\n      0x0100\n      exp\n      swap1\n      div\n      0xffffffffffffffffffffffffffffffffffffffff\n      and\n        /* \"voting.sol\":774:794  msg.sender == owner2 */\n      0xffffffffffffffffffffffffffffffffffffffff\n      and\n        /* \"voting.sol\":774:784  msg.sender */\n      caller\n        /* \"voting.sol\":774:794  msg.sender == owner2 */\n      0xffffffffffffffffffffffffffffffffffffffff\n      and\n      eq\n        /* \"voting.sol\":770:1012  if (msg.sender == owner2){... */\n      iszero\n      tag_163\n      jumpi\n        /* \"voting.sol\":818:821  _to */\n      dup1\n        /* \"voting.sol\":809:815  owner2 */\n      0x01\n      0x00\n        /* \"voting.sol\":809:821  owner2 = _to */\n      0x0100\n      exp\n      dup2\n      sload\n      dup2\n      0xffffffffffffffffffffffffffffffffffffffff\n      mul\n      not\n      and\n      swap1\n      dup4\n      0xffffffffffffffffffffffffffffffffffffffff\n      and\n      mul\n      or\n      swap1\n      sstore\n      pop\n        /* \"voting.sol\":869:872  _to */\n      dup1\n        /* \"voting.sol\":840:873  OwnerTransferPropose(owner2, _to) */\n      0xffffffffffffffffffffffffffffffffffffffff\n      and\n        /* \"voting.sol\":861:867  owner2 */\n      0x01\n      0x00\n      swap1\n      sload\n      swap1\n      0x0100\n      exp\n      swap1\n      div\n      0xffffffffffffffffffffffffffffffffffffffff\n      and\n        /* \"voting.sol\":840:873  OwnerTransferPropose(owner2, _to) */\n      0xffffffffffffffffffffffffffffffffffffffff\n      and\n      0x2ae143016adc0aa482e6ba5d9a350f3e3122aeb005ca4bf47d1d7b8221bce472\n      mload(0x40)\n      mload(0x40)\n      dup1\n      swap2\n      sub\n      swap1\n      log3\n        /* \"voting.sol\":770:1012  if (msg.sender == owner2){... */\n      jump(tag_164)\n    tag_163:\n        /* \"voting.sol\":916:922  owner3 */\n      0x02\n      0x00\n      swap1\n      sload\n      swap1\n      0x0100\n      exp\n      swap1\n      div\n      0xffffffffffffffffffffffffffffffffffffffff\n      and\n        /* \"voting.sol\":902:922  msg.sender == owner3 */\n      0xffffffffffffffffffffffffffffffffffffffff\n      and\n        /* \"voting.sol\":902:912  msg.sender */\n      caller\n        /* \"voting.sol\":902:922  msg.sender == owner3 */\n      0xffffffffffffffffffffffffffffffffffffffff\n      and\n      eq\n        /* \"voting.sol\":898:1012  if (msg.sender == owner3){... */\n      iszero\n      tag_165\n      jumpi\n        /* \"voting.sol\":946:949  _to */\n      dup1\n        /* \"voting.sol\":937:943  owner3 */\n      0x02\n      0x00\n        /* \"voting.sol\":937:949  owner3 = _to */\n      0x0100\n      exp\n      dup2\n      sload\n      dup2\n      0xffffffffffffffffffffffffffffffffffffffff\n      mul\n      not\n      and\n      swap1\n      dup4\n      0xffffffffffffffffffffffffffffffffffffffff\n      and\n      mul\n      or\n      swap1\n      sstore\n      pop\n        /* \"voting.sol\":997:1000  _to */\n      dup1\n        /* \"voting.sol\":968:1001  OwnerTransferPropose(owner3, _to) */\n      0xffffffffffffffffffffffffffffffffffffffff\n      and\n        /* \"voting.sol\":989:995  owner3 */\n      0x02\n      0x00\n      swap1\n      sload\n      swap1\n      0x0100\n      exp\n      swap1\n      div\n      0xffffffffffffffffffffffffffffffffffffffff\n      and\n        /* \"voting.sol\":968:1001  OwnerTransferPropose(owner3, _to) */\n      0xffffffffffffffffffffffffffffffffffffffff\n      and\n      0x2ae143016adc0aa482e6ba5d9a350f3e3122aeb005ca4bf47d1d7b8221bce472\n      mload(0x40)\n      mload(0x40)\n      dup1\n      swap2\n      sub\n      swap1\n      log3\n        /* \"voting.sol\":898:1012  if (msg.sender == owner3){... */\n    tag_165:\n        /* \"voting.sol\":770:1012  if (msg.sender == owner2){... */\n    tag_164:\n        /* \"voting.sol\":642:1012  if (msg.sender == owner1){... */\n    tag_162:\n        /* \"voting.sol\":471:1017  function transferOwnership(address _to) onlyOwner public {... */\n      pop\n      jump\t// out\n    tag_122:\n      mload(0x40)\n      dup1\n      0x0160\n      add\n      0x40\n      mstore\n      dup1\n      and(0xff, 0x00)\n      dup2\n      mstore\n      0x20\n      add\n      and(0xff, 0x00)\n      dup2\n      mstore\n      0x20\n      add\n      and(0xff, 0x00)\n      dup2\n      mstore\n      0x20\n      add\n      and(0xff, 0x00)\n      dup2\n      mstore\n      0x20\n      add\n      and(0xff, 0x00)\n      dup2\n      mstore\n      0x20\n      add\n      and(0xff, 0x00)\n      dup2\n      mstore\n      0x20\n      add\n      and(0xff, 0x00)\n      dup2\n      mstore\n      0x20\n      add\n      and(0xff, 0x00)\n      dup2\n      mstore\n      0x20\n      add\n      and(0xffffffffffffffffffffffffffffffffffffffff, 0x00)\n      dup2\n      mstore\n      0x20\n      add\n      and(0xff, 0x00)\n      dup2\n      mstore\n      0x20\n      add\n      0x00\n      dup2\n      mstore\n      pop\n      swap1\n      jump\t// out\n        /* \"#utility.yul\":88:205   */\n    tag_167:\n        /* \"#utility.yul\":197:198   */\n      0x00\n        /* \"#utility.yul\":194:195   */\n      dup1\n        /* \"#utility.yul\":187:199   */\n      revert\n        /* \"#utility.yul\":334:411   */\n    tag_169:\n        /* \"#utility.yul\":371:378   */\n      0x00\n        /* \"#utility.yul\":400:405   */\n      dup2\n        /* \"#utility.yul\":389:405   */\n      swap1\n      pop\n        /* \"#utility.yul\":334:411   */\n      swap2\n      swap1\n      pop\n      jump\t// out\n        /* \"#utility.yul\":417:539   */\n    tag_170:\n        /* \"#utility.yul\":490:514   */\n      tag_199\n        /* \"#utility.yul\":508:513   */\n      dup2\n        /* \"#utility.yul\":490:514   */\n      tag_169\n      jump\t// in\n    tag_199:\n        /* \"#utility.yul\":483:488   */\n      dup2\n        /* \"#utility.yul\":480:515   */\n      eq\n        /* \"#utility.yul\":470:533   */\n      tag_200\n      jumpi\n        /* \"#utility.yul\":529:530   */\n      0x00\n        /* \"#utility.yul\":526:527   */\n      dup1\n        /* \"#utility.yul\":519:531   */\n      revert\n        /* \"#utility.yul\":470:533   */\n    tag_200:\n        /* \"#utility.yul\":417:539   */\n      pop\n      jump\t// out\n        /* \"#utility.yul\":545:684   */\n    tag_171:\n        /* \"#utility.yul\":591:596   */\n      0x00\n        /* \"#utility.yul\":629:635   */\n      dup2\n        /* \"#utility.yul\":616:636   */\n      calldataload\n        /* \"#utility.yul\":607:636   */\n      swap1\n      pop\n        /* \"#utility.yul\":645:678   */\n      tag_202\n        /* \"#utility.yul\":672:677   */\n      dup2\n        /* \"#utility.yul\":645:678   */\n      tag_170\n      jump\t// in\n    tag_202:\n        /* \"#utility.yul\":545:684   */\n      swap3\n      swap2\n      pop\n      pop\n      jump\t// out\n        /* \"#utility.yul\":690:1019   */\n    tag_15:\n        /* \"#utility.yul\":749:755   */\n      0x00\n        /* \"#utility.yul\":798:800   */\n      0x20\n        /* \"#utility.yul\":786:795   */\n      dup3\n        /* \"#utility.yul\":777:784   */\n      dup5\n        /* \"#utility.yul\":773:796   */\n      sub\n        /* \"#utility.yul\":769:801   */\n      slt\n        /* \"#utility.yul\":766:885   */\n      iszero\n      tag_204\n      jumpi\n        /* \"#utility.yul\":804:883   */\n      tag_205\n      tag_167\n      jump\t// in\n    tag_205:\n        /* \"#utility.yul\":766:885   */\n    tag_204:\n        /* \"#utility.yul\":924:925   */\n      0x00\n        /* \"#utility.yul\":949:1002   */\n      tag_206\n        /* \"#utility.yul\":994:1001   */\n      dup5\n        /* \"#utility.yul\":985:991   */\n      dup3\n        /* \"#utility.yul\":974:983   */\n      dup6\n        /* \"#utility.yul\":970:992   */\n      add\n        /* \"#utility.yul\":949:1002   */\n      tag_171\n      jump\t// in\n    tag_206:\n        /* \"#utility.yul\":939:1002   */\n      swap2\n      pop\n        /* \"#utility.yul\":895:1012   */\n      pop\n        /* \"#utility.yul\":690:1019   */\n      swap3\n      swap2\n      pop\n      pop\n      jump\t// out\n        /* \"#utility.yul\":1025:1115   */\n    tag_172:\n        /* \"#utility.yul\":1059:1066   */\n      0x00\n        /* \"#utility.yul\":1102:1107   */\n      dup2\n        /* \"#utility.yul\":1095:1108   */\n      iszero\n        /* \"#utility.yul\":1088:1109   */\n      iszero\n        /* \"#utility.yul\":1077:1109   */\n      swap1\n      pop\n        /* \"#utility.yul\":1025:1115   */\n      swap2\n      swap1\n      pop\n      jump\t// out\n        /* \"#utility.yul\":1121:1230   */\n    tag_173:\n        /* \"#utility.yul\":1202:1223   */\n      tag_209\n        /* \"#utility.yul\":1217:1222   */\n      dup2\n        /* \"#utility.yul\":1202:1223   */\n      tag_172\n      jump\t// in\n    tag_209:\n        /* \"#utility.yul\":1197:1200   */\n      dup3\n        /* \"#utility.yul\":1190:1224   */\n      mstore\n        /* \"#utility.yul\":1121:1230   */\n      pop\n      pop\n      jump\t// out\n        /* \"#utility.yul\":1236:1446   */\n    tag_18:\n        /* \"#utility.yul\":1323:1327   */\n      0x00\n        /* \"#utility.yul\":1361:1363   */\n      0x20\n        /* \"#utility.yul\":1350:1359   */\n      dup3\n        /* \"#utility.yul\":1346:1364   */\n      add\n        /* \"#utility.yul\":1338:1364   */\n      swap1\n      pop\n        /* \"#utility.yul\":1374:1439   */\n      tag_211\n        /* \"#utility.yul\":1436:1437   */\n      0x00\n        /* \"#utility.yul\":1425:1434   */\n      dup4\n        /* \"#utility.yul\":1421:1438   */\n      add\n        /* \"#utility.yul\":1412:1418   */\n      dup5\n        /* \"#utility.yul\":1374:1439   */\n      tag_173\n      jump\t// in\n    tag_211:\n        /* \"#utility.yul\":1236:1446   */\n      swap3\n      swap2\n      pop\n      pop\n      jump\t// out\n        /* \"#utility.yul\":1452:1538   */\n    tag_174:\n        /* \"#utility.yul\":1487:1494   */\n      0x00\n        /* \"#utility.yul\":1527:1531   */\n      0xff\n        /* \"#utility.yul\":1520:1525   */\n      dup3\n        /* \"#utility.yul\":1516:1532   */\n      and\n        /* \"#utility.yul\":1505:1532   */\n      swap1\n      pop\n        /* \"#utility.yul\":1452:1538   */\n      swap2\n      swap1\n      pop\n      jump\t// out\n        /* \"#utility.yul\":1544:1656   */\n    tag_175:\n        /* \"#utility.yul\":1627:1649   */\n      tag_214\n        /* \"#utility.yul\":1643:1648   */\n      dup2\n        /* \"#utility.yul\":1627:1649   */\n      tag_174\n      jump\t// in\n    tag_214:\n        /* \"#utility.yul\":1622:1625   */\n      dup3\n        /* \"#utility.yul\":1615:1650   */\n      mstore\n        /* \"#utility.yul\":1544:1656   */\n      pop\n      pop\n      jump\t// out\n        /* \"#utility.yul\":1662:1876   */\n    tag_22:\n        /* \"#utility.yul\":1751:1755   */\n      0x00\n        /* \"#utility.yul\":1789:1791   */\n      0x20\n        /* \"#utility.yul\":1778:1787   */\n      dup3\n        /* \"#utility.yul\":1774:1792   */\n      add\n        /* \"#utility.yul\":1766:1792   */\n      swap1\n      pop\n        /* \"#utility.yul\":1802:1869   */\n      tag_216\n        /* \"#utility.yul\":1866:1867   */\n      0x00\n        /* \"#utility.yul\":1855:1864   */\n      dup4\n        /* \"#utility.yul\":1851:1868   */\n      add\n        /* \"#utility.yul\":1842:1848   */\n      dup5\n        /* \"#utility.yul\":1802:1869   */\n      tag_175\n      jump\t// in\n    tag_216:\n        /* \"#utility.yul\":1662:1876   */\n      swap3\n      swap2\n      pop\n      pop\n      jump\t// out\n        /* \"#utility.yul\":1882:2008   */\n    tag_176:\n        /* \"#utility.yul\":1919:1926   */\n      0x00\n        /* \"#utility.yul\":1959:2001   */\n      0xffffffffffffffffffffffffffffffffffffffff\n        /* \"#utility.yul\":1952:1957   */\n      dup3\n        /* \"#utility.yul\":1948:2002   */\n      and\n        /* \"#utility.yul\":1937:2002   */\n      swap1\n      pop\n        /* \"#utility.yul\":1882:2008   */\n      swap2\n      swap1\n      pop\n      jump\t// out\n        /* \"#utility.yul\":2014:2110   */\n    tag_177:\n        /* \"#utility.yul\":2051:2058   */\n      0x00\n        /* \"#utility.yul\":2080:2104   */\n      tag_219\n        /* \"#utility.yul\":2098:2103   */\n      dup3\n        /* \"#utility.yul\":2080:2104   */\n      tag_176\n      jump\t// in\n    tag_219:\n        /* \"#utility.yul\":2069:2104   */\n      swap1\n      pop\n        /* \"#utility.yul\":2014:2110   */\n      swap2\n      swap1\n      pop\n      jump\t// out\n        /* \"#utility.yul\":2116:2238   */\n    tag_178:\n        /* \"#utility.yul\":2189:2213   */\n      tag_221\n        /* \"#utility.yul\":2207:2212   */\n      dup2\n        /* \"#utility.yul\":2189:2213   */\n      tag_177\n      jump\t// in\n    tag_221:\n        /* \"#utility.yul\":2182:2187   */\n      dup2\n        /* \"#utility.yul\":2179:2214   */\n      eq\n        /* \"#utility.yul\":2169:2232   */\n      tag_222\n      jumpi\n        /* \"#utility.yul\":2228:2229   */\n      0x00\n        /* \"#utility.yul\":2225:2226   */\n      dup1\n        /* \"#utility.yul\":2218:2230   */\n      revert\n        /* \"#utility.yul\":2169:2232   */\n    tag_222:\n        /* \"#utility.yul\":2116:2238   */\n      pop\n      jump\t// out\n        /* \"#utility.yul\":2244:2383   */\n    tag_179:\n        /* \"#utility.yul\":2290:2295   */\n      0x00\n        /* \"#utility.yul\":2328:2334   */\n      dup2\n        /* \"#utility.yul\":2315:2335   */\n      calldataload\n        /* \"#utility.yul\":2306:2335   */\n      swap1\n      pop\n        /* \"#utility.yul\":2344:2377   */\n      tag_224\n        /* \"#utility.yul\":2371:2376   */\n      dup2\n        /* \"#utility.yul\":2344:2377   */\n      tag_178\n      jump\t// in\n    tag_224:\n        /* \"#utility.yul\":2244:2383   */\n      swap3\n      swap2\n      pop\n      pop\n      jump\t// out\n        /* \"#utility.yul\":2389:2718   */\n    tag_25:\n        /* \"#utility.yul\":2448:2454   */\n      0x00\n        /* \"#utility.yul\":2497:2499   */\n      0x20\n        /* \"#utility.yul\":2485:2494   */\n      dup3\n        /* \"#utility.yul\":2476:2483   */\n      dup5\n        /* \"#utility.yul\":2472:2495   */\n      sub\n        /* \"#utility.yul\":2468:2500   */\n      slt\n        /* \"#utility.yul\":2465:2584   */\n      iszero\n      tag_226\n      jumpi\n        /* \"#utility.yul\":2503:2582   */\n      tag_227\n      tag_167\n      jump\t// in\n    tag_227:\n        /* \"#utility.yul\":2465:2584   */\n    tag_226:\n        /* \"#utility.yul\":2623:2624   */\n      0x00\n        /* \"#utility.yul\":2648:2701   */\n      tag_228\n        /* \"#utility.yul\":2693:2700   */\n      dup5\n        /* \"#utility.yul\":2684:2690   */\n      dup3\n        /* \"#utility.yul\":2673:2682   */\n      dup6\n        /* \"#utility.yul\":2669:2691   */\n      add\n        /* \"#utility.yul\":2648:2701   */\n      tag_179\n      jump\t// in\n    tag_228:\n        /* \"#utility.yul\":2638:2701   */\n      swap2\n      pop\n        /* \"#utility.yul\":2594:2711   */\n      pop\n        /* \"#utility.yul\":2389:2718   */\n      swap3\n      swap2\n      pop\n      pop\n      jump\t// out\n        /* \"#utility.yul\":2724:2842   */\n    tag_180:\n        /* \"#utility.yul\":2795:2817   */\n      tag_230\n        /* \"#utility.yul\":2811:2816   */\n      dup2\n        /* \"#utility.yul\":2795:2817   */\n      tag_174\n      jump\t// in\n    tag_230:\n        /* \"#utility.yul\":2788:2793   */\n      dup2\n        /* \"#utility.yul\":2785:2818   */\n      eq\n        /* \"#utility.yul\":2775:2836   */\n      tag_231\n      jumpi\n        /* \"#utility.yul\":2832:2833   */\n      0x00\n        /* \"#utility.yul\":2829:2830   */\n      dup1\n        /* \"#utility.yul\":2822:2834   */\n      revert\n        /* \"#utility.yul\":2775:2836   */\n    tag_231:\n        /* \"#utility.yul\":2724:2842   */\n      pop\n      jump\t// out\n        /* \"#utility.yul\":2848:2983   */\n    tag_181:\n        /* \"#utility.yul\":2892:2897   */\n      0x00\n        /* \"#utility.yul\":2930:2936   */\n      dup2\n        /* \"#utility.yul\":2917:2937   */\n      calldataload\n        /* \"#utility.yul\":2908:2937   */\n      swap1\n      pop\n        /* \"#utility.yul\":2946:2977   */\n      tag_233\n        /* \"#utility.yul\":2971:2976   */\n      dup2\n        /* \"#utility.yul\":2946:2977   */\n      tag_180\n      jump\t// in\n    tag_233:\n        /* \"#utility.yul\":2848:2983   */\n      swap3\n      swap2\n      pop\n      pop\n      jump\t// out\n        /* \"#utility.yul\":2989:3314   */\n    tag_30:\n        /* \"#utility.yul\":3046:3052   */\n      0x00\n        /* \"#utility.yul\":3095:3097   */\n      0x20\n        /* \"#utility.yul\":3083:3092   */\n      dup3\n        /* \"#utility.yul\":3074:3081   */\n      dup5\n        /* \"#utility.yul\":3070:3093   */\n      sub\n        /* \"#utility.yul\":3066:3098   */\n      slt\n        /* \"#utility.yul\":3063:3182   */\n      iszero\n      tag_235\n      jumpi\n        /* \"#utility.yul\":3101:3180   */\n      tag_236\n      tag_167\n      jump\t// in\n    tag_236:\n        /* \"#utility.yul\":3063:3182   */\n    tag_235:\n        /* \"#utility.yul\":3221:3222   */\n      0x00\n        /* \"#utility.yul\":3246:3297   */\n      tag_237\n        /* \"#utility.yul\":3289:3296   */\n      dup5\n        /* \"#utility.yul\":3280:3286   */\n      dup3\n        /* \"#utility.yul\":3269:3278   */\n      dup6\n        /* \"#utility.yul\":3265:3287   */\n      add\n        /* \"#utility.yul\":3246:3297   */\n      tag_181\n      jump\t// in\n    tag_237:\n        /* \"#utility.yul\":3236:3297   */\n      swap2\n      pop\n        /* \"#utility.yul\":3192:3307   */\n      pop\n        /* \"#utility.yul\":2989:3314   */\n      swap3\n      swap2\n      pop\n      pop\n      jump\t// out\n        /* \"#utility.yul\":3320:3422   */\n    tag_182:\n        /* \"#utility.yul\":3393:3415   */\n      tag_239\n        /* \"#utility.yul\":3409:3414   */\n      dup2\n        /* \"#utility.yul\":3393:3415   */\n      tag_174\n      jump\t// in\n    tag_239:\n        /* \"#utility.yul\":3388:3391   */\n      dup3\n        /* \"#utility.yul\":3381:3416   */\n      mstore\n        /* \"#utility.yul\":3320:3422   */\n      pop\n      pop\n      jump\t// out\n        /* \"#utility.yul\":3428:3536   */\n    tag_183:\n        /* \"#utility.yul\":3505:3529   */\n      tag_241\n        /* \"#utility.yul\":3523:3528   */\n      dup2\n        /* \"#utility.yul\":3505:3529   */\n      tag_177\n      jump\t// in\n    tag_241:\n        /* \"#utility.yul\":3500:3503   */\n      dup3\n        /* \"#utility.yul\":3493:3530   */\n      mstore\n        /* \"#utility.yul\":3428:3536   */\n      pop\n      pop\n      jump\t// out\n        /* \"#utility.yul\":3542:3650   */\n    tag_184:\n        /* \"#utility.yul\":3619:3643   */\n      tag_243\n        /* \"#utility.yul\":3637:3642   */\n      dup2\n        /* \"#utility.yul\":3619:3643   */\n      tag_169\n      jump\t// in\n    tag_243:\n        /* \"#utility.yul\":3614:3617   */\n      dup3\n        /* \"#utility.yul\":3607:3644   */\n      mstore\n        /* \"#utility.yul\":3542:3650   */\n      pop\n      pop\n      jump\t// out\n        /* \"#utility.yul\":3708:5797   */\n    tag_185:\n        /* \"#utility.yul\":3851:3857   */\n      0x0160\n        /* \"#utility.yul\":3846:3849   */\n      dup3\n        /* \"#utility.yul\":3842:3858   */\n      add\n        /* \"#utility.yul\":3947:3951   */\n      0x00\n        /* \"#utility.yul\":3940:3945   */\n      dup3\n        /* \"#utility.yul\":3936:3952   */\n      add\n        /* \"#utility.yul\":3930:3953   */\n      mload\n        /* \"#utility.yul\":3966:4025   */\n      tag_245\n        /* \"#utility.yul\":4019:4023   */\n      0x00\n        /* \"#utility.yul\":4014:4017   */\n      dup6\n        /* \"#utility.yul\":4010:4024   */\n      add\n        /* \"#utility.yul\":3996:4008   */\n      dup3\n        /* \"#utility.yul\":3966:4025   */\n      tag_182\n      jump\t// in\n    tag_245:\n        /* \"#utility.yul\":3868:4035   */\n      pop\n        /* \"#utility.yul\":4123:4127   */\n      0x20\n        /* \"#utility.yul\":4116:4121   */\n      dup3\n        /* \"#utility.yul\":4112:4128   */\n      add\n        /* \"#utility.yul\":4106:4129   */\n      mload\n        /* \"#utility.yul\":4142:4201   */\n      tag_246\n        /* \"#utility.yul\":4195:4199   */\n      0x20\n        /* \"#utility.yul\":4190:4193   */\n      dup6\n        /* \"#utility.yul\":4186:4200   */\n      add\n        /* \"#utility.yul\":4172:4184   */\n      dup3\n        /* \"#utility.yul\":4142:4201   */\n      tag_182\n      jump\t// in\n    tag_246:\n        /* \"#utility.yul\":4045:4211   */\n      pop\n        /* \"#utility.yul\":4295:4299   */\n      0x40\n        /* \"#utility.yul\":4288:4293   */\n      dup3\n        /* \"#utility.yul\":4284:4300   */\n      add\n        /* \"#utility.yul\":4278:4301   */\n      mload\n        /* \"#utility.yul\":4314:4373   */\n      tag_247\n        /* \"#utility.yul\":4367:4371   */\n      0x40\n        /* \"#utility.yul\":4362:4365   */\n      dup6\n        /* \"#utility.yul\":4358:4372   */\n      add\n        /* \"#utility.yul\":4344:4356   */\n      dup3\n        /* \"#utility.yul\":4314:4373   */\n      tag_182\n      jump\t// in\n    tag_247:\n        /* \"#utility.yul\":4221:4383   */\n      pop\n        /* \"#utility.yul\":4467:4471   */\n      0x60\n        /* \"#utility.yul\":4460:4465   */\n      dup3\n        /* \"#utility.yul\":4456:4472   */\n      add\n        /* \"#utility.yul\":4450:4473   */\n      mload\n        /* \"#utility.yul\":4486:4545   */\n      tag_248\n        /* \"#utility.yul\":4539:4543   */\n      0x60\n        /* \"#utility.yul\":4534:4537   */\n      dup6\n        /* \"#utility.yul\":4530:4544   */\n      add\n        /* \"#utility.yul\":4516:4528   */\n      dup3\n        /* \"#utility.yul\":4486:4545   */\n      tag_182\n      jump\t// in\n    tag_248:\n        /* \"#utility.yul\":4393:4555   */\n      pop\n        /* \"#utility.yul\":4639:4643   */\n      0x80\n        /* \"#utility.yul\":4632:4637   */\n      dup3\n        /* \"#utility.yul\":4628:4644   */\n      add\n        /* \"#utility.yul\":4622:4645   */\n      mload\n        /* \"#utility.yul\":4658:4717   */\n      tag_249\n        /* \"#utility.yul\":4711:4715   */\n      0x80\n        /* \"#utility.yul\":4706:4709   */\n      dup6\n        /* \"#utility.yul\":4702:4716   */\n      add\n        /* \"#utility.yul\":4688:4700   */\n      dup3\n        /* \"#utility.yul\":4658:4717   */\n      tag_182\n      jump\t// in\n    tag_249:\n        /* \"#utility.yul\":4565:4727   */\n      pop\n        /* \"#utility.yul\":4814:4818   */\n      0xa0\n        /* \"#utility.yul\":4807:4812   */\n      dup3\n        /* \"#utility.yul\":4803:4819   */\n      add\n        /* \"#utility.yul\":4797:4820   */\n      mload\n        /* \"#utility.yul\":4833:4892   */\n      tag_250\n        /* \"#utility.yul\":4886:4890   */\n      0xa0\n        /* \"#utility.yul\":4881:4884   */\n      dup6\n        /* \"#utility.yul\":4877:4891   */\n      add\n        /* \"#utility.yul\":4863:4875   */\n      dup3\n        /* \"#utility.yul\":4833:4892   */\n      tag_182\n      jump\t// in\n    tag_250:\n        /* \"#utility.yul\":4737:4902   */\n      pop\n        /* \"#utility.yul\":4989:4993   */\n      0xc0\n        /* \"#utility.yul\":4982:4987   */\n      dup3\n        /* \"#utility.yul\":4978:4994   */\n      add\n        /* \"#utility.yul\":4972:4995   */\n      mload\n        /* \"#utility.yul\":5008:5067   */\n      tag_251\n        /* \"#utility.yul\":5061:5065   */\n      0xc0\n        /* \"#utility.yul\":5056:5059   */\n      dup6\n        /* \"#utility.yul\":5052:5066   */\n      add\n        /* \"#utility.yul\":5038:5050   */\n      dup3\n        /* \"#utility.yul\":5008:5067   */\n      tag_182\n      jump\t// in\n    tag_251:\n        /* \"#utility.yul\":4912:5077   */\n      pop\n        /* \"#utility.yul\":5164:5168   */\n      0xe0\n        /* \"#utility.yul\":5157:5162   */\n      dup3\n        /* \"#utility.yul\":5153:5169   */\n      add\n        /* \"#utility.yul\":5147:5170   */\n      mload\n        /* \"#utility.yul\":5183:5242   */\n      tag_252\n        /* \"#utility.yul\":5236:5240   */\n      0xe0\n        /* \"#utility.yul\":5231:5234   */\n      dup6\n        /* \"#utility.yul\":5227:5241   */\n      add\n        /* \"#utility.yul\":5213:5225   */\n      dup3\n        /* \"#utility.yul\":5183:5242   */\n      tag_182\n      jump\t// in\n    tag_252:\n        /* \"#utility.yul\":5087:5252   */\n      pop\n        /* \"#utility.yul\":5340:5346   */\n      0x0100\n        /* \"#utility.yul\":5333:5338   */\n      dup3\n        /* \"#utility.yul\":5329:5347   */\n      add\n        /* \"#utility.yul\":5323:5348   */\n      mload\n        /* \"#utility.yul\":5361:5426   */\n      tag_253\n        /* \"#utility.yul\":5418:5424   */\n      0x0100\n        /* \"#utility.yul\":5413:5416   */\n      dup6\n        /* \"#utility.yul\":5409:5425   */\n      add\n        /* \"#utility.yul\":5395:5407   */\n      dup3\n        /* \"#utility.yul\":5361:5426   */\n      tag_183\n      jump\t// in\n    tag_253:\n        /* \"#utility.yul\":5262:5436   */\n      pop\n        /* \"#utility.yul\":5520:5526   */\n      0x0120\n        /* \"#utility.yul\":5513:5518   */\n      dup3\n        /* \"#utility.yul\":5509:5527   */\n      add\n        /* \"#utility.yul\":5503:5528   */\n      mload\n        /* \"#utility.yul\":5541:5602   */\n      tag_254\n        /* \"#utility.yul\":5594:5600   */\n      0x0120\n        /* \"#utility.yul\":5589:5592   */\n      dup6\n        /* \"#utility.yul\":5585:5601   */\n      add\n        /* \"#utility.yul\":5571:5583   */\n      dup3\n        /* \"#utility.yul\":5541:5602   */\n      tag_182\n      jump\t// in\n    tag_254:\n        /* \"#utility.yul\":5446:5612   */\n      pop\n        /* \"#utility.yul\":5694:5700   */\n      0x0140\n        /* \"#utility.yul\":5687:5692   */\n      dup3\n        /* \"#utility.yul\":5683:5701   */\n      add\n        /* \"#utility.yul\":5677:5702   */\n      mload\n        /* \"#utility.yul\":5715:5780   */\n      tag_255\n        /* \"#utility.yul\":5772:5778   */\n      0x0140\n        /* \"#utility.yul\":5767:5770   */\n      dup6\n        /* \"#utility.yul\":5763:5779   */\n      add\n        /* \"#utility.yul\":5749:5761   */\n      dup3\n        /* \"#utility.yul\":5715:5780   */\n      tag_184\n      jump\t// in\n    tag_255:\n        /* \"#utility.yul\":5622:5790   */\n      pop\n        /* \"#utility.yul\":3820:5797   */\n      pop\n        /* \"#utility.yul\":3708:5797   */\n      pop\n      pop\n      jump\t// out\n        /* \"#utility.yul\":5803:6118   */\n    tag_36:\n        /* \"#utility.yul\":5942:5946   */\n      0x00\n        /* \"#utility.yul\":5980:5983   */\n      0x0160\n        /* \"#utility.yul\":5969:5978   */\n      dup3\n        /* \"#utility.yul\":5965:5984   */\n      add\n        /* \"#utility.yul\":5957:5984   */\n      swap1\n      pop\n        /* \"#utility.yul\":5994:6111   */\n      tag_257\n        /* \"#utility.yul\":6108:6109   */\n      0x00\n        /* \"#utility.yul\":6097:6106   */\n      dup4\n        /* \"#utility.yul\":6093:6110   */\n      add\n        /* \"#utility.yul\":6084:6090   */\n      dup5\n        /* \"#utility.yul\":5994:6111   */\n      tag_185\n      jump\t// in\n    tag_257:\n        /* \"#utility.yul\":5803:6118   */\n      swap3\n      swap2\n      pop\n      pop\n      jump\t// out\n        /* \"#utility.yul\":6124:6242   */\n    tag_186:\n        /* \"#utility.yul\":6211:6235   */\n      tag_259\n        /* \"#utility.yul\":6229:6234   */\n      dup2\n        /* \"#utility.yul\":6211:6235   */\n      tag_177\n      jump\t// in\n    tag_259:\n        /* \"#utility.yul\":6206:6209   */\n      dup3\n        /* \"#utility.yul\":6199:6236   */\n      mstore\n        /* \"#utility.yul\":6124:6242   */\n      pop\n      pop\n      jump\t// out\n        /* \"#utility.yul\":6248:6470   */\n    tag_41:\n        /* \"#utility.yul\":6341:6345   */\n      0x00\n        /* \"#utility.yul\":6379:6381   */\n      0x20\n        /* \"#utility.yul\":6368:6377   */\n      dup3\n        /* \"#utility.yul\":6364:6382   */\n      add\n        /* \"#utility.yul\":6356:6382   */\n      swap1\n      pop\n        /* \"#utility.yul\":6392:6463   */\n      tag_261\n        /* \"#utility.yul\":6460:6461   */\n      0x00\n        /* \"#utility.yul\":6449:6458   */\n      dup4\n        /* \"#utility.yul\":6445:6462   */\n      add\n        /* \"#utility.yul\":6436:6442   */\n      dup5\n        /* \"#utility.yul\":6392:6463   */\n      tag_186\n      jump\t// in\n    tag_261:\n        /* \"#utility.yul\":6248:6470   */\n      swap3\n      swap2\n      pop\n      pop\n      jump\t// out\n        /* \"#utility.yul\":6476:6575   */\n    tag_187:\n        /* \"#utility.yul\":6528:6534   */\n      0x00\n        /* \"#utility.yul\":6562:6567   */\n      dup2\n        /* \"#utility.yul\":6556:6568   */\n      mload\n        /* \"#utility.yul\":6546:6568   */\n      swap1\n      pop\n        /* \"#utility.yul\":6476:6575   */\n      swap2\n      swap1\n      pop\n      jump\t// out\n        /* \"#utility.yul\":6581:6750   */\n    tag_188:\n        /* \"#utility.yul\":6665:6676   */\n      0x00\n        /* \"#utility.yul\":6699:6705   */\n      dup3\n        /* \"#utility.yul\":6694:6697   */\n      dup3\n        /* \"#utility.yul\":6687:6706   */\n      mstore\n        /* \"#utility.yul\":6739:6743   */\n      0x20\n        /* \"#utility.yul\":6734:6737   */\n      dup3\n        /* \"#utility.yul\":6730:6744   */\n      add\n        /* \"#utility.yul\":6715:6744   */\n      swap1\n      pop\n        /* \"#utility.yul\":6581:6750   */\n      swap3\n      swap2\n      pop\n      pop\n      jump\t// out\n        /* \"#utility.yul\":6756:7063   */\n    tag_189:\n        /* \"#utility.yul\":6824:6825   */\n      0x00\n        /* \"#utility.yul\":6834:6947   */\n    tag_265:\n        /* \"#utility.yul\":6848:6854   */\n      dup4\n        /* \"#utility.yul\":6845:6846   */\n      dup2\n        /* \"#utility.yul\":6842:6855   */\n      lt\n        /* \"#utility.yul\":6834:6947   */\n      iszero\n      tag_267\n      jumpi\n        /* \"#utility.yul\":6933:6934   */\n      dup1\n        /* \"#utility.yul\":6928:6931   */\n      dup3\n        /* \"#utility.yul\":6924:6935   */\n      add\n        /* \"#utility.yul\":6918:6936   */\n      mload\n        /* \"#utility.yul\":6914:6915   */\n      dup2\n        /* \"#utility.yul\":6909:6912   */\n      dup5\n        /* \"#utility.yul\":6905:6916   */\n      add\n        /* \"#utility.yul\":6898:6937   */\n      mstore\n        /* \"#utility.yul\":6870:6872   */\n      0x20\n        /* \"#utility.yul\":6867:6868   */\n      dup2\n        /* \"#utility.yul\":6863:6873   */\n      add\n        /* \"#utility.yul\":6858:6873   */\n      swap1\n      pop\n        /* \"#utility.yul\":6834:6947   */\n      jump(tag_265)\n    tag_267:\n        /* \"#utility.yul\":6965:6971   */\n      dup4\n        /* \"#utility.yul\":6962:6963   */\n      dup2\n        /* \"#utility.yul\":6959:6972   */\n      gt\n        /* \"#utility.yul\":6956:7057   */\n      iszero\n      tag_268\n      jumpi\n        /* \"#utility.yul\":7045:7046   */\n      0x00\n        /* \"#utility.yul\":7036:7042   */\n      dup5\n        /* \"#utility.yul\":7031:7034   */\n      dup5\n        /* \"#utility.yul\":7027:7043   */\n      add\n        /* \"#utility.yul\":7020:7047   */\n      mstore\n        /* \"#utility.yul\":6956:7057   */\n    tag_268:\n        /* \"#utility.yul\":6805:7063   */\n      pop\n        /* \"#utility.yul\":6756:7063   */\n      pop\n      pop\n      pop\n      jump\t// out\n        /* \"#utility.yul\":7069:7171   */\n    tag_190:\n        /* \"#utility.yul\":7110:7116   */\n      0x00\n        /* \"#utility.yul\":7161:7163   */\n      0x1f\n        /* \"#utility.yul\":7157:7164   */\n      not\n        /* \"#utility.yul\":7152:7154   */\n      0x1f\n        /* \"#utility.yul\":7145:7150   */\n      dup4\n        /* \"#utility.yul\":7141:7155   */\n      add\n        /* \"#utility.yul\":7137:7165   */\n      and\n        /* \"#utility.yul\":7127:7165   */\n      swap1\n      pop\n        /* \"#utility.yul\":7069:7171   */\n      swap2\n      swap1\n      pop\n      jump\t// out\n        /* \"#utility.yul\":7177:7541   */\n    tag_191:\n        /* \"#utility.yul\":7265:7268   */\n      0x00\n        /* \"#utility.yul\":7293:7332   */\n      tag_271\n        /* \"#utility.yul\":7326:7331   */\n      dup3\n        /* \"#utility.yul\":7293:7332   */\n      tag_187\n      jump\t// in\n    tag_271:\n        /* \"#utility.yul\":7348:7419   */\n      tag_272\n        /* \"#utility.yul\":7412:7418   */\n      dup2\n        /* \"#utility.yul\":7407:7410   */\n      dup6\n        /* \"#utility.yul\":7348:7419   */\n      tag_188\n      jump\t// in\n    tag_272:\n        /* \"#utility.yul\":7341:7419   */\n      swap4\n      pop\n        /* \"#utility.yul\":7428:7480   */\n      tag_273\n        /* \"#utility.yul\":7473:7479   */\n      dup2\n        /* \"#utility.yul\":7468:7471   */\n      dup6\n        /* \"#utility.yul\":7461:7465   */\n      0x20\n        /* \"#utility.yul\":7454:7459   */\n      dup7\n        /* \"#utility.yul\":7450:7466   */\n      add\n        /* \"#utility.yul\":7428:7480   */\n      tag_189\n      jump\t// in\n    tag_273:\n        /* \"#utility.yul\":7505:7534   */\n      tag_274\n        /* \"#utility.yul\":7527:7533   */\n      dup2\n        /* \"#utility.yul\":7505:7534   */\n      tag_190\n      jump\t// in\n    tag_274:\n        /* \"#utility.yul\":7500:7503   */\n      dup5\n        /* \"#utility.yul\":7496:7535   */\n      add\n        /* \"#utility.yul\":7489:7535   */\n      swap2\n      pop\n        /* \"#utility.yul\":7269:7541   */\n      pop\n        /* \"#utility.yul\":7177:7541   */\n      swap3\n      swap2\n      pop\n      pop\n      jump\t// out\n        /* \"#utility.yul\":7547:7860   */\n    tag_46:\n        /* \"#utility.yul\":7660:7664   */\n      0x00\n        /* \"#utility.yul\":7698:7700   */\n      0x20\n        /* \"#utility.yul\":7687:7696   */\n      dup3\n        /* \"#utility.yul\":7683:7701   */\n      add\n        /* \"#utility.yul\":7675:7701   */\n      swap1\n      pop\n        /* \"#utility.yul\":7747:7756   */\n      dup2\n        /* \"#utility.yul\":7741:7745   */\n      dup2\n        /* \"#utility.yul\":7737:7757   */\n      sub\n        /* \"#utility.yul\":7733:7734   */\n      0x00\n        /* \"#utility.yul\":7722:7731   */\n      dup4\n        /* \"#utility.yul\":7718:7735   */\n      add\n        /* \"#utility.yul\":7711:7758   */\n      mstore\n        /* \"#utility.yul\":7775:7853   */\n      tag_276\n        /* \"#utility.yul\":7848:7852   */\n      dup2\n        /* \"#utility.yul\":7839:7845   */\n      dup5\n        /* \"#utility.yul\":7775:7853   */\n      tag_191\n      jump\t// in\n    tag_276:\n        /* \"#utility.yul\":7767:7853   */\n      swap1\n      pop\n        /* \"#utility.yul\":7547:7860   */\n      swap3\n      swap2\n      pop\n      pop\n      jump\t// out\n        /* \"#utility.yul\":7866:8046   */\n    tag_192:\n        /* \"#utility.yul\":7914:7991   */\n      0x4e487b7100000000000000000000000000000000000000000000000000000000\n        /* \"#utility.yul\":7911:7912   */\n      0x00\n        /* \"#utility.yul\":7904:7992   */\n      mstore\n        /* \"#utility.yul\":8011:8015   */\n      0x11\n        /* \"#utility.yul\":8008:8009   */\n      0x04\n        /* \"#utility.yul\":8001:8016   */\n      mstore\n        /* \"#utility.yul\":8035:8039   */\n      0x24\n        /* \"#utility.yul\":8032:8033   */\n      0x00\n        /* \"#utility.yul\":8025:8040   */\n      revert\n        /* \"#utility.yul\":8052:8219   */\n    tag_66:\n        /* \"#utility.yul\":8089:8092   */\n      0x00\n        /* \"#utility.yul\":8112:8134   */\n      tag_279\n        /* \"#utility.yul\":8128:8133   */\n      dup3\n        /* \"#utility.yul\":8112:8134   */\n      tag_174\n      jump\t// in\n    tag_279:\n        /* \"#utility.yul\":8103:8134   */\n      swap2\n      pop\n        /* \"#utility.yul\":8156:8160   */\n      0xff\n        /* \"#utility.yul\":8149:8154   */\n      dup3\n        /* \"#utility.yul\":8146:8161   */\n      eq\n        /* \"#utility.yul\":8143:8184   */\n      iszero\n      tag_280\n      jumpi\n        /* \"#utility.yul\":8164:8182   */\n      tag_281\n      tag_192\n      jump\t// in\n    tag_281:\n        /* \"#utility.yul\":8143:8184   */\n    tag_280:\n        /* \"#utility.yul\":8211:8212   */\n      0x01\n        /* \"#utility.yul\":8204:8209   */\n      dup3\n        /* \"#utility.yul\":8200:8213   */\n      add\n        /* \"#utility.yul\":8193:8213   */\n      swap1\n      pop\n        /* \"#utility.yul\":8052:8219   */\n      swap2\n      swap1\n      pop\n      jump\t// out\n        /* \"#utility.yul\":8225:8530   */\n    tag_141:\n        /* \"#utility.yul\":8265:8268   */\n      0x00\n        /* \"#utility.yul\":8284:8304   */\n      tag_283\n        /* \"#utility.yul\":8302:8303   */\n      dup3\n        /* \"#utility.yul\":8284:8304   */\n      tag_169\n      jump\t// in\n    tag_283:\n        /* \"#utility.yul\":8279:8304   */\n      swap2\n      pop\n        /* \"#utility.yul\":8318:8338   */\n      tag_284\n        /* \"#utility.yul\":8336:8337   */\n      dup4\n        /* \"#utility.yul\":8318:8338   */\n      tag_169\n      jump\t// in\n    tag_284:\n        /* \"#utility.yul\":8313:8338   */\n      swap3\n      pop\n        /* \"#utility.yul\":8472:8473   */\n      dup3\n        /* \"#utility.yul\":8404:8470   */\n      0xffffffffffffffffffffffffffffffffffffffffffffffffffffffffffffffff\n        /* \"#utility.yul\":8400:8474   */\n      sub\n        /* \"#utility.yul\":8397:8398   */\n      dup3\n        /* \"#utility.yul\":8394:8475   */\n      gt\n        /* \"#utility.yul\":8391:8498   */\n      iszero\n      tag_285\n      jumpi\n        /* \"#utility.yul\":8478:8496   */\n      tag_286\n      tag_192\n      jump\t// in\n    tag_286:\n        /* \"#utility.yul\":8391:8498   */\n    tag_285:\n        /* \"#utility.yul\":8522:8523   */\n      dup3\n        /* \"#utility.yul\":8519:8520   */\n      dup3\n        /* \"#utility.yul\":8515:8524   */\n      add\n        /* \"#utility.yul\":8508:8524   */\n      swap1\n      pop\n        /* \"#utility.yul\":8225:8530   */\n      swap3\n      swap2\n      pop\n      pop\n      jump\t// out\n\n    auxdata: 0xa264697066735822122014764ed67bc67fbeb78a697e30d1c4ccdd2c64abdbb99f754fc4f56cc1d3d27364736f6c634300080a0033\n}\n",
				"bytecode": {
					"linkReferences": {},
					"object": "608060405234801561001057600080fd5b50436003819055506000600460006101000a81548160ff021916908360ff1602179055506000600460016101000a81548160ff021916908360ff1602179055506000600460026101000a81548160ff021916908360ff1602179055506000600460036101000a81548160ff021916908360ff16021790555060006004806101000a81548160ff021916908360ff1602179055506000600460056101000a81548160ff021916908360ff1602179055506000600460066101000a81548160ff021916908360ff1602179055506000600460076101000a81548160ff021916908360ff1602179055506000600460086101000a81548173ffffffffffffffffffffffffffffffffffffffff021916908373ffffffffffffffffffffffffffffffffffffffff16021790555060006004601c6101000a81548160ff021916908360ff160217905550612171806101646000396000f3fe608060405234801561001057600080fd5b50600436106100935760003560e01c80634e69d560116100665780634e69d5601461014657806374a29267146101645780637594a9e614610194578063ef220789146101c4578063f2fde38b146101f457610093565b80630121b93f1461009857806320965255146100c85780632bad96ba146100e65780634c111ff814610116575b600080fd5b6100b260048036038101906100ad9190611cff565b610210565b6040516100bf9190611d47565b60405180910390f35b6100d0610b00565b6040516100dd9190611d7e565b60405180910390f35b61010060048036038101906100fb9190611df7565b610b17565b60405161010d9190611d47565b60405180910390f35b610130600480360381019061012b9190611e50565b610e23565b60405161013d9190611d47565b60405180910390f35b61014e610ea3565b60405161015b9190611f8b565b60405180910390f35b61017e60048036038101906101799190611cff565b611048565b60405161018b9190611fb6565b60405180910390f35b6101ae60048036038101906101a99190611df7565b6110eb565b6040516101bb919061206a565b60405180910390f35b6101de60048036038101906101d99190611e50565b6111be565b6040516101eb9190611d47565b60405180910390f35b61020e60048036038101906102099190611df7565b6116a6565b005b60008060009054906101000a900473ffffffffffffffffffffffffffffffffffffffff1673ffffffffffffffffffffffffffffffffffffffff163373ffffffffffffffffffffffffffffffffffffffff1614806102ba5750600160009054906101000a900473ffffffffffffffffffffffffffffffffffffffff1673ffffffffffffffffffffffffffffffffffffffff163373ffffffffffffffffffffffffffffffffffffffff16145b806103125750600260009054906101000a900473ffffffffffffffffffffffffffffffffffffffff1673ffffffffffffffffffffffffffffffffffffffff163373ffffffffffffffffffffffffffffffffffffffff16145b61031b57600080fd5b600182148061032a5750600282145b806103355750600382145b61033e57600080fd5b60008054906101000a900473ffffffffffffffffffffffffffffffffffffffff1673ffffffffffffffffffffffffffffffffffffffff163373ffffffffffffffffffffffffffffffffffffffff161480156103ab57506000600460029054906101000a900460ff1660ff16145b1561049d5760018214156103f6576004600581819054906101000a900460ff16809291906103d8906120bb565b91906101000a81548160ff021916908360ff16021790555050610480565b600282141561043c576004600681819054906101000a900460ff168092919061041e906120bb565b91906101000a81548160ff021916908360ff1602179055505061047f565b600382141561047e576004600781819054906101000a900460ff1680929190610464906120bb565b91906101000a81548160ff021916908360ff160217905550505b5b5b6001600460026101000a81548160ff021916908360ff1602179055505b600160009054906101000a900473ffffffffffffffffffffffffffffffffffffffff1673ffffffffffffffffffffffffffffffffffffffff163373ffffffffffffffffffffffffffffffffffffffff1614801561050c57506000600460039054906101000a900460ff1660ff16145b156105fe576001821415610557576004600581819054906101000a900460ff1680929190610539906120bb565b91906101000a81548160ff021916908360ff160217905550506105e1565b600282141561059d576004600681819054906101000a900460ff168092919061057f906120bb565b91906101000a81548160ff021916908360ff160217905550506105e0565b60038214156105df576004600781819054906101000a900460ff16809291906105c5906120bb565b91906101000a81548160ff021916908360ff160217905550505b5b5b6001600460036101000a81548160ff021916908360ff1602179055505b600260009054906101000a900473ffffffffffffffffffffffffffffffffffffffff1673ffffffffffffffffffffffffffffffffffffffff163373ffffffffffffffffffffffffffffffffffffffff1614801561066b5750600060048054906101000a900460ff1660ff16145b1561075c5760018214156106b6576004600581819054906101000a900460ff1680929190610698906120bb565b91906101000a81548160ff021916908360ff16021790555050610740565b60028214156106fc576004600681819054906101000a900460ff16809291906106de906120bb565b91906101000a81548160ff021916908360ff1602179055505061073f565b600382141561073e576004600781819054906101000a900460ff1680929190610724906120bb565b91906101000a81548160ff021916908360ff160217905550505b5b5b60016004806101000a81548160ff021916908360ff1602179055505b6001600460029054906101000a900460ff1660ff1614801561079057506001600460039054906101000a900460ff1660ff16145b80156107ac5750600160048054906101000a900460ff1660ff16145b80156108065750600073ffffffffffffffffffffffffffffffffffffffff16600460089054906101000a900473ffffffffffffffffffffffffffffffffffffffff1673ffffffffffffffffffffffffffffffffffffffff16145b15610af6576002600460059054906101000a900460ff1660ff161061088b5760008054906101000a900473ffffffffffffffffffffffffffffffffffffffff16600460086101000a81548173ffffffffffffffffffffffffffffffffffffffff021916908373ffffffffffffffffffffffffffffffffffffffff16021790555061098d565b6002600460069054906101000a900460ff1660ff161061090d57600160009054906101000a900473ffffffffffffffffffffffffffffffffffffffff16600460086101000a81548173ffffffffffffffffffffffffffffffffffffffff021916908373ffffffffffffffffffffffffffffffffffffffff16021790555061098c565b6002600460079054906101000a900460ff1660ff161061098b57600260009054906101000a900473ffffffffffffffffffffffffffffffffffffffff16600460086101000a81548173ffffffffffffffffffffffffffffffffffffffff021916908373ffffffffffffffffffffffffffffffffffffffff1602179055505b5b5b6000600460026101000a81548160ff021916908360ff1602179055506000600460036101000a81548160ff021916908360ff16021790555060006004806101000a81548160ff021916908360ff1602179055506000600460056101000a81548160ff021916908360ff1602179055506000600460066101000a81548160ff021916908360ff1602179055506000600460076101000a81548160ff021916908360ff160217905550600073ffffffffffffffffffffffffffffffffffffffff16600460089054906101000a900473ffffffffffffffffffffffffffffffffffffffff1673ffffffffffffffffffffffffffffffffffffffff161415610aed5760008054906101000a900473ffffffffffffffffffffffffffffffffffffffff16600460086101000a81548173ffffffffffffffffffffffffffffffffffffffff021916908373ffffffffffffffffffffffffffffffffffffffff1602179055505b60019050610afb565b600090505b919050565b60006004601c9054906101000a900460ff16905090565b60006003600460009054906101000a900460ff1660ff161415610b3d5760009050610e1e565b6000600460009054906101000a900460ff1660ff161415610bd957816000806101000a81548173ffffffffffffffffffffffffffffffffffffffff021916908373ffffffffffffffffffffffffffffffffffffffff1602179055506004600081819054906101000a900460ff1680929190610bb7906120bb565b91906101000a81548160ff021916908360ff1602179055505060019050610e1e565b6001600460009054906101000a900460ff1660ff16148015610c4757508173ffffffffffffffffffffffffffffffffffffffff1660008054906101000a900473ffffffffffffffffffffffffffffffffffffffff1673ffffffffffffffffffffffffffffffffffffffff1614155b15610cce5781600160006101000a81548173ffffffffffffffffffffffffffffffffffffffff021916908373ffffffffffffffffffffffffffffffffffffffff1602179055506004600081819054906101000a900460ff1680929190610cac906120bb565b91906101000a81548160ff021916908360ff1602179055505060019050610e1e565b6002600460009054906101000a900460ff1660ff16148015610d3c57508173ffffffffffffffffffffffffffffffffffffffff1660008054906101000a900473ffffffffffffffffffffffffffffffffffffffff1673ffffffffffffffffffffffffffffffffffffffff1614155b8015610d9657508173ffffffffffffffffffffffffffffffffffffffff16600160009054906101000a900473ffffffffffffffffffffffffffffffffffffffff1673ffffffffffffffffffffffffffffffffffffffff1614155b15610e1d5781600260006101000a81548173ffffffffffffffffffffffffffffffffffffffff021916908373ffffffffffffffffffffffffffffffffffffffff1602179055506004600081819054906101000a900460ff1680929190610dfb906120bb565b91906101000a81548160ff021916908360ff1602179055505060019050610e1e565b5b919050565b6000600460089054906101000a900473ffffffffffffffffffffffffffffffffffffffff1673ffffffffffffffffffffffffffffffffffffffff163373ffffffffffffffffffffffffffffffffffffffff1614610e7f57600080fd5b816004601c6101000a81548160ff021916908360ff16021790555060019050919050565b610eab611c39565b610eb3611c39565b600460009054906101000a900460ff16816000019060ff16908160ff1681525050600460019054906101000a900460ff16816020019060ff16908160ff1681525050600460029054906101000a900460ff16816040019060ff16908160ff1681525050600460039054906101000a900460ff16816060019060ff16908160ff168152505060048054906101000a900460ff16816080019060ff16908160ff1681525050600460059054906101000a900460ff168160a0019060ff16908160ff1681525050600460069054906101000a900460ff168160c0019060ff16908160ff1681525050600460079054906101000a900460ff168160e0019060ff16908160ff1681525050600460089054906101000a900473ffffffffffffffffffffffffffffffffffffffff1681610100019073ffffffffffffffffffffffffffffffffffffffff16908173ffffffffffffffffffffffffffffffffffffffff16815250506004601c9054906101000a900460ff1681610120019060ff16908160ff168152505042816101400181815250508091505090565b6000600182141561107b5760008054906101000a900473ffffffffffffffffffffffffffffffffffffffff1690506110e6565b60028214156110ae57600160009054906101000a900473ffffffffffffffffffffffffffffffffffffffff1690506110e6565b60038214156110e157600260009054906101000a900473ffffffffffffffffffffffffffffffffffffffff1690506110e6565b600090505b919050565b60608173ffffffffffffffffffffffffffffffffffffffff16600460089054906101000a900473ffffffffffffffffffffffffffffffffffffffff1673ffffffffffffffffffffffffffffffffffffffff161415611180576040518060400160405280600981526020017f7265616c4f776e6572000000000000000000000000000000000000000000000081525090506111b9565b6040518060400160405280600d81526020017f4e6f74207265616c4f776e65720000000000000000000000000000000000000081525090505b919050565b60008060009054906101000a900473ffffffffffffffffffffffffffffffffffffffff1673ffffffffffffffffffffffffffffffffffffffff163373ffffffffffffffffffffffffffffffffffffffff1614806112685750600160009054906101000a900473ffffffffffffffffffffffffffffffffffffffff1673ffffffffffffffffffffffffffffffffffffffff163373ffffffffffffffffffffffffffffffffffffffff16145b806112c05750600260009054906101000a900473ffffffffffffffffffffffffffffffffffffffff1673ffffffffffffffffffffffffffffffffffffffff163373ffffffffffffffffffffffffffffffffffffffff16145b6112c957600080fd5b6113886003546112d991906120e5565b4310156112e957600090506116a1565b60018260ff1614801561130e57506001600460029054906101000a900460ff1660ff16145b156114245760008054906101000a900473ffffffffffffffffffffffffffffffffffffffff16600460086101000a81548173ffffffffffffffffffffffffffffffffffffffff021916908373ffffffffffffffffffffffffffffffffffffffff1602179055506000600460026101000a81548160ff021916908360ff1602179055506000600460036101000a81548160ff021916908360ff16021790555060006004806101000a81548160ff021916908360ff1602179055506000600460056101000a81548160ff021916908360ff1602179055506000600460066101000a81548160ff021916908360ff1602179055506000600460076101000a81548160ff021916908360ff160217905550600190506116a1565b60028260ff1614801561144957506001600460039054906101000a900460ff1660ff16145b1561156157600160009054906101000a900473ffffffffffffffffffffffffffffffffffffffff16600460086101000a81548173ffffffffffffffffffffffffffffffffffffffff021916908373ffffffffffffffffffffffffffffffffffffffff1602179055506000600460026101000a81548160ff021916908360ff1602179055506000600460036101000a81548160ff021916908360ff16021790555060006004806101000a81548160ff021916908360ff1602179055506000600460056101000a81548160ff021916908360ff1602179055506000600460066101000a81548160ff021916908360ff1602179055506000600460076101000a81548160ff021916908360ff160217905550600190506116a1565b60038260ff161480156115845750600160048054906101000a900460ff1660ff16145b1561169c57600260009054906101000a900473ffffffffffffffffffffffffffffffffffffffff16600460086101000a81548173ffffffffffffffffffffffffffffffffffffffff021916908373ffffffffffffffffffffffffffffffffffffffff1602179055506000600460026101000a81548160ff021916908360ff1602179055506000600460036101000a81548160ff021916908360ff16021790555060006004806101000a81548160ff021916908360ff1602179055506000600460056101000a81548160ff021916908360ff1602179055506000600460066101000a81548160ff021916908360ff1602179055506000600460076101000a81548160ff021916908360ff160217905550600190506116a1565b600090505b919050565b60008054906101000a900473ffffffffffffffffffffffffffffffffffffffff1673ffffffffffffffffffffffffffffffffffffffff163373ffffffffffffffffffffffffffffffffffffffff16148061174d5750600160009054906101000a900473ffffffffffffffffffffffffffffffffffffffff1673ffffffffffffffffffffffffffffffffffffffff163373ffffffffffffffffffffffffffffffffffffffff16145b806117a55750600260009054906101000a900473ffffffffffffffffffffffffffffffffffffffff1673ffffffffffffffffffffffffffffffffffffffff163373ffffffffffffffffffffffffffffffffffffffff16145b6117ae57600080fd5b60008054906101000a900473ffffffffffffffffffffffffffffffffffffffff1673ffffffffffffffffffffffffffffffffffffffff168173ffffffffffffffffffffffffffffffffffffffff16141580156118585750600160009054906101000a900473ffffffffffffffffffffffffffffffffffffffff1673ffffffffffffffffffffffffffffffffffffffff168173ffffffffffffffffffffffffffffffffffffffff1614155b80156118b25750600260009054906101000a900473ffffffffffffffffffffffffffffffffffffffff1673ffffffffffffffffffffffffffffffffffffffff168173ffffffffffffffffffffffffffffffffffffffff1614155b6118bb57600080fd5b600073ffffffffffffffffffffffffffffffffffffffff168173ffffffffffffffffffffffffffffffffffffffff1614156118f557600080fd5b60008054906101000a900473ffffffffffffffffffffffffffffffffffffffff1673ffffffffffffffffffffffffffffffffffffffff163373ffffffffffffffffffffffffffffffffffffffff161415611a0857806000806101000a81548173ffffffffffffffffffffffffffffffffffffffff021916908373ffffffffffffffffffffffffffffffffffffffff1602179055508073ffffffffffffffffffffffffffffffffffffffff1660008054906101000a900473ffffffffffffffffffffffffffffffffffffffff1673ffffffffffffffffffffffffffffffffffffffff167f2ae143016adc0aa482e6ba5d9a350f3e3122aeb005ca4bf47d1d7b8221bce47260405160405180910390a3611c36565b600160009054906101000a900473ffffffffffffffffffffffffffffffffffffffff1673ffffffffffffffffffffffffffffffffffffffff163373ffffffffffffffffffffffffffffffffffffffff161415611b205780600160006101000a81548173ffffffffffffffffffffffffffffffffffffffff021916908373ffffffffffffffffffffffffffffffffffffffff1602179055508073ffffffffffffffffffffffffffffffffffffffff16600160009054906101000a900473ffffffffffffffffffffffffffffffffffffffff1673ffffffffffffffffffffffffffffffffffffffff167f2ae143016adc0aa482e6ba5d9a350f3e3122aeb005ca4bf47d1d7b8221bce47260405160405180910390a3611c35565b600260009054906101000a900473ffffffffffffffffffffffffffffffffffffffff1673ffffffffffffffffffffffffffffffffffffffff163373ffffffffffffffffffffffffffffffffffffffff161415611c345780600260006101000a81548173ffffffffffffffffffffffffffffffffffffffff021916908373ffffffffffffffffffffffffffffffffffffffff1602179055508073ffffffffffffffffffffffffffffffffffffffff16600260009054906101000a900473ffffffffffffffffffffffffffffffffffffffff1673ffffffffffffffffffffffffffffffffffffffff167f2ae143016adc0aa482e6ba5d9a350f3e3122aeb005ca4bf47d1d7b8221bce47260405160405180910390a35b5b5b50565b604051806101600160405280600060ff168152602001600060ff168152602001600060ff168152602001600060ff168152602001600060ff168152602001600060ff168152602001600060ff168152602001600060ff168152602001600073ffffffffffffffffffffffffffffffffffffffff168152602001600060ff168152602001600081525090565b600080fd5b6000819050919050565b611cdc81611cc9565b8114611ce757600080fd5b50565b600081359050611cf981611cd3565b92915050565b600060208284031215611d1557611d14611cc4565b5b6000611d2384828501611cea565b91505092915050565b60008115159050919050565b611d4181611d2c565b82525050565b6000602082019050611d5c6000830184611d38565b92915050565b600060ff82169050919050565b611d7881611d62565b82525050565b6000602082019050611d936000830184611d6f565b92915050565b600073ffffffffffffffffffffffffffffffffffffffff82169050919050565b6000611dc482611d99565b9050919050565b611dd481611db9565b8114611ddf57600080fd5b50565b600081359050611df181611dcb565b92915050565b600060208284031215611e0d57611e0c611cc4565b5b6000611e1b84828501611de2565b91505092915050565b611e2d81611d62565b8114611e3857600080fd5b50565b600081359050611e4a81611e24565b92915050565b600060208284031215611e6657611e65611cc4565b5b6000611e7484828501611e3b565b91505092915050565b611e8681611d62565b82525050565b611e9581611db9565b82525050565b611ea481611cc9565b82525050565b61016082016000820151611ec16000850182611e7d565b506020820151611ed46020850182611e7d565b506040820151611ee76040850182611e7d565b506060820151611efa6060850182611e7d565b506080820151611f0d6080850182611e7d565b5060a0820151611f2060a0850182611e7d565b5060c0820151611f3360c0850182611e7d565b5060e0820151611f4660e0850182611e7d565b50610100820151611f5b610100850182611e8c565b50610120820151611f70610120850182611e7d565b50610140820151611f85610140850182611e9b565b50505050565b600061016082019050611fa16000830184611eaa565b92915050565b611fb081611db9565b82525050565b6000602082019050611fcb6000830184611fa7565b92915050565b600081519050919050565b600082825260208201905092915050565b60005b8381101561200b578082015181840152602081019050611ff0565b8381111561201a576000848401525b50505050565b6000601f19601f8301169050919050565b600061203c82611fd1565b6120468185611fdc565b9350612056818560208601611fed565b61205f81612020565b840191505092915050565b600060208201905081810360008301526120848184612031565b905092915050565b7f4e487b7100000000000000000000000000000000000000000000000000000000600052601160045260246000fd5b60006120c682611d62565b915060ff8214156120da576120d961208c565b5b600182019050919050565b60006120f082611cc9565b91506120fb83611cc9565b9250827fffffffffffffffffffffffffffffffffffffffffffffffffffffffffffffffff038211156121305761212f61208c565b5b82820190509291505056fea264697066735822122014764ed67bc67fbeb78a697e30d1c4ccdd2c64abdbb99f754fc4f56cc1d3d27364736f6c634300080a0033",
					"opcodes": "PUSH1 0x80 PUSH1 0x40 MSTORE CALLVALUE DUP1 ISZERO PUSH2 0x10 JUMPI PUSH1 0x0 DUP1 REVERT JUMPDEST POP NUMBER PUSH1 0x3 DUP2 SWAP1 SSTORE POP PUSH1 0x0 PUSH1 0x4 PUSH1 0x0 PUSH2 0x100 EXP DUP2 SLOAD DUP2 PUSH1 0xFF MUL NOT AND SWAP1 DUP4 PUSH1 0xFF AND MUL OR SWAP1 SSTORE POP PUSH1 0x0 PUSH1 0x4 PUSH1 0x1 PUSH2 0x100 EXP DUP2 SLOAD DUP2 PUSH1 0xFF MUL NOT AND SWAP1 DUP4 PUSH1 0xFF AND MUL OR SWAP1 SSTORE POP PUSH1 0x0 PUSH1 0x4 PUSH1 0x2 PUSH2 0x100 EXP DUP2 SLOAD DUP2 PUSH1 0xFF MUL NOT AND SWAP1 DUP4 PUSH1 0xFF AND MUL OR SWAP1 SSTORE POP PUSH1 0x0 PUSH1 0x4 PUSH1 0x3 PUSH2 0x100 EXP DUP2 SLOAD DUP2 PUSH1 0xFF MUL NOT AND SWAP1 DUP4 PUSH1 0xFF AND MUL OR SWAP1 SSTORE POP PUSH1 0x0 PUSH1 0x4 DUP1 PUSH2 0x100 EXP DUP2 SLOAD DUP2 PUSH1 0xFF MUL NOT AND SWAP1 DUP4 PUSH1 0xFF AND MUL OR SWAP1 SSTORE POP PUSH1 0x0 PUSH1 0x4 PUSH1 0x5 PUSH2 0x100 EXP DUP2 SLOAD DUP2 PUSH1 0xFF MUL NOT AND SWAP1 DUP4 PUSH1 0xFF AND MUL OR SWAP1 SSTORE POP PUSH1 0x0 PUSH1 0x4 PUSH1 0x6 PUSH2 0x100 EXP DUP2 SLOAD DUP2 PUSH1 0xFF MUL NOT AND SWAP1 DUP4 PUSH1 0xFF AND MUL OR SWAP1 SSTORE POP PUSH1 0x0 PUSH1 0x4 PUSH1 0x7 PUSH2 0x100 EXP DUP2 SLOAD DUP2 PUSH1 0xFF MUL NOT AND SWAP1 DUP4 PUSH1 0xFF AND MUL OR SWAP1 SSTORE POP PUSH1 0x0 PUSH1 0x4 PUSH1 0x8 PUSH2 0x100 EXP DUP2 SLOAD DUP2 PUSH20 0xFFFFFFFFFFFFFFFFFFFFFFFFFFFFFFFFFFFFFFFF MUL NOT AND SWAP1 DUP4 PUSH20 0xFFFFFFFFFFFFFFFFFFFFFFFFFFFFFFFFFFFFFFFF AND MUL OR SWAP1 SSTORE POP PUSH1 0x0 PUSH1 0x4 PUSH1 0x1C PUSH2 0x100 EXP DUP2 SLOAD DUP2 PUSH1 0xFF MUL NOT AND SWAP1 DUP4 PUSH1 0xFF AND MUL OR SWAP1 SSTORE POP PUSH2 0x2171 DUP1 PUSH2 0x164 PUSH1 0x0 CODECOPY PUSH1 0x0 RETURN INVALID PUSH1 0x80 PUSH1 0x40 MSTORE CALLVALUE DUP1 ISZERO PUSH2 0x10 JUMPI PUSH1 0x0 DUP1 REVERT JUMPDEST POP PUSH1 0x4 CALLDATASIZE LT PUSH2 0x93 JUMPI PUSH1 0x0 CALLDATALOAD PUSH1 0xE0 SHR DUP1 PUSH4 0x4E69D560 GT PUSH2 0x66 JUMPI DUP1 PUSH4 0x4E69D560 EQ PUSH2 0x146 JUMPI DUP1 PUSH4 0x74A29267 EQ PUSH2 0x164 JUMPI DUP1 PUSH4 0x7594A9E6 EQ PUSH2 0x194 JUMPI DUP1 PUSH4 0xEF220789 EQ PUSH2 0x1C4 JUMPI DUP1 PUSH4 0xF2FDE38B EQ PUSH2 0x1F4 JUMPI PUSH2 0x93 JUMP JUMPDEST DUP1 PUSH4 0x121B93F EQ PUSH2 0x98 JUMPI DUP1 PUSH4 0x20965255 EQ PUSH2 0xC8 JUMPI DUP1 PUSH4 0x2BAD96BA EQ PUSH2 0xE6 JUMPI DUP1 PUSH4 0x4C111FF8 EQ PUSH2 0x116 JUMPI JUMPDEST PUSH1 0x0 DUP1 REVERT JUMPDEST PUSH2 0xB2 PUSH1 0x4 DUP1 CALLDATASIZE SUB DUP2 ADD SWAP1 PUSH2 0xAD SWAP2 SWAP1 PUSH2 0x1CFF JUMP JUMPDEST PUSH2 0x210 JUMP JUMPDEST PUSH1 0x40 MLOAD PUSH2 0xBF SWAP2 SWAP1 PUSH2 0x1D47 JUMP JUMPDEST PUSH1 0x40 MLOAD DUP1 SWAP2 SUB SWAP1 RETURN JUMPDEST PUSH2 0xD0 PUSH2 0xB00 JUMP JUMPDEST PUSH1 0x40 MLOAD PUSH2 0xDD SWAP2 SWAP1 PUSH2 0x1D7E JUMP JUMPDEST PUSH1 0x40 MLOAD DUP1 SWAP2 SUB SWAP1 RETURN JUMPDEST PUSH2 0x100 PUSH1 0x4 DUP1 CALLDATASIZE SUB DUP2 ADD SWAP1 PUSH2 0xFB SWAP2 SWAP1 PUSH2 0x1DF7 JUMP JUMPDEST PUSH2 0xB17 JUMP JUMPDEST PUSH1 0x40 MLOAD PUSH2 0x10D SWAP2 SWAP1 PUSH2 0x1D47 JUMP JUMPDEST PUSH1 0x40 MLOAD DUP1 SWAP2 SUB SWAP1 RETURN JUMPDEST PUSH2 0x130 PUSH1 0x4 DUP1 CALLDATASIZE SUB DUP2 ADD SWAP1 PUSH2 0x12B SWAP2 SWAP1 PUSH2 0x1E50 JUMP JUMPDEST PUSH2 0xE23 JUMP JUMPDEST PUSH1 0x40 MLOAD PUSH2 0x13D SWAP2 SWAP1 PUSH2 0x1D47 JUMP JUMPDEST PUSH1 0x40 MLOAD DUP1 SWAP2 SUB SWAP1 RETURN JUMPDEST PUSH2 0x14E PUSH2 0xEA3 JUMP JUMPDEST PUSH1 0x40 MLOAD PUSH2 0x15B SWAP2 SWAP1 PUSH2 0x1F8B JUMP JUMPDEST PUSH1 0x40 MLOAD DUP1 SWAP2 SUB SWAP1 RETURN JUMPDEST PUSH2 0x17E PUSH1 0x4 DUP1 CALLDATASIZE SUB DUP2 ADD SWAP1 PUSH2 0x179 SWAP2 SWAP1 PUSH2 0x1CFF JUMP JUMPDEST PUSH2 0x1048 JUMP JUMPDEST PUSH1 0x40 MLOAD PUSH2 0x18B SWAP2 SWAP1 PUSH2 0x1FB6 JUMP JUMPDEST PUSH1 0x40 MLOAD DUP1 SWAP2 SUB SWAP1 RETURN JUMPDEST PUSH2 0x1AE PUSH1 0x4 DUP1 CALLDATASIZE SUB DUP2 ADD SWAP1 PUSH2 0x1A9 SWAP2 SWAP1 PUSH2 0x1DF7 JUMP JUMPDEST PUSH2 0x10EB JUMP JUMPDEST PUSH1 0x40 MLOAD PUSH2 0x1BB SWAP2 SWAP1 PUSH2 0x206A JUMP JUMPDEST PUSH1 0x40 MLOAD DUP1 SWAP2 SUB SWAP1 RETURN JUMPDEST PUSH2 0x1DE PUSH1 0x4 DUP1 CALLDATASIZE SUB DUP2 ADD SWAP1 PUSH2 0x1D9 SWAP2 SWAP1 PUSH2 0x1E50 JUMP JUMPDEST PUSH2 0x11BE JUMP JUMPDEST PUSH1 0x40 MLOAD PUSH2 0x1EB SWAP2 SWAP1 PUSH2 0x1D47 JUMP JUMPDEST PUSH1 0x40 MLOAD DUP1 SWAP2 SUB SWAP1 RETURN JUMPDEST PUSH2 0x20E PUSH1 0x4 DUP1 CALLDATASIZE SUB DUP2 ADD SWAP1 PUSH2 0x209 SWAP2 SWAP1 PUSH2 0x1DF7 JUMP JUMPDEST PUSH2 0x16A6 JUMP JUMPDEST STOP JUMPDEST PUSH1 0x0 DUP1 PUSH1 0x0 SWAP1 SLOAD SWAP1 PUSH2 0x100 EXP SWAP1 DIV PUSH20 0xFFFFFFFFFFFFFFFFFFFFFFFFFFFFFFFFFFFFFFFF AND PUSH20 0xFFFFFFFFFFFFFFFFFFFFFFFFFFFFFFFFFFFFFFFF AND CALLER PUSH20 0xFFFFFFFFFFFFFFFFFFFFFFFFFFFFFFFFFFFFFFFF AND EQ DUP1 PUSH2 0x2BA JUMPI POP PUSH1 0x1 PUSH1 0x0 SWAP1 SLOAD SWAP1 PUSH2 0x100 EXP SWAP1 DIV PUSH20 0xFFFFFFFFFFFFFFFFFFFFFFFFFFFFFFFFFFFFFFFF AND PUSH20 0xFFFFFFFFFFFFFFFFFFFFFFFFFFFFFFFFFFFFFFFF AND CALLER PUSH20 0xFFFFFFFFFFFFFFFFFFFFFFFFFFFFFFFFFFFFFFFF AND EQ JUMPDEST DUP1 PUSH2 0x312 JUMPI POP PUSH1 0x2 PUSH1 0x0 SWAP1 SLOAD SWAP1 PUSH2 0x100 EXP SWAP1 DIV PUSH20 0xFFFFFFFFFFFFFFFFFFFFFFFFFFFFFFFFFFFFFFFF AND PUSH20 0xFFFFFFFFFFFFFFFFFFFFFFFFFFFFFFFFFFFFFFFF AND CALLER PUSH20 0xFFFFFFFFFFFFFFFFFFFFFFFFFFFFFFFFFFFFFFFF AND EQ JUMPDEST PUSH2 0x31B JUMPI PUSH1 0x0 DUP1 REVERT JUMPDEST PUSH1 0x1 DUP3 EQ DUP1 PUSH2 0x32A JUMPI POP PUSH1 0x2 DUP3 EQ JUMPDEST DUP1 PUSH2 0x335 JUMPI POP PUSH1 0x3 DUP3 EQ JUMPDEST PUSH2 0x33E JUMPI PUSH1 0x0 DUP1 REVERT JUMPDEST PUSH1 0x0 DUP1 SLOAD SWAP1 PUSH2 0x100 EXP SWAP1 DIV PUSH20 0xFFFFFFFFFFFFFFFFFFFFFFFFFFFFFFFFFFFFFFFF AND PUSH20 0xFFFFFFFFFFFFFFFFFFFFFFFFFFFFFFFFFFFFFFFF AND CALLER PUSH20 0xFFFFFFFFFFFFFFFFFFFFFFFFFFFFFFFFFFFFFFFF AND EQ DUP1 ISZERO PUSH2 0x3AB JUMPI POP PUSH1 0x0 PUSH1 0x4 PUSH1 0x2 SWAP1 SLOAD SWAP1 PUSH2 0x100 EXP SWAP1 DIV PUSH1 0xFF AND PUSH1 0xFF AND EQ JUMPDEST ISZERO PUSH2 0x49D JUMPI PUSH1 0x1 DUP3 EQ ISZERO PUSH2 0x3F6 JUMPI PUSH1 0x4 PUSH1 0x5 DUP2 DUP2 SWAP1 SLOAD SWAP1 PUSH2 0x100 EXP SWAP1 DIV PUSH1 0xFF AND DUP1 SWAP3 SWAP2 SWAP1 PUSH2 0x3D8 SWAP1 PUSH2 0x20BB JUMP JUMPDEST SWAP2 SWAP1 PUSH2 0x100 EXP DUP2 SLOAD DUP2 PUSH1 0xFF MUL NOT AND SWAP1 DUP4 PUSH1 0xFF AND MUL OR SWAP1 SSTORE POP POP PUSH2 0x480 JUMP JUMPDEST PUSH1 0x2 DUP3 EQ ISZERO PUSH2 0x43C JUMPI PUSH1 0x4 PUSH1 0x6 DUP2 DUP2 SWAP1 SLOAD SWAP1 PUSH2 0x100 EXP SWAP1 DIV PUSH1 0xFF AND DUP1 SWAP3 SWAP2 SWAP1 PUSH2 0x41E SWAP1 PUSH2 0x20BB JUMP JUMPDEST SWAP2 SWAP1 PUSH2 0x100 EXP DUP2 SLOAD DUP2 PUSH1 0xFF MUL NOT AND SWAP1 DUP4 PUSH1 0xFF AND MUL OR SWAP1 SSTORE POP POP PUSH2 0x47F JUMP JUMPDEST PUSH1 0x3 DUP3 EQ ISZERO PUSH2 0x47E JUMPI PUSH1 0x4 PUSH1 0x7 DUP2 DUP2 SWAP1 SLOAD SWAP1 PUSH2 0x100 EXP SWAP1 DIV PUSH1 0xFF AND DUP1 SWAP3 SWAP2 SWAP1 PUSH2 0x464 SWAP1 PUSH2 0x20BB JUMP JUMPDEST SWAP2 SWAP1 PUSH2 0x100 EXP DUP2 SLOAD DUP2 PUSH1 0xFF MUL NOT AND SWAP1 DUP4 PUSH1 0xFF AND MUL OR SWAP1 SSTORE POP POP JUMPDEST JUMPDEST JUMPDEST PUSH1 0x1 PUSH1 0x4 PUSH1 0x2 PUSH2 0x100 EXP DUP2 SLOAD DUP2 PUSH1 0xFF MUL NOT AND SWAP1 DUP4 PUSH1 0xFF AND MUL OR SWAP1 SSTORE POP JUMPDEST PUSH1 0x1 PUSH1 0x0 SWAP1 SLOAD SWAP1 PUSH2 0x100 EXP SWAP1 DIV PUSH20 0xFFFFFFFFFFFFFFFFFFFFFFFFFFFFFFFFFFFFFFFF AND PUSH20 0xFFFFFFFFFFFFFFFFFFFFFFFFFFFFFFFFFFFFFFFF AND CALLER PUSH20 0xFFFFFFFFFFFFFFFFFFFFFFFFFFFFFFFFFFFFFFFF AND EQ DUP1 ISZERO PUSH2 0x50C JUMPI POP PUSH1 0x0 PUSH1 0x4 PUSH1 0x3 SWAP1 SLOAD SWAP1 PUSH2 0x100 EXP SWAP1 DIV PUSH1 0xFF AND PUSH1 0xFF AND EQ JUMPDEST ISZERO PUSH2 0x5FE JUMPI PUSH1 0x1 DUP3 EQ ISZERO PUSH2 0x557 JUMPI PUSH1 0x4 PUSH1 0x5 DUP2 DUP2 SWAP1 SLOAD SWAP1 PUSH2 0x100 EXP SWAP1 DIV PUSH1 0xFF AND DUP1 SWAP3 SWAP2 SWAP1 PUSH2 0x539 SWAP1 PUSH2 0x20BB JUMP JUMPDEST SWAP2 SWAP1 PUSH2 0x100 EXP DUP2 SLOAD DUP2 PUSH1 0xFF MUL NOT AND SWAP1 DUP4 PUSH1 0xFF AND MUL OR SWAP1 SSTORE POP POP PUSH2 0x5E1 JUMP JUMPDEST PUSH1 0x2 DUP3 EQ ISZERO PUSH2 0x59D JUMPI PUSH1 0x4 PUSH1 0x6 DUP2 DUP2 SWAP1 SLOAD SWAP1 PUSH2 0x100 EXP SWAP1 DIV PUSH1 0xFF AND DUP1 SWAP3 SWAP2 SWAP1 PUSH2 0x57F SWAP1 PUSH2 0x20BB JUMP JUMPDEST SWAP2 SWAP1 PUSH2 0x100 EXP DUP2 SLOAD DUP2 PUSH1 0xFF MUL NOT AND SWAP1 DUP4 PUSH1 0xFF AND MUL OR SWAP1 SSTORE POP POP PUSH2 0x5E0 JUMP JUMPDEST PUSH1 0x3 DUP3 EQ ISZERO PUSH2 0x5DF JUMPI PUSH1 0x4 PUSH1 0x7 DUP2 DUP2 SWAP1 SLOAD SWAP1 PUSH2 0x100 EXP SWAP1 DIV PUSH1 0xFF AND DUP1 SWAP3 SWAP2 SWAP1 PUSH2 0x5C5 SWAP1 PUSH2 0x20BB JUMP JUMPDEST SWAP2 SWAP1 PUSH2 0x100 EXP DUP2 SLOAD DUP2 PUSH1 0xFF MUL NOT AND SWAP1 DUP4 PUSH1 0xFF AND MUL OR SWAP1 SSTORE POP POP JUMPDEST JUMPDEST JUMPDEST PUSH1 0x1 PUSH1 0x4 PUSH1 0x3 PUSH2 0x100 EXP DUP2 SLOAD DUP2 PUSH1 0xFF MUL NOT AND SWAP1 DUP4 PUSH1 0xFF AND MUL OR SWAP1 SSTORE POP JUMPDEST PUSH1 0x2 PUSH1 0x0 SWAP1 SLOAD SWAP1 PUSH2 0x100 EXP SWAP1 DIV PUSH20 0xFFFFFFFFFFFFFFFFFFFFFFFFFFFFFFFFFFFFFFFF AND PUSH20 0xFFFFFFFFFFFFFFFFFFFFFFFFFFFFFFFFFFFFFFFF AND CALLER PUSH20 0xFFFFFFFFFFFFFFFFFFFFFFFFFFFFFFFFFFFFFFFF AND EQ DUP1 ISZERO PUSH2 0x66B JUMPI POP PUSH1 0x0 PUSH1 0x4 DUP1 SLOAD SWAP1 PUSH2 0x100 EXP SWAP1 DIV PUSH1 0xFF AND PUSH1 0xFF AND EQ JUMPDEST ISZERO PUSH2 0x75C JUMPI PUSH1 0x1 DUP3 EQ ISZERO PUSH2 0x6B6 JUMPI PUSH1 0x4 PUSH1 0x5 DUP2 DUP2 SWAP1 SLOAD SWAP1 PUSH2 0x100 EXP SWAP1 DIV PUSH1 0xFF AND DUP1 SWAP3 SWAP2 SWAP1 PUSH2 0x698 SWAP1 PUSH2 0x20BB JUMP JUMPDEST SWAP2 SWAP1 PUSH2 0x100 EXP DUP2 SLOAD DUP2 PUSH1 0xFF MUL NOT AND SWAP1 DUP4 PUSH1 0xFF AND MUL OR SWAP1 SSTORE POP POP PUSH2 0x740 JUMP JUMPDEST PUSH1 0x2 DUP3 EQ ISZERO PUSH2 0x6FC JUMPI PUSH1 0x4 PUSH1 0x6 DUP2 DUP2 SWAP1 SLOAD SWAP1 PUSH2 0x100 EXP SWAP1 DIV PUSH1 0xFF AND DUP1 SWAP3 SWAP2 SWAP1 PUSH2 0x6DE SWAP1 PUSH2 0x20BB JUMP JUMPDEST SWAP2 SWAP1 PUSH2 0x100 EXP DUP2 SLOAD DUP2 PUSH1 0xFF MUL NOT AND SWAP1 DUP4 PUSH1 0xFF AND MUL OR SWAP1 SSTORE POP POP PUSH2 0x73F JUMP JUMPDEST PUSH1 0x3 DUP3 EQ ISZERO PUSH2 0x73E JUMPI PUSH1 0x4 PUSH1 0x7 DUP2 DUP2 SWAP1 SLOAD SWAP1 PUSH2 0x100 EXP SWAP1 DIV PUSH1 0xFF AND DUP1 SWAP3 SWAP2 SWAP1 PUSH2 0x724 SWAP1 PUSH2 0x20BB JUMP JUMPDEST SWAP2 SWAP1 PUSH2 0x100 EXP DUP2 SLOAD DUP2 PUSH1 0xFF MUL NOT AND SWAP1 DUP4 PUSH1 0xFF AND MUL OR SWAP1 SSTORE POP POP JUMPDEST JUMPDEST JUMPDEST PUSH1 0x1 PUSH1 0x4 DUP1 PUSH2 0x100 EXP DUP2 SLOAD DUP2 PUSH1 0xFF MUL NOT AND SWAP1 DUP4 PUSH1 0xFF AND MUL OR SWAP1 SSTORE POP JUMPDEST PUSH1 0x1 PUSH1 0x4 PUSH1 0x2 SWAP1 SLOAD SWAP1 PUSH2 0x100 EXP SWAP1 DIV PUSH1 0xFF AND PUSH1 0xFF AND EQ DUP1 ISZERO PUSH2 0x790 JUMPI POP PUSH1 0x1 PUSH1 0x4 PUSH1 0x3 SWAP1 SLOAD SWAP1 PUSH2 0x100 EXP SWAP1 DIV PUSH1 0xFF AND PUSH1 0xFF AND EQ JUMPDEST DUP1 ISZERO PUSH2 0x7AC JUMPI POP PUSH1 0x1 PUSH1 0x4 DUP1 SLOAD SWAP1 PUSH2 0x100 EXP SWAP1 DIV PUSH1 0xFF AND PUSH1 0xFF AND EQ JUMPDEST DUP1 ISZERO PUSH2 0x806 JUMPI POP PUSH1 0x0 PUSH20 0xFFFFFFFFFFFFFFFFFFFFFFFFFFFFFFFFFFFFFFFF AND PUSH1 0x4 PUSH1 0x8 SWAP1 SLOAD SWAP1 PUSH2 0x100 EXP SWAP1 DIV PUSH20 0xFFFFFFFFFFFFFFFFFFFFFFFFFFFFFFFFFFFFFFFF AND PUSH20 0xFFFFFFFFFFFFFFFFFFFFFFFFFFFFFFFFFFFFFFFF AND EQ JUMPDEST ISZERO PUSH2 0xAF6 JUMPI PUSH1 0x2 PUSH1 0x4 PUSH1 0x5 SWAP1 SLOAD SWAP1 PUSH2 0x100 EXP SWAP1 DIV PUSH1 0xFF AND PUSH1 0xFF AND LT PUSH2 0x88B JUMPI PUSH1 0x0 DUP1 SLOAD SWAP1 PUSH2 0x100 EXP SWAP1 DIV PUSH20 0xFFFFFFFFFFFFFFFFFFFFFFFFFFFFFFFFFFFFFFFF AND PUSH1 0x4 PUSH1 0x8 PUSH2 0x100 EXP DUP2 SLOAD DUP2 PUSH20 0xFFFFFFFFFFFFFFFFFFFFFFFFFFFFFFFFFFFFFFFF MUL NOT AND SWAP1 DUP4 PUSH20 0xFFFFFFFFFFFFFFFFFFFFFFFFFFFFFFFFFFFFFFFF AND MUL OR SWAP1 SSTORE POP PUSH2 0x98D JUMP JUMPDEST PUSH1 0x2 PUSH1 0x4 PUSH1 0x6 SWAP1 SLOAD SWAP1 PUSH2 0x100 EXP SWAP1 DIV PUSH1 0xFF AND PUSH1 0xFF AND LT PUSH2 0x90D JUMPI PUSH1 0x1 PUSH1 0x0 SWAP1 SLOAD SWAP1 PUSH2 0x100 EXP SWAP1 DIV PUSH20 0xFFFFFFFFFFFFFFFFFFFFFFFFFFFFFFFFFFFFFFFF AND PUSH1 0x4 PUSH1 0x8 PUSH2 0x100 EXP DUP2 SLOAD DUP2 PUSH20 0xFFFFFFFFFFFFFFFFFFFFFFFFFFFFFFFFFFFFFFFF MUL NOT AND SWAP1 DUP4 PUSH20 0xFFFFFFFFFFFFFFFFFFFFFFFFFFFFFFFFFFFFFFFF AND MUL OR SWAP1 SSTORE POP PUSH2 0x98C JUMP JUMPDEST PUSH1 0x2 PUSH1 0x4 PUSH1 0x7 SWAP1 SLOAD SWAP1 PUSH2 0x100 EXP SWAP1 DIV PUSH1 0xFF AND PUSH1 0xFF AND LT PUSH2 0x98B JUMPI PUSH1 0x2 PUSH1 0x0 SWAP1 SLOAD SWAP1 PUSH2 0x100 EXP SWAP1 DIV PUSH20 0xFFFFFFFFFFFFFFFFFFFFFFFFFFFFFFFFFFFFFFFF AND PUSH1 0x4 PUSH1 0x8 PUSH2 0x100 EXP DUP2 SLOAD DUP2 PUSH20 0xFFFFFFFFFFFFFFFFFFFFFFFFFFFFFFFFFFFFFFFF MUL NOT AND SWAP1 DUP4 PUSH20 0xFFFFFFFFFFFFFFFFFFFFFFFFFFFFFFFFFFFFFFFF AND MUL OR SWAP1 SSTORE POP JUMPDEST JUMPDEST JUMPDEST PUSH1 0x0 PUSH1 0x4 PUSH1 0x2 PUSH2 0x100 EXP DUP2 SLOAD DUP2 PUSH1 0xFF MUL NOT AND SWAP1 DUP4 PUSH1 0xFF AND MUL OR SWAP1 SSTORE POP PUSH1 0x0 PUSH1 0x4 PUSH1 0x3 PUSH2 0x100 EXP DUP2 SLOAD DUP2 PUSH1 0xFF MUL NOT AND SWAP1 DUP4 PUSH1 0xFF AND MUL OR SWAP1 SSTORE POP PUSH1 0x0 PUSH1 0x4 DUP1 PUSH2 0x100 EXP DUP2 SLOAD DUP2 PUSH1 0xFF MUL NOT AND SWAP1 DUP4 PUSH1 0xFF AND MUL OR SWAP1 SSTORE POP PUSH1 0x0 PUSH1 0x4 PUSH1 0x5 PUSH2 0x100 EXP DUP2 SLOAD DUP2 PUSH1 0xFF MUL NOT AND SWAP1 DUP4 PUSH1 0xFF AND MUL OR SWAP1 SSTORE POP PUSH1 0x0 PUSH1 0x4 PUSH1 0x6 PUSH2 0x100 EXP DUP2 SLOAD DUP2 PUSH1 0xFF MUL NOT AND SWAP1 DUP4 PUSH1 0xFF AND MUL OR SWAP1 SSTORE POP PUSH1 0x0 PUSH1 0x4 PUSH1 0x7 PUSH2 0x100 EXP DUP2 SLOAD DUP2 PUSH1 0xFF MUL NOT AND SWAP1 DUP4 PUSH1 0xFF AND MUL OR SWAP1 SSTORE POP PUSH1 0x0 PUSH20 0xFFFFFFFFFFFFFFFFFFFFFFFFFFFFFFFFFFFFFFFF AND PUSH1 0x4 PUSH1 0x8 SWAP1 SLOAD SWAP1 PUSH2 0x100 EXP SWAP1 DIV PUSH20 0xFFFFFFFFFFFFFFFFFFFFFFFFFFFFFFFFFFFFFFFF AND PUSH20 0xFFFFFFFFFFFFFFFFFFFFFFFFFFFFFFFFFFFFFFFF AND EQ ISZERO PUSH2 0xAED JUMPI PUSH1 0x0 DUP1 SLOAD SWAP1 PUSH2 0x100 EXP SWAP1 DIV PUSH20 0xFFFFFFFFFFFFFFFFFFFFFFFFFFFFFFFFFFFFFFFF AND PUSH1 0x4 PUSH1 0x8 PUSH2 0x100 EXP DUP2 SLOAD DUP2 PUSH20 0xFFFFFFFFFFFFFFFFFFFFFFFFFFFFFFFFFFFFFFFF MUL NOT AND SWAP1 DUP4 PUSH20 0xFFFFFFFFFFFFFFFFFFFFFFFFFFFFFFFFFFFFFFFF AND MUL OR SWAP1 SSTORE POP JUMPDEST PUSH1 0x1 SWAP1 POP PUSH2 0xAFB JUMP JUMPDEST PUSH1 0x0 SWAP1 POP JUMPDEST SWAP2 SWAP1 POP JUMP JUMPDEST PUSH1 0x0 PUSH1 0x4 PUSH1 0x1C SWAP1 SLOAD SWAP1 PUSH2 0x100 EXP SWAP1 DIV PUSH1 0xFF AND SWAP1 POP SWAP1 JUMP JUMPDEST PUSH1 0x0 PUSH1 0x3 PUSH1 0x4 PUSH1 0x0 SWAP1 SLOAD SWAP1 PUSH2 0x100 EXP SWAP1 DIV PUSH1 0xFF AND PUSH1 0xFF AND EQ ISZERO PUSH2 0xB3D JUMPI PUSH1 0x0 SWAP1 POP PUSH2 0xE1E JUMP JUMPDEST PUSH1 0x0 PUSH1 0x4 PUSH1 0x0 SWAP1 SLOAD SWAP1 PUSH2 0x100 EXP SWAP1 DIV PUSH1 0xFF AND PUSH1 0xFF AND EQ ISZERO PUSH2 0xBD9 JUMPI DUP2 PUSH1 0x0 DUP1 PUSH2 0x100 EXP DUP2 SLOAD DUP2 PUSH20 0xFFFFFFFFFFFFFFFFFFFFFFFFFFFFFFFFFFFFFFFF MUL NOT AND SWAP1 DUP4 PUSH20 0xFFFFFFFFFFFFFFFFFFFFFFFFFFFFFFFFFFFFFFFF AND MUL OR SWAP1 SSTORE POP PUSH1 0x4 PUSH1 0x0 DUP2 DUP2 SWAP1 SLOAD SWAP1 PUSH2 0x100 EXP SWAP1 DIV PUSH1 0xFF AND DUP1 SWAP3 SWAP2 SWAP1 PUSH2 0xBB7 SWAP1 PUSH2 0x20BB JUMP JUMPDEST SWAP2 SWAP1 PUSH2 0x100 EXP DUP2 SLOAD DUP2 PUSH1 0xFF MUL NOT AND SWAP1 DUP4 PUSH1 0xFF AND MUL OR SWAP1 SSTORE POP POP PUSH1 0x1 SWAP1 POP PUSH2 0xE1E JUMP JUMPDEST PUSH1 0x1 PUSH1 0x4 PUSH1 0x0 SWAP1 SLOAD SWAP1 PUSH2 0x100 EXP SWAP1 DIV PUSH1 0xFF AND PUSH1 0xFF AND EQ DUP1 ISZERO PUSH2 0xC47 JUMPI POP DUP2 PUSH20 0xFFFFFFFFFFFFFFFFFFFFFFFFFFFFFFFFFFFFFFFF AND PUSH1 0x0 DUP1 SLOAD SWAP1 PUSH2 0x100 EXP SWAP1 DIV PUSH20 0xFFFFFFFFFFFFFFFFFFFFFFFFFFFFFFFFFFFFFFFF AND PUSH20 0xFFFFFFFFFFFFFFFFFFFFFFFFFFFFFFFFFFFFFFFF AND EQ ISZERO JUMPDEST ISZERO PUSH2 0xCCE JUMPI DUP2 PUSH1 0x1 PUSH1 0x0 PUSH2 0x100 EXP DUP2 SLOAD DUP2 PUSH20 0xFFFFFFFFFFFFFFFFFFFFFFFFFFFFFFFFFFFFFFFF MUL NOT AND SWAP1 DUP4 PUSH20 0xFFFFFFFFFFFFFFFFFFFFFFFFFFFFFFFFFFFFFFFF AND MUL OR SWAP1 SSTORE POP PUSH1 0x4 PUSH1 0x0 DUP2 DUP2 SWAP1 SLOAD SWAP1 PUSH2 0x100 EXP SWAP1 DIV PUSH1 0xFF AND DUP1 SWAP3 SWAP2 SWAP1 PUSH2 0xCAC SWAP1 PUSH2 0x20BB JUMP JUMPDEST SWAP2 SWAP1 PUSH2 0x100 EXP DUP2 SLOAD DUP2 PUSH1 0xFF MUL NOT AND SWAP1 DUP4 PUSH1 0xFF AND MUL OR SWAP1 SSTORE POP POP PUSH1 0x1 SWAP1 POP PUSH2 0xE1E JUMP JUMPDEST PUSH1 0x2 PUSH1 0x4 PUSH1 0x0 SWAP1 SLOAD SWAP1 PUSH2 0x100 EXP SWAP1 DIV PUSH1 0xFF AND PUSH1 0xFF AND EQ DUP1 ISZERO PUSH2 0xD3C JUMPI POP DUP2 PUSH20 0xFFFFFFFFFFFFFFFFFFFFFFFFFFFFFFFFFFFFFFFF AND PUSH1 0x0 DUP1 SLOAD SWAP1 PUSH2 0x100 EXP SWAP1 DIV PUSH20 0xFFFFFFFFFFFFFFFFFFFFFFFFFFFFFFFFFFFFFFFF AND PUSH20 0xFFFFFFFFFFFFFFFFFFFFFFFFFFFFFFFFFFFFFFFF AND EQ ISZERO JUMPDEST DUP1 ISZERO PUSH2 0xD96 JUMPI POP DUP2 PUSH20 0xFFFFFFFFFFFFFFFFFFFFFFFFFFFFFFFFFFFFFFFF AND PUSH1 0x1 PUSH1 0x0 SWAP1 SLOAD SWAP1 PUSH2 0x100 EXP SWAP1 DIV PUSH20 0xFFFFFFFFFFFFFFFFFFFFFFFFFFFFFFFFFFFFFFFF AND PUSH20 0xFFFFFFFFFFFFFFFFFFFFFFFFFFFFFFFFFFFFFFFF AND EQ ISZERO JUMPDEST ISZERO PUSH2 0xE1D JUMPI DUP2 PUSH1 0x2 PUSH1 0x0 PUSH2 0x100 EXP DUP2 SLOAD DUP2 PUSH20 0xFFFFFFFFFFFFFFFFFFFFFFFFFFFFFFFFFFFFFFFF MUL NOT AND SWAP1 DUP4 PUSH20 0xFFFFFFFFFFFFFFFFFFFFFFFFFFFFFFFFFFFFFFFF AND MUL OR SWAP1 SSTORE POP PUSH1 0x4 PUSH1 0x0 DUP2 DUP2 SWAP1 SLOAD SWAP1 PUSH2 0x100 EXP SWAP1 DIV PUSH1 0xFF AND DUP1 SWAP3 SWAP2 SWAP1 PUSH2 0xDFB SWAP1 PUSH2 0x20BB JUMP JUMPDEST SWAP2 SWAP1 PUSH2 0x100 EXP DUP2 SLOAD DUP2 PUSH1 0xFF MUL NOT AND SWAP1 DUP4 PUSH1 0xFF AND MUL OR SWAP1 SSTORE POP POP PUSH1 0x1 SWAP1 POP PUSH2 0xE1E JUMP JUMPDEST JUMPDEST SWAP2 SWAP1 POP JUMP JUMPDEST PUSH1 0x0 PUSH1 0x4 PUSH1 0x8 SWAP1 SLOAD SWAP1 PUSH2 0x100 EXP SWAP1 DIV PUSH20 0xFFFFFFFFFFFFFFFFFFFFFFFFFFFFFFFFFFFFFFFF AND PUSH20 0xFFFFFFFFFFFFFFFFFFFFFFFFFFFFFFFFFFFFFFFF AND CALLER PUSH20 0xFFFFFFFFFFFFFFFFFFFFFFFFFFFFFFFFFFFFFFFF AND EQ PUSH2 0xE7F JUMPI PUSH1 0x0 DUP1 REVERT JUMPDEST DUP2 PUSH1 0x4 PUSH1 0x1C PUSH2 0x100 EXP DUP2 SLOAD DUP2 PUSH1 0xFF MUL NOT AND SWAP1 DUP4 PUSH1 0xFF AND MUL OR SWAP1 SSTORE POP PUSH1 0x1 SWAP1 POP SWAP2 SWAP1 POP JUMP JUMPDEST PUSH2 0xEAB PUSH2 0x1C39 JUMP JUMPDEST PUSH2 0xEB3 PUSH2 0x1C39 JUMP JUMPDEST PUSH1 0x4 PUSH1 0x0 SWAP1 SLOAD SWAP1 PUSH2 0x100 EXP SWAP1 DIV PUSH1 0xFF AND DUP2 PUSH1 0x0 ADD SWAP1 PUSH1 0xFF AND SWAP1 DUP2 PUSH1 0xFF AND DUP2 MSTORE POP POP PUSH1 0x4 PUSH1 0x1 SWAP1 SLOAD SWAP1 PUSH2 0x100 EXP SWAP1 DIV PUSH1 0xFF AND DUP2 PUSH1 0x20 ADD SWAP1 PUSH1 0xFF AND SWAP1 DUP2 PUSH1 0xFF AND DUP2 MSTORE POP POP PUSH1 0x4 PUSH1 0x2 SWAP1 SLOAD SWAP1 PUSH2 0x100 EXP SWAP1 DIV PUSH1 0xFF AND DUP2 PUSH1 0x40 ADD SWAP1 PUSH1 0xFF AND SWAP1 DUP2 PUSH1 0xFF AND DUP2 MSTORE POP POP PUSH1 0x4 PUSH1 0x3 SWAP1 SLOAD SWAP1 PUSH2 0x100 EXP SWAP1 DIV PUSH1 0xFF AND DUP2 PUSH1 0x60 ADD SWAP1 PUSH1 0xFF AND SWAP1 DUP2 PUSH1 0xFF AND DUP2 MSTORE POP POP PUSH1 0x4 DUP1 SLOAD SWAP1 PUSH2 0x100 EXP SWAP1 DIV PUSH1 0xFF AND DUP2 PUSH1 0x80 ADD SWAP1 PUSH1 0xFF AND SWAP1 DUP2 PUSH1 0xFF AND DUP2 MSTORE POP POP PUSH1 0x4 PUSH1 0x5 SWAP1 SLOAD SWAP1 PUSH2 0x100 EXP SWAP1 DIV PUSH1 0xFF AND DUP2 PUSH1 0xA0 ADD SWAP1 PUSH1 0xFF AND SWAP1 DUP2 PUSH1 0xFF AND DUP2 MSTORE POP POP PUSH1 0x4 PUSH1 0x6 SWAP1 SLOAD SWAP1 PUSH2 0x100 EXP SWAP1 DIV PUSH1 0xFF AND DUP2 PUSH1 0xC0 ADD SWAP1 PUSH1 0xFF AND SWAP1 DUP2 PUSH1 0xFF AND DUP2 MSTORE POP POP PUSH1 0x4 PUSH1 0x7 SWAP1 SLOAD SWAP1 PUSH2 0x100 EXP SWAP1 DIV PUSH1 0xFF AND DUP2 PUSH1 0xE0 ADD SWAP1 PUSH1 0xFF AND SWAP1 DUP2 PUSH1 0xFF AND DUP2 MSTORE POP POP PUSH1 0x4 PUSH1 0x8 SWAP1 SLOAD SWAP1 PUSH2 0x100 EXP SWAP1 DIV PUSH20 0xFFFFFFFFFFFFFFFFFFFFFFFFFFFFFFFFFFFFFFFF AND DUP2 PUSH2 0x100 ADD SWAP1 PUSH20 0xFFFFFFFFFFFFFFFFFFFFFFFFFFFFFFFFFFFFFFFF AND SWAP1 DUP2 PUSH20 0xFFFFFFFFFFFFFFFFFFFFFFFFFFFFFFFFFFFFFFFF AND DUP2 MSTORE POP POP PUSH1 0x4 PUSH1 0x1C SWAP1 SLOAD SWAP1 PUSH2 0x100 EXP SWAP1 DIV PUSH1 0xFF AND DUP2 PUSH2 0x120 ADD SWAP1 PUSH1 0xFF AND SWAP1 DUP2 PUSH1 0xFF AND DUP2 MSTORE POP POP TIMESTAMP DUP2 PUSH2 0x140 ADD DUP2 DUP2 MSTORE POP POP DUP1 SWAP2 POP POP SWAP1 JUMP JUMPDEST PUSH1 0x0 PUSH1 0x1 DUP3 EQ ISZERO PUSH2 0x107B JUMPI PUSH1 0x0 DUP1 SLOAD SWAP1 PUSH2 0x100 EXP SWAP1 DIV PUSH20 0xFFFFFFFFFFFFFFFFFFFFFFFFFFFFFFFFFFFFFFFF AND SWAP1 POP PUSH2 0x10E6 JUMP JUMPDEST PUSH1 0x2 DUP3 EQ ISZERO PUSH2 0x10AE JUMPI PUSH1 0x1 PUSH1 0x0 SWAP1 SLOAD SWAP1 PUSH2 0x100 EXP SWAP1 DIV PUSH20 0xFFFFFFFFFFFFFFFFFFFFFFFFFFFFFFFFFFFFFFFF AND SWAP1 POP PUSH2 0x10E6 JUMP JUMPDEST PUSH1 0x3 DUP3 EQ ISZERO PUSH2 0x10E1 JUMPI PUSH1 0x2 PUSH1 0x0 SWAP1 SLOAD SWAP1 PUSH2 0x100 EXP SWAP1 DIV PUSH20 0xFFFFFFFFFFFFFFFFFFFFFFFFFFFFFFFFFFFFFFFF AND SWAP1 POP PUSH2 0x10E6 JUMP JUMPDEST PUSH1 0x0 SWAP1 POP JUMPDEST SWAP2 SWAP1 POP JUMP JUMPDEST PUSH1 0x60 DUP2 PUSH20 0xFFFFFFFFFFFFFFFFFFFFFFFFFFFFFFFFFFFFFFFF AND PUSH1 0x4 PUSH1 0x8 SWAP1 SLOAD SWAP1 PUSH2 0x100 EXP SWAP1 DIV PUSH20 0xFFFFFFFFFFFFFFFFFFFFFFFFFFFFFFFFFFFFFFFF AND PUSH20 0xFFFFFFFFFFFFFFFFFFFFFFFFFFFFFFFFFFFFFFFF AND EQ ISZERO PUSH2 0x1180 JUMPI PUSH1 0x40 MLOAD DUP1 PUSH1 0x40 ADD PUSH1 0x40 MSTORE DUP1 PUSH1 0x9 DUP2 MSTORE PUSH1 0x20 ADD PUSH32 0x7265616C4F776E65720000000000000000000000000000000000000000000000 DUP2 MSTORE POP SWAP1 POP PUSH2 0x11B9 JUMP JUMPDEST PUSH1 0x40 MLOAD DUP1 PUSH1 0x40 ADD PUSH1 0x40 MSTORE DUP1 PUSH1 0xD DUP2 MSTORE PUSH1 0x20 ADD PUSH32 0x4E6F74207265616C4F776E657200000000000000000000000000000000000000 DUP2 MSTORE POP SWAP1 POP JUMPDEST SWAP2 SWAP1 POP JUMP JUMPDEST PUSH1 0x0 DUP1 PUSH1 0x0 SWAP1 SLOAD SWAP1 PUSH2 0x100 EXP SWAP1 DIV PUSH20 0xFFFFFFFFFFFFFFFFFFFFFFFFFFFFFFFFFFFFFFFF AND PUSH20 0xFFFFFFFFFFFFFFFFFFFFFFFFFFFFFFFFFFFFFFFF AND CALLER PUSH20 0xFFFFFFFFFFFFFFFFFFFFFFFFFFFFFFFFFFFFFFFF AND EQ DUP1 PUSH2 0x1268 JUMPI POP PUSH1 0x1 PUSH1 0x0 SWAP1 SLOAD SWAP1 PUSH2 0x100 EXP SWAP1 DIV PUSH20 0xFFFFFFFFFFFFFFFFFFFFFFFFFFFFFFFFFFFFFFFF AND PUSH20 0xFFFFFFFFFFFFFFFFFFFFFFFFFFFFFFFFFFFFFFFF AND CALLER PUSH20 0xFFFFFFFFFFFFFFFFFFFFFFFFFFFFFFFFFFFFFFFF AND EQ JUMPDEST DUP1 PUSH2 0x12C0 JUMPI POP PUSH1 0x2 PUSH1 0x0 SWAP1 SLOAD SWAP1 PUSH2 0x100 EXP SWAP1 DIV PUSH20 0xFFFFFFFFFFFFFFFFFFFFFFFFFFFFFFFFFFFFFFFF AND PUSH20 0xFFFFFFFFFFFFFFFFFFFFFFFFFFFFFFFFFFFFFFFF AND CALLER PUSH20 0xFFFFFFFFFFFFFFFFFFFFFFFFFFFFFFFFFFFFFFFF AND EQ JUMPDEST PUSH2 0x12C9 JUMPI PUSH1 0x0 DUP1 REVERT JUMPDEST PUSH2 0x1388 PUSH1 0x3 SLOAD PUSH2 0x12D9 SWAP2 SWAP1 PUSH2 0x20E5 JUMP JUMPDEST NUMBER LT ISZERO PUSH2 0x12E9 JUMPI PUSH1 0x0 SWAP1 POP PUSH2 0x16A1 JUMP JUMPDEST PUSH1 0x1 DUP3 PUSH1 0xFF AND EQ DUP1 ISZERO PUSH2 0x130E JUMPI POP PUSH1 0x1 PUSH1 0x4 PUSH1 0x2 SWAP1 SLOAD SWAP1 PUSH2 0x100 EXP SWAP1 DIV PUSH1 0xFF AND PUSH1 0xFF AND EQ JUMPDEST ISZERO PUSH2 0x1424 JUMPI PUSH1 0x0 DUP1 SLOAD SWAP1 PUSH2 0x100 EXP SWAP1 DIV PUSH20 0xFFFFFFFFFFFFFFFFFFFFFFFFFFFFFFFFFFFFFFFF AND PUSH1 0x4 PUSH1 0x8 PUSH2 0x100 EXP DUP2 SLOAD DUP2 PUSH20 0xFFFFFFFFFFFFFFFFFFFFFFFFFFFFFFFFFFFFFFFF MUL NOT AND SWAP1 DUP4 PUSH20 0xFFFFFFFFFFFFFFFFFFFFFFFFFFFFFFFFFFFFFFFF AND MUL OR SWAP1 SSTORE POP PUSH1 0x0 PUSH1 0x4 PUSH1 0x2 PUSH2 0x100 EXP DUP2 SLOAD DUP2 PUSH1 0xFF MUL NOT AND SWAP1 DUP4 PUSH1 0xFF AND MUL OR SWAP1 SSTORE POP PUSH1 0x0 PUSH1 0x4 PUSH1 0x3 PUSH2 0x100 EXP DUP2 SLOAD DUP2 PUSH1 0xFF MUL NOT AND SWAP1 DUP4 PUSH1 0xFF AND MUL OR SWAP1 SSTORE POP PUSH1 0x0 PUSH1 0x4 DUP1 PUSH2 0x100 EXP DUP2 SLOAD DUP2 PUSH1 0xFF MUL NOT AND SWAP1 DUP4 PUSH1 0xFF AND MUL OR SWAP1 SSTORE POP PUSH1 0x0 PUSH1 0x4 PUSH1 0x5 PUSH2 0x100 EXP DUP2 SLOAD DUP2 PUSH1 0xFF MUL NOT AND SWAP1 DUP4 PUSH1 0xFF AND MUL OR SWAP1 SSTORE POP PUSH1 0x0 PUSH1 0x4 PUSH1 0x6 PUSH2 0x100 EXP DUP2 SLOAD DUP2 PUSH1 0xFF MUL NOT AND SWAP1 DUP4 PUSH1 0xFF AND MUL OR SWAP1 SSTORE POP PUSH1 0x0 PUSH1 0x4 PUSH1 0x7 PUSH2 0x100 EXP DUP2 SLOAD DUP2 PUSH1 0xFF MUL NOT AND SWAP1 DUP4 PUSH1 0xFF AND MUL OR SWAP1 SSTORE POP PUSH1 0x1 SWAP1 POP PUSH2 0x16A1 JUMP JUMPDEST PUSH1 0x2 DUP3 PUSH1 0xFF AND EQ DUP1 ISZERO PUSH2 0x1449 JUMPI POP PUSH1 0x1 PUSH1 0x4 PUSH1 0x3 SWAP1 SLOAD SWAP1 PUSH2 0x100 EXP SWAP1 DIV PUSH1 0xFF AND PUSH1 0xFF AND EQ JUMPDEST ISZERO PUSH2 0x1561 JUMPI PUSH1 0x1 PUSH1 0x0 SWAP1 SLOAD SWAP1 PUSH2 0x100 EXP SWAP1 DIV PUSH20 0xFFFFFFFFFFFFFFFFFFFFFFFFFFFFFFFFFFFFFFFF AND PUSH1 0x4 PUSH1 0x8 PUSH2 0x100 EXP DUP2 SLOAD DUP2 PUSH20 0xFFFFFFFFFFFFFFFFFFFFFFFFFFFFFFFFFFFFFFFF MUL NOT AND SWAP1 DUP4 PUSH20 0xFFFFFFFFFFFFFFFFFFFFFFFFFFFFFFFFFFFFFFFF AND MUL OR SWAP1 SSTORE POP PUSH1 0x0 PUSH1 0x4 PUSH1 0x2 PUSH2 0x100 EXP DUP2 SLOAD DUP2 PUSH1 0xFF MUL NOT AND SWAP1 DUP4 PUSH1 0xFF AND MUL OR SWAP1 SSTORE POP PUSH1 0x0 PUSH1 0x4 PUSH1 0x3 PUSH2 0x100 EXP DUP2 SLOAD DUP2 PUSH1 0xFF MUL NOT AND SWAP1 DUP4 PUSH1 0xFF AND MUL OR SWAP1 SSTORE POP PUSH1 0x0 PUSH1 0x4 DUP1 PUSH2 0x100 EXP DUP2 SLOAD DUP2 PUSH1 0xFF MUL NOT AND SWAP1 DUP4 PUSH1 0xFF AND MUL OR SWAP1 SSTORE POP PUSH1 0x0 PUSH1 0x4 PUSH1 0x5 PUSH2 0x100 EXP DUP2 SLOAD DUP2 PUSH1 0xFF MUL NOT AND SWAP1 DUP4 PUSH1 0xFF AND MUL OR SWAP1 SSTORE POP PUSH1 0x0 PUSH1 0x4 PUSH1 0x6 PUSH2 0x100 EXP DUP2 SLOAD DUP2 PUSH1 0xFF MUL NOT AND SWAP1 DUP4 PUSH1 0xFF AND MUL OR SWAP1 SSTORE POP PUSH1 0x0 PUSH1 0x4 PUSH1 0x7 PUSH2 0x100 EXP DUP2 SLOAD DUP2 PUSH1 0xFF MUL NOT AND SWAP1 DUP4 PUSH1 0xFF AND MUL OR SWAP1 SSTORE POP PUSH1 0x1 SWAP1 POP PUSH2 0x16A1 JUMP JUMPDEST PUSH1 0x3 DUP3 PUSH1 0xFF AND EQ DUP1 ISZERO PUSH2 0x1584 JUMPI POP PUSH1 0x1 PUSH1 0x4 DUP1 SLOAD SWAP1 PUSH2 0x100 EXP SWAP1 DIV PUSH1 0xFF AND PUSH1 0xFF AND EQ JUMPDEST ISZERO PUSH2 0x169C JUMPI PUSH1 0x2 PUSH1 0x0 SWAP1 SLOAD SWAP1 PUSH2 0x100 EXP SWAP1 DIV PUSH20 0xFFFFFFFFFFFFFFFFFFFFFFFFFFFFFFFFFFFFFFFF AND PUSH1 0x4 PUSH1 0x8 PUSH2 0x100 EXP DUP2 SLOAD DUP2 PUSH20 0xFFFFFFFFFFFFFFFFFFFFFFFFFFFFFFFFFFFFFFFF MUL NOT AND SWAP1 DUP4 PUSH20 0xFFFFFFFFFFFFFFFFFFFFFFFFFFFFFFFFFFFFFFFF AND MUL OR SWAP1 SSTORE POP PUSH1 0x0 PUSH1 0x4 PUSH1 0x2 PUSH2 0x100 EXP DUP2 SLOAD DUP2 PUSH1 0xFF MUL NOT AND SWAP1 DUP4 PUSH1 0xFF AND MUL OR SWAP1 SSTORE POP PUSH1 0x0 PUSH1 0x4 PUSH1 0x3 PUSH2 0x100 EXP DUP2 SLOAD DUP2 PUSH1 0xFF MUL NOT AND SWAP1 DUP4 PUSH1 0xFF AND MUL OR SWAP1 SSTORE POP PUSH1 0x0 PUSH1 0x4 DUP1 PUSH2 0x100 EXP DUP2 SLOAD DUP2 PUSH1 0xFF MUL NOT AND SWAP1 DUP4 PUSH1 0xFF AND MUL OR SWAP1 SSTORE POP PUSH1 0x0 PUSH1 0x4 PUSH1 0x5 PUSH2 0x100 EXP DUP2 SLOAD DUP2 PUSH1 0xFF MUL NOT AND SWAP1 DUP4 PUSH1 0xFF AND MUL OR SWAP1 SSTORE POP PUSH1 0x0 PUSH1 0x4 PUSH1 0x6 PUSH2 0x100 EXP DUP2 SLOAD DUP2 PUSH1 0xFF MUL NOT AND SWAP1 DUP4 PUSH1 0xFF AND MUL OR SWAP1 SSTORE POP PUSH1 0x0 PUSH1 0x4 PUSH1 0x7 PUSH2 0x100 EXP DUP2 SLOAD DUP2 PUSH1 0xFF MUL NOT AND SWAP1 DUP4 PUSH1 0xFF AND MUL OR SWAP1 SSTORE POP PUSH1 0x1 SWAP1 POP PUSH2 0x16A1 JUMP JUMPDEST PUSH1 0x0 SWAP1 POP JUMPDEST SWAP2 SWAP1 POP JUMP JUMPDEST PUSH1 0x0 DUP1 SLOAD SWAP1 PUSH2 0x100 EXP SWAP1 DIV PUSH20 0xFFFFFFFFFFFFFFFFFFFFFFFFFFFFFFFFFFFFFFFF AND PUSH20 0xFFFFFFFFFFFFFFFFFFFFFFFFFFFFFFFFFFFFFFFF AND CALLER PUSH20 0xFFFFFFFFFFFFFFFFFFFFFFFFFFFFFFFFFFFFFFFF AND EQ DUP1 PUSH2 0x174D JUMPI POP PUSH1 0x1 PUSH1 0x0 SWAP1 SLOAD SWAP1 PUSH2 0x100 EXP SWAP1 DIV PUSH20 0xFFFFFFFFFFFFFFFFFFFFFFFFFFFFFFFFFFFFFFFF AND PUSH20 0xFFFFFFFFFFFFFFFFFFFFFFFFFFFFFFFFFFFFFFFF AND CALLER PUSH20 0xFFFFFFFFFFFFFFFFFFFFFFFFFFFFFFFFFFFFFFFF AND EQ JUMPDEST DUP1 PUSH2 0x17A5 JUMPI POP PUSH1 0x2 PUSH1 0x0 SWAP1 SLOAD SWAP1 PUSH2 0x100 EXP SWAP1 DIV PUSH20 0xFFFFFFFFFFFFFFFFFFFFFFFFFFFFFFFFFFFFFFFF AND PUSH20 0xFFFFFFFFFFFFFFFFFFFFFFFFFFFFFFFFFFFFFFFF AND CALLER PUSH20 0xFFFFFFFFFFFFFFFFFFFFFFFFFFFFFFFFFFFFFFFF AND EQ JUMPDEST PUSH2 0x17AE JUMPI PUSH1 0x0 DUP1 REVERT JUMPDEST PUSH1 0x0 DUP1 SLOAD SWAP1 PUSH2 0x100 EXP SWAP1 DIV PUSH20 0xFFFFFFFFFFFFFFFFFFFFFFFFFFFFFFFFFFFFFFFF AND PUSH20 0xFFFFFFFFFFFFFFFFFFFFFFFFFFFFFFFFFFFFFFFF AND DUP2 PUSH20 0xFFFFFFFFFFFFFFFFFFFFFFFFFFFFFFFFFFFFFFFF AND EQ ISZERO DUP1 ISZERO PUSH2 0x1858 JUMPI POP PUSH1 0x1 PUSH1 0x0 SWAP1 SLOAD SWAP1 PUSH2 0x100 EXP SWAP1 DIV PUSH20 0xFFFFFFFFFFFFFFFFFFFFFFFFFFFFFFFFFFFFFFFF AND PUSH20 0xFFFFFFFFFFFFFFFFFFFFFFFFFFFFFFFFFFFFFFFF AND DUP2 PUSH20 0xFFFFFFFFFFFFFFFFFFFFFFFFFFFFFFFFFFFFFFFF AND EQ ISZERO JUMPDEST DUP1 ISZERO PUSH2 0x18B2 JUMPI POP PUSH1 0x2 PUSH1 0x0 SWAP1 SLOAD SWAP1 PUSH2 0x100 EXP SWAP1 DIV PUSH20 0xFFFFFFFFFFFFFFFFFFFFFFFFFFFFFFFFFFFFFFFF AND PUSH20 0xFFFFFFFFFFFFFFFFFFFFFFFFFFFFFFFFFFFFFFFF AND DUP2 PUSH20 0xFFFFFFFFFFFFFFFFFFFFFFFFFFFFFFFFFFFFFFFF AND EQ ISZERO JUMPDEST PUSH2 0x18BB JUMPI PUSH1 0x0 DUP1 REVERT JUMPDEST PUSH1 0x0 PUSH20 0xFFFFFFFFFFFFFFFFFFFFFFFFFFFFFFFFFFFFFFFF AND DUP2 PUSH20 0xFFFFFFFFFFFFFFFFFFFFFFFFFFFFFFFFFFFFFFFF AND EQ ISZERO PUSH2 0x18F5 JUMPI PUSH1 0x0 DUP1 REVERT JUMPDEST PUSH1 0x0 DUP1 SLOAD SWAP1 PUSH2 0x100 EXP SWAP1 DIV PUSH20 0xFFFFFFFFFFFFFFFFFFFFFFFFFFFFFFFFFFFFFFFF AND PUSH20 0xFFFFFFFFFFFFFFFFFFFFFFFFFFFFFFFFFFFFFFFF AND CALLER PUSH20 0xFFFFFFFFFFFFFFFFFFFFFFFFFFFFFFFFFFFFFFFF AND EQ ISZERO PUSH2 0x1A08 JUMPI DUP1 PUSH1 0x0 DUP1 PUSH2 0x100 EXP DUP2 SLOAD DUP2 PUSH20 0xFFFFFFFFFFFFFFFFFFFFFFFFFFFFFFFFFFFFFFFF MUL NOT AND SWAP1 DUP4 PUSH20 0xFFFFFFFFFFFFFFFFFFFFFFFFFFFFFFFFFFFFFFFF AND MUL OR SWAP1 SSTORE POP DUP1 PUSH20 0xFFFFFFFFFFFFFFFFFFFFFFFFFFFFFFFFFFFFFFFF AND PUSH1 0x0 DUP1 SLOAD SWAP1 PUSH2 0x100 EXP SWAP1 DIV PUSH20 0xFFFFFFFFFFFFFFFFFFFFFFFFFFFFFFFFFFFFFFFF AND PUSH20 0xFFFFFFFFFFFFFFFFFFFFFFFFFFFFFFFFFFFFFFFF AND PUSH32 0x2AE143016ADC0AA482E6BA5D9A350F3E3122AEB005CA4BF47D1D7B8221BCE472 PUSH1 0x40 MLOAD PUSH1 0x40 MLOAD DUP1 SWAP2 SUB SWAP1 LOG3 PUSH2 0x1C36 JUMP JUMPDEST PUSH1 0x1 PUSH1 0x0 SWAP1 SLOAD SWAP1 PUSH2 0x100 EXP SWAP1 DIV PUSH20 0xFFFFFFFFFFFFFFFFFFFFFFFFFFFFFFFFFFFFFFFF AND PUSH20 0xFFFFFFFFFFFFFFFFFFFFFFFFFFFFFFFFFFFFFFFF AND CALLER PUSH20 0xFFFFFFFFFFFFFFFFFFFFFFFFFFFFFFFFFFFFFFFF AND EQ ISZERO PUSH2 0x1B20 JUMPI DUP1 PUSH1 0x1 PUSH1 0x0 PUSH2 0x100 EXP DUP2 SLOAD DUP2 PUSH20 0xFFFFFFFFFFFFFFFFFFFFFFFFFFFFFFFFFFFFFFFF MUL NOT AND SWAP1 DUP4 PUSH20 0xFFFFFFFFFFFFFFFFFFFFFFFFFFFFFFFFFFFFFFFF AND MUL OR SWAP1 SSTORE POP DUP1 PUSH20 0xFFFFFFFFFFFFFFFFFFFFFFFFFFFFFFFFFFFFFFFF AND PUSH1 0x1 PUSH1 0x0 SWAP1 SLOAD SWAP1 PUSH2 0x100 EXP SWAP1 DIV PUSH20 0xFFFFFFFFFFFFFFFFFFFFFFFFFFFFFFFFFFFFFFFF AND PUSH20 0xFFFFFFFFFFFFFFFFFFFFFFFFFFFFFFFFFFFFFFFF AND PUSH32 0x2AE143016ADC0AA482E6BA5D9A350F3E3122AEB005CA4BF47D1D7B8221BCE472 PUSH1 0x40 MLOAD PUSH1 0x40 MLOAD DUP1 SWAP2 SUB SWAP1 LOG3 PUSH2 0x1C35 JUMP JUMPDEST PUSH1 0x2 PUSH1 0x0 SWAP1 SLOAD SWAP1 PUSH2 0x100 EXP SWAP1 DIV PUSH20 0xFFFFFFFFFFFFFFFFFFFFFFFFFFFFFFFFFFFFFFFF AND PUSH20 0xFFFFFFFFFFFFFFFFFFFFFFFFFFFFFFFFFFFFFFFF AND CALLER PUSH20 0xFFFFFFFFFFFFFFFFFFFFFFFFFFFFFFFFFFFFFFFF AND EQ ISZERO PUSH2 0x1C34 JUMPI DUP1 PUSH1 0x2 PUSH1 0x0 PUSH2 0x100 EXP DUP2 SLOAD DUP2 PUSH20 0xFFFFFFFFFFFFFFFFFFFFFFFFFFFFFFFFFFFFFFFF MUL NOT AND SWAP1 DUP4 PUSH20 0xFFFFFFFFFFFFFFFFFFFFFFFFFFFFFFFFFFFFFFFF AND MUL OR SWAP1 SSTORE POP DUP1 PUSH20 0xFFFFFFFFFFFFFFFFFFFFFFFFFFFFFFFFFFFFFFFF AND PUSH1 0x2 PUSH1 0x0 SWAP1 SLOAD SWAP1 PUSH2 0x100 EXP SWAP1 DIV PUSH20 0xFFFFFFFFFFFFFFFFFFFFFFFFFFFFFFFFFFFFFFFF AND PUSH20 0xFFFFFFFFFFFFFFFFFFFFFFFFFFFFFFFFFFFFFFFF AND PUSH32 0x2AE143016ADC0AA482E6BA5D9A350F3E3122AEB005CA4BF47D1D7B8221BCE472 PUSH1 0x40 MLOAD PUSH1 0x40 MLOAD DUP1 SWAP2 SUB SWAP1 LOG3 JUMPDEST JUMPDEST JUMPDEST POP JUMP JUMPDEST PUSH1 0x40 MLOAD DUP1 PUSH2 0x160 ADD PUSH1 0x40 MSTORE DUP1 PUSH1 0x0 PUSH1 0xFF AND DUP2 MSTORE PUSH1 0x20 ADD PUSH1 0x0 PUSH1 0xFF AND DUP2 MSTORE PUSH1 0x20 ADD PUSH1 0x0 PUSH1 0xFF AND DUP2 MSTORE PUSH1 0x20 ADD PUSH1 0x0 PUSH1 0xFF AND DUP2 MSTORE PUSH1 0x20 ADD PUSH1 0x0 PUSH1 0xFF AND DUP2 MSTORE PUSH1 0x20 ADD PUSH1 0x0 PUSH1 0xFF AND DUP2 MSTORE PUSH1 0x20 ADD PUSH1 0x0 PUSH1 0xFF AND DUP2 MSTORE PUSH1 0x20 ADD PUSH1 0x0 PUSH1 0xFF AND DUP2 MSTORE PUSH1 0x20 ADD PUSH1 0x0 PUSH20 0xFFFFFFFFFFFFFFFFFFFFFFFFFFFFFFFFFFFFFFFF AND DUP2 MSTORE PUSH1 0x20 ADD PUSH1 0x0 PUSH1 0xFF AND DUP2 MSTORE PUSH1 0x20 ADD PUSH1 0x0 DUP2 MSTORE POP SWAP1 JUMP JUMPDEST PUSH1 0x0 DUP1 REVERT JUMPDEST PUSH1 0x0 DUP2 SWAP1 POP SWAP2 SWAP1 POP JUMP JUMPDEST PUSH2 0x1CDC DUP2 PUSH2 0x1CC9 JUMP JUMPDEST DUP2 EQ PUSH2 0x1CE7 JUMPI PUSH1 0x0 DUP1 REVERT JUMPDEST POP JUMP JUMPDEST PUSH1 0x0 DUP2 CALLDATALOAD SWAP1 POP PUSH2 0x1CF9 DUP2 PUSH2 0x1CD3 JUMP JUMPDEST SWAP3 SWAP2 POP POP JUMP JUMPDEST PUSH1 0x0 PUSH1 0x20 DUP3 DUP5 SUB SLT ISZERO PUSH2 0x1D15 JUMPI PUSH2 0x1D14 PUSH2 0x1CC4 JUMP JUMPDEST JUMPDEST PUSH1 0x0 PUSH2 0x1D23 DUP5 DUP3 DUP6 ADD PUSH2 0x1CEA JUMP JUMPDEST SWAP2 POP POP SWAP3 SWAP2 POP POP JUMP JUMPDEST PUSH1 0x0 DUP2 ISZERO ISZERO SWAP1 POP SWAP2 SWAP1 POP JUMP JUMPDEST PUSH2 0x1D41 DUP2 PUSH2 0x1D2C JUMP JUMPDEST DUP3 MSTORE POP POP JUMP JUMPDEST PUSH1 0x0 PUSH1 0x20 DUP3 ADD SWAP1 POP PUSH2 0x1D5C PUSH1 0x0 DUP4 ADD DUP5 PUSH2 0x1D38 JUMP JUMPDEST SWAP3 SWAP2 POP POP JUMP JUMPDEST PUSH1 0x0 PUSH1 0xFF DUP3 AND SWAP1 POP SWAP2 SWAP1 POP JUMP JUMPDEST PUSH2 0x1D78 DUP2 PUSH2 0x1D62 JUMP JUMPDEST DUP3 MSTORE POP POP JUMP JUMPDEST PUSH1 0x0 PUSH1 0x20 DUP3 ADD SWAP1 POP PUSH2 0x1D93 PUSH1 0x0 DUP4 ADD DUP5 PUSH2 0x1D6F JUMP JUMPDEST SWAP3 SWAP2 POP POP JUMP JUMPDEST PUSH1 0x0 PUSH20 0xFFFFFFFFFFFFFFFFFFFFFFFFFFFFFFFFFFFFFFFF DUP3 AND SWAP1 POP SWAP2 SWAP1 POP JUMP JUMPDEST PUSH1 0x0 PUSH2 0x1DC4 DUP3 PUSH2 0x1D99 JUMP JUMPDEST SWAP1 POP SWAP2 SWAP1 POP JUMP JUMPDEST PUSH2 0x1DD4 DUP2 PUSH2 0x1DB9 JUMP JUMPDEST DUP2 EQ PUSH2 0x1DDF JUMPI PUSH1 0x0 DUP1 REVERT JUMPDEST POP JUMP JUMPDEST PUSH1 0x0 DUP2 CALLDATALOAD SWAP1 POP PUSH2 0x1DF1 DUP2 PUSH2 0x1DCB JUMP JUMPDEST SWAP3 SWAP2 POP POP JUMP JUMPDEST PUSH1 0x0 PUSH1 0x20 DUP3 DUP5 SUB SLT ISZERO PUSH2 0x1E0D JUMPI PUSH2 0x1E0C PUSH2 0x1CC4 JUMP JUMPDEST JUMPDEST PUSH1 0x0 PUSH2 0x1E1B DUP5 DUP3 DUP6 ADD PUSH2 0x1DE2 JUMP JUMPDEST SWAP2 POP POP SWAP3 SWAP2 POP POP JUMP JUMPDEST PUSH2 0x1E2D DUP2 PUSH2 0x1D62 JUMP JUMPDEST DUP2 EQ PUSH2 0x1E38 JUMPI PUSH1 0x0 DUP1 REVERT JUMPDEST POP JUMP JUMPDEST PUSH1 0x0 DUP2 CALLDATALOAD SWAP1 POP PUSH2 0x1E4A DUP2 PUSH2 0x1E24 JUMP JUMPDEST SWAP3 SWAP2 POP POP JUMP JUMPDEST PUSH1 0x0 PUSH1 0x20 DUP3 DUP5 SUB SLT ISZERO PUSH2 0x1E66 JUMPI PUSH2 0x1E65 PUSH2 0x1CC4 JUMP JUMPDEST JUMPDEST PUSH1 0x0 PUSH2 0x1E74 DUP5 DUP3 DUP6 ADD PUSH2 0x1E3B JUMP JUMPDEST SWAP2 POP POP SWAP3 SWAP2 POP POP JUMP JUMPDEST PUSH2 0x1E86 DUP2 PUSH2 0x1D62 JUMP JUMPDEST DUP3 MSTORE POP POP JUMP JUMPDEST PUSH2 0x1E95 DUP2 PUSH2 0x1DB9 JUMP JUMPDEST DUP3 MSTORE POP POP JUMP JUMPDEST PUSH2 0x1EA4 DUP2 PUSH2 0x1CC9 JUMP JUMPDEST DUP3 MSTORE POP POP JUMP JUMPDEST PUSH2 0x160 DUP3 ADD PUSH1 0x0 DUP3 ADD MLOAD PUSH2 0x1EC1 PUSH1 0x0 DUP6 ADD DUP3 PUSH2 0x1E7D JUMP JUMPDEST POP PUSH1 0x20 DUP3 ADD MLOAD PUSH2 0x1ED4 PUSH1 0x20 DUP6 ADD DUP3 PUSH2 0x1E7D JUMP JUMPDEST POP PUSH1 0x40 DUP3 ADD MLOAD PUSH2 0x1EE7 PUSH1 0x40 DUP6 ADD DUP3 PUSH2 0x1E7D JUMP JUMPDEST POP PUSH1 0x60 DUP3 ADD MLOAD PUSH2 0x1EFA PUSH1 0x60 DUP6 ADD DUP3 PUSH2 0x1E7D JUMP JUMPDEST POP PUSH1 0x80 DUP3 ADD MLOAD PUSH2 0x1F0D PUSH1 0x80 DUP6 ADD DUP3 PUSH2 0x1E7D JUMP JUMPDEST POP PUSH1 0xA0 DUP3 ADD MLOAD PUSH2 0x1F20 PUSH1 0xA0 DUP6 ADD DUP3 PUSH2 0x1E7D JUMP JUMPDEST POP PUSH1 0xC0 DUP3 ADD MLOAD PUSH2 0x1F33 PUSH1 0xC0 DUP6 ADD DUP3 PUSH2 0x1E7D JUMP JUMPDEST POP PUSH1 0xE0 DUP3 ADD MLOAD PUSH2 0x1F46 PUSH1 0xE0 DUP6 ADD DUP3 PUSH2 0x1E7D JUMP JUMPDEST POP PUSH2 0x100 DUP3 ADD MLOAD PUSH2 0x1F5B PUSH2 0x100 DUP6 ADD DUP3 PUSH2 0x1E8C JUMP JUMPDEST POP PUSH2 0x120 DUP3 ADD MLOAD PUSH2 0x1F70 PUSH2 0x120 DUP6 ADD DUP3 PUSH2 0x1E7D JUMP JUMPDEST POP PUSH2 0x140 DUP3 ADD MLOAD PUSH2 0x1F85 PUSH2 0x140 DUP6 ADD DUP3 PUSH2 0x1E9B JUMP JUMPDEST POP POP POP POP JUMP JUMPDEST PUSH1 0x0 PUSH2 0x160 DUP3 ADD SWAP1 POP PUSH2 0x1FA1 PUSH1 0x0 DUP4 ADD DUP5 PUSH2 0x1EAA JUMP JUMPDEST SWAP3 SWAP2 POP POP JUMP JUMPDEST PUSH2 0x1FB0 DUP2 PUSH2 0x1DB9 JUMP JUMPDEST DUP3 MSTORE POP POP JUMP JUMPDEST PUSH1 0x0 PUSH1 0x20 DUP3 ADD SWAP1 POP PUSH2 0x1FCB PUSH1 0x0 DUP4 ADD DUP5 PUSH2 0x1FA7 JUMP JUMPDEST SWAP3 SWAP2 POP POP JUMP JUMPDEST PUSH1 0x0 DUP2 MLOAD SWAP1 POP SWAP2 SWAP1 POP JUMP JUMPDEST PUSH1 0x0 DUP3 DUP3 MSTORE PUSH1 0x20 DUP3 ADD SWAP1 POP SWAP3 SWAP2 POP POP JUMP JUMPDEST PUSH1 0x0 JUMPDEST DUP4 DUP2 LT ISZERO PUSH2 0x200B JUMPI DUP1 DUP3 ADD MLOAD DUP2 DUP5 ADD MSTORE PUSH1 0x20 DUP2 ADD SWAP1 POP PUSH2 0x1FF0 JUMP JUMPDEST DUP4 DUP2 GT ISZERO PUSH2 0x201A JUMPI PUSH1 0x0 DUP5 DUP5 ADD MSTORE JUMPDEST POP POP POP POP JUMP JUMPDEST PUSH1 0x0 PUSH1 0x1F NOT PUSH1 0x1F DUP4 ADD AND SWAP1 POP SWAP2 SWAP1 POP JUMP JUMPDEST PUSH1 0x0 PUSH2 0x203C DUP3 PUSH2 0x1FD1 JUMP JUMPDEST PUSH2 0x2046 DUP2 DUP6 PUSH2 0x1FDC JUMP JUMPDEST SWAP4 POP PUSH2 0x2056 DUP2 DUP6 PUSH1 0x20 DUP7 ADD PUSH2 0x1FED JUMP JUMPDEST PUSH2 0x205F DUP2 PUSH2 0x2020 JUMP JUMPDEST DUP5 ADD SWAP2 POP POP SWAP3 SWAP2 POP POP JUMP JUMPDEST PUSH1 0x0 PUSH1 0x20 DUP3 ADD SWAP1 POP DUP2 DUP2 SUB PUSH1 0x0 DUP4 ADD MSTORE PUSH2 0x2084 DUP2 DUP5 PUSH2 0x2031 JUMP JUMPDEST SWAP1 POP SWAP3 SWAP2 POP POP JUMP JUMPDEST PUSH32 0x4E487B7100000000000000000000000000000000000000000000000000000000 PUSH1 0x0 MSTORE PUSH1 0x11 PUSH1 0x4 MSTORE PUSH1 0x24 PUSH1 0x0 REVERT JUMPDEST PUSH1 0x0 PUSH2 0x20C6 DUP3 PUSH2 0x1D62 JUMP JUMPDEST SWAP2 POP PUSH1 0xFF DUP3 EQ ISZERO PUSH2 0x20DA JUMPI PUSH2 0x20D9 PUSH2 0x208C JUMP JUMPDEST JUMPDEST PUSH1 0x1 DUP3 ADD SWAP1 POP SWAP2 SWAP1 POP JUMP JUMPDEST PUSH1 0x0 PUSH2 0x20F0 DUP3 PUSH2 0x1CC9 JUMP JUMPDEST SWAP2 POP PUSH2 0x20FB DUP4 PUSH2 0x1CC9 JUMP JUMPDEST SWAP3 POP DUP3 PUSH32 0xFFFFFFFFFFFFFFFFFFFFFFFFFFFFFFFFFFFFFFFFFFFFFFFFFFFFFFFFFFFFFFFF SUB DUP3 GT ISZERO PUSH2 0x2130 JUMPI PUSH2 0x212F PUSH2 0x208C JUMP JUMPDEST JUMPDEST DUP3 DUP3 ADD SWAP1 POP SWAP3 SWAP2 POP POP JUMP INVALID LOG2 PUSH5 0x6970667358 0x22 SLT KECCAK256 EQ PUSH23 0x4ED67BC67FBEB78A697E30D1C4CCDD2C64ABDBB99F754F 0xC4 CREATE2 PUSH13 0xC1D3D27364736F6C634300080A STOP CALLER "
				},
				"gasEstimates": {
					"creation": {
						"codeDepositCost": "1712200",
						"executionCost": "267032",
						"totalCost": "1979232"
					},
					"external": {
						"becomeOwner(address)": "66750",
						"getStatus()": "infinite",
						"getValue()": "2552",
						"lastMethod(uint8)": "infinite",
						"setValue(uint8)": "27218",
						"showOwner(uint256)": "2898",
						"showRealOwner(address)": "infinite",
						"transferOwnership(address)": "48099",
						"vote(uint256)": "infinite"
					}
				},
				"methodIdentifiers": {
					"becomeOwner(address)": "2bad96ba",
					"getStatus()": "4e69d560",
					"getValue()": "20965255",
					"lastMethod(uint8)": "ef220789",
					"setValue(uint8)": "4c111ff8",
					"showOwner(uint256)": "74a29267",
					"showRealOwner(address)": "7594a9e6",
					"transferOwnership(address)": "f2fde38b",
					"vote(uint256)": "0121b93f"
				}
			},
			"userdoc": {
				"kind": "user",
				"methods": {},
				"version": 1
			}
		}
	}
}