{
	"voting.sol": {
		"Voting": {
			"abi": [
				{
					"inputs": [],
					"stateMutability": "nonpayable",
					"type": "constructor"
				},
				{
					"anonymous": false,
					"inputs": [
						{
							"indexed": true,
							"internalType": "address",
							"name": "_from",
							"type": "address"
						},
						{
							"indexed": true,
							"internalType": "address",
							"name": "_to",
							"type": "address"
						}
					],
					"name": "OwnerTransferPropose",
					"type": "event"
				},
				{
					"inputs": [
						{
							"internalType": "address",
							"name": "_person",
							"type": "address"
						}
					],
					"name": "becomeOwner",
					"outputs": [
						{
							"internalType": "bool",
							"name": "",
							"type": "bool"
						}
					],
					"stateMutability": "nonpayable",
					"type": "function"
				},
				{
					"inputs": [],
					"name": "getStatus",
					"outputs": [
						{
							"components": [
								{
									"internalType": "uint8",
									"name": "sownerCount",
									"type": "uint8"
								},
								{
									"internalType": "uint8",
									"name": "svoteCount",
									"type": "uint8"
								},
								{
									"internalType": "uint8",
									"name": "svote1",
									"type": "uint8"
								},
								{
									"internalType": "uint8",
									"name": "svote2",
									"type": "uint8"
								},
								{
									"internalType": "uint8",
									"name": "svote3",
									"type": "uint8"
								},
								{
									"internalType": "uint8",
									"name": "sgetVote1",
									"type": "uint8"
								},
								{
									"internalType": "uint8",
									"name": "sgetVote2",
									"type": "uint8"
								},
								{
									"internalType": "uint8",
									"name": "sgetVote3",
									"type": "uint8"
								},
								{
									"internalType": "address",
									"name": "srealOwner",
									"type": "address"
								},
								{
									"internalType": "uint8",
									"name": "svalue",
									"type": "uint8"
								}
							],
							"internalType": "struct Voting.Status",
							"name": "",
							"type": "tuple"
						}
					],
					"stateMutability": "view",
					"type": "function"
				},
				{
					"inputs": [],
					"name": "getValue",
					"outputs": [
						{
							"internalType": "uint8",
							"name": "",
							"type": "uint8"
						}
					],
					"stateMutability": "view",
					"type": "function"
				},
				{
					"inputs": [
						{
							"internalType": "uint8",
							"name": "_val",
							"type": "uint8"
						}
					],
					"name": "setValue",
					"outputs": [
						{
							"internalType": "bool",
							"name": "",
							"type": "bool"
						}
					],
					"stateMutability": "nonpayable",
					"type": "function"
				},
				{
					"inputs": [
						{
							"internalType": "uint256",
							"name": "_order",
							"type": "uint256"
						}
					],
					"name": "showOwner",
					"outputs": [
						{
							"internalType": "address",
							"name": "",
							"type": "address"
						}
					],
					"stateMutability": "view",
					"type": "function"
				},
				{
					"inputs": [
						{
							"internalType": "address",
							"name": "_person",
							"type": "address"
						}
					],
					"name": "showRealOwner",
					"outputs": [
						{
							"internalType": "string",
							"name": "",
							"type": "string"
						}
					],
					"stateMutability": "view",
					"type": "function"
				},
				{
					"inputs": [
						{
							"internalType": "address",
							"name": "_to",
							"type": "address"
						}
					],
					"name": "transferOwnership",
					"outputs": [],
					"stateMutability": "nonpayable",
					"type": "function"
				},
				{
					"inputs": [
						{
							"internalType": "uint256",
							"name": "_order",
							"type": "uint256"
						}
					],
					"name": "vote",
					"outputs": [
						{
							"internalType": "bool",
							"name": "",
							"type": "bool"
						}
					],
					"stateMutability": "nonpayable",
					"type": "function"
				}
			],
			"devdoc": {
				"kind": "dev",
				"methods": {},
				"version": 1
			},
			"evm": {
				"assembly": "    /* \"voting.sol\":948:5391  contract Voting is OwnerHelper {... */\n  mstore(0x40, 0x80)\n    /* \"voting.sol\":1337:1581  constructor() {... */\n  callvalue\n  dup1\n  iszero\n  tag_1\n  jumpi\n  0x00\n  dup1\n  revert\ntag_1:\n  pop\n    /* \"voting.sol\":1374:1375  0 */\n  0x00\n    /* \"voting.sol\":1361:1371  ownerCount */\n  0x02\n  0x14\n    /* \"voting.sol\":1361:1375  ownerCount = 0 */\n  0x0100\n  exp\n  dup2\n  sload\n  dup2\n  0xff\n  mul\n  not\n  and\n  swap1\n  dup4\n  0xff\n  and\n  mul\n  or\n  swap1\n  sstore\n  pop\n    /* \"voting.sol\":1397:1398  0 */\n  0x00\n    /* \"voting.sol\":1385:1394  voteCount */\n  0x02\n  0x15\n    /* \"voting.sol\":1385:1398  voteCount = 0 */\n  0x0100\n  exp\n  dup2\n  sload\n  dup2\n  0xff\n  mul\n  not\n  and\n  swap1\n  dup4\n  0xff\n  and\n  mul\n  or\n  swap1\n  sstore\n  pop\n    /* \"voting.sol\":1416:1417  0 */\n  0x00\n    /* \"voting.sol\":1408:1413  vote1 */\n  0x02\n  0x16\n    /* \"voting.sol\":1408:1417  vote1 = 0 */\n  0x0100\n  exp\n  dup2\n  sload\n  dup2\n  0xff\n  mul\n  not\n  and\n  swap1\n  dup4\n  0xff\n  and\n  mul\n  or\n  swap1\n  sstore\n  pop\n    /* \"voting.sol\":1435:1436  0 */\n  0x00\n    /* \"voting.sol\":1427:1432  vote2 */\n  0x02\n  0x17\n    /* \"voting.sol\":1427:1436  vote2 = 0 */\n  0x0100\n  exp\n  dup2\n  sload\n  dup2\n  0xff\n  mul\n  not\n  and\n  swap1\n  dup4\n  0xff\n  and\n  mul\n  or\n  swap1\n  sstore\n  pop\n    /* \"voting.sol\":1454:1455  0 */\n  0x00\n    /* \"voting.sol\":1446:1451  vote3 */\n  0x02\n  0x18\n    /* \"voting.sol\":1446:1455  vote3 = 0 */\n  0x0100\n  exp\n  dup2\n  sload\n  dup2\n  0xff\n  mul\n  not\n  and\n  swap1\n  dup4\n  0xff\n  and\n  mul\n  or\n  swap1\n  sstore\n  pop\n    /* \"voting.sol\":1476:1477  0 */\n  0x00\n    /* \"voting.sol\":1465:1473  getVote1 */\n  0x02\n  0x19\n    /* \"voting.sol\":1465:1477  getVote1 = 0 */\n  0x0100\n  exp\n  dup2\n  sload\n  dup2\n  0xff\n  mul\n  not\n  and\n  swap1\n  dup4\n  0xff\n  and\n  mul\n  or\n  swap1\n  sstore\n  pop\n    /* \"voting.sol\":1498:1499  0 */\n  0x00\n    /* \"voting.sol\":1487:1495  getVote2 */\n  0x02\n  0x1a\n    /* \"voting.sol\":1487:1499  getVote2 = 0 */\n  0x0100\n  exp\n  dup2\n  sload\n  dup2\n  0xff\n  mul\n  not\n  and\n  swap1\n  dup4\n  0xff\n  and\n  mul\n  or\n  swap1\n  sstore\n  pop\n    /* \"voting.sol\":1520:1521  0 */\n  0x00\n    /* \"voting.sol\":1509:1517  getVote3 */\n  0x02\n  0x1b\n    /* \"voting.sol\":1509:1521  getVote3 = 0 */\n  0x0100\n  exp\n  dup2\n  sload\n  dup2\n  0xff\n  mul\n  not\n  and\n  swap1\n  dup4\n  0xff\n  and\n  mul\n  or\n  swap1\n  sstore\n  pop\n    /* \"voting.sol\":1551:1554  0x0 */\n  0x00\n    /* \"voting.sol\":1531:1540  realOwner */\n  0x03\n  0x00\n    /* \"voting.sol\":1531:1555  realOwner = address(0x0) */\n  0x0100\n  exp\n  dup2\n  sload\n  dup2\n  0xffffffffffffffffffffffffffffffffffffffff\n  mul\n  not\n  and\n  swap1\n  dup4\n  0xffffffffffffffffffffffffffffffffffffffff\n  and\n  mul\n  or\n  swap1\n  sstore\n  pop\n    /* \"voting.sol\":1573:1574  0 */\n  0x00\n    /* \"voting.sol\":1565:1570  value */\n  0x03\n  0x14\n    /* \"voting.sol\":1565:1574  value = 0 */\n  0x0100\n  exp\n  dup2\n  sload\n  dup2\n  0xff\n  mul\n  not\n  and\n  swap1\n  dup4\n  0xff\n  and\n  mul\n  or\n  swap1\n  sstore\n  pop\n    /* \"voting.sol\":948:5391  contract Voting is OwnerHelper {... */\n  dataSize(sub_0)\n  dup1\n  dataOffset(sub_0)\n  0x00\n  codecopy\n  0x00\n  return\nstop\n\nsub_0: assembly {\n        /* \"voting.sol\":948:5391  contract Voting is OwnerHelper {... */\n      mstore(0x40, 0x80)\n      callvalue\n      dup1\n      iszero\n      tag_1\n      jumpi\n      0x00\n      dup1\n      revert\n    tag_1:\n      pop\n      jumpi(tag_2, lt(calldatasize, 0x04))\n      shr(0xe0, calldataload(0x00))\n      dup1\n      0x4e69d560\n      gt\n      tag_11\n      jumpi\n      dup1\n      0x4e69d560\n      eq\n      tag_7\n      jumpi\n      dup1\n      0x74a29267\n      eq\n      tag_8\n      jumpi\n      dup1\n      0x7594a9e6\n      eq\n      tag_9\n      jumpi\n      dup1\n      0xf2fde38b\n      eq\n      tag_10\n      jumpi\n      jump(tag_2)\n    tag_11:\n      dup1\n      0x0121b93f\n      eq\n      tag_3\n      jumpi\n      dup1\n      0x20965255\n      eq\n      tag_4\n      jumpi\n      dup1\n      0x2bad96ba\n      eq\n      tag_5\n      jumpi\n      dup1\n      0x4c111ff8\n      eq\n      tag_6\n      jumpi\n    tag_2:\n      0x00\n      dup1\n      revert\n        /* \"voting.sol\":3239:4962  function vote(uint _order) onlyOwner public returns(bool) {... */\n    tag_3:\n      tag_12\n      0x04\n      dup1\n      calldatasize\n      sub\n      dup2\n      add\n      swap1\n      tag_13\n      swap2\n      swap1\n      tag_14\n      jump\t// in\n    tag_13:\n      tag_15\n      jump\t// in\n    tag_12:\n      mload(0x40)\n      tag_16\n      swap2\n      swap1\n      tag_17\n      jump\t// in\n    tag_16:\n      mload(0x40)\n      dup1\n      swap2\n      sub\n      swap1\n      return\n        /* \"voting.sol\":5194:5270  function getValue() public view returns (uint8){... */\n    tag_4:\n      tag_18\n      tag_19\n      jump\t// in\n    tag_18:\n      mload(0x40)\n      tag_20\n      swap2\n      swap1\n      tag_21\n      jump\t// in\n    tag_20:\n      mload(0x40)\n      dup1\n      swap2\n      sub\n      swap1\n      return\n        /* \"voting.sol\":2333:2901  function becomeOwner(address _person) public returns (bool){... */\n    tag_5:\n      tag_22\n      0x04\n      dup1\n      calldatasize\n      sub\n      dup2\n      add\n      swap1\n      tag_23\n      swap2\n      swap1\n      tag_24\n      jump\t// in\n    tag_23:\n      tag_25\n      jump\t// in\n    tag_22:\n      mload(0x40)\n      tag_26\n      swap2\n      swap1\n      tag_17\n      jump\t// in\n    tag_26:\n      mload(0x40)\n      dup1\n      swap2\n      sub\n      swap1\n      return\n        /* \"voting.sol\":5276:5388  function setValue(uint8 _val) checkOwner public returns (bool){... */\n    tag_6:\n      tag_27\n      0x04\n      dup1\n      calldatasize\n      sub\n      dup2\n      add\n      swap1\n      tag_28\n      swap2\n      swap1\n      tag_29\n      jump\t// in\n    tag_28:\n      tag_30\n      jump\t// in\n    tag_27:\n      mload(0x40)\n      tag_31\n      swap2\n      swap1\n      tag_17\n      jump\t// in\n    tag_31:\n      mload(0x40)\n      dup1\n      swap2\n      sub\n      swap1\n      return\n        /* \"voting.sol\":1858:2327  function getStatus() public view returns(Status memory){... */\n    tag_7:\n      tag_32\n      tag_33\n      jump\t// in\n    tag_32:\n      mload(0x40)\n      tag_34\n      swap2\n      swap1\n      tag_35\n      jump\t// in\n    tag_34:\n      mload(0x40)\n      dup1\n      swap2\n      sub\n      swap1\n      return\n        /* \"voting.sol\":2907:3233  function showOwner(uint _order) public view returns (address) {... */\n    tag_8:\n      tag_36\n      0x04\n      dup1\n      calldatasize\n      sub\n      dup2\n      add\n      swap1\n      tag_37\n      swap2\n      swap1\n      tag_14\n      jump\t// in\n    tag_37:\n      tag_38\n      jump\t// in\n    tag_36:\n      mload(0x40)\n      tag_39\n      swap2\n      swap1\n      tag_40\n      jump\t// in\n    tag_39:\n      mload(0x40)\n      dup1\n      swap2\n      sub\n      swap1\n      return\n        /* \"voting.sol\":4968:5188  function showRealOwner(address _person) public view returns (string memory){... */\n    tag_9:\n      tag_41\n      0x04\n      dup1\n      calldatasize\n      sub\n      dup2\n      add\n      swap1\n      tag_42\n      swap2\n      swap1\n      tag_24\n      jump\t// in\n    tag_42:\n      tag_43\n      jump\t// in\n    tag_41:\n      mload(0x40)\n      tag_44\n      swap2\n      swap1\n      tag_45\n      jump\t// in\n    tag_44:\n      mload(0x40)\n      dup1\n      swap2\n      sub\n      swap1\n      return\n        /* \"voting.sol\":398:944  function transferOwnership(address _to) onlyOwner public {... */\n    tag_10:\n      tag_46\n      0x04\n      dup1\n      calldatasize\n      sub\n      dup2\n      add\n      swap1\n      tag_47\n      swap2\n      swap1\n      tag_24\n      jump\t// in\n    tag_47:\n      tag_48\n      jump\t// in\n    tag_46:\n      stop\n        /* \"voting.sol\":3239:4962  function vote(uint _order) onlyOwner public returns(bool) {... */\n    tag_15:\n        /* \"voting.sol\":3291:3295  bool */\n      0x00\n        /* \"voting.sol\":306:312  owner1 */\n      dup1\n      0x00\n      swap1\n      sload\n      swap1\n      0x0100\n      exp\n      swap1\n      div\n      0xffffffffffffffffffffffffffffffffffffffff\n      and\n        /* \"voting.sol\":292:312  msg.sender == owner1 */\n      0xffffffffffffffffffffffffffffffffffffffff\n      and\n        /* \"voting.sol\":292:302  msg.sender */\n      caller\n        /* \"voting.sol\":292:312  msg.sender == owner1 */\n      0xffffffffffffffffffffffffffffffffffffffff\n      and\n      eq\n        /* \"voting.sol\":292:336  msg.sender == owner1 || msg.sender == owner2 */\n      dup1\n      tag_50\n      jumpi\n      pop\n        /* \"voting.sol\":330:336  owner2 */\n      0x01\n      0x00\n      swap1\n      sload\n      swap1\n      0x0100\n      exp\n      swap1\n      div\n      0xffffffffffffffffffffffffffffffffffffffff\n      and\n        /* \"voting.sol\":316:336  msg.sender == owner2 */\n      0xffffffffffffffffffffffffffffffffffffffff\n      and\n        /* \"voting.sol\":316:326  msg.sender */\n      caller\n        /* \"voting.sol\":316:336  msg.sender == owner2 */\n      0xffffffffffffffffffffffffffffffffffffffff\n      and\n      eq\n        /* \"voting.sol\":292:336  msg.sender == owner1 || msg.sender == owner2 */\n    tag_50:\n        /* \"voting.sol\":292:360  msg.sender == owner1 || msg.sender == owner2 || msg.sender == owner3 */\n      dup1\n      tag_51\n      jumpi\n      pop\n        /* \"voting.sol\":354:360  owner3 */\n      0x02\n      0x00\n      swap1\n      sload\n      swap1\n      0x0100\n      exp\n      swap1\n      div\n      0xffffffffffffffffffffffffffffffffffffffff\n      and\n        /* \"voting.sol\":340:360  msg.sender == owner3 */\n      0xffffffffffffffffffffffffffffffffffffffff\n      and\n        /* \"voting.sol\":340:350  msg.sender */\n      caller\n        /* \"voting.sol\":340:360  msg.sender == owner3 */\n      0xffffffffffffffffffffffffffffffffffffffff\n      and\n      eq\n        /* \"voting.sol\":292:360  msg.sender == owner1 || msg.sender == owner2 || msg.sender == owner3 */\n    tag_51:\n        /* \"voting.sol\":284:361  require(msg.sender == owner1 || msg.sender == owner2 || msg.sender == owner3) */\n      tag_52\n      jumpi\n      0x00\n      dup1\n      revert\n    tag_52:\n        /* \"voting.sol\":3325:3326  1 */\n      0x01\n        /* \"voting.sol\":3315:3321  _order */\n      dup3\n        /* \"voting.sol\":3315:3326  _order == 1 */\n      eq\n        /* \"voting.sol\":3315:3341  _order == 1 || _order == 2 */\n      dup1\n      tag_54\n      jumpi\n      pop\n        /* \"voting.sol\":3340:3341  2 */\n      0x02\n        /* \"voting.sol\":3330:3336  _order */\n      dup3\n        /* \"voting.sol\":3330:3341  _order == 2 */\n      eq\n        /* \"voting.sol\":3315:3341  _order == 1 || _order == 2 */\n    tag_54:\n        /* \"voting.sol\":3315:3356  _order == 1 || _order == 2 || _order == 3 */\n      dup1\n      tag_55\n      jumpi\n      pop\n        /* \"voting.sol\":3355:3356  3 */\n      0x03\n        /* \"voting.sol\":3345:3351  _order */\n      dup3\n        /* \"voting.sol\":3345:3356  _order == 3 */\n      eq\n        /* \"voting.sol\":3315:3356  _order == 1 || _order == 2 || _order == 3 */\n    tag_55:\n        /* \"voting.sol\":3307:3357  require(_order == 1 || _order == 2 || _order == 3) */\n      tag_56\n      jumpi\n      0x00\n      dup1\n      revert\n    tag_56:\n        /* \"voting.sol\":3385:3391  owner1 */\n      0x00\n      dup1\n      sload\n      swap1\n      0x0100\n      exp\n      swap1\n      div\n      0xffffffffffffffffffffffffffffffffffffffff\n      and\n        /* \"voting.sol\":3371:3391  msg.sender == owner1 */\n      0xffffffffffffffffffffffffffffffffffffffff\n      and\n        /* \"voting.sol\":3371:3381  msg.sender */\n      caller\n        /* \"voting.sol\":3371:3391  msg.sender == owner1 */\n      0xffffffffffffffffffffffffffffffffffffffff\n      and\n      eq\n        /* \"voting.sol\":3371:3405  msg.sender == owner1 && vote1 == 0 */\n      dup1\n      iszero\n      tag_57\n      jumpi\n      pop\n        /* \"voting.sol\":3404:3405  0 */\n      0x00\n        /* \"voting.sol\":3395:3400  vote1 */\n      0x02\n      0x16\n      swap1\n      sload\n      swap1\n      0x0100\n      exp\n      swap1\n      div\n      0xff\n      and\n        /* \"voting.sol\":3395:3405  vote1 == 0 */\n      0xff\n      and\n      eq\n        /* \"voting.sol\":3371:3405  msg.sender == owner1 && vote1 == 0 */\n    tag_57:\n        /* \"voting.sol\":3367:3666  if (msg.sender == owner1 && vote1 == 0){... */\n      iszero\n      tag_58\n      jumpi\n        /* \"voting.sol\":3434:3435  1 */\n      0x01\n        /* \"voting.sol\":3424:3430  _order */\n      dup3\n        /* \"voting.sol\":3424:3435  _order == 1 */\n      eq\n        /* \"voting.sol\":3420:3633  if (_order == 1){... */\n      iszero\n      tag_59\n      jumpi\n        /* \"voting.sol\":3454:3462  getVote1 */\n      0x02\n      0x19\n        /* \"voting.sol\":3454:3464  getVote1++ */\n      dup2\n      dup2\n      swap1\n      sload\n      swap1\n      0x0100\n      exp\n      swap1\n      div\n      0xff\n      and\n      dup1\n      swap3\n      swap2\n      swap1\n      tag_60\n      swap1\n      tag_61\n      jump\t// in\n    tag_60:\n      swap2\n      swap1\n      0x0100\n      exp\n      dup2\n      sload\n      dup2\n      0xff\n      mul\n      not\n      and\n      swap1\n      dup4\n      0xff\n      and\n      mul\n      or\n      swap1\n      sstore\n      pop\n      pop\n        /* \"voting.sol\":3420:3633  if (_order == 1){... */\n      jump(tag_62)\n    tag_59:\n        /* \"voting.sol\":3511:3512  2 */\n      0x02\n        /* \"voting.sol\":3501:3507  _order */\n      dup3\n        /* \"voting.sol\":3501:3512  _order == 2 */\n      eq\n        /* \"voting.sol\":3497:3633  if (_order == 2){... */\n      iszero\n      tag_63\n      jumpi\n        /* \"voting.sol\":3531:3539  getVote2 */\n      0x02\n      0x1a\n        /* \"voting.sol\":3531:3541  getVote2++ */\n      dup2\n      dup2\n      swap1\n      sload\n      swap1\n      0x0100\n      exp\n      swap1\n      div\n      0xff\n      and\n      dup1\n      swap3\n      swap2\n      swap1\n      tag_64\n      swap1\n      tag_61\n      jump\t// in\n    tag_64:\n      swap2\n      swap1\n      0x0100\n      exp\n      dup2\n      sload\n      dup2\n      0xff\n      mul\n      not\n      and\n      swap1\n      dup4\n      0xff\n      and\n      mul\n      or\n      swap1\n      sstore\n      pop\n      pop\n        /* \"voting.sol\":3497:3633  if (_order == 2){... */\n      jump(tag_65)\n    tag_63:\n        /* \"voting.sol\":3588:3589  3 */\n      0x03\n        /* \"voting.sol\":3578:3584  _order */\n      dup3\n        /* \"voting.sol\":3578:3589  _order == 3 */\n      eq\n        /* \"voting.sol\":3574:3633  if (_order == 3){... */\n      iszero\n      tag_66\n      jumpi\n        /* \"voting.sol\":3608:3616  getVote3 */\n      0x02\n      0x1b\n        /* \"voting.sol\":3608:3618  getVote3++ */\n      dup2\n      dup2\n      swap1\n      sload\n      swap1\n      0x0100\n      exp\n      swap1\n      div\n      0xff\n      and\n      dup1\n      swap3\n      swap2\n      swap1\n      tag_67\n      swap1\n      tag_61\n      jump\t// in\n    tag_67:\n      swap2\n      swap1\n      0x0100\n      exp\n      dup2\n      sload\n      dup2\n      0xff\n      mul\n      not\n      and\n      swap1\n      dup4\n      0xff\n      and\n      mul\n      or\n      swap1\n      sstore\n      pop\n      pop\n        /* \"voting.sol\":3574:3633  if (_order == 3){... */\n    tag_66:\n        /* \"voting.sol\":3497:3633  if (_order == 2){... */\n    tag_65:\n        /* \"voting.sol\":3420:3633  if (_order == 1){... */\n    tag_62:\n        /* \"voting.sol\":3654:3655  1 */\n      0x01\n        /* \"voting.sol\":3646:3651  vote1 */\n      0x02\n      0x16\n        /* \"voting.sol\":3646:3655  vote1 = 1 */\n      0x0100\n      exp\n      dup2\n      sload\n      dup2\n      0xff\n      mul\n      not\n      and\n      swap1\n      dup4\n      0xff\n      and\n      mul\n      or\n      swap1\n      sstore\n      pop\n        /* \"voting.sol\":3367:3666  if (msg.sender == owner1 && vote1 == 0){... */\n    tag_58:\n        /* \"voting.sol\":3693:3699  owner2 */\n      0x01\n      0x00\n      swap1\n      sload\n      swap1\n      0x0100\n      exp\n      swap1\n      div\n      0xffffffffffffffffffffffffffffffffffffffff\n      and\n        /* \"voting.sol\":3679:3699  msg.sender == owner2 */\n      0xffffffffffffffffffffffffffffffffffffffff\n      and\n        /* \"voting.sol\":3679:3689  msg.sender */\n      caller\n        /* \"voting.sol\":3679:3699  msg.sender == owner2 */\n      0xffffffffffffffffffffffffffffffffffffffff\n      and\n      eq\n        /* \"voting.sol\":3679:3713  msg.sender == owner2 && vote2 == 0 */\n      dup1\n      iszero\n      tag_68\n      jumpi\n      pop\n        /* \"voting.sol\":3712:3713  0 */\n      0x00\n        /* \"voting.sol\":3703:3708  vote2 */\n      0x02\n      0x17\n      swap1\n      sload\n      swap1\n      0x0100\n      exp\n      swap1\n      div\n      0xff\n      and\n        /* \"voting.sol\":3703:3713  vote2 == 0 */\n      0xff\n      and\n      eq\n        /* \"voting.sol\":3679:3713  msg.sender == owner2 && vote2 == 0 */\n    tag_68:\n        /* \"voting.sol\":3675:3974  if (msg.sender == owner2 && vote2 == 0){... */\n      iszero\n      tag_69\n      jumpi\n        /* \"voting.sol\":3742:3743  1 */\n      0x01\n        /* \"voting.sol\":3732:3738  _order */\n      dup3\n        /* \"voting.sol\":3732:3743  _order == 1 */\n      eq\n        /* \"voting.sol\":3728:3941  if (_order == 1){... */\n      iszero\n      tag_70\n      jumpi\n        /* \"voting.sol\":3762:3770  getVote1 */\n      0x02\n      0x19\n        /* \"voting.sol\":3762:3772  getVote1++ */\n      dup2\n      dup2\n      swap1\n      sload\n      swap1\n      0x0100\n      exp\n      swap1\n      div\n      0xff\n      and\n      dup1\n      swap3\n      swap2\n      swap1\n      tag_71\n      swap1\n      tag_61\n      jump\t// in\n    tag_71:\n      swap2\n      swap1\n      0x0100\n      exp\n      dup2\n      sload\n      dup2\n      0xff\n      mul\n      not\n      and\n      swap1\n      dup4\n      0xff\n      and\n      mul\n      or\n      swap1\n      sstore\n      pop\n      pop\n        /* \"voting.sol\":3728:3941  if (_order == 1){... */\n      jump(tag_72)\n    tag_70:\n        /* \"voting.sol\":3819:3820  2 */\n      0x02\n        /* \"voting.sol\":3809:3815  _order */\n      dup3\n        /* \"voting.sol\":3809:3820  _order == 2 */\n      eq\n        /* \"voting.sol\":3805:3941  if (_order == 2){... */\n      iszero\n      tag_73\n      jumpi\n        /* \"voting.sol\":3839:3847  getVote2 */\n      0x02\n      0x1a\n        /* \"voting.sol\":3839:3849  getVote2++ */\n      dup2\n      dup2\n      swap1\n      sload\n      swap1\n      0x0100\n      exp\n      swap1\n      div\n      0xff\n      and\n      dup1\n      swap3\n      swap2\n      swap1\n      tag_74\n      swap1\n      tag_61\n      jump\t// in\n    tag_74:\n      swap2\n      swap1\n      0x0100\n      exp\n      dup2\n      sload\n      dup2\n      0xff\n      mul\n      not\n      and\n      swap1\n      dup4\n      0xff\n      and\n      mul\n      or\n      swap1\n      sstore\n      pop\n      pop\n        /* \"voting.sol\":3805:3941  if (_order == 2){... */\n      jump(tag_75)\n    tag_73:\n        /* \"voting.sol\":3896:3897  3 */\n      0x03\n        /* \"voting.sol\":3886:3892  _order */\n      dup3\n        /* \"voting.sol\":3886:3897  _order == 3 */\n      eq\n        /* \"voting.sol\":3882:3941  if (_order == 3){... */\n      iszero\n      tag_76\n      jumpi\n        /* \"voting.sol\":3916:3924  getVote3 */\n      0x02\n      0x1b\n        /* \"voting.sol\":3916:3926  getVote3++ */\n      dup2\n      dup2\n      swap1\n      sload\n      swap1\n      0x0100\n      exp\n      swap1\n      div\n      0xff\n      and\n      dup1\n      swap3\n      swap2\n      swap1\n      tag_77\n      swap1\n      tag_61\n      jump\t// in\n    tag_77:\n      swap2\n      swap1\n      0x0100\n      exp\n      dup2\n      sload\n      dup2\n      0xff\n      mul\n      not\n      and\n      swap1\n      dup4\n      0xff\n      and\n      mul\n      or\n      swap1\n      sstore\n      pop\n      pop\n        /* \"voting.sol\":3882:3941  if (_order == 3){... */\n    tag_76:\n        /* \"voting.sol\":3805:3941  if (_order == 2){... */\n    tag_75:\n        /* \"voting.sol\":3728:3941  if (_order == 1){... */\n    tag_72:\n        /* \"voting.sol\":3962:3963  1 */\n      0x01\n        /* \"voting.sol\":3954:3959  vote2 */\n      0x02\n      0x17\n        /* \"voting.sol\":3954:3963  vote2 = 1 */\n      0x0100\n      exp\n      dup2\n      sload\n      dup2\n      0xff\n      mul\n      not\n      and\n      swap1\n      dup4\n      0xff\n      and\n      mul\n      or\n      swap1\n      sstore\n      pop\n        /* \"voting.sol\":3675:3974  if (msg.sender == owner2 && vote2 == 0){... */\n    tag_69:\n        /* \"voting.sol\":4001:4007  owner3 */\n      0x02\n      0x00\n      swap1\n      sload\n      swap1\n      0x0100\n      exp\n      swap1\n      div\n      0xffffffffffffffffffffffffffffffffffffffff\n      and\n        /* \"voting.sol\":3987:4007  msg.sender == owner3 */\n      0xffffffffffffffffffffffffffffffffffffffff\n      and\n        /* \"voting.sol\":3987:3997  msg.sender */\n      caller\n        /* \"voting.sol\":3987:4007  msg.sender == owner3 */\n      0xffffffffffffffffffffffffffffffffffffffff\n      and\n      eq\n        /* \"voting.sol\":3987:4021  msg.sender == owner3 && vote3 == 0 */\n      dup1\n      iszero\n      tag_78\n      jumpi\n      pop\n        /* \"voting.sol\":4020:4021  0 */\n      0x00\n        /* \"voting.sol\":4011:4016  vote3 */\n      0x02\n      0x18\n      swap1\n      sload\n      swap1\n      0x0100\n      exp\n      swap1\n      div\n      0xff\n      and\n        /* \"voting.sol\":4011:4021  vote3 == 0 */\n      0xff\n      and\n      eq\n        /* \"voting.sol\":3987:4021  msg.sender == owner3 && vote3 == 0 */\n    tag_78:\n        /* \"voting.sol\":3983:4282  if (msg.sender == owner3 && vote3 == 0){... */\n      iszero\n      tag_79\n      jumpi\n        /* \"voting.sol\":4050:4051  1 */\n      0x01\n        /* \"voting.sol\":4040:4046  _order */\n      dup3\n        /* \"voting.sol\":4040:4051  _order == 1 */\n      eq\n        /* \"voting.sol\":4036:4249  if (_order == 1){... */\n      iszero\n      tag_80\n      jumpi\n        /* \"voting.sol\":4070:4078  getVote1 */\n      0x02\n      0x19\n        /* \"voting.sol\":4070:4080  getVote1++ */\n      dup2\n      dup2\n      swap1\n      sload\n      swap1\n      0x0100\n      exp\n      swap1\n      div\n      0xff\n      and\n      dup1\n      swap3\n      swap2\n      swap1\n      tag_81\n      swap1\n      tag_61\n      jump\t// in\n    tag_81:\n      swap2\n      swap1\n      0x0100\n      exp\n      dup2\n      sload\n      dup2\n      0xff\n      mul\n      not\n      and\n      swap1\n      dup4\n      0xff\n      and\n      mul\n      or\n      swap1\n      sstore\n      pop\n      pop\n        /* \"voting.sol\":4036:4249  if (_order == 1){... */\n      jump(tag_82)\n    tag_80:\n        /* \"voting.sol\":4127:4128  2 */\n      0x02\n        /* \"voting.sol\":4117:4123  _order */\n      dup3\n        /* \"voting.sol\":4117:4128  _order == 2 */\n      eq\n        /* \"voting.sol\":4113:4249  if (_order == 2){... */\n      iszero\n      tag_83\n      jumpi\n        /* \"voting.sol\":4147:4155  getVote2 */\n      0x02\n      0x1a\n        /* \"voting.sol\":4147:4157  getVote2++ */\n      dup2\n      dup2\n      swap1\n      sload\n      swap1\n      0x0100\n      exp\n      swap1\n      div\n      0xff\n      and\n      dup1\n      swap3\n      swap2\n      swap1\n      tag_84\n      swap1\n      tag_61\n      jump\t// in\n    tag_84:\n      swap2\n      swap1\n      0x0100\n      exp\n      dup2\n      sload\n      dup2\n      0xff\n      mul\n      not\n      and\n      swap1\n      dup4\n      0xff\n      and\n      mul\n      or\n      swap1\n      sstore\n      pop\n      pop\n        /* \"voting.sol\":4113:4249  if (_order == 2){... */\n      jump(tag_85)\n    tag_83:\n        /* \"voting.sol\":4204:4205  3 */\n      0x03\n        /* \"voting.sol\":4194:4200  _order */\n      dup3\n        /* \"voting.sol\":4194:4205  _order == 3 */\n      eq\n        /* \"voting.sol\":4190:4249  if (_order == 3){... */\n      iszero\n      tag_86\n      jumpi\n        /* \"voting.sol\":4224:4232  getVote3 */\n      0x02\n      0x1b\n        /* \"voting.sol\":4224:4234  getVote3++ */\n      dup2\n      dup2\n      swap1\n      sload\n      swap1\n      0x0100\n      exp\n      swap1\n      div\n      0xff\n      and\n      dup1\n      swap3\n      swap2\n      swap1\n      tag_87\n      swap1\n      tag_61\n      jump\t// in\n    tag_87:\n      swap2\n      swap1\n      0x0100\n      exp\n      dup2\n      sload\n      dup2\n      0xff\n      mul\n      not\n      and\n      swap1\n      dup4\n      0xff\n      and\n      mul\n      or\n      swap1\n      sstore\n      pop\n      pop\n        /* \"voting.sol\":4190:4249  if (_order == 3){... */\n    tag_86:\n        /* \"voting.sol\":4113:4249  if (_order == 2){... */\n    tag_85:\n        /* \"voting.sol\":4036:4249  if (_order == 1){... */\n    tag_82:\n        /* \"voting.sol\":4270:4271  1 */\n      0x01\n        /* \"voting.sol\":4262:4267  vote3 */\n      0x02\n      0x18\n        /* \"voting.sol\":4262:4271  vote3 = 1 */\n      0x0100\n      exp\n      dup2\n      sload\n      dup2\n      0xff\n      mul\n      not\n      and\n      swap1\n      dup4\n      0xff\n      and\n      mul\n      or\n      swap1\n      sstore\n      pop\n        /* \"voting.sol\":3983:4282  if (msg.sender == owner3 && vote3 == 0){... */\n    tag_79:\n        /* \"voting.sol\":4313:4314  1 */\n      0x01\n        /* \"voting.sol\":4304:4309  vote1 */\n      0x02\n      0x16\n      swap1\n      sload\n      swap1\n      0x0100\n      exp\n      swap1\n      div\n      0xff\n      and\n        /* \"voting.sol\":4304:4314  vote1 == 1 */\n      0xff\n      and\n      eq\n        /* \"voting.sol\":4304:4328  vote1 == 1 && vote2 == 1 */\n      dup1\n      iszero\n      tag_88\n      jumpi\n      pop\n        /* \"voting.sol\":4327:4328  1 */\n      0x01\n        /* \"voting.sol\":4318:4323  vote2 */\n      0x02\n      0x17\n      swap1\n      sload\n      swap1\n      0x0100\n      exp\n      swap1\n      div\n      0xff\n      and\n        /* \"voting.sol\":4318:4328  vote2 == 1 */\n      0xff\n      and\n      eq\n        /* \"voting.sol\":4304:4328  vote1 == 1 && vote2 == 1 */\n    tag_88:\n        /* \"voting.sol\":4304:4342  vote1 == 1 && vote2 == 1 && vote3 == 1 */\n      dup1\n      iszero\n      tag_89\n      jumpi\n      pop\n        /* \"voting.sol\":4341:4342  1 */\n      0x01\n        /* \"voting.sol\":4332:4337  vote3 */\n      0x02\n      0x18\n      swap1\n      sload\n      swap1\n      0x0100\n      exp\n      swap1\n      div\n      0xff\n      and\n        /* \"voting.sol\":4332:4342  vote3 == 1 */\n      0xff\n      and\n      eq\n        /* \"voting.sol\":4304:4342  vote1 == 1 && vote2 == 1 && vote3 == 1 */\n    tag_89:\n        /* \"voting.sol\":4304:4371  vote1 == 1 && vote2 == 1 && vote3 == 1 && realOwner == address(0x0) */\n      dup1\n      iszero\n      tag_90\n      jumpi\n      pop\n        /* \"voting.sol\":4367:4370  0x0 */\n      0x00\n        /* \"voting.sol\":4346:4371  realOwner == address(0x0) */\n      0xffffffffffffffffffffffffffffffffffffffff\n      and\n        /* \"voting.sol\":4346:4355  realOwner */\n      0x03\n      0x00\n      swap1\n      sload\n      swap1\n      0x0100\n      exp\n      swap1\n      div\n      0xffffffffffffffffffffffffffffffffffffffff\n      and\n        /* \"voting.sol\":4346:4371  realOwner == address(0x0) */\n      0xffffffffffffffffffffffffffffffffffffffff\n      and\n      eq\n        /* \"voting.sol\":4304:4371  vote1 == 1 && vote2 == 1 && vote3 == 1 && realOwner == address(0x0) */\n    tag_90:\n        /* \"voting.sol\":4300:4956  if (vote1 == 1 && vote2 == 1 && vote3 == 1 && realOwner == address(0x0)){... */\n      iszero\n      tag_91\n      jumpi\n        /* \"voting.sol\":4402:4403  2 */\n      0x02\n        /* \"voting.sol\":4390:4398  getVote1 */\n      dup1\n      0x19\n      swap1\n      sload\n      swap1\n      0x0100\n      exp\n      swap1\n      div\n      0xff\n      and\n        /* \"voting.sol\":4390:4403  getVote1 >= 2 */\n      0xff\n      and\n      lt\n        /* \"voting.sol\":4386:4629  if (getVote1 >= 2){... */\n      tag_92\n      jumpi\n        /* \"voting.sol\":4434:4440  owner1 */\n      0x00\n      dup1\n      sload\n      swap1\n      0x0100\n      exp\n      swap1\n      div\n      0xffffffffffffffffffffffffffffffffffffffff\n      and\n        /* \"voting.sol\":4422:4431  realOwner */\n      0x03\n      0x00\n        /* \"voting.sol\":4422:4440  realOwner = owner1 */\n      0x0100\n      exp\n      dup2\n      sload\n      dup2\n      0xffffffffffffffffffffffffffffffffffffffff\n      mul\n      not\n      and\n      swap1\n      dup4\n      0xffffffffffffffffffffffffffffffffffffffff\n      and\n      mul\n      or\n      swap1\n      sstore\n      pop\n        /* \"voting.sol\":4386:4629  if (getVote1 >= 2){... */\n      jump(tag_93)\n    tag_92:\n        /* \"voting.sol\":4489:4490  2 */\n      0x02\n        /* \"voting.sol\":4477:4485  getVote2 */\n      dup1\n      0x1a\n      swap1\n      sload\n      swap1\n      0x0100\n      exp\n      swap1\n      div\n      0xff\n      and\n        /* \"voting.sol\":4477:4490  getVote2 >= 2 */\n      0xff\n      and\n      lt\n        /* \"voting.sol\":4473:4629  if (getVote2 >= 2){... */\n      tag_94\n      jumpi\n        /* \"voting.sol\":4521:4527  owner2 */\n      0x01\n      0x00\n      swap1\n      sload\n      swap1\n      0x0100\n      exp\n      swap1\n      div\n      0xffffffffffffffffffffffffffffffffffffffff\n      and\n        /* \"voting.sol\":4509:4518  realOwner */\n      0x03\n      0x00\n        /* \"voting.sol\":4509:4527  realOwner = owner2 */\n      0x0100\n      exp\n      dup2\n      sload\n      dup2\n      0xffffffffffffffffffffffffffffffffffffffff\n      mul\n      not\n      and\n      swap1\n      dup4\n      0xffffffffffffffffffffffffffffffffffffffff\n      and\n      mul\n      or\n      swap1\n      sstore\n      pop\n        /* \"voting.sol\":4473:4629  if (getVote2 >= 2){... */\n      jump(tag_95)\n    tag_94:\n        /* \"voting.sol\":4576:4577  2 */\n      0x02\n        /* \"voting.sol\":4564:4572  getVote3 */\n      dup1\n      0x1b\n      swap1\n      sload\n      swap1\n      0x0100\n      exp\n      swap1\n      div\n      0xff\n      and\n        /* \"voting.sol\":4564:4577  getVote3 >= 2 */\n      0xff\n      and\n      lt\n        /* \"voting.sol\":4560:4629  if (getVote3 >= 2){... */\n      tag_96\n      jumpi\n        /* \"voting.sol\":4608:4614  owner3 */\n      0x02\n      0x00\n      swap1\n      sload\n      swap1\n      0x0100\n      exp\n      swap1\n      div\n      0xffffffffffffffffffffffffffffffffffffffff\n      and\n        /* \"voting.sol\":4596:4605  realOwner */\n      0x03\n      0x00\n        /* \"voting.sol\":4596:4614  realOwner = owner3 */\n      0x0100\n      exp\n      dup2\n      sload\n      dup2\n      0xffffffffffffffffffffffffffffffffffffffff\n      mul\n      not\n      and\n      swap1\n      dup4\n      0xffffffffffffffffffffffffffffffffffffffff\n      and\n      mul\n      or\n      swap1\n      sstore\n      pop\n        /* \"voting.sol\":4560:4629  if (getVote3 >= 2){... */\n    tag_96:\n        /* \"voting.sol\":4473:4629  if (getVote2 >= 2){... */\n    tag_95:\n        /* \"voting.sol\":4386:4629  if (getVote1 >= 2){... */\n    tag_93:\n        /* \"voting.sol\":4650:4651  0 */\n      0x00\n        /* \"voting.sol\":4642:4647  vote1 */\n      0x02\n      0x16\n        /* \"voting.sol\":4642:4651  vote1 = 0 */\n      0x0100\n      exp\n      dup2\n      sload\n      dup2\n      0xff\n      mul\n      not\n      and\n      swap1\n      dup4\n      0xff\n      and\n      mul\n      or\n      swap1\n      sstore\n      pop\n        /* \"voting.sol\":4673:4674  0 */\n      0x00\n        /* \"voting.sol\":4665:4670  vote2 */\n      0x02\n      0x17\n        /* \"voting.sol\":4665:4674  vote2 = 0 */\n      0x0100\n      exp\n      dup2\n      sload\n      dup2\n      0xff\n      mul\n      not\n      and\n      swap1\n      dup4\n      0xff\n      and\n      mul\n      or\n      swap1\n      sstore\n      pop\n        /* \"voting.sol\":4696:4697  0 */\n      0x00\n        /* \"voting.sol\":4688:4693  vote3 */\n      0x02\n      0x18\n        /* \"voting.sol\":4688:4697  vote3 = 0 */\n      0x0100\n      exp\n      dup2\n      sload\n      dup2\n      0xff\n      mul\n      not\n      and\n      swap1\n      dup4\n      0xff\n      and\n      mul\n      or\n      swap1\n      sstore\n      pop\n        /* \"voting.sol\":4722:4723  0 */\n      0x00\n        /* \"voting.sol\":4711:4719  getVote1 */\n      0x02\n      0x19\n        /* \"voting.sol\":4711:4723  getVote1 = 0 */\n      0x0100\n      exp\n      dup2\n      sload\n      dup2\n      0xff\n      mul\n      not\n      and\n      swap1\n      dup4\n      0xff\n      and\n      mul\n      or\n      swap1\n      sstore\n      pop\n        /* \"voting.sol\":4748:4749  0 */\n      0x00\n        /* \"voting.sol\":4737:4745  getVote2 */\n      0x02\n      0x1a\n        /* \"voting.sol\":4737:4749  getVote2 = 0 */\n      0x0100\n      exp\n      dup2\n      sload\n      dup2\n      0xff\n      mul\n      not\n      and\n      swap1\n      dup4\n      0xff\n      and\n      mul\n      or\n      swap1\n      sstore\n      pop\n        /* \"voting.sol\":4774:4775  0 */\n      0x00\n        /* \"voting.sol\":4763:4771  getVote3 */\n      0x02\n      0x1b\n        /* \"voting.sol\":4763:4775  getVote3 = 0 */\n      0x0100\n      exp\n      dup2\n      sload\n      dup2\n      0xff\n      mul\n      not\n      and\n      swap1\n      dup4\n      0xff\n      and\n      mul\n      or\n      swap1\n      sstore\n      pop\n        /* \"voting.sol\":4814:4817  0x0 */\n      0x00\n        /* \"voting.sol\":4793:4818  realOwner == address(0x0) */\n      0xffffffffffffffffffffffffffffffffffffffff\n      and\n        /* \"voting.sol\":4793:4802  realOwner */\n      0x03\n      0x00\n      swap1\n      sload\n      swap1\n      0x0100\n      exp\n      swap1\n      div\n      0xffffffffffffffffffffffffffffffffffffffff\n      and\n        /* \"voting.sol\":4793:4818  realOwner == address(0x0) */\n      0xffffffffffffffffffffffffffffffffffffffff\n      and\n      eq\n        /* \"voting.sol\":4789:4870  if (realOwner == address(0x0)){... */\n      iszero\n      tag_97\n      jumpi\n        /* \"voting.sol\":4849:4855  owner1 */\n      0x00\n      dup1\n      sload\n      swap1\n      0x0100\n      exp\n      swap1\n      div\n      0xffffffffffffffffffffffffffffffffffffffff\n      and\n        /* \"voting.sol\":4837:4846  realOwner */\n      0x03\n      0x00\n        /* \"voting.sol\":4837:4855  realOwner = owner1 */\n      0x0100\n      exp\n      dup2\n      sload\n      dup2\n      0xffffffffffffffffffffffffffffffffffffffff\n      mul\n      not\n      and\n      swap1\n      dup4\n      0xffffffffffffffffffffffffffffffffffffffff\n      and\n      mul\n      or\n      swap1\n      sstore\n      pop\n        /* \"voting.sol\":4789:4870  if (realOwner == address(0x0)){... */\n    tag_97:\n        /* \"voting.sol\":4890:4894  true */\n      0x01\n        /* \"voting.sol\":4883:4894  return true */\n      swap1\n      pop\n      jump(tag_53)\n        /* \"voting.sol\":4300:4956  if (vote1 == 1 && vote2 == 1 && vote3 == 1 && realOwner == address(0x0)){... */\n    tag_91:\n        /* \"voting.sol\":4940:4945  false */\n      0x00\n        /* \"voting.sol\":4933:4945  return false */\n      swap1\n      pop\n        /* \"voting.sol\":365:366  _ */\n    tag_53:\n        /* \"voting.sol\":3239:4962  function vote(uint _order) onlyOwner public returns(bool) {... */\n      swap2\n      swap1\n      pop\n      jump\t// out\n        /* \"voting.sol\":5194:5270  function getValue() public view returns (uint8){... */\n    tag_19:\n        /* \"voting.sol\":5235:5240  uint8 */\n      0x00\n        /* \"voting.sol\":5258:5263  value */\n      0x03\n      0x14\n      swap1\n      sload\n      swap1\n      0x0100\n      exp\n      swap1\n      div\n      0xff\n      and\n        /* \"voting.sol\":5251:5263  return value */\n      swap1\n      pop\n        /* \"voting.sol\":5194:5270  function getValue() public view returns (uint8){... */\n      swap1\n      jump\t// out\n        /* \"voting.sol\":2333:2901  function becomeOwner(address _person) public returns (bool){... */\n    tag_25:\n        /* \"voting.sol\":2387:2391  bool */\n      0x00\n        /* \"voting.sol\":2420:2421  3 */\n      0x03\n        /* \"voting.sol\":2406:2416  ownerCount */\n      0x02\n      0x14\n      swap1\n      sload\n      swap1\n      0x0100\n      exp\n      swap1\n      div\n      0xff\n      and\n        /* \"voting.sol\":2406:2421  ownerCount == 3 */\n      0xff\n      and\n      eq\n        /* \"voting.sol\":2402:2459  if (ownerCount == 3){... */\n      iszero\n      tag_101\n      jumpi\n        /* \"voting.sol\":2443:2448  false */\n      0x00\n        /* \"voting.sol\":2436:2448  return false */\n      swap1\n      pop\n      jump(tag_100)\n        /* \"voting.sol\":2402:2459  if (ownerCount == 3){... */\n    tag_101:\n        /* \"voting.sol\":2486:2487  0 */\n      0x00\n        /* \"voting.sol\":2472:2482  ownerCount */\n      0x02\n      0x14\n      swap1\n      sload\n      swap1\n      0x0100\n      exp\n      swap1\n      div\n      0xff\n      and\n        /* \"voting.sol\":2472:2487  ownerCount == 0 */\n      0xff\n      and\n      eq\n        /* \"voting.sol\":2468:2895  if (ownerCount == 0){... */\n      iszero\n      tag_102\n      jumpi\n        /* \"voting.sol\":2511:2518  _person */\n      dup2\n        /* \"voting.sol\":2502:2508  owner1 */\n      0x00\n      dup1\n        /* \"voting.sol\":2502:2518  owner1 = _person */\n      0x0100\n      exp\n      dup2\n      sload\n      dup2\n      0xffffffffffffffffffffffffffffffffffffffff\n      mul\n      not\n      and\n      swap1\n      dup4\n      0xffffffffffffffffffffffffffffffffffffffff\n      and\n      mul\n      or\n      swap1\n      sstore\n      pop\n        /* \"voting.sol\":2532:2542  ownerCount */\n      0x02\n      0x14\n        /* \"voting.sol\":2532:2544  ownerCount++ */\n      dup2\n      dup2\n      swap1\n      sload\n      swap1\n      0x0100\n      exp\n      swap1\n      div\n      0xff\n      and\n      dup1\n      swap3\n      swap2\n      swap1\n      tag_103\n      swap1\n      tag_61\n      jump\t// in\n    tag_103:\n      swap2\n      swap1\n      0x0100\n      exp\n      dup2\n      sload\n      dup2\n      0xff\n      mul\n      not\n      and\n      swap1\n      dup4\n      0xff\n      and\n      mul\n      or\n      swap1\n      sstore\n      pop\n      pop\n        /* \"voting.sol\":2565:2569  true */\n      0x01\n        /* \"voting.sol\":2558:2569  return true */\n      swap1\n      pop\n      jump(tag_100)\n        /* \"voting.sol\":2468:2895  if (ownerCount == 0){... */\n    tag_102:\n        /* \"voting.sol\":2612:2613  1 */\n      0x01\n        /* \"voting.sol\":2598:2608  ownerCount */\n      0x02\n      0x14\n      swap1\n      sload\n      swap1\n      0x0100\n      exp\n      swap1\n      div\n      0xff\n      and\n        /* \"voting.sol\":2598:2613  ownerCount == 1 */\n      0xff\n      and\n      eq\n        /* \"voting.sol\":2598:2634  ownerCount == 1 && owner1 != _person */\n      dup1\n      iszero\n      tag_105\n      jumpi\n      pop\n        /* \"voting.sol\":2627:2634  _person */\n      dup2\n        /* \"voting.sol\":2617:2634  owner1 != _person */\n      0xffffffffffffffffffffffffffffffffffffffff\n      and\n        /* \"voting.sol\":2617:2623  owner1 */\n      0x00\n      dup1\n      sload\n      swap1\n      0x0100\n      exp\n      swap1\n      div\n      0xffffffffffffffffffffffffffffffffffffffff\n      and\n        /* \"voting.sol\":2617:2634  owner1 != _person */\n      0xffffffffffffffffffffffffffffffffffffffff\n      and\n      eq\n      iszero\n        /* \"voting.sol\":2598:2634  ownerCount == 1 && owner1 != _person */\n    tag_105:\n        /* \"voting.sol\":2594:2895  if (ownerCount == 1 && owner1 != _person){... */\n      iszero\n      tag_106\n      jumpi\n        /* \"voting.sol\":2658:2665  _person */\n      dup2\n        /* \"voting.sol\":2649:2655  owner2 */\n      0x01\n      0x00\n        /* \"voting.sol\":2649:2665  owner2 = _person */\n      0x0100\n      exp\n      dup2\n      sload\n      dup2\n      0xffffffffffffffffffffffffffffffffffffffff\n      mul\n      not\n      and\n      swap1\n      dup4\n      0xffffffffffffffffffffffffffffffffffffffff\n      and\n      mul\n      or\n      swap1\n      sstore\n      pop\n        /* \"voting.sol\":2679:2689  ownerCount */\n      0x02\n      0x14\n        /* \"voting.sol\":2679:2691  ownerCount++ */\n      dup2\n      dup2\n      swap1\n      sload\n      swap1\n      0x0100\n      exp\n      swap1\n      div\n      0xff\n      and\n      dup1\n      swap3\n      swap2\n      swap1\n      tag_107\n      swap1\n      tag_61\n      jump\t// in\n    tag_107:\n      swap2\n      swap1\n      0x0100\n      exp\n      dup2\n      sload\n      dup2\n      0xff\n      mul\n      not\n      and\n      swap1\n      dup4\n      0xff\n      and\n      mul\n      or\n      swap1\n      sstore\n      pop\n      pop\n        /* \"voting.sol\":2712:2716  true */\n      0x01\n        /* \"voting.sol\":2705:2716  return true */\n      swap1\n      pop\n      jump(tag_100)\n        /* \"voting.sol\":2594:2895  if (ownerCount == 1 && owner1 != _person){... */\n    tag_106:\n        /* \"voting.sol\":2759:2760  2 */\n      0x02\n        /* \"voting.sol\":2745:2755  ownerCount */\n      dup1\n      0x14\n      swap1\n      sload\n      swap1\n      0x0100\n      exp\n      swap1\n      div\n      0xff\n      and\n        /* \"voting.sol\":2745:2760  ownerCount == 2 */\n      0xff\n      and\n      eq\n        /* \"voting.sol\":2745:2781  ownerCount == 2 && owner1 != _person */\n      dup1\n      iszero\n      tag_109\n      jumpi\n      pop\n        /* \"voting.sol\":2774:2781  _person */\n      dup2\n        /* \"voting.sol\":2764:2781  owner1 != _person */\n      0xffffffffffffffffffffffffffffffffffffffff\n      and\n        /* \"voting.sol\":2764:2770  owner1 */\n      0x00\n      dup1\n      sload\n      swap1\n      0x0100\n      exp\n      swap1\n      div\n      0xffffffffffffffffffffffffffffffffffffffff\n      and\n        /* \"voting.sol\":2764:2781  owner1 != _person */\n      0xffffffffffffffffffffffffffffffffffffffff\n      and\n      eq\n      iszero\n        /* \"voting.sol\":2745:2781  ownerCount == 2 && owner1 != _person */\n    tag_109:\n        /* \"voting.sol\":2745:2802  ownerCount == 2 && owner1 != _person && owner2 != _person */\n      dup1\n      iszero\n      tag_110\n      jumpi\n      pop\n        /* \"voting.sol\":2795:2802  _person */\n      dup2\n        /* \"voting.sol\":2785:2802  owner2 != _person */\n      0xffffffffffffffffffffffffffffffffffffffff\n      and\n        /* \"voting.sol\":2785:2791  owner2 */\n      0x01\n      0x00\n      swap1\n      sload\n      swap1\n      0x0100\n      exp\n      swap1\n      div\n      0xffffffffffffffffffffffffffffffffffffffff\n      and\n        /* \"voting.sol\":2785:2802  owner2 != _person */\n      0xffffffffffffffffffffffffffffffffffffffff\n      and\n      eq\n      iszero\n        /* \"voting.sol\":2745:2802  ownerCount == 2 && owner1 != _person && owner2 != _person */\n    tag_110:\n        /* \"voting.sol\":2741:2895  if (ownerCount == 2 && owner1 != _person && owner2 != _person){... */\n      iszero\n      tag_111\n      jumpi\n        /* \"voting.sol\":2826:2833  _person */\n      dup2\n        /* \"voting.sol\":2817:2823  owner3 */\n      0x02\n      0x00\n        /* \"voting.sol\":2817:2833  owner3 = _person */\n      0x0100\n      exp\n      dup2\n      sload\n      dup2\n      0xffffffffffffffffffffffffffffffffffffffff\n      mul\n      not\n      and\n      swap1\n      dup4\n      0xffffffffffffffffffffffffffffffffffffffff\n      and\n      mul\n      or\n      swap1\n      sstore\n      pop\n        /* \"voting.sol\":2847:2857  ownerCount */\n      0x02\n      0x14\n        /* \"voting.sol\":2847:2859  ownerCount++ */\n      dup2\n      dup2\n      swap1\n      sload\n      swap1\n      0x0100\n      exp\n      swap1\n      div\n      0xff\n      and\n      dup1\n      swap3\n      swap2\n      swap1\n      tag_112\n      swap1\n      tag_61\n      jump\t// in\n    tag_112:\n      swap2\n      swap1\n      0x0100\n      exp\n      dup2\n      sload\n      dup2\n      0xff\n      mul\n      not\n      and\n      swap1\n      dup4\n      0xff\n      and\n      mul\n      or\n      swap1\n      sstore\n      pop\n      pop\n        /* \"voting.sol\":2880:2884  true */\n      0x01\n        /* \"voting.sol\":2873:2884  return true */\n      swap1\n      pop\n      jump(tag_100)\n        /* \"voting.sol\":2741:2895  if (ownerCount == 2 && owner1 != _person && owner2 != _person){... */\n    tag_111:\n        /* \"voting.sol\":2333:2901  function becomeOwner(address _person) public returns (bool){... */\n    tag_100:\n      swap2\n      swap1\n      pop\n      jump\t// out\n        /* \"voting.sol\":5276:5388  function setValue(uint8 _val) checkOwner public returns (bool){... */\n    tag_30:\n        /* \"voting.sol\":5333:5337  bool */\n      0x00\n        /* \"voting.sol\":1306:1315  realOwner */\n      0x03\n      0x00\n      swap1\n      sload\n      swap1\n      0x0100\n      exp\n      swap1\n      div\n      0xffffffffffffffffffffffffffffffffffffffff\n      and\n        /* \"voting.sol\":1292:1315  msg.sender == realOwner */\n      0xffffffffffffffffffffffffffffffffffffffff\n      and\n        /* \"voting.sol\":1292:1302  msg.sender */\n      caller\n        /* \"voting.sol\":1292:1315  msg.sender == realOwner */\n      0xffffffffffffffffffffffffffffffffffffffff\n      and\n      eq\n        /* \"voting.sol\":1284:1316  require(msg.sender == realOwner) */\n      tag_114\n      jumpi\n      0x00\n      dup1\n      revert\n    tag_114:\n        /* \"voting.sol\":5356:5360  _val */\n      dup2\n        /* \"voting.sol\":5348:5353  value */\n      0x03\n      0x14\n        /* \"voting.sol\":5348:5360  value = _val */\n      0x0100\n      exp\n      dup2\n      sload\n      dup2\n      0xff\n      mul\n      not\n      and\n      swap1\n      dup4\n      0xff\n      and\n      mul\n      or\n      swap1\n      sstore\n      pop\n        /* \"voting.sol\":5377:5381  true */\n      0x01\n        /* \"voting.sol\":5370:5381  return true */\n      swap1\n      pop\n        /* \"voting.sol\":5276:5388  function setValue(uint8 _val) checkOwner public returns (bool){... */\n      swap2\n      swap1\n      pop\n      jump\t// out\n        /* \"voting.sol\":1858:2327  function getStatus() public view returns(Status memory){... */\n    tag_33:\n        /* \"voting.sol\":1899:1912  Status memory */\n      tag_116\n      tag_117\n      jump\t// in\n    tag_116:\n        /* \"voting.sol\":1923:1943  Status memory status */\n      tag_119\n      tag_117\n      jump\t// in\n    tag_119:\n        /* \"voting.sol\":1974:1984  ownerCount */\n      0x02\n      0x14\n      swap1\n      sload\n      swap1\n      0x0100\n      exp\n      swap1\n      div\n      0xff\n      and\n        /* \"voting.sol\":1953:1959  status */\n      dup2\n        /* \"voting.sol\":1953:1971  status.sownerCount */\n      0x00\n      add\n        /* \"voting.sol\":1953:1984  status.sownerCount = ownerCount */\n      swap1\n      0xff\n      and\n      swap1\n      dup2\n      0xff\n      and\n      dup2\n      mstore\n      pop\n      pop\n        /* \"voting.sol\":2014:2023  voteCount */\n      0x02\n      0x15\n      swap1\n      sload\n      swap1\n      0x0100\n      exp\n      swap1\n      div\n      0xff\n      and\n        /* \"voting.sol\":1994:2000  status */\n      dup2\n        /* \"voting.sol\":1994:2011  status.svoteCount */\n      0x20\n      add\n        /* \"voting.sol\":1994:2023  status.svoteCount = voteCount */\n      swap1\n      0xff\n      and\n      swap1\n      dup2\n      0xff\n      and\n      dup2\n      mstore\n      pop\n      pop\n        /* \"voting.sol\":2049:2054  vote1 */\n      0x02\n      0x16\n      swap1\n      sload\n      swap1\n      0x0100\n      exp\n      swap1\n      div\n      0xff\n      and\n        /* \"voting.sol\":2033:2039  status */\n      dup2\n        /* \"voting.sol\":2033:2046  status.svote1 */\n      0x40\n      add\n        /* \"voting.sol\":2033:2054  status.svote1 = vote1 */\n      swap1\n      0xff\n      and\n      swap1\n      dup2\n      0xff\n      and\n      dup2\n      mstore\n      pop\n      pop\n        /* \"voting.sol\":2080:2085  vote2 */\n      0x02\n      0x17\n      swap1\n      sload\n      swap1\n      0x0100\n      exp\n      swap1\n      div\n      0xff\n      and\n        /* \"voting.sol\":2064:2070  status */\n      dup2\n        /* \"voting.sol\":2064:2077  status.svote2 */\n      0x60\n      add\n        /* \"voting.sol\":2064:2085  status.svote2 = vote2 */\n      swap1\n      0xff\n      and\n      swap1\n      dup2\n      0xff\n      and\n      dup2\n      mstore\n      pop\n      pop\n        /* \"voting.sol\":2111:2116  vote3 */\n      0x02\n      0x18\n      swap1\n      sload\n      swap1\n      0x0100\n      exp\n      swap1\n      div\n      0xff\n      and\n        /* \"voting.sol\":2095:2101  status */\n      dup2\n        /* \"voting.sol\":2095:2108  status.svote3 */\n      0x80\n      add\n        /* \"voting.sol\":2095:2116  status.svote3 = vote3 */\n      swap1\n      0xff\n      and\n      swap1\n      dup2\n      0xff\n      and\n      dup2\n      mstore\n      pop\n      pop\n        /* \"voting.sol\":2145:2153  getVote1 */\n      0x02\n      0x19\n      swap1\n      sload\n      swap1\n      0x0100\n      exp\n      swap1\n      div\n      0xff\n      and\n        /* \"voting.sol\":2126:2132  status */\n      dup2\n        /* \"voting.sol\":2126:2142  status.sgetVote1 */\n      0xa0\n      add\n        /* \"voting.sol\":2126:2153  status.sgetVote1 = getVote1 */\n      swap1\n      0xff\n      and\n      swap1\n      dup2\n      0xff\n      and\n      dup2\n      mstore\n      pop\n      pop\n        /* \"voting.sol\":2182:2190  getVote2 */\n      0x02\n      0x1a\n      swap1\n      sload\n      swap1\n      0x0100\n      exp\n      swap1\n      div\n      0xff\n      and\n        /* \"voting.sol\":2163:2169  status */\n      dup2\n        /* \"voting.sol\":2163:2179  status.sgetVote2 */\n      0xc0\n      add\n        /* \"voting.sol\":2163:2190  status.sgetVote2 = getVote2 */\n      swap1\n      0xff\n      and\n      swap1\n      dup2\n      0xff\n      and\n      dup2\n      mstore\n      pop\n      pop\n        /* \"voting.sol\":2219:2227  getVote3 */\n      0x02\n      0x1b\n      swap1\n      sload\n      swap1\n      0x0100\n      exp\n      swap1\n      div\n      0xff\n      and\n        /* \"voting.sol\":2200:2206  status */\n      dup2\n        /* \"voting.sol\":2200:2216  status.sgetVote3 */\n      0xe0\n      add\n        /* \"voting.sol\":2200:2227  status.sgetVote3 = getVote3 */\n      swap1\n      0xff\n      and\n      swap1\n      dup2\n      0xff\n      and\n      dup2\n      mstore\n      pop\n      pop\n        /* \"voting.sol\":2257:2266  realOwner */\n      0x03\n      0x00\n      swap1\n      sload\n      swap1\n      0x0100\n      exp\n      swap1\n      div\n      0xffffffffffffffffffffffffffffffffffffffff\n      and\n        /* \"voting.sol\":2237:2243  status */\n      dup2\n        /* \"voting.sol\":2237:2254  status.srealOwner */\n      0x0100\n      add\n        /* \"voting.sol\":2237:2266  status.srealOwner = realOwner */\n      swap1\n      0xffffffffffffffffffffffffffffffffffffffff\n      and\n      swap1\n      dup2\n      0xffffffffffffffffffffffffffffffffffffffff\n      and\n      dup2\n      mstore\n      pop\n      pop\n        /* \"voting.sol\":2292:2297  value */\n      0x03\n      0x14\n      swap1\n      sload\n      swap1\n      0x0100\n      exp\n      swap1\n      div\n      0xff\n      and\n        /* \"voting.sol\":2276:2282  status */\n      dup2\n        /* \"voting.sol\":2276:2289  status.svalue */\n      0x0120\n      add\n        /* \"voting.sol\":2276:2297  status.svalue = value */\n      swap1\n      0xff\n      and\n      swap1\n      dup2\n      0xff\n      and\n      dup2\n      mstore\n      pop\n      pop\n        /* \"voting.sol\":2314:2320  status */\n      dup1\n        /* \"voting.sol\":2307:2320  return status */\n      swap2\n      pop\n      pop\n        /* \"voting.sol\":1858:2327  function getStatus() public view returns(Status memory){... */\n      swap1\n      jump\t// out\n        /* \"voting.sol\":2907:3233  function showOwner(uint _order) public view returns (address) {... */\n    tag_38:\n        /* \"voting.sol\":2960:2967  address */\n      0x00\n        /* \"voting.sol\":2993:2994  1 */\n      0x01\n        /* \"voting.sol\":2983:2989  _order */\n      dup3\n        /* \"voting.sol\":2983:2994  _order == 1 */\n      eq\n        /* \"voting.sol\":2979:3227  if (_order == 1){... */\n      iszero\n      tag_121\n      jumpi\n        /* \"voting.sol\":3016:3022  owner1 */\n      0x00\n      dup1\n      sload\n      swap1\n      0x0100\n      exp\n      swap1\n      div\n      0xffffffffffffffffffffffffffffffffffffffff\n      and\n        /* \"voting.sol\":3009:3022  return owner1 */\n      swap1\n      pop\n      jump(tag_120)\n        /* \"voting.sol\":2979:3227  if (_order == 1){... */\n    tag_121:\n        /* \"voting.sol\":3061:3062  2 */\n      0x02\n        /* \"voting.sol\":3051:3057  _order */\n      dup3\n        /* \"voting.sol\":3051:3062  _order == 2 */\n      eq\n        /* \"voting.sol\":3047:3227  if (_order == 2){... */\n      iszero\n      tag_123\n      jumpi\n        /* \"voting.sol\":3084:3090  owner2 */\n      0x01\n      0x00\n      swap1\n      sload\n      swap1\n      0x0100\n      exp\n      swap1\n      div\n      0xffffffffffffffffffffffffffffffffffffffff\n      and\n        /* \"voting.sol\":3077:3090  return owner2 */\n      swap1\n      pop\n      jump(tag_120)\n        /* \"voting.sol\":3047:3227  if (_order == 2){... */\n    tag_123:\n        /* \"voting.sol\":3129:3130  3 */\n      0x03\n        /* \"voting.sol\":3119:3125  _order */\n      dup3\n        /* \"voting.sol\":3119:3130  _order == 3 */\n      eq\n        /* \"voting.sol\":3115:3227  if (_order == 3){... */\n      iszero\n      tag_125\n      jumpi\n        /* \"voting.sol\":3152:3158  owner3 */\n      0x02\n      0x00\n      swap1\n      sload\n      swap1\n      0x0100\n      exp\n      swap1\n      div\n      0xffffffffffffffffffffffffffffffffffffffff\n      and\n        /* \"voting.sol\":3145:3158  return owner3 */\n      swap1\n      pop\n      jump(tag_120)\n        /* \"voting.sol\":3115:3227  if (_order == 3){... */\n    tag_125:\n        /* \"voting.sol\":3212:3215  0x0 */\n      0x00\n        /* \"voting.sol\":3197:3216  return address(0x0) */\n      swap1\n      pop\n        /* \"voting.sol\":2907:3233  function showOwner(uint _order) public view returns (address) {... */\n    tag_120:\n      swap2\n      swap1\n      pop\n      jump\t// out\n        /* \"voting.sol\":4968:5188  function showRealOwner(address _person) public view returns (string memory){... */\n    tag_43:\n        /* \"voting.sol\":5029:5042  string memory */\n      0x60\n        /* \"voting.sol\":5070:5077  _person */\n      dup2\n        /* \"voting.sol\":5057:5077  realOwner == _person */\n      0xffffffffffffffffffffffffffffffffffffffff\n      and\n        /* \"voting.sol\":5057:5066  realOwner */\n      0x03\n      0x00\n      swap1\n      sload\n      swap1\n      0x0100\n      exp\n      swap1\n      div\n      0xffffffffffffffffffffffffffffffffffffffff\n      and\n        /* \"voting.sol\":5057:5077  realOwner == _person */\n      0xffffffffffffffffffffffffffffffffffffffff\n      and\n      eq\n        /* \"voting.sol\":5053:5182  if (realOwner == _person){... */\n      iszero\n      tag_128\n      jumpi\n        /* \"voting.sol\":5092:5110  return \"realOwner\" */\n      mload(0x40)\n      dup1\n      0x40\n      add\n      0x40\n      mstore\n      dup1\n      0x09\n      dup2\n      mstore\n      0x20\n      add\n      0x7265616c4f776e65720000000000000000000000000000000000000000000000\n      dup2\n      mstore\n      pop\n      swap1\n      pop\n      jump(tag_127)\n        /* \"voting.sol\":5053:5182  if (realOwner == _person){... */\n    tag_128:\n        /* \"voting.sol\":5149:5171  return \"Not realOwner\" */\n      mload(0x40)\n      dup1\n      0x40\n      add\n      0x40\n      mstore\n      dup1\n      0x0d\n      dup2\n      mstore\n      0x20\n      add\n      0x4e6f74207265616c4f776e657200000000000000000000000000000000000000\n      dup2\n      mstore\n      pop\n      swap1\n      pop\n        /* \"voting.sol\":4968:5188  function showRealOwner(address _person) public view returns (string memory){... */\n    tag_127:\n      swap2\n      swap1\n      pop\n      jump\t// out\n        /* \"voting.sol\":398:944  function transferOwnership(address _to) onlyOwner public {... */\n    tag_48:\n        /* \"voting.sol\":306:312  owner1 */\n      0x00\n      dup1\n      sload\n      swap1\n      0x0100\n      exp\n      swap1\n      div\n      0xffffffffffffffffffffffffffffffffffffffff\n      and\n        /* \"voting.sol\":292:312  msg.sender == owner1 */\n      0xffffffffffffffffffffffffffffffffffffffff\n      and\n        /* \"voting.sol\":292:302  msg.sender */\n      caller\n        /* \"voting.sol\":292:312  msg.sender == owner1 */\n      0xffffffffffffffffffffffffffffffffffffffff\n      and\n      eq\n        /* \"voting.sol\":292:336  msg.sender == owner1 || msg.sender == owner2 */\n      dup1\n      tag_131\n      jumpi\n      pop\n        /* \"voting.sol\":330:336  owner2 */\n      0x01\n      0x00\n      swap1\n      sload\n      swap1\n      0x0100\n      exp\n      swap1\n      div\n      0xffffffffffffffffffffffffffffffffffffffff\n      and\n        /* \"voting.sol\":316:336  msg.sender == owner2 */\n      0xffffffffffffffffffffffffffffffffffffffff\n      and\n        /* \"voting.sol\":316:326  msg.sender */\n      caller\n        /* \"voting.sol\":316:336  msg.sender == owner2 */\n      0xffffffffffffffffffffffffffffffffffffffff\n      and\n      eq\n        /* \"voting.sol\":292:336  msg.sender == owner1 || msg.sender == owner2 */\n    tag_131:\n        /* \"voting.sol\":292:360  msg.sender == owner1 || msg.sender == owner2 || msg.sender == owner3 */\n      dup1\n      tag_132\n      jumpi\n      pop\n        /* \"voting.sol\":354:360  owner3 */\n      0x02\n      0x00\n      swap1\n      sload\n      swap1\n      0x0100\n      exp\n      swap1\n      div\n      0xffffffffffffffffffffffffffffffffffffffff\n      and\n        /* \"voting.sol\":340:360  msg.sender == owner3 */\n      0xffffffffffffffffffffffffffffffffffffffff\n      and\n        /* \"voting.sol\":340:350  msg.sender */\n      caller\n        /* \"voting.sol\":340:360  msg.sender == owner3 */\n      0xffffffffffffffffffffffffffffffffffffffff\n      and\n      eq\n        /* \"voting.sol\":292:360  msg.sender == owner1 || msg.sender == owner2 || msg.sender == owner3 */\n    tag_132:\n        /* \"voting.sol\":284:361  require(msg.sender == owner1 || msg.sender == owner2 || msg.sender == owner3) */\n      tag_133\n      jumpi\n      0x00\n      dup1\n      revert\n    tag_133:\n        /* \"voting.sol\":480:486  owner1 */\n      0x00\n      dup1\n      sload\n      swap1\n      0x0100\n      exp\n      swap1\n      div\n      0xffffffffffffffffffffffffffffffffffffffff\n      and\n        /* \"voting.sol\":473:486  _to != owner1 */\n      0xffffffffffffffffffffffffffffffffffffffff\n      and\n        /* \"voting.sol\":473:476  _to */\n      dup2\n        /* \"voting.sol\":473:486  _to != owner1 */\n      0xffffffffffffffffffffffffffffffffffffffff\n      and\n      eq\n      iszero\n        /* \"voting.sol\":473:503  _to != owner1 && _to != owner2 */\n      dup1\n      iszero\n      tag_135\n      jumpi\n      pop\n        /* \"voting.sol\":497:503  owner2 */\n      0x01\n      0x00\n      swap1\n      sload\n      swap1\n      0x0100\n      exp\n      swap1\n      div\n      0xffffffffffffffffffffffffffffffffffffffff\n      and\n        /* \"voting.sol\":490:503  _to != owner2 */\n      0xffffffffffffffffffffffffffffffffffffffff\n      and\n        /* \"voting.sol\":490:493  _to */\n      dup2\n        /* \"voting.sol\":490:503  _to != owner2 */\n      0xffffffffffffffffffffffffffffffffffffffff\n      and\n      eq\n      iszero\n        /* \"voting.sol\":473:503  _to != owner1 && _to != owner2 */\n    tag_135:\n        /* \"voting.sol\":473:520  _to != owner1 && _to != owner2 && _to != owner3 */\n      dup1\n      iszero\n      tag_136\n      jumpi\n      pop\n        /* \"voting.sol\":514:520  owner3 */\n      0x02\n      0x00\n      swap1\n      sload\n      swap1\n      0x0100\n      exp\n      swap1\n      div\n      0xffffffffffffffffffffffffffffffffffffffff\n      and\n        /* \"voting.sol\":507:520  _to != owner3 */\n      0xffffffffffffffffffffffffffffffffffffffff\n      and\n        /* \"voting.sol\":507:510  _to */\n      dup2\n        /* \"voting.sol\":507:520  _to != owner3 */\n      0xffffffffffffffffffffffffffffffffffffffff\n      and\n      eq\n      iszero\n        /* \"voting.sol\":473:520  _to != owner1 && _to != owner2 && _to != owner3 */\n    tag_136:\n        /* \"voting.sol\":465:521  require(_to != owner1 && _to != owner2 && _to != owner3) */\n      tag_137\n      jumpi\n      0x00\n      dup1\n      revert\n    tag_137:\n        /* \"voting.sol\":554:557  0x0 */\n      0x00\n        /* \"voting.sol\":539:558  _to != address(0x0) */\n      0xffffffffffffffffffffffffffffffffffffffff\n      and\n        /* \"voting.sol\":539:542  _to */\n      dup2\n        /* \"voting.sol\":539:558  _to != address(0x0) */\n      0xffffffffffffffffffffffffffffffffffffffff\n      and\n      eq\n      iszero\n        /* \"voting.sol\":531:559  require(_to != address(0x0)) */\n      tag_138\n      jumpi\n      0x00\n      dup1\n      revert\n    tag_138:\n        /* \"voting.sol\":587:593  owner1 */\n      0x00\n      dup1\n      sload\n      swap1\n      0x0100\n      exp\n      swap1\n      div\n      0xffffffffffffffffffffffffffffffffffffffff\n      and\n        /* \"voting.sol\":573:593  msg.sender == owner1 */\n      0xffffffffffffffffffffffffffffffffffffffff\n      and\n        /* \"voting.sol\":573:583  msg.sender */\n      caller\n        /* \"voting.sol\":573:593  msg.sender == owner1 */\n      0xffffffffffffffffffffffffffffffffffffffff\n      and\n      eq\n        /* \"voting.sol\":569:939  if (msg.sender == owner1){... */\n      iszero\n      tag_139\n      jumpi\n        /* \"voting.sol\":617:620  _to */\n      dup1\n        /* \"voting.sol\":608:614  owner1 */\n      0x00\n      dup1\n        /* \"voting.sol\":608:620  owner1 = _to */\n      0x0100\n      exp\n      dup2\n      sload\n      dup2\n      0xffffffffffffffffffffffffffffffffffffffff\n      mul\n      not\n      and\n      swap1\n      dup4\n      0xffffffffffffffffffffffffffffffffffffffff\n      and\n      mul\n      or\n      swap1\n      sstore\n      pop\n        /* \"voting.sol\":668:671  _to */\n      dup1\n        /* \"voting.sol\":639:672  OwnerTransferPropose(owner1, _to) */\n      0xffffffffffffffffffffffffffffffffffffffff\n      and\n        /* \"voting.sol\":660:666  owner1 */\n      0x00\n      dup1\n      sload\n      swap1\n      0x0100\n      exp\n      swap1\n      div\n      0xffffffffffffffffffffffffffffffffffffffff\n      and\n        /* \"voting.sol\":639:672  OwnerTransferPropose(owner1, _to) */\n      0xffffffffffffffffffffffffffffffffffffffff\n      and\n      0x2ae143016adc0aa482e6ba5d9a350f3e3122aeb005ca4bf47d1d7b8221bce472\n      mload(0x40)\n      mload(0x40)\n      dup1\n      swap2\n      sub\n      swap1\n      log3\n        /* \"voting.sol\":569:939  if (msg.sender == owner1){... */\n      jump(tag_140)\n    tag_139:\n        /* \"voting.sol\":715:721  owner2 */\n      0x01\n      0x00\n      swap1\n      sload\n      swap1\n      0x0100\n      exp\n      swap1\n      div\n      0xffffffffffffffffffffffffffffffffffffffff\n      and\n        /* \"voting.sol\":701:721  msg.sender == owner2 */\n      0xffffffffffffffffffffffffffffffffffffffff\n      and\n        /* \"voting.sol\":701:711  msg.sender */\n      caller\n        /* \"voting.sol\":701:721  msg.sender == owner2 */\n      0xffffffffffffffffffffffffffffffffffffffff\n      and\n      eq\n        /* \"voting.sol\":697:939  if (msg.sender == owner2){... */\n      iszero\n      tag_141\n      jumpi\n        /* \"voting.sol\":745:748  _to */\n      dup1\n        /* \"voting.sol\":736:742  owner2 */\n      0x01\n      0x00\n        /* \"voting.sol\":736:748  owner2 = _to */\n      0x0100\n      exp\n      dup2\n      sload\n      dup2\n      0xffffffffffffffffffffffffffffffffffffffff\n      mul\n      not\n      and\n      swap1\n      dup4\n      0xffffffffffffffffffffffffffffffffffffffff\n      and\n      mul\n      or\n      swap1\n      sstore\n      pop\n        /* \"voting.sol\":796:799  _to */\n      dup1\n        /* \"voting.sol\":767:800  OwnerTransferPropose(owner2, _to) */\n      0xffffffffffffffffffffffffffffffffffffffff\n      and\n        /* \"voting.sol\":788:794  owner2 */\n      0x01\n      0x00\n      swap1\n      sload\n      swap1\n      0x0100\n      exp\n      swap1\n      div\n      0xffffffffffffffffffffffffffffffffffffffff\n      and\n        /* \"voting.sol\":767:800  OwnerTransferPropose(owner2, _to) */\n      0xffffffffffffffffffffffffffffffffffffffff\n      and\n      0x2ae143016adc0aa482e6ba5d9a350f3e3122aeb005ca4bf47d1d7b8221bce472\n      mload(0x40)\n      mload(0x40)\n      dup1\n      swap2\n      sub\n      swap1\n      log3\n        /* \"voting.sol\":697:939  if (msg.sender == owner2){... */\n      jump(tag_142)\n    tag_141:\n        /* \"voting.sol\":843:849  owner3 */\n      0x02\n      0x00\n      swap1\n      sload\n      swap1\n      0x0100\n      exp\n      swap1\n      div\n      0xffffffffffffffffffffffffffffffffffffffff\n      and\n        /* \"voting.sol\":829:849  msg.sender == owner3 */\n      0xffffffffffffffffffffffffffffffffffffffff\n      and\n        /* \"voting.sol\":829:839  msg.sender */\n      caller\n        /* \"voting.sol\":829:849  msg.sender == owner3 */\n      0xffffffffffffffffffffffffffffffffffffffff\n      and\n      eq\n        /* \"voting.sol\":825:939  if (msg.sender == owner3){... */\n      iszero\n      tag_143\n      jumpi\n        /* \"voting.sol\":873:876  _to */\n      dup1\n        /* \"voting.sol\":864:870  owner3 */\n      0x02\n      0x00\n        /* \"voting.sol\":864:876  owner3 = _to */\n      0x0100\n      exp\n      dup2\n      sload\n      dup2\n      0xffffffffffffffffffffffffffffffffffffffff\n      mul\n      not\n      and\n      swap1\n      dup4\n      0xffffffffffffffffffffffffffffffffffffffff\n      and\n      mul\n      or\n      swap1\n      sstore\n      pop\n        /* \"voting.sol\":924:927  _to */\n      dup1\n        /* \"voting.sol\":895:928  OwnerTransferPropose(owner3, _to) */\n      0xffffffffffffffffffffffffffffffffffffffff\n      and\n        /* \"voting.sol\":916:922  owner3 */\n      0x02\n      0x00\n      swap1\n      sload\n      swap1\n      0x0100\n      exp\n      swap1\n      div\n      0xffffffffffffffffffffffffffffffffffffffff\n      and\n        /* \"voting.sol\":895:928  OwnerTransferPropose(owner3, _to) */\n      0xffffffffffffffffffffffffffffffffffffffff\n      and\n      0x2ae143016adc0aa482e6ba5d9a350f3e3122aeb005ca4bf47d1d7b8221bce472\n      mload(0x40)\n      mload(0x40)\n      dup1\n      swap2\n      sub\n      swap1\n      log3\n        /* \"voting.sol\":825:939  if (msg.sender == owner3){... */\n    tag_143:\n        /* \"voting.sol\":697:939  if (msg.sender == owner2){... */\n    tag_142:\n        /* \"voting.sol\":569:939  if (msg.sender == owner1){... */\n    tag_140:\n        /* \"voting.sol\":398:944  function transferOwnership(address _to) onlyOwner public {... */\n      pop\n      jump\t// out\n    tag_117:\n      mload(0x40)\n      dup1\n      0x0140\n      add\n      0x40\n      mstore\n      dup1\n      and(0xff, 0x00)\n      dup2\n      mstore\n      0x20\n      add\n      and(0xff, 0x00)\n      dup2\n      mstore\n      0x20\n      add\n      and(0xff, 0x00)\n      dup2\n      mstore\n      0x20\n      add\n      and(0xff, 0x00)\n      dup2\n      mstore\n      0x20\n      add\n      and(0xff, 0x00)\n      dup2\n      mstore\n      0x20\n      add\n      and(0xff, 0x00)\n      dup2\n      mstore\n      0x20\n      add\n      and(0xff, 0x00)\n      dup2\n      mstore\n      0x20\n      add\n      and(0xff, 0x00)\n      dup2\n      mstore\n      0x20\n      add\n      and(0xffffffffffffffffffffffffffffffffffffffff, 0x00)\n      dup2\n      mstore\n      0x20\n      add\n      and(0xff, 0x00)\n      dup2\n      mstore\n      pop\n      swap1\n      jump\t// out\n        /* \"#utility.yul\":88:205   */\n    tag_145:\n        /* \"#utility.yul\":197:198   */\n      0x00\n        /* \"#utility.yul\":194:195   */\n      dup1\n        /* \"#utility.yul\":187:199   */\n      revert\n        /* \"#utility.yul\":334:411   */\n    tag_147:\n        /* \"#utility.yul\":371:378   */\n      0x00\n        /* \"#utility.yul\":400:405   */\n      dup2\n        /* \"#utility.yul\":389:405   */\n      swap1\n      pop\n        /* \"#utility.yul\":334:411   */\n      swap2\n      swap1\n      pop\n      jump\t// out\n        /* \"#utility.yul\":417:539   */\n    tag_148:\n        /* \"#utility.yul\":490:514   */\n      tag_176\n        /* \"#utility.yul\":508:513   */\n      dup2\n        /* \"#utility.yul\":490:514   */\n      tag_147\n      jump\t// in\n    tag_176:\n        /* \"#utility.yul\":483:488   */\n      dup2\n        /* \"#utility.yul\":480:515   */\n      eq\n        /* \"#utility.yul\":470:533   */\n      tag_177\n      jumpi\n        /* \"#utility.yul\":529:530   */\n      0x00\n        /* \"#utility.yul\":526:527   */\n      dup1\n        /* \"#utility.yul\":519:531   */\n      revert\n        /* \"#utility.yul\":470:533   */\n    tag_177:\n        /* \"#utility.yul\":417:539   */\n      pop\n      jump\t// out\n        /* \"#utility.yul\":545:684   */\n    tag_149:\n        /* \"#utility.yul\":591:596   */\n      0x00\n        /* \"#utility.yul\":629:635   */\n      dup2\n        /* \"#utility.yul\":616:636   */\n      calldataload\n        /* \"#utility.yul\":607:636   */\n      swap1\n      pop\n        /* \"#utility.yul\":645:678   */\n      tag_179\n        /* \"#utility.yul\":672:677   */\n      dup2\n        /* \"#utility.yul\":645:678   */\n      tag_148\n      jump\t// in\n    tag_179:\n        /* \"#utility.yul\":545:684   */\n      swap3\n      swap2\n      pop\n      pop\n      jump\t// out\n        /* \"#utility.yul\":690:1019   */\n    tag_14:\n        /* \"#utility.yul\":749:755   */\n      0x00\n        /* \"#utility.yul\":798:800   */\n      0x20\n        /* \"#utility.yul\":786:795   */\n      dup3\n        /* \"#utility.yul\":777:784   */\n      dup5\n        /* \"#utility.yul\":773:796   */\n      sub\n        /* \"#utility.yul\":769:801   */\n      slt\n        /* \"#utility.yul\":766:885   */\n      iszero\n      tag_181\n      jumpi\n        /* \"#utility.yul\":804:883   */\n      tag_182\n      tag_145\n      jump\t// in\n    tag_182:\n        /* \"#utility.yul\":766:885   */\n    tag_181:\n        /* \"#utility.yul\":924:925   */\n      0x00\n        /* \"#utility.yul\":949:1002   */\n      tag_183\n        /* \"#utility.yul\":994:1001   */\n      dup5\n        /* \"#utility.yul\":985:991   */\n      dup3\n        /* \"#utility.yul\":974:983   */\n      dup6\n        /* \"#utility.yul\":970:992   */\n      add\n        /* \"#utility.yul\":949:1002   */\n      tag_149\n      jump\t// in\n    tag_183:\n        /* \"#utility.yul\":939:1002   */\n      swap2\n      pop\n        /* \"#utility.yul\":895:1012   */\n      pop\n        /* \"#utility.yul\":690:1019   */\n      swap3\n      swap2\n      pop\n      pop\n      jump\t// out\n        /* \"#utility.yul\":1025:1115   */\n    tag_150:\n        /* \"#utility.yul\":1059:1066   */\n      0x00\n        /* \"#utility.yul\":1102:1107   */\n      dup2\n        /* \"#utility.yul\":1095:1108   */\n      iszero\n        /* \"#utility.yul\":1088:1109   */\n      iszero\n        /* \"#utility.yul\":1077:1109   */\n      swap1\n      pop\n        /* \"#utility.yul\":1025:1115   */\n      swap2\n      swap1\n      pop\n      jump\t// out\n        /* \"#utility.yul\":1121:1230   */\n    tag_151:\n        /* \"#utility.yul\":1202:1223   */\n      tag_186\n        /* \"#utility.yul\":1217:1222   */\n      dup2\n        /* \"#utility.yul\":1202:1223   */\n      tag_150\n      jump\t// in\n    tag_186:\n        /* \"#utility.yul\":1197:1200   */\n      dup3\n        /* \"#utility.yul\":1190:1224   */\n      mstore\n        /* \"#utility.yul\":1121:1230   */\n      pop\n      pop\n      jump\t// out\n        /* \"#utility.yul\":1236:1446   */\n    tag_17:\n        /* \"#utility.yul\":1323:1327   */\n      0x00\n        /* \"#utility.yul\":1361:1363   */\n      0x20\n        /* \"#utility.yul\":1350:1359   */\n      dup3\n        /* \"#utility.yul\":1346:1364   */\n      add\n        /* \"#utility.yul\":1338:1364   */\n      swap1\n      pop\n        /* \"#utility.yul\":1374:1439   */\n      tag_188\n        /* \"#utility.yul\":1436:1437   */\n      0x00\n        /* \"#utility.yul\":1425:1434   */\n      dup4\n        /* \"#utility.yul\":1421:1438   */\n      add\n        /* \"#utility.yul\":1412:1418   */\n      dup5\n        /* \"#utility.yul\":1374:1439   */\n      tag_151\n      jump\t// in\n    tag_188:\n        /* \"#utility.yul\":1236:1446   */\n      swap3\n      swap2\n      pop\n      pop\n      jump\t// out\n        /* \"#utility.yul\":1452:1538   */\n    tag_152:\n        /* \"#utility.yul\":1487:1494   */\n      0x00\n        /* \"#utility.yul\":1527:1531   */\n      0xff\n        /* \"#utility.yul\":1520:1525   */\n      dup3\n        /* \"#utility.yul\":1516:1532   */\n      and\n        /* \"#utility.yul\":1505:1532   */\n      swap1\n      pop\n        /* \"#utility.yul\":1452:1538   */\n      swap2\n      swap1\n      pop\n      jump\t// out\n        /* \"#utility.yul\":1544:1656   */\n    tag_153:\n        /* \"#utility.yul\":1627:1649   */\n      tag_191\n        /* \"#utility.yul\":1643:1648   */\n      dup2\n        /* \"#utility.yul\":1627:1649   */\n      tag_152\n      jump\t// in\n    tag_191:\n        /* \"#utility.yul\":1622:1625   */\n      dup3\n        /* \"#utility.yul\":1615:1650   */\n      mstore\n        /* \"#utility.yul\":1544:1656   */\n      pop\n      pop\n      jump\t// out\n        /* \"#utility.yul\":1662:1876   */\n    tag_21:\n        /* \"#utility.yul\":1751:1755   */\n      0x00\n        /* \"#utility.yul\":1789:1791   */\n      0x20\n        /* \"#utility.yul\":1778:1787   */\n      dup3\n        /* \"#utility.yul\":1774:1792   */\n      add\n        /* \"#utility.yul\":1766:1792   */\n      swap1\n      pop\n        /* \"#utility.yul\":1802:1869   */\n      tag_193\n        /* \"#utility.yul\":1866:1867   */\n      0x00\n        /* \"#utility.yul\":1855:1864   */\n      dup4\n        /* \"#utility.yul\":1851:1868   */\n      add\n        /* \"#utility.yul\":1842:1848   */\n      dup5\n        /* \"#utility.yul\":1802:1869   */\n      tag_153\n      jump\t// in\n    tag_193:\n        /* \"#utility.yul\":1662:1876   */\n      swap3\n      swap2\n      pop\n      pop\n      jump\t// out\n        /* \"#utility.yul\":1882:2008   */\n    tag_154:\n        /* \"#utility.yul\":1919:1926   */\n      0x00\n        /* \"#utility.yul\":1959:2001   */\n      0xffffffffffffffffffffffffffffffffffffffff\n        /* \"#utility.yul\":1952:1957   */\n      dup3\n        /* \"#utility.yul\":1948:2002   */\n      and\n        /* \"#utility.yul\":1937:2002   */\n      swap1\n      pop\n        /* \"#utility.yul\":1882:2008   */\n      swap2\n      swap1\n      pop\n      jump\t// out\n        /* \"#utility.yul\":2014:2110   */\n    tag_155:\n        /* \"#utility.yul\":2051:2058   */\n      0x00\n        /* \"#utility.yul\":2080:2104   */\n      tag_196\n        /* \"#utility.yul\":2098:2103   */\n      dup3\n        /* \"#utility.yul\":2080:2104   */\n      tag_154\n      jump\t// in\n    tag_196:\n        /* \"#utility.yul\":2069:2104   */\n      swap1\n      pop\n        /* \"#utility.yul\":2014:2110   */\n      swap2\n      swap1\n      pop\n      jump\t// out\n        /* \"#utility.yul\":2116:2238   */\n    tag_156:\n        /* \"#utility.yul\":2189:2213   */\n      tag_198\n        /* \"#utility.yul\":2207:2212   */\n      dup2\n        /* \"#utility.yul\":2189:2213   */\n      tag_155\n      jump\t// in\n    tag_198:\n        /* \"#utility.yul\":2182:2187   */\n      dup2\n        /* \"#utility.yul\":2179:2214   */\n      eq\n        /* \"#utility.yul\":2169:2232   */\n      tag_199\n      jumpi\n        /* \"#utility.yul\":2228:2229   */\n      0x00\n        /* \"#utility.yul\":2225:2226   */\n      dup1\n        /* \"#utility.yul\":2218:2230   */\n      revert\n        /* \"#utility.yul\":2169:2232   */\n    tag_199:\n        /* \"#utility.yul\":2116:2238   */\n      pop\n      jump\t// out\n        /* \"#utility.yul\":2244:2383   */\n    tag_157:\n        /* \"#utility.yul\":2290:2295   */\n      0x00\n        /* \"#utility.yul\":2328:2334   */\n      dup2\n        /* \"#utility.yul\":2315:2335   */\n      calldataload\n        /* \"#utility.yul\":2306:2335   */\n      swap1\n      pop\n        /* \"#utility.yul\":2344:2377   */\n      tag_201\n        /* \"#utility.yul\":2371:2376   */\n      dup2\n        /* \"#utility.yul\":2344:2377   */\n      tag_156\n      jump\t// in\n    tag_201:\n        /* \"#utility.yul\":2244:2383   */\n      swap3\n      swap2\n      pop\n      pop\n      jump\t// out\n        /* \"#utility.yul\":2389:2718   */\n    tag_24:\n        /* \"#utility.yul\":2448:2454   */\n      0x00\n        /* \"#utility.yul\":2497:2499   */\n      0x20\n        /* \"#utility.yul\":2485:2494   */\n      dup3\n        /* \"#utility.yul\":2476:2483   */\n      dup5\n        /* \"#utility.yul\":2472:2495   */\n      sub\n        /* \"#utility.yul\":2468:2500   */\n      slt\n        /* \"#utility.yul\":2465:2584   */\n      iszero\n      tag_203\n      jumpi\n        /* \"#utility.yul\":2503:2582   */\n      tag_204\n      tag_145\n      jump\t// in\n    tag_204:\n        /* \"#utility.yul\":2465:2584   */\n    tag_203:\n        /* \"#utility.yul\":2623:2624   */\n      0x00\n        /* \"#utility.yul\":2648:2701   */\n      tag_205\n        /* \"#utility.yul\":2693:2700   */\n      dup5\n        /* \"#utility.yul\":2684:2690   */\n      dup3\n        /* \"#utility.yul\":2673:2682   */\n      dup6\n        /* \"#utility.yul\":2669:2691   */\n      add\n        /* \"#utility.yul\":2648:2701   */\n      tag_157\n      jump\t// in\n    tag_205:\n        /* \"#utility.yul\":2638:2701   */\n      swap2\n      pop\n        /* \"#utility.yul\":2594:2711   */\n      pop\n        /* \"#utility.yul\":2389:2718   */\n      swap3\n      swap2\n      pop\n      pop\n      jump\t// out\n        /* \"#utility.yul\":2724:2842   */\n    tag_158:\n        /* \"#utility.yul\":2795:2817   */\n      tag_207\n        /* \"#utility.yul\":2811:2816   */\n      dup2\n        /* \"#utility.yul\":2795:2817   */\n      tag_152\n      jump\t// in\n    tag_207:\n        /* \"#utility.yul\":2788:2793   */\n      dup2\n        /* \"#utility.yul\":2785:2818   */\n      eq\n        /* \"#utility.yul\":2775:2836   */\n      tag_208\n      jumpi\n        /* \"#utility.yul\":2832:2833   */\n      0x00\n        /* \"#utility.yul\":2829:2830   */\n      dup1\n        /* \"#utility.yul\":2822:2834   */\n      revert\n        /* \"#utility.yul\":2775:2836   */\n    tag_208:\n        /* \"#utility.yul\":2724:2842   */\n      pop\n      jump\t// out\n        /* \"#utility.yul\":2848:2983   */\n    tag_159:\n        /* \"#utility.yul\":2892:2897   */\n      0x00\n        /* \"#utility.yul\":2930:2936   */\n      dup2\n        /* \"#utility.yul\":2917:2937   */\n      calldataload\n        /* \"#utility.yul\":2908:2937   */\n      swap1\n      pop\n        /* \"#utility.yul\":2946:2977   */\n      tag_210\n        /* \"#utility.yul\":2971:2976   */\n      dup2\n        /* \"#utility.yul\":2946:2977   */\n      tag_158\n      jump\t// in\n    tag_210:\n        /* \"#utility.yul\":2848:2983   */\n      swap3\n      swap2\n      pop\n      pop\n      jump\t// out\n        /* \"#utility.yul\":2989:3314   */\n    tag_29:\n        /* \"#utility.yul\":3046:3052   */\n      0x00\n        /* \"#utility.yul\":3095:3097   */\n      0x20\n        /* \"#utility.yul\":3083:3092   */\n      dup3\n        /* \"#utility.yul\":3074:3081   */\n      dup5\n        /* \"#utility.yul\":3070:3093   */\n      sub\n        /* \"#utility.yul\":3066:3098   */\n      slt\n        /* \"#utility.yul\":3063:3182   */\n      iszero\n      tag_212\n      jumpi\n        /* \"#utility.yul\":3101:3180   */\n      tag_213\n      tag_145\n      jump\t// in\n    tag_213:\n        /* \"#utility.yul\":3063:3182   */\n    tag_212:\n        /* \"#utility.yul\":3221:3222   */\n      0x00\n        /* \"#utility.yul\":3246:3297   */\n      tag_214\n        /* \"#utility.yul\":3289:3296   */\n      dup5\n        /* \"#utility.yul\":3280:3286   */\n      dup3\n        /* \"#utility.yul\":3269:3278   */\n      dup6\n        /* \"#utility.yul\":3265:3287   */\n      add\n        /* \"#utility.yul\":3246:3297   */\n      tag_159\n      jump\t// in\n    tag_214:\n        /* \"#utility.yul\":3236:3297   */\n      swap2\n      pop\n        /* \"#utility.yul\":3192:3307   */\n      pop\n        /* \"#utility.yul\":2989:3314   */\n      swap3\n      swap2\n      pop\n      pop\n      jump\t// out\n        /* \"#utility.yul\":3320:3422   */\n    tag_160:\n        /* \"#utility.yul\":3393:3415   */\n      tag_216\n        /* \"#utility.yul\":3409:3414   */\n      dup2\n        /* \"#utility.yul\":3393:3415   */\n      tag_152\n      jump\t// in\n    tag_216:\n        /* \"#utility.yul\":3388:3391   */\n      dup3\n        /* \"#utility.yul\":3381:3416   */\n      mstore\n        /* \"#utility.yul\":3320:3422   */\n      pop\n      pop\n      jump\t// out\n        /* \"#utility.yul\":3428:3536   */\n    tag_161:\n        /* \"#utility.yul\":3505:3529   */\n      tag_218\n        /* \"#utility.yul\":3523:3528   */\n      dup2\n        /* \"#utility.yul\":3505:3529   */\n      tag_155\n      jump\t// in\n    tag_218:\n        /* \"#utility.yul\":3500:3503   */\n      dup3\n        /* \"#utility.yul\":3493:3530   */\n      mstore\n        /* \"#utility.yul\":3428:3536   */\n      pop\n      pop\n      jump\t// out\n        /* \"#utility.yul\":3594:5505   */\n    tag_162:\n        /* \"#utility.yul\":3737:3743   */\n      0x0140\n        /* \"#utility.yul\":3732:3735   */\n      dup3\n        /* \"#utility.yul\":3728:3744   */\n      add\n        /* \"#utility.yul\":3833:3837   */\n      0x00\n        /* \"#utility.yul\":3826:3831   */\n      dup3\n        /* \"#utility.yul\":3822:3838   */\n      add\n        /* \"#utility.yul\":3816:3839   */\n      mload\n        /* \"#utility.yul\":3852:3911   */\n      tag_220\n        /* \"#utility.yul\":3905:3909   */\n      0x00\n        /* \"#utility.yul\":3900:3903   */\n      dup6\n        /* \"#utility.yul\":3896:3910   */\n      add\n        /* \"#utility.yul\":3882:3894   */\n      dup3\n        /* \"#utility.yul\":3852:3911   */\n      tag_160\n      jump\t// in\n    tag_220:\n        /* \"#utility.yul\":3754:3921   */\n      pop\n        /* \"#utility.yul\":4009:4013   */\n      0x20\n        /* \"#utility.yul\":4002:4007   */\n      dup3\n        /* \"#utility.yul\":3998:4014   */\n      add\n        /* \"#utility.yul\":3992:4015   */\n      mload\n        /* \"#utility.yul\":4028:4087   */\n      tag_221\n        /* \"#utility.yul\":4081:4085   */\n      0x20\n        /* \"#utility.yul\":4076:4079   */\n      dup6\n        /* \"#utility.yul\":4072:4086   */\n      add\n        /* \"#utility.yul\":4058:4070   */\n      dup3\n        /* \"#utility.yul\":4028:4087   */\n      tag_160\n      jump\t// in\n    tag_221:\n        /* \"#utility.yul\":3931:4097   */\n      pop\n        /* \"#utility.yul\":4181:4185   */\n      0x40\n        /* \"#utility.yul\":4174:4179   */\n      dup3\n        /* \"#utility.yul\":4170:4186   */\n      add\n        /* \"#utility.yul\":4164:4187   */\n      mload\n        /* \"#utility.yul\":4200:4259   */\n      tag_222\n        /* \"#utility.yul\":4253:4257   */\n      0x40\n        /* \"#utility.yul\":4248:4251   */\n      dup6\n        /* \"#utility.yul\":4244:4258   */\n      add\n        /* \"#utility.yul\":4230:4242   */\n      dup3\n        /* \"#utility.yul\":4200:4259   */\n      tag_160\n      jump\t// in\n    tag_222:\n        /* \"#utility.yul\":4107:4269   */\n      pop\n        /* \"#utility.yul\":4353:4357   */\n      0x60\n        /* \"#utility.yul\":4346:4351   */\n      dup3\n        /* \"#utility.yul\":4342:4358   */\n      add\n        /* \"#utility.yul\":4336:4359   */\n      mload\n        /* \"#utility.yul\":4372:4431   */\n      tag_223\n        /* \"#utility.yul\":4425:4429   */\n      0x60\n        /* \"#utility.yul\":4420:4423   */\n      dup6\n        /* \"#utility.yul\":4416:4430   */\n      add\n        /* \"#utility.yul\":4402:4414   */\n      dup3\n        /* \"#utility.yul\":4372:4431   */\n      tag_160\n      jump\t// in\n    tag_223:\n        /* \"#utility.yul\":4279:4441   */\n      pop\n        /* \"#utility.yul\":4525:4529   */\n      0x80\n        /* \"#utility.yul\":4518:4523   */\n      dup3\n        /* \"#utility.yul\":4514:4530   */\n      add\n        /* \"#utility.yul\":4508:4531   */\n      mload\n        /* \"#utility.yul\":4544:4603   */\n      tag_224\n        /* \"#utility.yul\":4597:4601   */\n      0x80\n        /* \"#utility.yul\":4592:4595   */\n      dup6\n        /* \"#utility.yul\":4588:4602   */\n      add\n        /* \"#utility.yul\":4574:4586   */\n      dup3\n        /* \"#utility.yul\":4544:4603   */\n      tag_160\n      jump\t// in\n    tag_224:\n        /* \"#utility.yul\":4451:4613   */\n      pop\n        /* \"#utility.yul\":4700:4704   */\n      0xa0\n        /* \"#utility.yul\":4693:4698   */\n      dup3\n        /* \"#utility.yul\":4689:4705   */\n      add\n        /* \"#utility.yul\":4683:4706   */\n      mload\n        /* \"#utility.yul\":4719:4778   */\n      tag_225\n        /* \"#utility.yul\":4772:4776   */\n      0xa0\n        /* \"#utility.yul\":4767:4770   */\n      dup6\n        /* \"#utility.yul\":4763:4777   */\n      add\n        /* \"#utility.yul\":4749:4761   */\n      dup3\n        /* \"#utility.yul\":4719:4778   */\n      tag_160\n      jump\t// in\n    tag_225:\n        /* \"#utility.yul\":4623:4788   */\n      pop\n        /* \"#utility.yul\":4875:4879   */\n      0xc0\n        /* \"#utility.yul\":4868:4873   */\n      dup3\n        /* \"#utility.yul\":4864:4880   */\n      add\n        /* \"#utility.yul\":4858:4881   */\n      mload\n        /* \"#utility.yul\":4894:4953   */\n      tag_226\n        /* \"#utility.yul\":4947:4951   */\n      0xc0\n        /* \"#utility.yul\":4942:4945   */\n      dup6\n        /* \"#utility.yul\":4938:4952   */\n      add\n        /* \"#utility.yul\":4924:4936   */\n      dup3\n        /* \"#utility.yul\":4894:4953   */\n      tag_160\n      jump\t// in\n    tag_226:\n        /* \"#utility.yul\":4798:4963   */\n      pop\n        /* \"#utility.yul\":5050:5054   */\n      0xe0\n        /* \"#utility.yul\":5043:5048   */\n      dup3\n        /* \"#utility.yul\":5039:5055   */\n      add\n        /* \"#utility.yul\":5033:5056   */\n      mload\n        /* \"#utility.yul\":5069:5128   */\n      tag_227\n        /* \"#utility.yul\":5122:5126   */\n      0xe0\n        /* \"#utility.yul\":5117:5120   */\n      dup6\n        /* \"#utility.yul\":5113:5127   */\n      add\n        /* \"#utility.yul\":5099:5111   */\n      dup3\n        /* \"#utility.yul\":5069:5128   */\n      tag_160\n      jump\t// in\n    tag_227:\n        /* \"#utility.yul\":4973:5138   */\n      pop\n        /* \"#utility.yul\":5226:5232   */\n      0x0100\n        /* \"#utility.yul\":5219:5224   */\n      dup3\n        /* \"#utility.yul\":5215:5233   */\n      add\n        /* \"#utility.yul\":5209:5234   */\n      mload\n        /* \"#utility.yul\":5247:5312   */\n      tag_228\n        /* \"#utility.yul\":5304:5310   */\n      0x0100\n        /* \"#utility.yul\":5299:5302   */\n      dup6\n        /* \"#utility.yul\":5295:5311   */\n      add\n        /* \"#utility.yul\":5281:5293   */\n      dup3\n        /* \"#utility.yul\":5247:5312   */\n      tag_161\n      jump\t// in\n    tag_228:\n        /* \"#utility.yul\":5148:5322   */\n      pop\n        /* \"#utility.yul\":5406:5412   */\n      0x0120\n        /* \"#utility.yul\":5399:5404   */\n      dup3\n        /* \"#utility.yul\":5395:5413   */\n      add\n        /* \"#utility.yul\":5389:5414   */\n      mload\n        /* \"#utility.yul\":5427:5488   */\n      tag_229\n        /* \"#utility.yul\":5480:5486   */\n      0x0120\n        /* \"#utility.yul\":5475:5478   */\n      dup6\n        /* \"#utility.yul\":5471:5487   */\n      add\n        /* \"#utility.yul\":5457:5469   */\n      dup3\n        /* \"#utility.yul\":5427:5488   */\n      tag_160\n      jump\t// in\n    tag_229:\n        /* \"#utility.yul\":5332:5498   */\n      pop\n        /* \"#utility.yul\":3706:5505   */\n      pop\n        /* \"#utility.yul\":3594:5505   */\n      pop\n      pop\n      jump\t// out\n        /* \"#utility.yul\":5511:5826   */\n    tag_35:\n        /* \"#utility.yul\":5650:5654   */\n      0x00\n        /* \"#utility.yul\":5688:5691   */\n      0x0140\n        /* \"#utility.yul\":5677:5686   */\n      dup3\n        /* \"#utility.yul\":5673:5692   */\n      add\n        /* \"#utility.yul\":5665:5692   */\n      swap1\n      pop\n        /* \"#utility.yul\":5702:5819   */\n      tag_231\n        /* \"#utility.yul\":5816:5817   */\n      0x00\n        /* \"#utility.yul\":5805:5814   */\n      dup4\n        /* \"#utility.yul\":5801:5818   */\n      add\n        /* \"#utility.yul\":5792:5798   */\n      dup5\n        /* \"#utility.yul\":5702:5819   */\n      tag_162\n      jump\t// in\n    tag_231:\n        /* \"#utility.yul\":5511:5826   */\n      swap3\n      swap2\n      pop\n      pop\n      jump\t// out\n        /* \"#utility.yul\":5832:5950   */\n    tag_163:\n        /* \"#utility.yul\":5919:5943   */\n      tag_233\n        /* \"#utility.yul\":5937:5942   */\n      dup2\n        /* \"#utility.yul\":5919:5943   */\n      tag_155\n      jump\t// in\n    tag_233:\n        /* \"#utility.yul\":5914:5917   */\n      dup3\n        /* \"#utility.yul\":5907:5944   */\n      mstore\n        /* \"#utility.yul\":5832:5950   */\n      pop\n      pop\n      jump\t// out\n        /* \"#utility.yul\":5956:6178   */\n    tag_40:\n        /* \"#utility.yul\":6049:6053   */\n      0x00\n        /* \"#utility.yul\":6087:6089   */\n      0x20\n        /* \"#utility.yul\":6076:6085   */\n      dup3\n        /* \"#utility.yul\":6072:6090   */\n      add\n        /* \"#utility.yul\":6064:6090   */\n      swap1\n      pop\n        /* \"#utility.yul\":6100:6171   */\n      tag_235\n        /* \"#utility.yul\":6168:6169   */\n      0x00\n        /* \"#utility.yul\":6157:6166   */\n      dup4\n        /* \"#utility.yul\":6153:6170   */\n      add\n        /* \"#utility.yul\":6144:6150   */\n      dup5\n        /* \"#utility.yul\":6100:6171   */\n      tag_163\n      jump\t// in\n    tag_235:\n        /* \"#utility.yul\":5956:6178   */\n      swap3\n      swap2\n      pop\n      pop\n      jump\t// out\n        /* \"#utility.yul\":6184:6283   */\n    tag_164:\n        /* \"#utility.yul\":6236:6242   */\n      0x00\n        /* \"#utility.yul\":6270:6275   */\n      dup2\n        /* \"#utility.yul\":6264:6276   */\n      mload\n        /* \"#utility.yul\":6254:6276   */\n      swap1\n      pop\n        /* \"#utility.yul\":6184:6283   */\n      swap2\n      swap1\n      pop\n      jump\t// out\n        /* \"#utility.yul\":6289:6458   */\n    tag_165:\n        /* \"#utility.yul\":6373:6384   */\n      0x00\n        /* \"#utility.yul\":6407:6413   */\n      dup3\n        /* \"#utility.yul\":6402:6405   */\n      dup3\n        /* \"#utility.yul\":6395:6414   */\n      mstore\n        /* \"#utility.yul\":6447:6451   */\n      0x20\n        /* \"#utility.yul\":6442:6445   */\n      dup3\n        /* \"#utility.yul\":6438:6452   */\n      add\n        /* \"#utility.yul\":6423:6452   */\n      swap1\n      pop\n        /* \"#utility.yul\":6289:6458   */\n      swap3\n      swap2\n      pop\n      pop\n      jump\t// out\n        /* \"#utility.yul\":6464:6771   */\n    tag_166:\n        /* \"#utility.yul\":6532:6533   */\n      0x00\n        /* \"#utility.yul\":6542:6655   */\n    tag_239:\n        /* \"#utility.yul\":6556:6562   */\n      dup4\n        /* \"#utility.yul\":6553:6554   */\n      dup2\n        /* \"#utility.yul\":6550:6563   */\n      lt\n        /* \"#utility.yul\":6542:6655   */\n      iszero\n      tag_241\n      jumpi\n        /* \"#utility.yul\":6641:6642   */\n      dup1\n        /* \"#utility.yul\":6636:6639   */\n      dup3\n        /* \"#utility.yul\":6632:6643   */\n      add\n        /* \"#utility.yul\":6626:6644   */\n      mload\n        /* \"#utility.yul\":6622:6623   */\n      dup2\n        /* \"#utility.yul\":6617:6620   */\n      dup5\n        /* \"#utility.yul\":6613:6624   */\n      add\n        /* \"#utility.yul\":6606:6645   */\n      mstore\n        /* \"#utility.yul\":6578:6580   */\n      0x20\n        /* \"#utility.yul\":6575:6576   */\n      dup2\n        /* \"#utility.yul\":6571:6581   */\n      add\n        /* \"#utility.yul\":6566:6581   */\n      swap1\n      pop\n        /* \"#utility.yul\":6542:6655   */\n      jump(tag_239)\n    tag_241:\n        /* \"#utility.yul\":6673:6679   */\n      dup4\n        /* \"#utility.yul\":6670:6671   */\n      dup2\n        /* \"#utility.yul\":6667:6680   */\n      gt\n        /* \"#utility.yul\":6664:6765   */\n      iszero\n      tag_242\n      jumpi\n        /* \"#utility.yul\":6753:6754   */\n      0x00\n        /* \"#utility.yul\":6744:6750   */\n      dup5\n        /* \"#utility.yul\":6739:6742   */\n      dup5\n        /* \"#utility.yul\":6735:6751   */\n      add\n        /* \"#utility.yul\":6728:6755   */\n      mstore\n        /* \"#utility.yul\":6664:6765   */\n    tag_242:\n        /* \"#utility.yul\":6513:6771   */\n      pop\n        /* \"#utility.yul\":6464:6771   */\n      pop\n      pop\n      pop\n      jump\t// out\n        /* \"#utility.yul\":6777:6879   */\n    tag_167:\n        /* \"#utility.yul\":6818:6824   */\n      0x00\n        /* \"#utility.yul\":6869:6871   */\n      0x1f\n        /* \"#utility.yul\":6865:6872   */\n      not\n        /* \"#utility.yul\":6860:6862   */\n      0x1f\n        /* \"#utility.yul\":6853:6858   */\n      dup4\n        /* \"#utility.yul\":6849:6863   */\n      add\n        /* \"#utility.yul\":6845:6873   */\n      and\n        /* \"#utility.yul\":6835:6873   */\n      swap1\n      pop\n        /* \"#utility.yul\":6777:6879   */\n      swap2\n      swap1\n      pop\n      jump\t// out\n        /* \"#utility.yul\":6885:7249   */\n    tag_168:\n        /* \"#utility.yul\":6973:6976   */\n      0x00\n        /* \"#utility.yul\":7001:7040   */\n      tag_245\n        /* \"#utility.yul\":7034:7039   */\n      dup3\n        /* \"#utility.yul\":7001:7040   */\n      tag_164\n      jump\t// in\n    tag_245:\n        /* \"#utility.yul\":7056:7127   */\n      tag_246\n        /* \"#utility.yul\":7120:7126   */\n      dup2\n        /* \"#utility.yul\":7115:7118   */\n      dup6\n        /* \"#utility.yul\":7056:7127   */\n      tag_165\n      jump\t// in\n    tag_246:\n        /* \"#utility.yul\":7049:7127   */\n      swap4\n      pop\n        /* \"#utility.yul\":7136:7188   */\n      tag_247\n        /* \"#utility.yul\":7181:7187   */\n      dup2\n        /* \"#utility.yul\":7176:7179   */\n      dup6\n        /* \"#utility.yul\":7169:7173   */\n      0x20\n        /* \"#utility.yul\":7162:7167   */\n      dup7\n        /* \"#utility.yul\":7158:7174   */\n      add\n        /* \"#utility.yul\":7136:7188   */\n      tag_166\n      jump\t// in\n    tag_247:\n        /* \"#utility.yul\":7213:7242   */\n      tag_248\n        /* \"#utility.yul\":7235:7241   */\n      dup2\n        /* \"#utility.yul\":7213:7242   */\n      tag_167\n      jump\t// in\n    tag_248:\n        /* \"#utility.yul\":7208:7211   */\n      dup5\n        /* \"#utility.yul\":7204:7243   */\n      add\n        /* \"#utility.yul\":7197:7243   */\n      swap2\n      pop\n        /* \"#utility.yul\":6977:7249   */\n      pop\n        /* \"#utility.yul\":6885:7249   */\n      swap3\n      swap2\n      pop\n      pop\n      jump\t// out\n        /* \"#utility.yul\":7255:7568   */\n    tag_45:\n        /* \"#utility.yul\":7368:7372   */\n      0x00\n        /* \"#utility.yul\":7406:7408   */\n      0x20\n        /* \"#utility.yul\":7395:7404   */\n      dup3\n        /* \"#utility.yul\":7391:7409   */\n      add\n        /* \"#utility.yul\":7383:7409   */\n      swap1\n      pop\n        /* \"#utility.yul\":7455:7464   */\n      dup2\n        /* \"#utility.yul\":7449:7453   */\n      dup2\n        /* \"#utility.yul\":7445:7465   */\n      sub\n        /* \"#utility.yul\":7441:7442   */\n      0x00\n        /* \"#utility.yul\":7430:7439   */\n      dup4\n        /* \"#utility.yul\":7426:7443   */\n      add\n        /* \"#utility.yul\":7419:7466   */\n      mstore\n        /* \"#utility.yul\":7483:7561   */\n      tag_250\n        /* \"#utility.yul\":7556:7560   */\n      dup2\n        /* \"#utility.yul\":7547:7553   */\n      dup5\n        /* \"#utility.yul\":7483:7561   */\n      tag_168\n      jump\t// in\n    tag_250:\n        /* \"#utility.yul\":7475:7561   */\n      swap1\n      pop\n        /* \"#utility.yul\":7255:7568   */\n      swap3\n      swap2\n      pop\n      pop\n      jump\t// out\n        /* \"#utility.yul\":7574:7754   */\n    tag_169:\n        /* \"#utility.yul\":7622:7699   */\n      0x4e487b7100000000000000000000000000000000000000000000000000000000\n        /* \"#utility.yul\":7619:7620   */\n      0x00\n        /* \"#utility.yul\":7612:7700   */\n      mstore\n        /* \"#utility.yul\":7719:7723   */\n      0x11\n        /* \"#utility.yul\":7716:7717   */\n      0x04\n        /* \"#utility.yul\":7709:7724   */\n      mstore\n        /* \"#utility.yul\":7743:7747   */\n      0x24\n        /* \"#utility.yul\":7740:7741   */\n      0x00\n        /* \"#utility.yul\":7733:7748   */\n      revert\n        /* \"#utility.yul\":7760:7927   */\n    tag_61:\n        /* \"#utility.yul\":7797:7800   */\n      0x00\n        /* \"#utility.yul\":7820:7842   */\n      tag_253\n        /* \"#utility.yul\":7836:7841   */\n      dup3\n        /* \"#utility.yul\":7820:7842   */\n      tag_152\n      jump\t// in\n    tag_253:\n        /* \"#utility.yul\":7811:7842   */\n      swap2\n      pop\n        /* \"#utility.yul\":7864:7868   */\n      0xff\n        /* \"#utility.yul\":7857:7862   */\n      dup3\n        /* \"#utility.yul\":7854:7869   */\n      eq\n        /* \"#utility.yul\":7851:7892   */\n      iszero\n      tag_254\n      jumpi\n        /* \"#utility.yul\":7872:7890   */\n      tag_255\n      tag_169\n      jump\t// in\n    tag_255:\n        /* \"#utility.yul\":7851:7892   */\n    tag_254:\n        /* \"#utility.yul\":7919:7920   */\n      0x01\n        /* \"#utility.yul\":7912:7917   */\n      dup3\n        /* \"#utility.yul\":7908:7921   */\n      add\n        /* \"#utility.yul\":7901:7921   */\n      swap1\n      pop\n        /* \"#utility.yul\":7760:7927   */\n      swap2\n      swap1\n      pop\n      jump\t// out\n\n    auxdata: 0xa2646970667358221220a0971703b9f559c46f4836ba56e1ce2b000573e06ae12fede3404b199a4c0a5664736f6c634300080a0033\n}\n",
				"bytecode": {
					"linkReferences": {},
					"object": "608060405234801561001057600080fd5b506000600260146101000a81548160ff021916908360ff1602179055506000600260156101000a81548160ff021916908360ff1602179055506000600260166101000a81548160ff021916908360ff1602179055506000600260176101000a81548160ff021916908360ff1602179055506000600260186101000a81548160ff021916908360ff1602179055506000600260196101000a81548160ff021916908360ff16021790555060006002601a6101000a81548160ff021916908360ff16021790555060006002601b6101000a81548160ff021916908360ff1602179055506000600360006101000a81548173ffffffffffffffffffffffffffffffffffffffff021916908373ffffffffffffffffffffffffffffffffffffffff1602179055506000600360146101000a81548160ff021916908360ff160217905550611bc68061015e6000396000f3fe608060405234801561001057600080fd5b50600436106100885760003560e01c80634e69d5601161005b5780634e69d5601461013b57806374a29267146101595780637594a9e614610189578063f2fde38b146101b957610088565b80630121b93f1461008d57806320965255146100bd5780632bad96ba146100db5780634c111ff81461010b575b600080fd5b6100a760048036038101906100a291906117ce565b6101d5565b6040516100b49190611816565b60405180910390f35b6100c5610ac8565b6040516100d2919061184d565b60405180910390f35b6100f560048036038101906100f091906118c6565b610adf565b6040516101029190611816565b60405180910390f35b6101256004803603810190610120919061191f565b610dea565b6040516101329190611816565b60405180910390f35b610143610e6a565b6040516101509190611a36565b60405180910390f35b610173600480360381019061016e91906117ce565b611006565b6040516101809190611a61565b60405180910390f35b6101a3600480360381019061019e91906118c6565b6110a9565b6040516101b09190611b15565b60405180910390f35b6101d360048036038101906101ce91906118c6565b61117c565b005b60008060009054906101000a900473ffffffffffffffffffffffffffffffffffffffff1673ffffffffffffffffffffffffffffffffffffffff163373ffffffffffffffffffffffffffffffffffffffff16148061027f5750600160009054906101000a900473ffffffffffffffffffffffffffffffffffffffff1673ffffffffffffffffffffffffffffffffffffffff163373ffffffffffffffffffffffffffffffffffffffff16145b806102d75750600260009054906101000a900473ffffffffffffffffffffffffffffffffffffffff1673ffffffffffffffffffffffffffffffffffffffff163373ffffffffffffffffffffffffffffffffffffffff16145b6102e057600080fd5b60018214806102ef5750600282145b806102fa5750600382145b61030357600080fd5b60008054906101000a900473ffffffffffffffffffffffffffffffffffffffff1673ffffffffffffffffffffffffffffffffffffffff163373ffffffffffffffffffffffffffffffffffffffff1614801561037057506000600260169054906101000a900460ff1660ff16145b156104625760018214156103bb576002601981819054906101000a900460ff168092919061039d90611b66565b91906101000a81548160ff021916908360ff16021790555050610445565b6002821415610401576002601a81819054906101000a900460ff16809291906103e390611b66565b91906101000a81548160ff021916908360ff16021790555050610444565b6003821415610443576002601b81819054906101000a900460ff168092919061042990611b66565b91906101000a81548160ff021916908360ff160217905550505b5b5b6001600260166101000a81548160ff021916908360ff1602179055505b600160009054906101000a900473ffffffffffffffffffffffffffffffffffffffff1673ffffffffffffffffffffffffffffffffffffffff163373ffffffffffffffffffffffffffffffffffffffff161480156104d157506000600260179054906101000a900460ff1660ff16145b156105c357600182141561051c576002601981819054906101000a900460ff16809291906104fe90611b66565b91906101000a81548160ff021916908360ff160217905550506105a6565b6002821415610562576002601a81819054906101000a900460ff168092919061054490611b66565b91906101000a81548160ff021916908360ff160217905550506105a5565b60038214156105a4576002601b81819054906101000a900460ff168092919061058a90611b66565b91906101000a81548160ff021916908360ff160217905550505b5b5b6001600260176101000a81548160ff021916908360ff1602179055505b600260009054906101000a900473ffffffffffffffffffffffffffffffffffffffff1673ffffffffffffffffffffffffffffffffffffffff163373ffffffffffffffffffffffffffffffffffffffff1614801561063257506000600260189054906101000a900460ff1660ff16145b1561072457600182141561067d576002601981819054906101000a900460ff168092919061065f90611b66565b91906101000a81548160ff021916908360ff16021790555050610707565b60028214156106c3576002601a81819054906101000a900460ff16809291906106a590611b66565b91906101000a81548160ff021916908360ff16021790555050610706565b6003821415610705576002601b81819054906101000a900460ff16809291906106eb90611b66565b91906101000a81548160ff021916908360ff160217905550505b5b5b6001600260186101000a81548160ff021916908360ff1602179055505b6001600260169054906101000a900460ff1660ff1614801561075857506001600260179054906101000a900460ff1660ff16145b801561077657506001600260189054906101000a900460ff1660ff16145b80156107d05750600073ffffffffffffffffffffffffffffffffffffffff16600360009054906101000a900473ffffffffffffffffffffffffffffffffffffffff1673ffffffffffffffffffffffffffffffffffffffff16145b15610abe5760028060199054906101000a900460ff1660ff16106108545760008054906101000a900473ffffffffffffffffffffffffffffffffffffffff16600360006101000a81548173ffffffffffffffffffffffffffffffffffffffff021916908373ffffffffffffffffffffffffffffffffffffffff160217905550610954565b600280601a9054906101000a900460ff1660ff16106108d557600160009054906101000a900473ffffffffffffffffffffffffffffffffffffffff16600360006101000a81548173ffffffffffffffffffffffffffffffffffffffff021916908373ffffffffffffffffffffffffffffffffffffffff160217905550610953565b600280601b9054906101000a900460ff1660ff161061095257600260009054906101000a900473ffffffffffffffffffffffffffffffffffffffff16600360006101000a81548173ffffffffffffffffffffffffffffffffffffffff021916908373ffffffffffffffffffffffffffffffffffffffff1602179055505b5b5b6000600260166101000a81548160ff021916908360ff1602179055506000600260176101000a81548160ff021916908360ff1602179055506000600260186101000a81548160ff021916908360ff1602179055506000600260196101000a81548160ff021916908360ff16021790555060006002601a6101000a81548160ff021916908360ff16021790555060006002601b6101000a81548160ff021916908360ff160217905550600073ffffffffffffffffffffffffffffffffffffffff16600360009054906101000a900473ffffffffffffffffffffffffffffffffffffffff1673ffffffffffffffffffffffffffffffffffffffff161415610ab55760008054906101000a900473ffffffffffffffffffffffffffffffffffffffff16600360006101000a81548173ffffffffffffffffffffffffffffffffffffffff021916908373ffffffffffffffffffffffffffffffffffffffff1602179055505b60019050610ac3565b600090505b919050565b6000600360149054906101000a900460ff16905090565b60006003600260149054906101000a900460ff1660ff161415610b055760009050610de5565b6000600260149054906101000a900460ff1660ff161415610ba157816000806101000a81548173ffffffffffffffffffffffffffffffffffffffff021916908373ffffffffffffffffffffffffffffffffffffffff1602179055506002601481819054906101000a900460ff1680929190610b7f90611b66565b91906101000a81548160ff021916908360ff1602179055505060019050610de5565b6001600260149054906101000a900460ff1660ff16148015610c0f57508173ffffffffffffffffffffffffffffffffffffffff1660008054906101000a900473ffffffffffffffffffffffffffffffffffffffff1673ffffffffffffffffffffffffffffffffffffffff1614155b15610c965781600160006101000a81548173ffffffffffffffffffffffffffffffffffffffff021916908373ffffffffffffffffffffffffffffffffffffffff1602179055506002601481819054906101000a900460ff1680929190610c7490611b66565b91906101000a81548160ff021916908360ff1602179055505060019050610de5565b60028060149054906101000a900460ff1660ff16148015610d0357508173ffffffffffffffffffffffffffffffffffffffff1660008054906101000a900473ffffffffffffffffffffffffffffffffffffffff1673ffffffffffffffffffffffffffffffffffffffff1614155b8015610d5d57508173ffffffffffffffffffffffffffffffffffffffff16600160009054906101000a900473ffffffffffffffffffffffffffffffffffffffff1673ffffffffffffffffffffffffffffffffffffffff1614155b15610de45781600260006101000a81548173ffffffffffffffffffffffffffffffffffffffff021916908373ffffffffffffffffffffffffffffffffffffffff1602179055506002601481819054906101000a900460ff1680929190610dc290611b66565b91906101000a81548160ff021916908360ff1602179055505060019050610de5565b5b919050565b6000600360009054906101000a900473ffffffffffffffffffffffffffffffffffffffff1673ffffffffffffffffffffffffffffffffffffffff163373ffffffffffffffffffffffffffffffffffffffff1614610e4657600080fd5b81600360146101000a81548160ff021916908360ff16021790555060019050919050565b610e7261170f565b610e7a61170f565b600260149054906101000a900460ff16816000019060ff16908160ff1681525050600260159054906101000a900460ff16816020019060ff16908160ff1681525050600260169054906101000a900460ff16816040019060ff16908160ff1681525050600260179054906101000a900460ff16816060019060ff16908160ff1681525050600260189054906101000a900460ff16816080019060ff16908160ff1681525050600260199054906101000a900460ff168160a0019060ff16908160ff16815250506002601a9054906101000a900460ff168160c0019060ff16908160ff16815250506002601b9054906101000a900460ff168160e0019060ff16908160ff1681525050600360009054906101000a900473ffffffffffffffffffffffffffffffffffffffff1681610100019073ffffffffffffffffffffffffffffffffffffffff16908173ffffffffffffffffffffffffffffffffffffffff1681525050600360149054906101000a900460ff1681610120019060ff16908160ff16815250508091505090565b600060018214156110395760008054906101000a900473ffffffffffffffffffffffffffffffffffffffff1690506110a4565b600282141561106c57600160009054906101000a900473ffffffffffffffffffffffffffffffffffffffff1690506110a4565b600382141561109f57600260009054906101000a900473ffffffffffffffffffffffffffffffffffffffff1690506110a4565b600090505b919050565b60608173ffffffffffffffffffffffffffffffffffffffff16600360009054906101000a900473ffffffffffffffffffffffffffffffffffffffff1673ffffffffffffffffffffffffffffffffffffffff16141561113e576040518060400160405280600981526020017f7265616c4f776e657200000000000000000000000000000000000000000000008152509050611177565b6040518060400160405280600d81526020017f4e6f74207265616c4f776e65720000000000000000000000000000000000000081525090505b919050565b60008054906101000a900473ffffffffffffffffffffffffffffffffffffffff1673ffffffffffffffffffffffffffffffffffffffff163373ffffffffffffffffffffffffffffffffffffffff1614806112235750600160009054906101000a900473ffffffffffffffffffffffffffffffffffffffff1673ffffffffffffffffffffffffffffffffffffffff163373ffffffffffffffffffffffffffffffffffffffff16145b8061127b5750600260009054906101000a900473ffffffffffffffffffffffffffffffffffffffff1673ffffffffffffffffffffffffffffffffffffffff163373ffffffffffffffffffffffffffffffffffffffff16145b61128457600080fd5b60008054906101000a900473ffffffffffffffffffffffffffffffffffffffff1673ffffffffffffffffffffffffffffffffffffffff168173ffffffffffffffffffffffffffffffffffffffff161415801561132e5750600160009054906101000a900473ffffffffffffffffffffffffffffffffffffffff1673ffffffffffffffffffffffffffffffffffffffff168173ffffffffffffffffffffffffffffffffffffffff1614155b80156113885750600260009054906101000a900473ffffffffffffffffffffffffffffffffffffffff1673ffffffffffffffffffffffffffffffffffffffff168173ffffffffffffffffffffffffffffffffffffffff1614155b61139157600080fd5b600073ffffffffffffffffffffffffffffffffffffffff168173ffffffffffffffffffffffffffffffffffffffff1614156113cb57600080fd5b60008054906101000a900473ffffffffffffffffffffffffffffffffffffffff1673ffffffffffffffffffffffffffffffffffffffff163373ffffffffffffffffffffffffffffffffffffffff1614156114de57806000806101000a81548173ffffffffffffffffffffffffffffffffffffffff021916908373ffffffffffffffffffffffffffffffffffffffff1602179055508073ffffffffffffffffffffffffffffffffffffffff1660008054906101000a900473ffffffffffffffffffffffffffffffffffffffff1673ffffffffffffffffffffffffffffffffffffffff167f2ae143016adc0aa482e6ba5d9a350f3e3122aeb005ca4bf47d1d7b8221bce47260405160405180910390a361170c565b600160009054906101000a900473ffffffffffffffffffffffffffffffffffffffff1673ffffffffffffffffffffffffffffffffffffffff163373ffffffffffffffffffffffffffffffffffffffff1614156115f65780600160006101000a81548173ffffffffffffffffffffffffffffffffffffffff021916908373ffffffffffffffffffffffffffffffffffffffff1602179055508073ffffffffffffffffffffffffffffffffffffffff16600160009054906101000a900473ffffffffffffffffffffffffffffffffffffffff1673ffffffffffffffffffffffffffffffffffffffff167f2ae143016adc0aa482e6ba5d9a350f3e3122aeb005ca4bf47d1d7b8221bce47260405160405180910390a361170b565b600260009054906101000a900473ffffffffffffffffffffffffffffffffffffffff1673ffffffffffffffffffffffffffffffffffffffff163373ffffffffffffffffffffffffffffffffffffffff16141561170a5780600260006101000a81548173ffffffffffffffffffffffffffffffffffffffff021916908373ffffffffffffffffffffffffffffffffffffffff1602179055508073ffffffffffffffffffffffffffffffffffffffff16600260009054906101000a900473ffffffffffffffffffffffffffffffffffffffff1673ffffffffffffffffffffffffffffffffffffffff167f2ae143016adc0aa482e6ba5d9a350f3e3122aeb005ca4bf47d1d7b8221bce47260405160405180910390a35b5b5b50565b604051806101400160405280600060ff168152602001600060ff168152602001600060ff168152602001600060ff168152602001600060ff168152602001600060ff168152602001600060ff168152602001600060ff168152602001600073ffffffffffffffffffffffffffffffffffffffff168152602001600060ff1681525090565b600080fd5b6000819050919050565b6117ab81611798565b81146117b657600080fd5b50565b6000813590506117c8816117a2565b92915050565b6000602082840312156117e4576117e3611793565b5b60006117f2848285016117b9565b91505092915050565b60008115159050919050565b611810816117fb565b82525050565b600060208201905061182b6000830184611807565b92915050565b600060ff82169050919050565b61184781611831565b82525050565b6000602082019050611862600083018461183e565b92915050565b600073ffffffffffffffffffffffffffffffffffffffff82169050919050565b600061189382611868565b9050919050565b6118a381611888565b81146118ae57600080fd5b50565b6000813590506118c08161189a565b92915050565b6000602082840312156118dc576118db611793565b5b60006118ea848285016118b1565b91505092915050565b6118fc81611831565b811461190757600080fd5b50565b600081359050611919816118f3565b92915050565b60006020828403121561193557611934611793565b5b60006119438482850161190a565b91505092915050565b61195581611831565b82525050565b61196481611888565b82525050565b61014082016000820151611981600085018261194c565b506020820151611994602085018261194c565b5060408201516119a7604085018261194c565b5060608201516119ba606085018261194c565b5060808201516119cd608085018261194c565b5060a08201516119e060a085018261194c565b5060c08201516119f360c085018261194c565b5060e0820151611a0660e085018261194c565b50610100820151611a1b61010085018261195b565b50610120820151611a3061012085018261194c565b50505050565b600061014082019050611a4c600083018461196a565b92915050565b611a5b81611888565b82525050565b6000602082019050611a766000830184611a52565b92915050565b600081519050919050565b600082825260208201905092915050565b60005b83811015611ab6578082015181840152602081019050611a9b565b83811115611ac5576000848401525b50505050565b6000601f19601f8301169050919050565b6000611ae782611a7c565b611af18185611a87565b9350611b01818560208601611a98565b611b0a81611acb565b840191505092915050565b60006020820190508181036000830152611b2f8184611adc565b905092915050565b7f4e487b7100000000000000000000000000000000000000000000000000000000600052601160045260246000fd5b6000611b7182611831565b915060ff821415611b8557611b84611b37565b5b60018201905091905056fea2646970667358221220a0971703b9f559c46f4836ba56e1ce2b000573e06ae12fede3404b199a4c0a5664736f6c634300080a0033",
					"opcodes": "PUSH1 0x80 PUSH1 0x40 MSTORE CALLVALUE DUP1 ISZERO PUSH2 0x10 JUMPI PUSH1 0x0 DUP1 REVERT JUMPDEST POP PUSH1 0x0 PUSH1 0x2 PUSH1 0x14 PUSH2 0x100 EXP DUP2 SLOAD DUP2 PUSH1 0xFF MUL NOT AND SWAP1 DUP4 PUSH1 0xFF AND MUL OR SWAP1 SSTORE POP PUSH1 0x0 PUSH1 0x2 PUSH1 0x15 PUSH2 0x100 EXP DUP2 SLOAD DUP2 PUSH1 0xFF MUL NOT AND SWAP1 DUP4 PUSH1 0xFF AND MUL OR SWAP1 SSTORE POP PUSH1 0x0 PUSH1 0x2 PUSH1 0x16 PUSH2 0x100 EXP DUP2 SLOAD DUP2 PUSH1 0xFF MUL NOT AND SWAP1 DUP4 PUSH1 0xFF AND MUL OR SWAP1 SSTORE POP PUSH1 0x0 PUSH1 0x2 PUSH1 0x17 PUSH2 0x100 EXP DUP2 SLOAD DUP2 PUSH1 0xFF MUL NOT AND SWAP1 DUP4 PUSH1 0xFF AND MUL OR SWAP1 SSTORE POP PUSH1 0x0 PUSH1 0x2 PUSH1 0x18 PUSH2 0x100 EXP DUP2 SLOAD DUP2 PUSH1 0xFF MUL NOT AND SWAP1 DUP4 PUSH1 0xFF AND MUL OR SWAP1 SSTORE POP PUSH1 0x0 PUSH1 0x2 PUSH1 0x19 PUSH2 0x100 EXP DUP2 SLOAD DUP2 PUSH1 0xFF MUL NOT AND SWAP1 DUP4 PUSH1 0xFF AND MUL OR SWAP1 SSTORE POP PUSH1 0x0 PUSH1 0x2 PUSH1 0x1A PUSH2 0x100 EXP DUP2 SLOAD DUP2 PUSH1 0xFF MUL NOT AND SWAP1 DUP4 PUSH1 0xFF AND MUL OR SWAP1 SSTORE POP PUSH1 0x0 PUSH1 0x2 PUSH1 0x1B PUSH2 0x100 EXP DUP2 SLOAD DUP2 PUSH1 0xFF MUL NOT AND SWAP1 DUP4 PUSH1 0xFF AND MUL OR SWAP1 SSTORE POP PUSH1 0x0 PUSH1 0x3 PUSH1 0x0 PUSH2 0x100 EXP DUP2 SLOAD DUP2 PUSH20 0xFFFFFFFFFFFFFFFFFFFFFFFFFFFFFFFFFFFFFFFF MUL NOT AND SWAP1 DUP4 PUSH20 0xFFFFFFFFFFFFFFFFFFFFFFFFFFFFFFFFFFFFFFFF AND MUL OR SWAP1 SSTORE POP PUSH1 0x0 PUSH1 0x3 PUSH1 0x14 PUSH2 0x100 EXP DUP2 SLOAD DUP2 PUSH1 0xFF MUL NOT AND SWAP1 DUP4 PUSH1 0xFF AND MUL OR SWAP1 SSTORE POP PUSH2 0x1BC6 DUP1 PUSH2 0x15E PUSH1 0x0 CODECOPY PUSH1 0x0 RETURN INVALID PUSH1 0x80 PUSH1 0x40 MSTORE CALLVALUE DUP1 ISZERO PUSH2 0x10 JUMPI PUSH1 0x0 DUP1 REVERT JUMPDEST POP PUSH1 0x4 CALLDATASIZE LT PUSH2 0x88 JUMPI PUSH1 0x0 CALLDATALOAD PUSH1 0xE0 SHR DUP1 PUSH4 0x4E69D560 GT PUSH2 0x5B JUMPI DUP1 PUSH4 0x4E69D560 EQ PUSH2 0x13B JUMPI DUP1 PUSH4 0x74A29267 EQ PUSH2 0x159 JUMPI DUP1 PUSH4 0x7594A9E6 EQ PUSH2 0x189 JUMPI DUP1 PUSH4 0xF2FDE38B EQ PUSH2 0x1B9 JUMPI PUSH2 0x88 JUMP JUMPDEST DUP1 PUSH4 0x121B93F EQ PUSH2 0x8D JUMPI DUP1 PUSH4 0x20965255 EQ PUSH2 0xBD JUMPI DUP1 PUSH4 0x2BAD96BA EQ PUSH2 0xDB JUMPI DUP1 PUSH4 0x4C111FF8 EQ PUSH2 0x10B JUMPI JUMPDEST PUSH1 0x0 DUP1 REVERT JUMPDEST PUSH2 0xA7 PUSH1 0x4 DUP1 CALLDATASIZE SUB DUP2 ADD SWAP1 PUSH2 0xA2 SWAP2 SWAP1 PUSH2 0x17CE JUMP JUMPDEST PUSH2 0x1D5 JUMP JUMPDEST PUSH1 0x40 MLOAD PUSH2 0xB4 SWAP2 SWAP1 PUSH2 0x1816 JUMP JUMPDEST PUSH1 0x40 MLOAD DUP1 SWAP2 SUB SWAP1 RETURN JUMPDEST PUSH2 0xC5 PUSH2 0xAC8 JUMP JUMPDEST PUSH1 0x40 MLOAD PUSH2 0xD2 SWAP2 SWAP1 PUSH2 0x184D JUMP JUMPDEST PUSH1 0x40 MLOAD DUP1 SWAP2 SUB SWAP1 RETURN JUMPDEST PUSH2 0xF5 PUSH1 0x4 DUP1 CALLDATASIZE SUB DUP2 ADD SWAP1 PUSH2 0xF0 SWAP2 SWAP1 PUSH2 0x18C6 JUMP JUMPDEST PUSH2 0xADF JUMP JUMPDEST PUSH1 0x40 MLOAD PUSH2 0x102 SWAP2 SWAP1 PUSH2 0x1816 JUMP JUMPDEST PUSH1 0x40 MLOAD DUP1 SWAP2 SUB SWAP1 RETURN JUMPDEST PUSH2 0x125 PUSH1 0x4 DUP1 CALLDATASIZE SUB DUP2 ADD SWAP1 PUSH2 0x120 SWAP2 SWAP1 PUSH2 0x191F JUMP JUMPDEST PUSH2 0xDEA JUMP JUMPDEST PUSH1 0x40 MLOAD PUSH2 0x132 SWAP2 SWAP1 PUSH2 0x1816 JUMP JUMPDEST PUSH1 0x40 MLOAD DUP1 SWAP2 SUB SWAP1 RETURN JUMPDEST PUSH2 0x143 PUSH2 0xE6A JUMP JUMPDEST PUSH1 0x40 MLOAD PUSH2 0x150 SWAP2 SWAP1 PUSH2 0x1A36 JUMP JUMPDEST PUSH1 0x40 MLOAD DUP1 SWAP2 SUB SWAP1 RETURN JUMPDEST PUSH2 0x173 PUSH1 0x4 DUP1 CALLDATASIZE SUB DUP2 ADD SWAP1 PUSH2 0x16E SWAP2 SWAP1 PUSH2 0x17CE JUMP JUMPDEST PUSH2 0x1006 JUMP JUMPDEST PUSH1 0x40 MLOAD PUSH2 0x180 SWAP2 SWAP1 PUSH2 0x1A61 JUMP JUMPDEST PUSH1 0x40 MLOAD DUP1 SWAP2 SUB SWAP1 RETURN JUMPDEST PUSH2 0x1A3 PUSH1 0x4 DUP1 CALLDATASIZE SUB DUP2 ADD SWAP1 PUSH2 0x19E SWAP2 SWAP1 PUSH2 0x18C6 JUMP JUMPDEST PUSH2 0x10A9 JUMP JUMPDEST PUSH1 0x40 MLOAD PUSH2 0x1B0 SWAP2 SWAP1 PUSH2 0x1B15 JUMP JUMPDEST PUSH1 0x40 MLOAD DUP1 SWAP2 SUB SWAP1 RETURN JUMPDEST PUSH2 0x1D3 PUSH1 0x4 DUP1 CALLDATASIZE SUB DUP2 ADD SWAP1 PUSH2 0x1CE SWAP2 SWAP1 PUSH2 0x18C6 JUMP JUMPDEST PUSH2 0x117C JUMP JUMPDEST STOP JUMPDEST PUSH1 0x0 DUP1 PUSH1 0x0 SWAP1 SLOAD SWAP1 PUSH2 0x100 EXP SWAP1 DIV PUSH20 0xFFFFFFFFFFFFFFFFFFFFFFFFFFFFFFFFFFFFFFFF AND PUSH20 0xFFFFFFFFFFFFFFFFFFFFFFFFFFFFFFFFFFFFFFFF AND CALLER PUSH20 0xFFFFFFFFFFFFFFFFFFFFFFFFFFFFFFFFFFFFFFFF AND EQ DUP1 PUSH2 0x27F JUMPI POP PUSH1 0x1 PUSH1 0x0 SWAP1 SLOAD SWAP1 PUSH2 0x100 EXP SWAP1 DIV PUSH20 0xFFFFFFFFFFFFFFFFFFFFFFFFFFFFFFFFFFFFFFFF AND PUSH20 0xFFFFFFFFFFFFFFFFFFFFFFFFFFFFFFFFFFFFFFFF AND CALLER PUSH20 0xFFFFFFFFFFFFFFFFFFFFFFFFFFFFFFFFFFFFFFFF AND EQ JUMPDEST DUP1 PUSH2 0x2D7 JUMPI POP PUSH1 0x2 PUSH1 0x0 SWAP1 SLOAD SWAP1 PUSH2 0x100 EXP SWAP1 DIV PUSH20 0xFFFFFFFFFFFFFFFFFFFFFFFFFFFFFFFFFFFFFFFF AND PUSH20 0xFFFFFFFFFFFFFFFFFFFFFFFFFFFFFFFFFFFFFFFF AND CALLER PUSH20 0xFFFFFFFFFFFFFFFFFFFFFFFFFFFFFFFFFFFFFFFF AND EQ JUMPDEST PUSH2 0x2E0 JUMPI PUSH1 0x0 DUP1 REVERT JUMPDEST PUSH1 0x1 DUP3 EQ DUP1 PUSH2 0x2EF JUMPI POP PUSH1 0x2 DUP3 EQ JUMPDEST DUP1 PUSH2 0x2FA JUMPI POP PUSH1 0x3 DUP3 EQ JUMPDEST PUSH2 0x303 JUMPI PUSH1 0x0 DUP1 REVERT JUMPDEST PUSH1 0x0 DUP1 SLOAD SWAP1 PUSH2 0x100 EXP SWAP1 DIV PUSH20 0xFFFFFFFFFFFFFFFFFFFFFFFFFFFFFFFFFFFFFFFF AND PUSH20 0xFFFFFFFFFFFFFFFFFFFFFFFFFFFFFFFFFFFFFFFF AND CALLER PUSH20 0xFFFFFFFFFFFFFFFFFFFFFFFFFFFFFFFFFFFFFFFF AND EQ DUP1 ISZERO PUSH2 0x370 JUMPI POP PUSH1 0x0 PUSH1 0x2 PUSH1 0x16 SWAP1 SLOAD SWAP1 PUSH2 0x100 EXP SWAP1 DIV PUSH1 0xFF AND PUSH1 0xFF AND EQ JUMPDEST ISZERO PUSH2 0x462 JUMPI PUSH1 0x1 DUP3 EQ ISZERO PUSH2 0x3BB JUMPI PUSH1 0x2 PUSH1 0x19 DUP2 DUP2 SWAP1 SLOAD SWAP1 PUSH2 0x100 EXP SWAP1 DIV PUSH1 0xFF AND DUP1 SWAP3 SWAP2 SWAP1 PUSH2 0x39D SWAP1 PUSH2 0x1B66 JUMP JUMPDEST SWAP2 SWAP1 PUSH2 0x100 EXP DUP2 SLOAD DUP2 PUSH1 0xFF MUL NOT AND SWAP1 DUP4 PUSH1 0xFF AND MUL OR SWAP1 SSTORE POP POP PUSH2 0x445 JUMP JUMPDEST PUSH1 0x2 DUP3 EQ ISZERO PUSH2 0x401 JUMPI PUSH1 0x2 PUSH1 0x1A DUP2 DUP2 SWAP1 SLOAD SWAP1 PUSH2 0x100 EXP SWAP1 DIV PUSH1 0xFF AND DUP1 SWAP3 SWAP2 SWAP1 PUSH2 0x3E3 SWAP1 PUSH2 0x1B66 JUMP JUMPDEST SWAP2 SWAP1 PUSH2 0x100 EXP DUP2 SLOAD DUP2 PUSH1 0xFF MUL NOT AND SWAP1 DUP4 PUSH1 0xFF AND MUL OR SWAP1 SSTORE POP POP PUSH2 0x444 JUMP JUMPDEST PUSH1 0x3 DUP3 EQ ISZERO PUSH2 0x443 JUMPI PUSH1 0x2 PUSH1 0x1B DUP2 DUP2 SWAP1 SLOAD SWAP1 PUSH2 0x100 EXP SWAP1 DIV PUSH1 0xFF AND DUP1 SWAP3 SWAP2 SWAP1 PUSH2 0x429 SWAP1 PUSH2 0x1B66 JUMP JUMPDEST SWAP2 SWAP1 PUSH2 0x100 EXP DUP2 SLOAD DUP2 PUSH1 0xFF MUL NOT AND SWAP1 DUP4 PUSH1 0xFF AND MUL OR SWAP1 SSTORE POP POP JUMPDEST JUMPDEST JUMPDEST PUSH1 0x1 PUSH1 0x2 PUSH1 0x16 PUSH2 0x100 EXP DUP2 SLOAD DUP2 PUSH1 0xFF MUL NOT AND SWAP1 DUP4 PUSH1 0xFF AND MUL OR SWAP1 SSTORE POP JUMPDEST PUSH1 0x1 PUSH1 0x0 SWAP1 SLOAD SWAP1 PUSH2 0x100 EXP SWAP1 DIV PUSH20 0xFFFFFFFFFFFFFFFFFFFFFFFFFFFFFFFFFFFFFFFF AND PUSH20 0xFFFFFFFFFFFFFFFFFFFFFFFFFFFFFFFFFFFFFFFF AND CALLER PUSH20 0xFFFFFFFFFFFFFFFFFFFFFFFFFFFFFFFFFFFFFFFF AND EQ DUP1 ISZERO PUSH2 0x4D1 JUMPI POP PUSH1 0x0 PUSH1 0x2 PUSH1 0x17 SWAP1 SLOAD SWAP1 PUSH2 0x100 EXP SWAP1 DIV PUSH1 0xFF AND PUSH1 0xFF AND EQ JUMPDEST ISZERO PUSH2 0x5C3 JUMPI PUSH1 0x1 DUP3 EQ ISZERO PUSH2 0x51C JUMPI PUSH1 0x2 PUSH1 0x19 DUP2 DUP2 SWAP1 SLOAD SWAP1 PUSH2 0x100 EXP SWAP1 DIV PUSH1 0xFF AND DUP1 SWAP3 SWAP2 SWAP1 PUSH2 0x4FE SWAP1 PUSH2 0x1B66 JUMP JUMPDEST SWAP2 SWAP1 PUSH2 0x100 EXP DUP2 SLOAD DUP2 PUSH1 0xFF MUL NOT AND SWAP1 DUP4 PUSH1 0xFF AND MUL OR SWAP1 SSTORE POP POP PUSH2 0x5A6 JUMP JUMPDEST PUSH1 0x2 DUP3 EQ ISZERO PUSH2 0x562 JUMPI PUSH1 0x2 PUSH1 0x1A DUP2 DUP2 SWAP1 SLOAD SWAP1 PUSH2 0x100 EXP SWAP1 DIV PUSH1 0xFF AND DUP1 SWAP3 SWAP2 SWAP1 PUSH2 0x544 SWAP1 PUSH2 0x1B66 JUMP JUMPDEST SWAP2 SWAP1 PUSH2 0x100 EXP DUP2 SLOAD DUP2 PUSH1 0xFF MUL NOT AND SWAP1 DUP4 PUSH1 0xFF AND MUL OR SWAP1 SSTORE POP POP PUSH2 0x5A5 JUMP JUMPDEST PUSH1 0x3 DUP3 EQ ISZERO PUSH2 0x5A4 JUMPI PUSH1 0x2 PUSH1 0x1B DUP2 DUP2 SWAP1 SLOAD SWAP1 PUSH2 0x100 EXP SWAP1 DIV PUSH1 0xFF AND DUP1 SWAP3 SWAP2 SWAP1 PUSH2 0x58A SWAP1 PUSH2 0x1B66 JUMP JUMPDEST SWAP2 SWAP1 PUSH2 0x100 EXP DUP2 SLOAD DUP2 PUSH1 0xFF MUL NOT AND SWAP1 DUP4 PUSH1 0xFF AND MUL OR SWAP1 SSTORE POP POP JUMPDEST JUMPDEST JUMPDEST PUSH1 0x1 PUSH1 0x2 PUSH1 0x17 PUSH2 0x100 EXP DUP2 SLOAD DUP2 PUSH1 0xFF MUL NOT AND SWAP1 DUP4 PUSH1 0xFF AND MUL OR SWAP1 SSTORE POP JUMPDEST PUSH1 0x2 PUSH1 0x0 SWAP1 SLOAD SWAP1 PUSH2 0x100 EXP SWAP1 DIV PUSH20 0xFFFFFFFFFFFFFFFFFFFFFFFFFFFFFFFFFFFFFFFF AND PUSH20 0xFFFFFFFFFFFFFFFFFFFFFFFFFFFFFFFFFFFFFFFF AND CALLER PUSH20 0xFFFFFFFFFFFFFFFFFFFFFFFFFFFFFFFFFFFFFFFF AND EQ DUP1 ISZERO PUSH2 0x632 JUMPI POP PUSH1 0x0 PUSH1 0x2 PUSH1 0x18 SWAP1 SLOAD SWAP1 PUSH2 0x100 EXP SWAP1 DIV PUSH1 0xFF AND PUSH1 0xFF AND EQ JUMPDEST ISZERO PUSH2 0x724 JUMPI PUSH1 0x1 DUP3 EQ ISZERO PUSH2 0x67D JUMPI PUSH1 0x2 PUSH1 0x19 DUP2 DUP2 SWAP1 SLOAD SWAP1 PUSH2 0x100 EXP SWAP1 DIV PUSH1 0xFF AND DUP1 SWAP3 SWAP2 SWAP1 PUSH2 0x65F SWAP1 PUSH2 0x1B66 JUMP JUMPDEST SWAP2 SWAP1 PUSH2 0x100 EXP DUP2 SLOAD DUP2 PUSH1 0xFF MUL NOT AND SWAP1 DUP4 PUSH1 0xFF AND MUL OR SWAP1 SSTORE POP POP PUSH2 0x707 JUMP JUMPDEST PUSH1 0x2 DUP3 EQ ISZERO PUSH2 0x6C3 JUMPI PUSH1 0x2 PUSH1 0x1A DUP2 DUP2 SWAP1 SLOAD SWAP1 PUSH2 0x100 EXP SWAP1 DIV PUSH1 0xFF AND DUP1 SWAP3 SWAP2 SWAP1 PUSH2 0x6A5 SWAP1 PUSH2 0x1B66 JUMP JUMPDEST SWAP2 SWAP1 PUSH2 0x100 EXP DUP2 SLOAD DUP2 PUSH1 0xFF MUL NOT AND SWAP1 DUP4 PUSH1 0xFF AND MUL OR SWAP1 SSTORE POP POP PUSH2 0x706 JUMP JUMPDEST PUSH1 0x3 DUP3 EQ ISZERO PUSH2 0x705 JUMPI PUSH1 0x2 PUSH1 0x1B DUP2 DUP2 SWAP1 SLOAD SWAP1 PUSH2 0x100 EXP SWAP1 DIV PUSH1 0xFF AND DUP1 SWAP3 SWAP2 SWAP1 PUSH2 0x6EB SWAP1 PUSH2 0x1B66 JUMP JUMPDEST SWAP2 SWAP1 PUSH2 0x100 EXP DUP2 SLOAD DUP2 PUSH1 0xFF MUL NOT AND SWAP1 DUP4 PUSH1 0xFF AND MUL OR SWAP1 SSTORE POP POP JUMPDEST JUMPDEST JUMPDEST PUSH1 0x1 PUSH1 0x2 PUSH1 0x18 PUSH2 0x100 EXP DUP2 SLOAD DUP2 PUSH1 0xFF MUL NOT AND SWAP1 DUP4 PUSH1 0xFF AND MUL OR SWAP1 SSTORE POP JUMPDEST PUSH1 0x1 PUSH1 0x2 PUSH1 0x16 SWAP1 SLOAD SWAP1 PUSH2 0x100 EXP SWAP1 DIV PUSH1 0xFF AND PUSH1 0xFF AND EQ DUP1 ISZERO PUSH2 0x758 JUMPI POP PUSH1 0x1 PUSH1 0x2 PUSH1 0x17 SWAP1 SLOAD SWAP1 PUSH2 0x100 EXP SWAP1 DIV PUSH1 0xFF AND PUSH1 0xFF AND EQ JUMPDEST DUP1 ISZERO PUSH2 0x776 JUMPI POP PUSH1 0x1 PUSH1 0x2 PUSH1 0x18 SWAP1 SLOAD SWAP1 PUSH2 0x100 EXP SWAP1 DIV PUSH1 0xFF AND PUSH1 0xFF AND EQ JUMPDEST DUP1 ISZERO PUSH2 0x7D0 JUMPI POP PUSH1 0x0 PUSH20 0xFFFFFFFFFFFFFFFFFFFFFFFFFFFFFFFFFFFFFFFF AND PUSH1 0x3 PUSH1 0x0 SWAP1 SLOAD SWAP1 PUSH2 0x100 EXP SWAP1 DIV PUSH20 0xFFFFFFFFFFFFFFFFFFFFFFFFFFFFFFFFFFFFFFFF AND PUSH20 0xFFFFFFFFFFFFFFFFFFFFFFFFFFFFFFFFFFFFFFFF AND EQ JUMPDEST ISZERO PUSH2 0xABE JUMPI PUSH1 0x2 DUP1 PUSH1 0x19 SWAP1 SLOAD SWAP1 PUSH2 0x100 EXP SWAP1 DIV PUSH1 0xFF AND PUSH1 0xFF AND LT PUSH2 0x854 JUMPI PUSH1 0x0 DUP1 SLOAD SWAP1 PUSH2 0x100 EXP SWAP1 DIV PUSH20 0xFFFFFFFFFFFFFFFFFFFFFFFFFFFFFFFFFFFFFFFF AND PUSH1 0x3 PUSH1 0x0 PUSH2 0x100 EXP DUP2 SLOAD DUP2 PUSH20 0xFFFFFFFFFFFFFFFFFFFFFFFFFFFFFFFFFFFFFFFF MUL NOT AND SWAP1 DUP4 PUSH20 0xFFFFFFFFFFFFFFFFFFFFFFFFFFFFFFFFFFFFFFFF AND MUL OR SWAP1 SSTORE POP PUSH2 0x954 JUMP JUMPDEST PUSH1 0x2 DUP1 PUSH1 0x1A SWAP1 SLOAD SWAP1 PUSH2 0x100 EXP SWAP1 DIV PUSH1 0xFF AND PUSH1 0xFF AND LT PUSH2 0x8D5 JUMPI PUSH1 0x1 PUSH1 0x0 SWAP1 SLOAD SWAP1 PUSH2 0x100 EXP SWAP1 DIV PUSH20 0xFFFFFFFFFFFFFFFFFFFFFFFFFFFFFFFFFFFFFFFF AND PUSH1 0x3 PUSH1 0x0 PUSH2 0x100 EXP DUP2 SLOAD DUP2 PUSH20 0xFFFFFFFFFFFFFFFFFFFFFFFFFFFFFFFFFFFFFFFF MUL NOT AND SWAP1 DUP4 PUSH20 0xFFFFFFFFFFFFFFFFFFFFFFFFFFFFFFFFFFFFFFFF AND MUL OR SWAP1 SSTORE POP PUSH2 0x953 JUMP JUMPDEST PUSH1 0x2 DUP1 PUSH1 0x1B SWAP1 SLOAD SWAP1 PUSH2 0x100 EXP SWAP1 DIV PUSH1 0xFF AND PUSH1 0xFF AND LT PUSH2 0x952 JUMPI PUSH1 0x2 PUSH1 0x0 SWAP1 SLOAD SWAP1 PUSH2 0x100 EXP SWAP1 DIV PUSH20 0xFFFFFFFFFFFFFFFFFFFFFFFFFFFFFFFFFFFFFFFF AND PUSH1 0x3 PUSH1 0x0 PUSH2 0x100 EXP DUP2 SLOAD DUP2 PUSH20 0xFFFFFFFFFFFFFFFFFFFFFFFFFFFFFFFFFFFFFFFF MUL NOT AND SWAP1 DUP4 PUSH20 0xFFFFFFFFFFFFFFFFFFFFFFFFFFFFFFFFFFFFFFFF AND MUL OR SWAP1 SSTORE POP JUMPDEST JUMPDEST JUMPDEST PUSH1 0x0 PUSH1 0x2 PUSH1 0x16 PUSH2 0x100 EXP DUP2 SLOAD DUP2 PUSH1 0xFF MUL NOT AND SWAP1 DUP4 PUSH1 0xFF AND MUL OR SWAP1 SSTORE POP PUSH1 0x0 PUSH1 0x2 PUSH1 0x17 PUSH2 0x100 EXP DUP2 SLOAD DUP2 PUSH1 0xFF MUL NOT AND SWAP1 DUP4 PUSH1 0xFF AND MUL OR SWAP1 SSTORE POP PUSH1 0x0 PUSH1 0x2 PUSH1 0x18 PUSH2 0x100 EXP DUP2 SLOAD DUP2 PUSH1 0xFF MUL NOT AND SWAP1 DUP4 PUSH1 0xFF AND MUL OR SWAP1 SSTORE POP PUSH1 0x0 PUSH1 0x2 PUSH1 0x19 PUSH2 0x100 EXP DUP2 SLOAD DUP2 PUSH1 0xFF MUL NOT AND SWAP1 DUP4 PUSH1 0xFF AND MUL OR SWAP1 SSTORE POP PUSH1 0x0 PUSH1 0x2 PUSH1 0x1A PUSH2 0x100 EXP DUP2 SLOAD DUP2 PUSH1 0xFF MUL NOT AND SWAP1 DUP4 PUSH1 0xFF AND MUL OR SWAP1 SSTORE POP PUSH1 0x0 PUSH1 0x2 PUSH1 0x1B PUSH2 0x100 EXP DUP2 SLOAD DUP2 PUSH1 0xFF MUL NOT AND SWAP1 DUP4 PUSH1 0xFF AND MUL OR SWAP1 SSTORE POP PUSH1 0x0 PUSH20 0xFFFFFFFFFFFFFFFFFFFFFFFFFFFFFFFFFFFFFFFF AND PUSH1 0x3 PUSH1 0x0 SWAP1 SLOAD SWAP1 PUSH2 0x100 EXP SWAP1 DIV PUSH20 0xFFFFFFFFFFFFFFFFFFFFFFFFFFFFFFFFFFFFFFFF AND PUSH20 0xFFFFFFFFFFFFFFFFFFFFFFFFFFFFFFFFFFFFFFFF AND EQ ISZERO PUSH2 0xAB5 JUMPI PUSH1 0x0 DUP1 SLOAD SWAP1 PUSH2 0x100 EXP SWAP1 DIV PUSH20 0xFFFFFFFFFFFFFFFFFFFFFFFFFFFFFFFFFFFFFFFF AND PUSH1 0x3 PUSH1 0x0 PUSH2 0x100 EXP DUP2 SLOAD DUP2 PUSH20 0xFFFFFFFFFFFFFFFFFFFFFFFFFFFFFFFFFFFFFFFF MUL NOT AND SWAP1 DUP4 PUSH20 0xFFFFFFFFFFFFFFFFFFFFFFFFFFFFFFFFFFFFFFFF AND MUL OR SWAP1 SSTORE POP JUMPDEST PUSH1 0x1 SWAP1 POP PUSH2 0xAC3 JUMP JUMPDEST PUSH1 0x0 SWAP1 POP JUMPDEST SWAP2 SWAP1 POP JUMP JUMPDEST PUSH1 0x0 PUSH1 0x3 PUSH1 0x14 SWAP1 SLOAD SWAP1 PUSH2 0x100 EXP SWAP1 DIV PUSH1 0xFF AND SWAP1 POP SWAP1 JUMP JUMPDEST PUSH1 0x0 PUSH1 0x3 PUSH1 0x2 PUSH1 0x14 SWAP1 SLOAD SWAP1 PUSH2 0x100 EXP SWAP1 DIV PUSH1 0xFF AND PUSH1 0xFF AND EQ ISZERO PUSH2 0xB05 JUMPI PUSH1 0x0 SWAP1 POP PUSH2 0xDE5 JUMP JUMPDEST PUSH1 0x0 PUSH1 0x2 PUSH1 0x14 SWAP1 SLOAD SWAP1 PUSH2 0x100 EXP SWAP1 DIV PUSH1 0xFF AND PUSH1 0xFF AND EQ ISZERO PUSH2 0xBA1 JUMPI DUP2 PUSH1 0x0 DUP1 PUSH2 0x100 EXP DUP2 SLOAD DUP2 PUSH20 0xFFFFFFFFFFFFFFFFFFFFFFFFFFFFFFFFFFFFFFFF MUL NOT AND SWAP1 DUP4 PUSH20 0xFFFFFFFFFFFFFFFFFFFFFFFFFFFFFFFFFFFFFFFF AND MUL OR SWAP1 SSTORE POP PUSH1 0x2 PUSH1 0x14 DUP2 DUP2 SWAP1 SLOAD SWAP1 PUSH2 0x100 EXP SWAP1 DIV PUSH1 0xFF AND DUP1 SWAP3 SWAP2 SWAP1 PUSH2 0xB7F SWAP1 PUSH2 0x1B66 JUMP JUMPDEST SWAP2 SWAP1 PUSH2 0x100 EXP DUP2 SLOAD DUP2 PUSH1 0xFF MUL NOT AND SWAP1 DUP4 PUSH1 0xFF AND MUL OR SWAP1 SSTORE POP POP PUSH1 0x1 SWAP1 POP PUSH2 0xDE5 JUMP JUMPDEST PUSH1 0x1 PUSH1 0x2 PUSH1 0x14 SWAP1 SLOAD SWAP1 PUSH2 0x100 EXP SWAP1 DIV PUSH1 0xFF AND PUSH1 0xFF AND EQ DUP1 ISZERO PUSH2 0xC0F JUMPI POP DUP2 PUSH20 0xFFFFFFFFFFFFFFFFFFFFFFFFFFFFFFFFFFFFFFFF AND PUSH1 0x0 DUP1 SLOAD SWAP1 PUSH2 0x100 EXP SWAP1 DIV PUSH20 0xFFFFFFFFFFFFFFFFFFFFFFFFFFFFFFFFFFFFFFFF AND PUSH20 0xFFFFFFFFFFFFFFFFFFFFFFFFFFFFFFFFFFFFFFFF AND EQ ISZERO JUMPDEST ISZERO PUSH2 0xC96 JUMPI DUP2 PUSH1 0x1 PUSH1 0x0 PUSH2 0x100 EXP DUP2 SLOAD DUP2 PUSH20 0xFFFFFFFFFFFFFFFFFFFFFFFFFFFFFFFFFFFFFFFF MUL NOT AND SWAP1 DUP4 PUSH20 0xFFFFFFFFFFFFFFFFFFFFFFFFFFFFFFFFFFFFFFFF AND MUL OR SWAP1 SSTORE POP PUSH1 0x2 PUSH1 0x14 DUP2 DUP2 SWAP1 SLOAD SWAP1 PUSH2 0x100 EXP SWAP1 DIV PUSH1 0xFF AND DUP1 SWAP3 SWAP2 SWAP1 PUSH2 0xC74 SWAP1 PUSH2 0x1B66 JUMP JUMPDEST SWAP2 SWAP1 PUSH2 0x100 EXP DUP2 SLOAD DUP2 PUSH1 0xFF MUL NOT AND SWAP1 DUP4 PUSH1 0xFF AND MUL OR SWAP1 SSTORE POP POP PUSH1 0x1 SWAP1 POP PUSH2 0xDE5 JUMP JUMPDEST PUSH1 0x2 DUP1 PUSH1 0x14 SWAP1 SLOAD SWAP1 PUSH2 0x100 EXP SWAP1 DIV PUSH1 0xFF AND PUSH1 0xFF AND EQ DUP1 ISZERO PUSH2 0xD03 JUMPI POP DUP2 PUSH20 0xFFFFFFFFFFFFFFFFFFFFFFFFFFFFFFFFFFFFFFFF AND PUSH1 0x0 DUP1 SLOAD SWAP1 PUSH2 0x100 EXP SWAP1 DIV PUSH20 0xFFFFFFFFFFFFFFFFFFFFFFFFFFFFFFFFFFFFFFFF AND PUSH20 0xFFFFFFFFFFFFFFFFFFFFFFFFFFFFFFFFFFFFFFFF AND EQ ISZERO JUMPDEST DUP1 ISZERO PUSH2 0xD5D JUMPI POP DUP2 PUSH20 0xFFFFFFFFFFFFFFFFFFFFFFFFFFFFFFFFFFFFFFFF AND PUSH1 0x1 PUSH1 0x0 SWAP1 SLOAD SWAP1 PUSH2 0x100 EXP SWAP1 DIV PUSH20 0xFFFFFFFFFFFFFFFFFFFFFFFFFFFFFFFFFFFFFFFF AND PUSH20 0xFFFFFFFFFFFFFFFFFFFFFFFFFFFFFFFFFFFFFFFF AND EQ ISZERO JUMPDEST ISZERO PUSH2 0xDE4 JUMPI DUP2 PUSH1 0x2 PUSH1 0x0 PUSH2 0x100 EXP DUP2 SLOAD DUP2 PUSH20 0xFFFFFFFFFFFFFFFFFFFFFFFFFFFFFFFFFFFFFFFF MUL NOT AND SWAP1 DUP4 PUSH20 0xFFFFFFFFFFFFFFFFFFFFFFFFFFFFFFFFFFFFFFFF AND MUL OR SWAP1 SSTORE POP PUSH1 0x2 PUSH1 0x14 DUP2 DUP2 SWAP1 SLOAD SWAP1 PUSH2 0x100 EXP SWAP1 DIV PUSH1 0xFF AND DUP1 SWAP3 SWAP2 SWAP1 PUSH2 0xDC2 SWAP1 PUSH2 0x1B66 JUMP JUMPDEST SWAP2 SWAP1 PUSH2 0x100 EXP DUP2 SLOAD DUP2 PUSH1 0xFF MUL NOT AND SWAP1 DUP4 PUSH1 0xFF AND MUL OR SWAP1 SSTORE POP POP PUSH1 0x1 SWAP1 POP PUSH2 0xDE5 JUMP JUMPDEST JUMPDEST SWAP2 SWAP1 POP JUMP JUMPDEST PUSH1 0x0 PUSH1 0x3 PUSH1 0x0 SWAP1 SLOAD SWAP1 PUSH2 0x100 EXP SWAP1 DIV PUSH20 0xFFFFFFFFFFFFFFFFFFFFFFFFFFFFFFFFFFFFFFFF AND PUSH20 0xFFFFFFFFFFFFFFFFFFFFFFFFFFFFFFFFFFFFFFFF AND CALLER PUSH20 0xFFFFFFFFFFFFFFFFFFFFFFFFFFFFFFFFFFFFFFFF AND EQ PUSH2 0xE46 JUMPI PUSH1 0x0 DUP1 REVERT JUMPDEST DUP2 PUSH1 0x3 PUSH1 0x14 PUSH2 0x100 EXP DUP2 SLOAD DUP2 PUSH1 0xFF MUL NOT AND SWAP1 DUP4 PUSH1 0xFF AND MUL OR SWAP1 SSTORE POP PUSH1 0x1 SWAP1 POP SWAP2 SWAP1 POP JUMP JUMPDEST PUSH2 0xE72 PUSH2 0x170F JUMP JUMPDEST PUSH2 0xE7A PUSH2 0x170F JUMP JUMPDEST PUSH1 0x2 PUSH1 0x14 SWAP1 SLOAD SWAP1 PUSH2 0x100 EXP SWAP1 DIV PUSH1 0xFF AND DUP2 PUSH1 0x0 ADD SWAP1 PUSH1 0xFF AND SWAP1 DUP2 PUSH1 0xFF AND DUP2 MSTORE POP POP PUSH1 0x2 PUSH1 0x15 SWAP1 SLOAD SWAP1 PUSH2 0x100 EXP SWAP1 DIV PUSH1 0xFF AND DUP2 PUSH1 0x20 ADD SWAP1 PUSH1 0xFF AND SWAP1 DUP2 PUSH1 0xFF AND DUP2 MSTORE POP POP PUSH1 0x2 PUSH1 0x16 SWAP1 SLOAD SWAP1 PUSH2 0x100 EXP SWAP1 DIV PUSH1 0xFF AND DUP2 PUSH1 0x40 ADD SWAP1 PUSH1 0xFF AND SWAP1 DUP2 PUSH1 0xFF AND DUP2 MSTORE POP POP PUSH1 0x2 PUSH1 0x17 SWAP1 SLOAD SWAP1 PUSH2 0x100 EXP SWAP1 DIV PUSH1 0xFF AND DUP2 PUSH1 0x60 ADD SWAP1 PUSH1 0xFF AND SWAP1 DUP2 PUSH1 0xFF AND DUP2 MSTORE POP POP PUSH1 0x2 PUSH1 0x18 SWAP1 SLOAD SWAP1 PUSH2 0x100 EXP SWAP1 DIV PUSH1 0xFF AND DUP2 PUSH1 0x80 ADD SWAP1 PUSH1 0xFF AND SWAP1 DUP2 PUSH1 0xFF AND DUP2 MSTORE POP POP PUSH1 0x2 PUSH1 0x19 SWAP1 SLOAD SWAP1 PUSH2 0x100 EXP SWAP1 DIV PUSH1 0xFF AND DUP2 PUSH1 0xA0 ADD SWAP1 PUSH1 0xFF AND SWAP1 DUP2 PUSH1 0xFF AND DUP2 MSTORE POP POP PUSH1 0x2 PUSH1 0x1A SWAP1 SLOAD SWAP1 PUSH2 0x100 EXP SWAP1 DIV PUSH1 0xFF AND DUP2 PUSH1 0xC0 ADD SWAP1 PUSH1 0xFF AND SWAP1 DUP2 PUSH1 0xFF AND DUP2 MSTORE POP POP PUSH1 0x2 PUSH1 0x1B SWAP1 SLOAD SWAP1 PUSH2 0x100 EXP SWAP1 DIV PUSH1 0xFF AND DUP2 PUSH1 0xE0 ADD SWAP1 PUSH1 0xFF AND SWAP1 DUP2 PUSH1 0xFF AND DUP2 MSTORE POP POP PUSH1 0x3 PUSH1 0x0 SWAP1 SLOAD SWAP1 PUSH2 0x100 EXP SWAP1 DIV PUSH20 0xFFFFFFFFFFFFFFFFFFFFFFFFFFFFFFFFFFFFFFFF AND DUP2 PUSH2 0x100 ADD SWAP1 PUSH20 0xFFFFFFFFFFFFFFFFFFFFFFFFFFFFFFFFFFFFFFFF AND SWAP1 DUP2 PUSH20 0xFFFFFFFFFFFFFFFFFFFFFFFFFFFFFFFFFFFFFFFF AND DUP2 MSTORE POP POP PUSH1 0x3 PUSH1 0x14 SWAP1 SLOAD SWAP1 PUSH2 0x100 EXP SWAP1 DIV PUSH1 0xFF AND DUP2 PUSH2 0x120 ADD SWAP1 PUSH1 0xFF AND SWAP1 DUP2 PUSH1 0xFF AND DUP2 MSTORE POP POP DUP1 SWAP2 POP POP SWAP1 JUMP JUMPDEST PUSH1 0x0 PUSH1 0x1 DUP3 EQ ISZERO PUSH2 0x1039 JUMPI PUSH1 0x0 DUP1 SLOAD SWAP1 PUSH2 0x100 EXP SWAP1 DIV PUSH20 0xFFFFFFFFFFFFFFFFFFFFFFFFFFFFFFFFFFFFFFFF AND SWAP1 POP PUSH2 0x10A4 JUMP JUMPDEST PUSH1 0x2 DUP3 EQ ISZERO PUSH2 0x106C JUMPI PUSH1 0x1 PUSH1 0x0 SWAP1 SLOAD SWAP1 PUSH2 0x100 EXP SWAP1 DIV PUSH20 0xFFFFFFFFFFFFFFFFFFFFFFFFFFFFFFFFFFFFFFFF AND SWAP1 POP PUSH2 0x10A4 JUMP JUMPDEST PUSH1 0x3 DUP3 EQ ISZERO PUSH2 0x109F JUMPI PUSH1 0x2 PUSH1 0x0 SWAP1 SLOAD SWAP1 PUSH2 0x100 EXP SWAP1 DIV PUSH20 0xFFFFFFFFFFFFFFFFFFFFFFFFFFFFFFFFFFFFFFFF AND SWAP1 POP PUSH2 0x10A4 JUMP JUMPDEST PUSH1 0x0 SWAP1 POP JUMPDEST SWAP2 SWAP1 POP JUMP JUMPDEST PUSH1 0x60 DUP2 PUSH20 0xFFFFFFFFFFFFFFFFFFFFFFFFFFFFFFFFFFFFFFFF AND PUSH1 0x3 PUSH1 0x0 SWAP1 SLOAD SWAP1 PUSH2 0x100 EXP SWAP1 DIV PUSH20 0xFFFFFFFFFFFFFFFFFFFFFFFFFFFFFFFFFFFFFFFF AND PUSH20 0xFFFFFFFFFFFFFFFFFFFFFFFFFFFFFFFFFFFFFFFF AND EQ ISZERO PUSH2 0x113E JUMPI PUSH1 0x40 MLOAD DUP1 PUSH1 0x40 ADD PUSH1 0x40 MSTORE DUP1 PUSH1 0x9 DUP2 MSTORE PUSH1 0x20 ADD PUSH32 0x7265616C4F776E65720000000000000000000000000000000000000000000000 DUP2 MSTORE POP SWAP1 POP PUSH2 0x1177 JUMP JUMPDEST PUSH1 0x40 MLOAD DUP1 PUSH1 0x40 ADD PUSH1 0x40 MSTORE DUP1 PUSH1 0xD DUP2 MSTORE PUSH1 0x20 ADD PUSH32 0x4E6F74207265616C4F776E657200000000000000000000000000000000000000 DUP2 MSTORE POP SWAP1 POP JUMPDEST SWAP2 SWAP1 POP JUMP JUMPDEST PUSH1 0x0 DUP1 SLOAD SWAP1 PUSH2 0x100 EXP SWAP1 DIV PUSH20 0xFFFFFFFFFFFFFFFFFFFFFFFFFFFFFFFFFFFFFFFF AND PUSH20 0xFFFFFFFFFFFFFFFFFFFFFFFFFFFFFFFFFFFFFFFF AND CALLER PUSH20 0xFFFFFFFFFFFFFFFFFFFFFFFFFFFFFFFFFFFFFFFF AND EQ DUP1 PUSH2 0x1223 JUMPI POP PUSH1 0x1 PUSH1 0x0 SWAP1 SLOAD SWAP1 PUSH2 0x100 EXP SWAP1 DIV PUSH20 0xFFFFFFFFFFFFFFFFFFFFFFFFFFFFFFFFFFFFFFFF AND PUSH20 0xFFFFFFFFFFFFFFFFFFFFFFFFFFFFFFFFFFFFFFFF AND CALLER PUSH20 0xFFFFFFFFFFFFFFFFFFFFFFFFFFFFFFFFFFFFFFFF AND EQ JUMPDEST DUP1 PUSH2 0x127B JUMPI POP PUSH1 0x2 PUSH1 0x0 SWAP1 SLOAD SWAP1 PUSH2 0x100 EXP SWAP1 DIV PUSH20 0xFFFFFFFFFFFFFFFFFFFFFFFFFFFFFFFFFFFFFFFF AND PUSH20 0xFFFFFFFFFFFFFFFFFFFFFFFFFFFFFFFFFFFFFFFF AND CALLER PUSH20 0xFFFFFFFFFFFFFFFFFFFFFFFFFFFFFFFFFFFFFFFF AND EQ JUMPDEST PUSH2 0x1284 JUMPI PUSH1 0x0 DUP1 REVERT JUMPDEST PUSH1 0x0 DUP1 SLOAD SWAP1 PUSH2 0x100 EXP SWAP1 DIV PUSH20 0xFFFFFFFFFFFFFFFFFFFFFFFFFFFFFFFFFFFFFFFF AND PUSH20 0xFFFFFFFFFFFFFFFFFFFFFFFFFFFFFFFFFFFFFFFF AND DUP2 PUSH20 0xFFFFFFFFFFFFFFFFFFFFFFFFFFFFFFFFFFFFFFFF AND EQ ISZERO DUP1 ISZERO PUSH2 0x132E JUMPI POP PUSH1 0x1 PUSH1 0x0 SWAP1 SLOAD SWAP1 PUSH2 0x100 EXP SWAP1 DIV PUSH20 0xFFFFFFFFFFFFFFFFFFFFFFFFFFFFFFFFFFFFFFFF AND PUSH20 0xFFFFFFFFFFFFFFFFFFFFFFFFFFFFFFFFFFFFFFFF AND DUP2 PUSH20 0xFFFFFFFFFFFFFFFFFFFFFFFFFFFFFFFFFFFFFFFF AND EQ ISZERO JUMPDEST DUP1 ISZERO PUSH2 0x1388 JUMPI POP PUSH1 0x2 PUSH1 0x0 SWAP1 SLOAD SWAP1 PUSH2 0x100 EXP SWAP1 DIV PUSH20 0xFFFFFFFFFFFFFFFFFFFFFFFFFFFFFFFFFFFFFFFF AND PUSH20 0xFFFFFFFFFFFFFFFFFFFFFFFFFFFFFFFFFFFFFFFF AND DUP2 PUSH20 0xFFFFFFFFFFFFFFFFFFFFFFFFFFFFFFFFFFFFFFFF AND EQ ISZERO JUMPDEST PUSH2 0x1391 JUMPI PUSH1 0x0 DUP1 REVERT JUMPDEST PUSH1 0x0 PUSH20 0xFFFFFFFFFFFFFFFFFFFFFFFFFFFFFFFFFFFFFFFF AND DUP2 PUSH20 0xFFFFFFFFFFFFFFFFFFFFFFFFFFFFFFFFFFFFFFFF AND EQ ISZERO PUSH2 0x13CB JUMPI PUSH1 0x0 DUP1 REVERT JUMPDEST PUSH1 0x0 DUP1 SLOAD SWAP1 PUSH2 0x100 EXP SWAP1 DIV PUSH20 0xFFFFFFFFFFFFFFFFFFFFFFFFFFFFFFFFFFFFFFFF AND PUSH20 0xFFFFFFFFFFFFFFFFFFFFFFFFFFFFFFFFFFFFFFFF AND CALLER PUSH20 0xFFFFFFFFFFFFFFFFFFFFFFFFFFFFFFFFFFFFFFFF AND EQ ISZERO PUSH2 0x14DE JUMPI DUP1 PUSH1 0x0 DUP1 PUSH2 0x100 EXP DUP2 SLOAD DUP2 PUSH20 0xFFFFFFFFFFFFFFFFFFFFFFFFFFFFFFFFFFFFFFFF MUL NOT AND SWAP1 DUP4 PUSH20 0xFFFFFFFFFFFFFFFFFFFFFFFFFFFFFFFFFFFFFFFF AND MUL OR SWAP1 SSTORE POP DUP1 PUSH20 0xFFFFFFFFFFFFFFFFFFFFFFFFFFFFFFFFFFFFFFFF AND PUSH1 0x0 DUP1 SLOAD SWAP1 PUSH2 0x100 EXP SWAP1 DIV PUSH20 0xFFFFFFFFFFFFFFFFFFFFFFFFFFFFFFFFFFFFFFFF AND PUSH20 0xFFFFFFFFFFFFFFFFFFFFFFFFFFFFFFFFFFFFFFFF AND PUSH32 0x2AE143016ADC0AA482E6BA5D9A350F3E3122AEB005CA4BF47D1D7B8221BCE472 PUSH1 0x40 MLOAD PUSH1 0x40 MLOAD DUP1 SWAP2 SUB SWAP1 LOG3 PUSH2 0x170C JUMP JUMPDEST PUSH1 0x1 PUSH1 0x0 SWAP1 SLOAD SWAP1 PUSH2 0x100 EXP SWAP1 DIV PUSH20 0xFFFFFFFFFFFFFFFFFFFFFFFFFFFFFFFFFFFFFFFF AND PUSH20 0xFFFFFFFFFFFFFFFFFFFFFFFFFFFFFFFFFFFFFFFF AND CALLER PUSH20 0xFFFFFFFFFFFFFFFFFFFFFFFFFFFFFFFFFFFFFFFF AND EQ ISZERO PUSH2 0x15F6 JUMPI DUP1 PUSH1 0x1 PUSH1 0x0 PUSH2 0x100 EXP DUP2 SLOAD DUP2 PUSH20 0xFFFFFFFFFFFFFFFFFFFFFFFFFFFFFFFFFFFFFFFF MUL NOT AND SWAP1 DUP4 PUSH20 0xFFFFFFFFFFFFFFFFFFFFFFFFFFFFFFFFFFFFFFFF AND MUL OR SWAP1 SSTORE POP DUP1 PUSH20 0xFFFFFFFFFFFFFFFFFFFFFFFFFFFFFFFFFFFFFFFF AND PUSH1 0x1 PUSH1 0x0 SWAP1 SLOAD SWAP1 PUSH2 0x100 EXP SWAP1 DIV PUSH20 0xFFFFFFFFFFFFFFFFFFFFFFFFFFFFFFFFFFFFFFFF AND PUSH20 0xFFFFFFFFFFFFFFFFFFFFFFFFFFFFFFFFFFFFFFFF AND PUSH32 0x2AE143016ADC0AA482E6BA5D9A350F3E3122AEB005CA4BF47D1D7B8221BCE472 PUSH1 0x40 MLOAD PUSH1 0x40 MLOAD DUP1 SWAP2 SUB SWAP1 LOG3 PUSH2 0x170B JUMP JUMPDEST PUSH1 0x2 PUSH1 0x0 SWAP1 SLOAD SWAP1 PUSH2 0x100 EXP SWAP1 DIV PUSH20 0xFFFFFFFFFFFFFFFFFFFFFFFFFFFFFFFFFFFFFFFF AND PUSH20 0xFFFFFFFFFFFFFFFFFFFFFFFFFFFFFFFFFFFFFFFF AND CALLER PUSH20 0xFFFFFFFFFFFFFFFFFFFFFFFFFFFFFFFFFFFFFFFF AND EQ ISZERO PUSH2 0x170A JUMPI DUP1 PUSH1 0x2 PUSH1 0x0 PUSH2 0x100 EXP DUP2 SLOAD DUP2 PUSH20 0xFFFFFFFFFFFFFFFFFFFFFFFFFFFFFFFFFFFFFFFF MUL NOT AND SWAP1 DUP4 PUSH20 0xFFFFFFFFFFFFFFFFFFFFFFFFFFFFFFFFFFFFFFFF AND MUL OR SWAP1 SSTORE POP DUP1 PUSH20 0xFFFFFFFFFFFFFFFFFFFFFFFFFFFFFFFFFFFFFFFF AND PUSH1 0x2 PUSH1 0x0 SWAP1 SLOAD SWAP1 PUSH2 0x100 EXP SWAP1 DIV PUSH20 0xFFFFFFFFFFFFFFFFFFFFFFFFFFFFFFFFFFFFFFFF AND PUSH20 0xFFFFFFFFFFFFFFFFFFFFFFFFFFFFFFFFFFFFFFFF AND PUSH32 0x2AE143016ADC0AA482E6BA5D9A350F3E3122AEB005CA4BF47D1D7B8221BCE472 PUSH1 0x40 MLOAD PUSH1 0x40 MLOAD DUP1 SWAP2 SUB SWAP1 LOG3 JUMPDEST JUMPDEST JUMPDEST POP JUMP JUMPDEST PUSH1 0x40 MLOAD DUP1 PUSH2 0x140 ADD PUSH1 0x40 MSTORE DUP1 PUSH1 0x0 PUSH1 0xFF AND DUP2 MSTORE PUSH1 0x20 ADD PUSH1 0x0 PUSH1 0xFF AND DUP2 MSTORE PUSH1 0x20 ADD PUSH1 0x0 PUSH1 0xFF AND DUP2 MSTORE PUSH1 0x20 ADD PUSH1 0x0 PUSH1 0xFF AND DUP2 MSTORE PUSH1 0x20 ADD PUSH1 0x0 PUSH1 0xFF AND DUP2 MSTORE PUSH1 0x20 ADD PUSH1 0x0 PUSH1 0xFF AND DUP2 MSTORE PUSH1 0x20 ADD PUSH1 0x0 PUSH1 0xFF AND DUP2 MSTORE PUSH1 0x20 ADD PUSH1 0x0 PUSH1 0xFF AND DUP2 MSTORE PUSH1 0x20 ADD PUSH1 0x0 PUSH20 0xFFFFFFFFFFFFFFFFFFFFFFFFFFFFFFFFFFFFFFFF AND DUP2 MSTORE PUSH1 0x20 ADD PUSH1 0x0 PUSH1 0xFF AND DUP2 MSTORE POP SWAP1 JUMP JUMPDEST PUSH1 0x0 DUP1 REVERT JUMPDEST PUSH1 0x0 DUP2 SWAP1 POP SWAP2 SWAP1 POP JUMP JUMPDEST PUSH2 0x17AB DUP2 PUSH2 0x1798 JUMP JUMPDEST DUP2 EQ PUSH2 0x17B6 JUMPI PUSH1 0x0 DUP1 REVERT JUMPDEST POP JUMP JUMPDEST PUSH1 0x0 DUP2 CALLDATALOAD SWAP1 POP PUSH2 0x17C8 DUP2 PUSH2 0x17A2 JUMP JUMPDEST SWAP3 SWAP2 POP POP JUMP JUMPDEST PUSH1 0x0 PUSH1 0x20 DUP3 DUP5 SUB SLT ISZERO PUSH2 0x17E4 JUMPI PUSH2 0x17E3 PUSH2 0x1793 JUMP JUMPDEST JUMPDEST PUSH1 0x0 PUSH2 0x17F2 DUP5 DUP3 DUP6 ADD PUSH2 0x17B9 JUMP JUMPDEST SWAP2 POP POP SWAP3 SWAP2 POP POP JUMP JUMPDEST PUSH1 0x0 DUP2 ISZERO ISZERO SWAP1 POP SWAP2 SWAP1 POP JUMP JUMPDEST PUSH2 0x1810 DUP2 PUSH2 0x17FB JUMP JUMPDEST DUP3 MSTORE POP POP JUMP JUMPDEST PUSH1 0x0 PUSH1 0x20 DUP3 ADD SWAP1 POP PUSH2 0x182B PUSH1 0x0 DUP4 ADD DUP5 PUSH2 0x1807 JUMP JUMPDEST SWAP3 SWAP2 POP POP JUMP JUMPDEST PUSH1 0x0 PUSH1 0xFF DUP3 AND SWAP1 POP SWAP2 SWAP1 POP JUMP JUMPDEST PUSH2 0x1847 DUP2 PUSH2 0x1831 JUMP JUMPDEST DUP3 MSTORE POP POP JUMP JUMPDEST PUSH1 0x0 PUSH1 0x20 DUP3 ADD SWAP1 POP PUSH2 0x1862 PUSH1 0x0 DUP4 ADD DUP5 PUSH2 0x183E JUMP JUMPDEST SWAP3 SWAP2 POP POP JUMP JUMPDEST PUSH1 0x0 PUSH20 0xFFFFFFFFFFFFFFFFFFFFFFFFFFFFFFFFFFFFFFFF DUP3 AND SWAP1 POP SWAP2 SWAP1 POP JUMP JUMPDEST PUSH1 0x0 PUSH2 0x1893 DUP3 PUSH2 0x1868 JUMP JUMPDEST SWAP1 POP SWAP2 SWAP1 POP JUMP JUMPDEST PUSH2 0x18A3 DUP2 PUSH2 0x1888 JUMP JUMPDEST DUP2 EQ PUSH2 0x18AE JUMPI PUSH1 0x0 DUP1 REVERT JUMPDEST POP JUMP JUMPDEST PUSH1 0x0 DUP2 CALLDATALOAD SWAP1 POP PUSH2 0x18C0 DUP2 PUSH2 0x189A JUMP JUMPDEST SWAP3 SWAP2 POP POP JUMP JUMPDEST PUSH1 0x0 PUSH1 0x20 DUP3 DUP5 SUB SLT ISZERO PUSH2 0x18DC JUMPI PUSH2 0x18DB PUSH2 0x1793 JUMP JUMPDEST JUMPDEST PUSH1 0x0 PUSH2 0x18EA DUP5 DUP3 DUP6 ADD PUSH2 0x18B1 JUMP JUMPDEST SWAP2 POP POP SWAP3 SWAP2 POP POP JUMP JUMPDEST PUSH2 0x18FC DUP2 PUSH2 0x1831 JUMP JUMPDEST DUP2 EQ PUSH2 0x1907 JUMPI PUSH1 0x0 DUP1 REVERT JUMPDEST POP JUMP JUMPDEST PUSH1 0x0 DUP2 CALLDATALOAD SWAP1 POP PUSH2 0x1919 DUP2 PUSH2 0x18F3 JUMP JUMPDEST SWAP3 SWAP2 POP POP JUMP JUMPDEST PUSH1 0x0 PUSH1 0x20 DUP3 DUP5 SUB SLT ISZERO PUSH2 0x1935 JUMPI PUSH2 0x1934 PUSH2 0x1793 JUMP JUMPDEST JUMPDEST PUSH1 0x0 PUSH2 0x1943 DUP5 DUP3 DUP6 ADD PUSH2 0x190A JUMP JUMPDEST SWAP2 POP POP SWAP3 SWAP2 POP POP JUMP JUMPDEST PUSH2 0x1955 DUP2 PUSH2 0x1831 JUMP JUMPDEST DUP3 MSTORE POP POP JUMP JUMPDEST PUSH2 0x1964 DUP2 PUSH2 0x1888 JUMP JUMPDEST DUP3 MSTORE POP POP JUMP JUMPDEST PUSH2 0x140 DUP3 ADD PUSH1 0x0 DUP3 ADD MLOAD PUSH2 0x1981 PUSH1 0x0 DUP6 ADD DUP3 PUSH2 0x194C JUMP JUMPDEST POP PUSH1 0x20 DUP3 ADD MLOAD PUSH2 0x1994 PUSH1 0x20 DUP6 ADD DUP3 PUSH2 0x194C JUMP JUMPDEST POP PUSH1 0x40 DUP3 ADD MLOAD PUSH2 0x19A7 PUSH1 0x40 DUP6 ADD DUP3 PUSH2 0x194C JUMP JUMPDEST POP PUSH1 0x60 DUP3 ADD MLOAD PUSH2 0x19BA PUSH1 0x60 DUP6 ADD DUP3 PUSH2 0x194C JUMP JUMPDEST POP PUSH1 0x80 DUP3 ADD MLOAD PUSH2 0x19CD PUSH1 0x80 DUP6 ADD DUP3 PUSH2 0x194C JUMP JUMPDEST POP PUSH1 0xA0 DUP3 ADD MLOAD PUSH2 0x19E0 PUSH1 0xA0 DUP6 ADD DUP3 PUSH2 0x194C JUMP JUMPDEST POP PUSH1 0xC0 DUP3 ADD MLOAD PUSH2 0x19F3 PUSH1 0xC0 DUP6 ADD DUP3 PUSH2 0x194C JUMP JUMPDEST POP PUSH1 0xE0 DUP3 ADD MLOAD PUSH2 0x1A06 PUSH1 0xE0 DUP6 ADD DUP3 PUSH2 0x194C JUMP JUMPDEST POP PUSH2 0x100 DUP3 ADD MLOAD PUSH2 0x1A1B PUSH2 0x100 DUP6 ADD DUP3 PUSH2 0x195B JUMP JUMPDEST POP PUSH2 0x120 DUP3 ADD MLOAD PUSH2 0x1A30 PUSH2 0x120 DUP6 ADD DUP3 PUSH2 0x194C JUMP JUMPDEST POP POP POP POP JUMP JUMPDEST PUSH1 0x0 PUSH2 0x140 DUP3 ADD SWAP1 POP PUSH2 0x1A4C PUSH1 0x0 DUP4 ADD DUP5 PUSH2 0x196A JUMP JUMPDEST SWAP3 SWAP2 POP POP JUMP JUMPDEST PUSH2 0x1A5B DUP2 PUSH2 0x1888 JUMP JUMPDEST DUP3 MSTORE POP POP JUMP JUMPDEST PUSH1 0x0 PUSH1 0x20 DUP3 ADD SWAP1 POP PUSH2 0x1A76 PUSH1 0x0 DUP4 ADD DUP5 PUSH2 0x1A52 JUMP JUMPDEST SWAP3 SWAP2 POP POP JUMP JUMPDEST PUSH1 0x0 DUP2 MLOAD SWAP1 POP SWAP2 SWAP1 POP JUMP JUMPDEST PUSH1 0x0 DUP3 DUP3 MSTORE PUSH1 0x20 DUP3 ADD SWAP1 POP SWAP3 SWAP2 POP POP JUMP JUMPDEST PUSH1 0x0 JUMPDEST DUP4 DUP2 LT ISZERO PUSH2 0x1AB6 JUMPI DUP1 DUP3 ADD MLOAD DUP2 DUP5 ADD MSTORE PUSH1 0x20 DUP2 ADD SWAP1 POP PUSH2 0x1A9B JUMP JUMPDEST DUP4 DUP2 GT ISZERO PUSH2 0x1AC5 JUMPI PUSH1 0x0 DUP5 DUP5 ADD MSTORE JUMPDEST POP POP POP POP JUMP JUMPDEST PUSH1 0x0 PUSH1 0x1F NOT PUSH1 0x1F DUP4 ADD AND SWAP1 POP SWAP2 SWAP1 POP JUMP JUMPDEST PUSH1 0x0 PUSH2 0x1AE7 DUP3 PUSH2 0x1A7C JUMP JUMPDEST PUSH2 0x1AF1 DUP2 DUP6 PUSH2 0x1A87 JUMP JUMPDEST SWAP4 POP PUSH2 0x1B01 DUP2 DUP6 PUSH1 0x20 DUP7 ADD PUSH2 0x1A98 JUMP JUMPDEST PUSH2 0x1B0A DUP2 PUSH2 0x1ACB JUMP JUMPDEST DUP5 ADD SWAP2 POP POP SWAP3 SWAP2 POP POP JUMP JUMPDEST PUSH1 0x0 PUSH1 0x20 DUP3 ADD SWAP1 POP DUP2 DUP2 SUB PUSH1 0x0 DUP4 ADD MSTORE PUSH2 0x1B2F DUP2 DUP5 PUSH2 0x1ADC JUMP JUMPDEST SWAP1 POP SWAP3 SWAP2 POP POP JUMP JUMPDEST PUSH32 0x4E487B7100000000000000000000000000000000000000000000000000000000 PUSH1 0x0 MSTORE PUSH1 0x11 PUSH1 0x4 MSTORE PUSH1 0x24 PUSH1 0x0 REVERT JUMPDEST PUSH1 0x0 PUSH2 0x1B71 DUP3 PUSH2 0x1831 JUMP JUMPDEST SWAP2 POP PUSH1 0xFF DUP3 EQ ISZERO PUSH2 0x1B85 JUMPI PUSH2 0x1B84 PUSH2 0x1B37 JUMP JUMPDEST JUMPDEST PUSH1 0x1 DUP3 ADD SWAP1 POP SWAP2 SWAP1 POP JUMP INVALID LOG2 PUSH5 0x6970667358 0x22 SLT KECCAK256 LOG0 SWAP8 OR SUB 0xB9 CREATE2 MSIZE 0xC4 PUSH16 0x4836BA56E1CE2B000573E06AE12FEDE3 BLOCKHASH 0x4B NOT SWAP11 0x4C EXP JUMP PUSH5 0x736F6C6343 STOP ADDMOD EXP STOP CALLER "
				},
				"gasEstimates": {
					"creation": {
						"codeDepositCost": "1422000",
						"executionCost": "244606",
						"totalCost": "1666606"
					},
					"external": {
						"becomeOwner(address)": "67050",
						"getStatus()": "infinite",
						"getValue()": "2552",
						"setValue(uint8)": "27168",
						"showOwner(uint256)": "2898",
						"showRealOwner(address)": "infinite",
						"transferOwnership(address)": "48077",
						"vote(uint256)": "infinite"
					}
				},
				"methodIdentifiers": {
					"becomeOwner(address)": "2bad96ba",
					"getStatus()": "4e69d560",
					"getValue()": "20965255",
					"setValue(uint8)": "4c111ff8",
					"showOwner(uint256)": "74a29267",
					"showRealOwner(address)": "7594a9e6",
					"transferOwnership(address)": "f2fde38b",
					"vote(uint256)": "0121b93f"
				}
			},
			"userdoc": {
				"kind": "user",
				"methods": {},
				"version": 1
			}
		}
	}
}